{
	"contracts/ForAndWhileLoops.sol": {
		"ForAndWhileLoops": {
			"abi": [
				{
					"inputs": [],
					"name": "loops",
					"outputs": [],
					"stateMutability": "pure",
					"type": "function"
				},
				{
					"inputs": [
						{
							"internalType": "uint256",
							"name": "_n",
							"type": "uint256"
						}
					],
					"name": "sum",
					"outputs": [
						{
							"internalType": "uint256",
							"name": "",
							"type": "uint256"
						}
					],
					"stateMutability": "pure",
					"type": "function"
				}
			],
			"devdoc": {
				"kind": "dev",
				"methods": {},
				"version": 1
			},
			"evm": {
				"assembly": "    /* \"contracts/ForAndWhileLoops.sol\":58:492  contract ForAndWhileLoops {... */\n  mstore(0x40, 0x80)\n  callvalue\n  dup1\n  iszero\n  tag_1\n  jumpi\n  0x00\n  dup1\n  revert\ntag_1:\n  pop\n  dataSize(sub_0)\n  dup1\n  dataOffset(sub_0)\n  0x00\n  codecopy\n  0x00\n  return\nstop\n\nsub_0: assembly {\n        /* \"contracts/ForAndWhileLoops.sol\":58:492  contract ForAndWhileLoops {... */\n      mstore(0x40, 0x80)\n      callvalue\n      dup1\n      iszero\n      tag_1\n      jumpi\n      0x00\n      dup1\n      revert\n    tag_1:\n      pop\n      jumpi(tag_2, lt(calldatasize, 0x04))\n      shr(0xe0, calldataload(0x00))\n      dup1\n      0x188b85b4\n      eq\n      tag_3\n      jumpi\n      dup1\n      0x938b9ceb\n      eq\n      tag_4\n      jumpi\n    tag_2:\n      0x00\n      dup1\n      revert\n        /* \"contracts/ForAndWhileLoops.sol\":381:490  function sum(uint _n) external pure returns (uint) {... */\n    tag_3:\n      tag_5\n      0x04\n      dup1\n      calldatasize\n      sub\n      dup2\n      add\n      swap1\n      tag_6\n      swap2\n      swap1\n      tag_7\n      jump\t// in\n    tag_6:\n      tag_8\n      jump\t// in\n    tag_5:\n      mload(0x40)\n      tag_9\n      swap2\n      swap1\n      tag_10\n      jump\t// in\n    tag_9:\n      mload(0x40)\n      dup1\n      swap2\n      sub\n      swap1\n      return\n        /* \"contracts/ForAndWhileLoops.sol\":90:375  function loops() external pure {... */\n    tag_4:\n      tag_11\n      tag_12\n      jump\t// in\n    tag_11:\n      stop\n        /* \"contracts/ForAndWhileLoops.sol\":381:490  function sum(uint _n) external pure returns (uint) {... */\n    tag_8:\n        /* \"contracts/ForAndWhileLoops.sol\":426:430  uint */\n      0x00\n        /* \"contracts/ForAndWhileLoops.sol\":446:452  uint i */\n      dup1\n        /* \"contracts/ForAndWhileLoops.sol\":455:456  0 */\n      0x00\n        /* \"contracts/ForAndWhileLoops.sol\":446:456  uint i = 0 */\n      swap1\n      pop\n        /* \"contracts/ForAndWhileLoops.sol\":442:484  for(uint i = 0; i <= _n; i++) {... */\n    tag_14:\n        /* \"contracts/ForAndWhileLoops.sol\":463:465  _n */\n      dup3\n        /* \"contracts/ForAndWhileLoops.sol\":458:459  i */\n      dup2\n        /* \"contracts/ForAndWhileLoops.sol\":458:465  i <= _n */\n      gt\n        /* \"contracts/ForAndWhileLoops.sol\":442:484  for(uint i = 0; i <= _n; i++) {... */\n      tag_15\n      jumpi\n        /* \"contracts/ForAndWhileLoops.sol\":467:470  i++ */\n      dup1\n      dup1\n      tag_17\n      swap1\n      tag_18\n      jump\t// in\n    tag_17:\n      swap2\n      pop\n      pop\n        /* \"contracts/ForAndWhileLoops.sol\":442:484  for(uint i = 0; i <= _n; i++) {... */\n      jump(tag_14)\n    tag_15:\n      pop\n        /* \"contracts/ForAndWhileLoops.sol\":381:490  function sum(uint _n) external pure returns (uint) {... */\n      swap2\n      swap1\n      pop\n      jump\t// out\n        /* \"contracts/ForAndWhileLoops.sol\":90:375  function loops() external pure {... */\n    tag_12:\n        /* \"contracts/ForAndWhileLoops.sol\":135:141  uint i */\n      0x00\n        /* \"contracts/ForAndWhileLoops.sol\":131:298  for(uint i = 0; i < 10; i++) {... */\n    tag_20:\n        /* \"contracts/ForAndWhileLoops.sol\":151:153  10 */\n      0x0a\n        /* \"contracts/ForAndWhileLoops.sol\":147:148  i */\n      dup2\n        /* \"contracts/ForAndWhileLoops.sol\":147:153  i < 10 */\n      lt\n        /* \"contracts/ForAndWhileLoops.sol\":131:298  for(uint i = 0; i < 10; i++) {... */\n      iszero\n      tag_21\n      jumpi\n        /* \"contracts/ForAndWhileLoops.sol\":181:182  3 */\n      0x03\n        /* \"contracts/ForAndWhileLoops.sol\":177:178  i */\n      dup2\n        /* \"contracts/ForAndWhileLoops.sol\":177:182  i < 3 */\n      lt\n        /* \"contracts/ForAndWhileLoops.sol\":174:225  if(i < 3) {... */\n      iszero\n      tag_23\n      jumpi\n        /* \"contracts/ForAndWhileLoops.sol\":202:210  continue */\n      jump(tag_22)\n        /* \"contracts/ForAndWhileLoops.sol\":174:225  if(i < 3) {... */\n    tag_23:\n        /* \"contracts/ForAndWhileLoops.sol\":247:248  5 */\n      0x05\n        /* \"contracts/ForAndWhileLoops.sol\":242:243  i */\n      dup2\n        /* \"contracts/ForAndWhileLoops.sol\":242:248  i == 5 */\n      eq\n        /* \"contracts/ForAndWhileLoops.sol\":239:288  if(i == 5) {... */\n      iszero\n      tag_24\n      jumpi\n        /* \"contracts/ForAndWhileLoops.sol\":268:273  break */\n      jump(tag_21)\n        /* \"contracts/ForAndWhileLoops.sol\":239:288  if(i == 5) {... */\n    tag_24:\n        /* \"contracts/ForAndWhileLoops.sol\":131:298  for(uint i = 0; i < 10; i++) {... */\n    tag_22:\n        /* \"contracts/ForAndWhileLoops.sol\":155:158  i++ */\n      dup1\n      dup1\n      tag_25\n      swap1\n      tag_18\n      jump\t// in\n    tag_25:\n      swap2\n      pop\n      pop\n        /* \"contracts/ForAndWhileLoops.sol\":131:298  for(uint i = 0; i < 10; i++) {... */\n      jump(tag_20)\n    tag_21:\n      pop\n        /* \"contracts/ForAndWhileLoops.sol\":308:314  uint j */\n      0x00\n        /* \"contracts/ForAndWhileLoops.sol\":328:369  while(j < 3) {... */\n    tag_26:\n        /* \"contracts/ForAndWhileLoops.sol\":338:339  3 */\n      0x03\n        /* \"contracts/ForAndWhileLoops.sol\":334:335  j */\n      dup2\n        /* \"contracts/ForAndWhileLoops.sol\":334:339  j < 3 */\n      lt\n        /* \"contracts/ForAndWhileLoops.sol\":328:369  while(j < 3) {... */\n      iszero\n      tag_27\n      jumpi\n        /* \"contracts/ForAndWhileLoops.sol\":355:358  j++ */\n      dup1\n      dup1\n      tag_28\n      swap1\n      tag_18\n      jump\t// in\n    tag_28:\n      swap2\n      pop\n      pop\n        /* \"contracts/ForAndWhileLoops.sol\":328:369  while(j < 3) {... */\n      jump(tag_26)\n    tag_27:\n        /* \"contracts/ForAndWhileLoops.sol\":121:375  {... */\n      pop\n        /* \"contracts/ForAndWhileLoops.sol\":90:375  function loops() external pure {... */\n      jump\t// out\n        /* \"#utility.yul\":7:146   */\n    tag_30:\n        /* \"#utility.yul\":53:58   */\n      0x00\n        /* \"#utility.yul\":91:97   */\n      dup2\n        /* \"#utility.yul\":78:98   */\n      calldataload\n        /* \"#utility.yul\":69:98   */\n      swap1\n      pop\n        /* \"#utility.yul\":107:140   */\n      tag_32\n        /* \"#utility.yul\":134:139   */\n      dup2\n        /* \"#utility.yul\":107:140   */\n      tag_33\n      jump\t// in\n    tag_32:\n        /* \"#utility.yul\":7:146   */\n      swap3\n      swap2\n      pop\n      pop\n      jump\t// out\n        /* \"#utility.yul\":152:481   */\n    tag_7:\n        /* \"#utility.yul\":211:217   */\n      0x00\n        /* \"#utility.yul\":260:262   */\n      0x20\n        /* \"#utility.yul\":248:257   */\n      dup3\n        /* \"#utility.yul\":239:246   */\n      dup5\n        /* \"#utility.yul\":235:258   */\n      sub\n        /* \"#utility.yul\":231:263   */\n      slt\n        /* \"#utility.yul\":228:347   */\n      iszero\n      tag_35\n      jumpi\n        /* \"#utility.yul\":266:345   */\n      tag_36\n      tag_37\n      jump\t// in\n    tag_36:\n        /* \"#utility.yul\":228:347   */\n    tag_35:\n        /* \"#utility.yul\":386:387   */\n      0x00\n        /* \"#utility.yul\":411:464   */\n      tag_38\n        /* \"#utility.yul\":456:463   */\n      dup5\n        /* \"#utility.yul\":447:453   */\n      dup3\n        /* \"#utility.yul\":436:445   */\n      dup6\n        /* \"#utility.yul\":432:454   */\n      add\n        /* \"#utility.yul\":411:464   */\n      tag_30\n      jump\t// in\n    tag_38:\n        /* \"#utility.yul\":401:464   */\n      swap2\n      pop\n        /* \"#utility.yul\":357:474   */\n      pop\n        /* \"#utility.yul\":152:481   */\n      swap3\n      swap2\n      pop\n      pop\n      jump\t// out\n        /* \"#utility.yul\":487:605   */\n    tag_39:\n        /* \"#utility.yul\":574:598   */\n      tag_41\n        /* \"#utility.yul\":592:597   */\n      dup2\n        /* \"#utility.yul\":574:598   */\n      tag_42\n      jump\t// in\n    tag_41:\n        /* \"#utility.yul\":569:572   */\n      dup3\n        /* \"#utility.yul\":562:599   */\n      mstore\n        /* \"#utility.yul\":487:605   */\n      pop\n      pop\n      jump\t// out\n        /* \"#utility.yul\":611:833   */\n    tag_10:\n        /* \"#utility.yul\":704:708   */\n      0x00\n        /* \"#utility.yul\":742:744   */\n      0x20\n        /* \"#utility.yul\":731:740   */\n      dup3\n        /* \"#utility.yul\":727:745   */\n      add\n        /* \"#utility.yul\":719:745   */\n      swap1\n      pop\n        /* \"#utility.yul\":755:826   */\n      tag_44\n        /* \"#utility.yul\":823:824   */\n      0x00\n        /* \"#utility.yul\":812:821   */\n      dup4\n        /* \"#utility.yul\":808:825   */\n      add\n        /* \"#utility.yul\":799:805   */\n      dup5\n        /* \"#utility.yul\":755:826   */\n      tag_39\n      jump\t// in\n    tag_44:\n        /* \"#utility.yul\":611:833   */\n      swap3\n      swap2\n      pop\n      pop\n      jump\t// out\n        /* \"#utility.yul\":920:997   */\n    tag_42:\n        /* \"#utility.yul\":957:964   */\n      0x00\n        /* \"#utility.yul\":986:991   */\n      dup2\n        /* \"#utility.yul\":975:991   */\n      swap1\n      pop\n        /* \"#utility.yul\":920:997   */\n      swap2\n      swap1\n      pop\n      jump\t// out\n        /* \"#utility.yul\":1003:1236   */\n    tag_18:\n        /* \"#utility.yul\":1042:1045   */\n      0x00\n        /* \"#utility.yul\":1065:1089   */\n      tag_49\n        /* \"#utility.yul\":1083:1088   */\n      dup3\n        /* \"#utility.yul\":1065:1089   */\n      tag_42\n      jump\t// in\n    tag_49:\n        /* \"#utility.yul\":1056:1089   */\n      swap2\n      pop\n        /* \"#utility.yul\":1111:1177   */\n      0xffffffffffffffffffffffffffffffffffffffffffffffffffffffffffffffff\n        /* \"#utility.yul\":1104:1109   */\n      dup3\n        /* \"#utility.yul\":1101:1178   */\n      eq\n        /* \"#utility.yul\":1098:1201   */\n      iszero\n      tag_50\n      jumpi\n        /* \"#utility.yul\":1181:1199   */\n      tag_51\n      tag_52\n      jump\t// in\n    tag_51:\n        /* \"#utility.yul\":1098:1201   */\n    tag_50:\n        /* \"#utility.yul\":1228:1229   */\n      0x01\n        /* \"#utility.yul\":1221:1226   */\n      dup3\n        /* \"#utility.yul\":1217:1230   */\n      add\n        /* \"#utility.yul\":1210:1230   */\n      swap1\n      pop\n        /* \"#utility.yul\":1003:1236   */\n      swap2\n      swap1\n      pop\n      jump\t// out\n        /* \"#utility.yul\":1242:1422   */\n    tag_52:\n        /* \"#utility.yul\":1290:1367   */\n      0x4e487b7100000000000000000000000000000000000000000000000000000000\n        /* \"#utility.yul\":1287:1288   */\n      0x00\n        /* \"#utility.yul\":1280:1368   */\n      mstore\n        /* \"#utility.yul\":1387:1391   */\n      0x11\n        /* \"#utility.yul\":1384:1385   */\n      0x04\n        /* \"#utility.yul\":1377:1392   */\n      mstore\n        /* \"#utility.yul\":1411:1415   */\n      0x24\n        /* \"#utility.yul\":1408:1409   */\n      0x00\n        /* \"#utility.yul\":1401:1416   */\n      revert\n        /* \"#utility.yul\":1551:1668   */\n    tag_37:\n        /* \"#utility.yul\":1660:1661   */\n      0x00\n        /* \"#utility.yul\":1657:1658   */\n      dup1\n        /* \"#utility.yul\":1650:1662   */\n      revert\n        /* \"#utility.yul\":1674:1796   */\n    tag_33:\n        /* \"#utility.yul\":1747:1771   */\n      tag_58\n        /* \"#utility.yul\":1765:1770   */\n      dup2\n        /* \"#utility.yul\":1747:1771   */\n      tag_42\n      jump\t// in\n    tag_58:\n        /* \"#utility.yul\":1740:1745   */\n      dup2\n        /* \"#utility.yul\":1737:1772   */\n      eq\n        /* \"#utility.yul\":1727:1790   */\n      tag_59\n      jumpi\n        /* \"#utility.yul\":1786:1787   */\n      0x00\n        /* \"#utility.yul\":1783:1784   */\n      dup1\n        /* \"#utility.yul\":1776:1788   */\n      revert\n        /* \"#utility.yul\":1727:1790   */\n    tag_59:\n        /* \"#utility.yul\":1674:1796   */\n      pop\n      jump\t// out\n\n    auxdata: 0xa2646970667358221220057342b2d63d79dcd53836d2c347c70dc2b65cfe78fd23b37df1330dbd85850b64736f6c63430008070033\n}\n",
				"bytecode": {
					"linkReferences": {},
					"object": "608060405234801561001057600080fd5b5061023c806100206000396000f3fe608060405234801561001057600080fd5b50600436106100365760003560e01c8063188b85b41461003b578063938b9ceb1461006b575b600080fd5b61005560048036038101906100509190610111565b610075565b604051610062919061014d565b60405180910390f35b61007361009d565b005b600080600090505b82811161009757808061008f90610172565b91505061007d565b50919050565b60005b600a8110156100d95760038110156100b7576100c6565b60058114156100c5576100d9565b5b80806100d190610172565b9150506100a0565b5060005b60038110156100f95780806100f190610172565b9150506100dd565b50565b60008135905061010b816101ef565b92915050565b600060208284031215610127576101266101ea565b5b6000610135848285016100fc565b91505092915050565b61014781610168565b82525050565b6000602082019050610162600083018461013e565b92915050565b6000819050919050565b600061017d82610168565b91507fffffffffffffffffffffffffffffffffffffffffffffffffffffffffffffffff8214156101b0576101af6101bb565b5b600182019050919050565b7f4e487b7100000000000000000000000000000000000000000000000000000000600052601160045260246000fd5b600080fd5b6101f881610168565b811461020357600080fd5b5056fea2646970667358221220057342b2d63d79dcd53836d2c347c70dc2b65cfe78fd23b37df1330dbd85850b64736f6c63430008070033",
					"opcodes": "PUSH1 0x80 PUSH1 0x40 MSTORE CALLVALUE DUP1 ISZERO PUSH2 0x10 JUMPI PUSH1 0x0 DUP1 REVERT JUMPDEST POP PUSH2 0x23C DUP1 PUSH2 0x20 PUSH1 0x0 CODECOPY PUSH1 0x0 RETURN INVALID PUSH1 0x80 PUSH1 0x40 MSTORE CALLVALUE DUP1 ISZERO PUSH2 0x10 JUMPI PUSH1 0x0 DUP1 REVERT JUMPDEST POP PUSH1 0x4 CALLDATASIZE LT PUSH2 0x36 JUMPI PUSH1 0x0 CALLDATALOAD PUSH1 0xE0 SHR DUP1 PUSH4 0x188B85B4 EQ PUSH2 0x3B JUMPI DUP1 PUSH4 0x938B9CEB EQ PUSH2 0x6B JUMPI JUMPDEST PUSH1 0x0 DUP1 REVERT JUMPDEST PUSH2 0x55 PUSH1 0x4 DUP1 CALLDATASIZE SUB DUP2 ADD SWAP1 PUSH2 0x50 SWAP2 SWAP1 PUSH2 0x111 JUMP JUMPDEST PUSH2 0x75 JUMP JUMPDEST PUSH1 0x40 MLOAD PUSH2 0x62 SWAP2 SWAP1 PUSH2 0x14D JUMP JUMPDEST PUSH1 0x40 MLOAD DUP1 SWAP2 SUB SWAP1 RETURN JUMPDEST PUSH2 0x73 PUSH2 0x9D JUMP JUMPDEST STOP JUMPDEST PUSH1 0x0 DUP1 PUSH1 0x0 SWAP1 POP JUMPDEST DUP3 DUP2 GT PUSH2 0x97 JUMPI DUP1 DUP1 PUSH2 0x8F SWAP1 PUSH2 0x172 JUMP JUMPDEST SWAP2 POP POP PUSH2 0x7D JUMP JUMPDEST POP SWAP2 SWAP1 POP JUMP JUMPDEST PUSH1 0x0 JUMPDEST PUSH1 0xA DUP2 LT ISZERO PUSH2 0xD9 JUMPI PUSH1 0x3 DUP2 LT ISZERO PUSH2 0xB7 JUMPI PUSH2 0xC6 JUMP JUMPDEST PUSH1 0x5 DUP2 EQ ISZERO PUSH2 0xC5 JUMPI PUSH2 0xD9 JUMP JUMPDEST JUMPDEST DUP1 DUP1 PUSH2 0xD1 SWAP1 PUSH2 0x172 JUMP JUMPDEST SWAP2 POP POP PUSH2 0xA0 JUMP JUMPDEST POP PUSH1 0x0 JUMPDEST PUSH1 0x3 DUP2 LT ISZERO PUSH2 0xF9 JUMPI DUP1 DUP1 PUSH2 0xF1 SWAP1 PUSH2 0x172 JUMP JUMPDEST SWAP2 POP POP PUSH2 0xDD JUMP JUMPDEST POP JUMP JUMPDEST PUSH1 0x0 DUP2 CALLDATALOAD SWAP1 POP PUSH2 0x10B DUP2 PUSH2 0x1EF JUMP JUMPDEST SWAP3 SWAP2 POP POP JUMP JUMPDEST PUSH1 0x0 PUSH1 0x20 DUP3 DUP5 SUB SLT ISZERO PUSH2 0x127 JUMPI PUSH2 0x126 PUSH2 0x1EA JUMP JUMPDEST JUMPDEST PUSH1 0x0 PUSH2 0x135 DUP5 DUP3 DUP6 ADD PUSH2 0xFC JUMP JUMPDEST SWAP2 POP POP SWAP3 SWAP2 POP POP JUMP JUMPDEST PUSH2 0x147 DUP2 PUSH2 0x168 JUMP JUMPDEST DUP3 MSTORE POP POP JUMP JUMPDEST PUSH1 0x0 PUSH1 0x20 DUP3 ADD SWAP1 POP PUSH2 0x162 PUSH1 0x0 DUP4 ADD DUP5 PUSH2 0x13E JUMP JUMPDEST SWAP3 SWAP2 POP POP JUMP JUMPDEST PUSH1 0x0 DUP2 SWAP1 POP SWAP2 SWAP1 POP JUMP JUMPDEST PUSH1 0x0 PUSH2 0x17D DUP3 PUSH2 0x168 JUMP JUMPDEST SWAP2 POP PUSH32 0xFFFFFFFFFFFFFFFFFFFFFFFFFFFFFFFFFFFFFFFFFFFFFFFFFFFFFFFFFFFFFFFF DUP3 EQ ISZERO PUSH2 0x1B0 JUMPI PUSH2 0x1AF PUSH2 0x1BB JUMP JUMPDEST JUMPDEST PUSH1 0x1 DUP3 ADD SWAP1 POP SWAP2 SWAP1 POP JUMP JUMPDEST PUSH32 0x4E487B7100000000000000000000000000000000000000000000000000000000 PUSH1 0x0 MSTORE PUSH1 0x11 PUSH1 0x4 MSTORE PUSH1 0x24 PUSH1 0x0 REVERT JUMPDEST PUSH1 0x0 DUP1 REVERT JUMPDEST PUSH2 0x1F8 DUP2 PUSH2 0x168 JUMP JUMPDEST DUP2 EQ PUSH2 0x203 JUMPI PUSH1 0x0 DUP1 REVERT JUMPDEST POP JUMP INVALID LOG2 PUSH5 0x6970667358 0x22 SLT KECCAK256 SDIV PUSH20 0x42B2D63D79DCD53836D2C347C70DC2B65CFE78FD 0x23 0xB3 PUSH30 0xF1330DBD85850B64736F6C63430008070033000000000000000000000000 "
				},
				"gasEstimates": {
					"creation": {
						"codeDepositCost": "114400",
						"executionCost": "159",
						"totalCost": "114559"
					},
					"external": {
						"loops()": "infinite",
						"sum(uint256)": "infinite"
					}
				},
				"methodIdentifiers": {
					"loops()": "938b9ceb",
					"sum(uint256)": "188b85b4"
				}
			},
			"storageLayout": {
				"storage": [],
				"types": null
			},
			"userdoc": {
				"kind": "user",
				"methods": {},
				"version": 1
			}
		}
	}
}