{
	"contracts/Errors-14.sol": {
		"Errors": {
			"abi": [
				{
					"inputs": [],
					"name": "MyError",
					"type": "error"
				},
				{
					"inputs": [],
					"name": "foo",
					"outputs": [],
					"stateMutability": "nonpayable",
					"type": "function"
				},
				{
					"inputs": [],
					"name": "initState",
					"outputs": [],
					"stateMutability": "nonpayable",
					"type": "function"
				},
				{
					"inputs": [],
					"name": "num",
					"outputs": [
						{
							"internalType": "uint256",
							"name": "",
							"type": "uint256"
						}
					],
					"stateMutability": "view",
					"type": "function"
				},
				{
					"inputs": [],
					"name": "testAssert",
					"outputs": [],
					"stateMutability": "view",
					"type": "function"
				},
				{
					"inputs": [
						{
							"internalType": "uint256",
							"name": "_i",
							"type": "uint256"
						}
					],
					"name": "testCustomError",
					"outputs": [],
					"stateMutability": "pure",
					"type": "function"
				},
				{
					"inputs": [
						{
							"internalType": "uint256",
							"name": "_i",
							"type": "uint256"
						}
					],
					"name": "testRequire",
					"outputs": [],
					"stateMutability": "pure",
					"type": "function"
				},
				{
					"inputs": [
						{
							"internalType": "uint256",
							"name": "_i",
							"type": "uint256"
						}
					],
					"name": "testRevert",
					"outputs": [],
					"stateMutability": "pure",
					"type": "function"
				}
			],
			"devdoc": {
				"kind": "dev",
				"methods": {},
				"version": 1
			},
			"evm": {
				"assembly": "    /* \"contracts/Errors-14.sol\":157:1004  contract Errors {... */\n  mstore(0x40, 0x80)\n    /* \"contracts/Errors-14.sol\":657:660  123 */\n  0x7b\n    /* \"contracts/Errors-14.sol\":639:660  uint public num = 123 */\n  0x00\n  sstore\n    /* \"contracts/Errors-14.sol\":157:1004  contract Errors {... */\n  callvalue\n  dup1\n  iszero\n  tag_1\n  jumpi\n  0x00\n  dup1\n  revert\ntag_1:\n  pop\n  dataSize(sub_0)\n  dup1\n  dataOffset(sub_0)\n  0x00\n  codecopy\n  0x00\n  return\nstop\n\nsub_0: assembly {\n        /* \"contracts/Errors-14.sol\":157:1004  contract Errors {... */\n      mstore(0x40, 0x80)\n      callvalue\n      dup1\n      iszero\n      tag_1\n      jumpi\n      0x00\n      dup1\n      revert\n    tag_1:\n      pop\n      jumpi(tag_2, lt(calldatasize, 0x04))\n      shr(0xe0, calldataload(0x00))\n      dup1\n      0x6d83c92c\n      gt\n      tag_10\n      jumpi\n      dup1\n      0x6d83c92c\n      eq\n      tag_6\n      jumpi\n      dup1\n      0x75f7286c\n      eq\n      tag_7\n      jumpi\n      dup1\n      0xb8bd717f\n      eq\n      tag_8\n      jumpi\n      dup1\n      0xc2985578\n      eq\n      tag_9\n      jumpi\n      jump(tag_2)\n    tag_10:\n      dup1\n      0x20987767\n      eq\n      tag_3\n      jumpi\n      dup1\n      0x2b813bc0\n      eq\n      tag_4\n      jumpi\n      dup1\n      0x4e70b1dc\n      eq\n      tag_5\n      jumpi\n    tag_2:\n      0x00\n      dup1\n      revert\n        /* \"contracts/Errors-14.sol\":305:632  function testRevert(uint _i) public pure {... */\n    tag_3:\n      tag_11\n      0x04\n      dup1\n      calldatasize\n      sub\n      dup2\n      add\n      swap1\n      tag_12\n      swap2\n      swap1\n      tag_13\n      jump\t// in\n    tag_12:\n      tag_14\n      jump\t// in\n    tag_11:\n      stop\n        /* \"contracts/Errors-14.sol\":720:789  function testAssert() public view {... */\n    tag_4:\n      tag_15\n      tag_16\n      jump\t// in\n    tag_15:\n      stop\n        /* \"contracts/Errors-14.sol\":639:660  uint public num = 123 */\n    tag_5:\n      tag_17\n      tag_18\n      jump\t// in\n    tag_17:\n      mload(0x40)\n      tag_19\n      swap2\n      swap1\n      tag_20\n      jump\t// in\n    tag_19:\n      mload(0x40)\n      dup1\n      swap2\n      sub\n      swap1\n      return\n        /* \"contracts/Errors-14.sol\":795:849  function initState() public {... */\n    tag_6:\n      tag_21\n      tag_22\n      jump\t// in\n    tag_21:\n      stop\n        /* \"contracts/Errors-14.sol\":877:1001  function testCustomError(uint _i) public pure {... */\n    tag_7:\n      tag_23\n      0x04\n      dup1\n      calldatasize\n      sub\n      dup2\n      add\n      swap1\n      tag_24\n      swap2\n      swap1\n      tag_13\n      jump\t// in\n    tag_24:\n      tag_25\n      jump\t// in\n    tag_23:\n      stop\n        /* \"contracts/Errors-14.sol\":179:299  function testRequire(uint _i) public pure {... */\n    tag_8:\n      tag_26\n      0x04\n      dup1\n      calldatasize\n      sub\n      dup2\n      add\n      swap1\n      tag_27\n      swap2\n      swap1\n      tag_13\n      jump\t// in\n    tag_27:\n      tag_28\n      jump\t// in\n    tag_26:\n      stop\n        /* \"contracts/Errors-14.sol\":667:714  function foo() public {... */\n    tag_9:\n      tag_29\n      tag_30\n      jump\t// in\n    tag_29:\n      stop\n        /* \"contracts/Errors-14.sol\":305:632  function testRevert(uint _i) public pure {... */\n    tag_14:\n        /* \"contracts/Errors-14.sol\":431:432  1 */\n      0x01\n        /* \"contracts/Errors-14.sol\":426:428  _i */\n      dup2\n        /* \"contracts/Errors-14.sol\":426:432  _i > 1 */\n      gt\n        /* \"contracts/Errors-14.sol\":423:626  if(_i > 1) {... */\n      iszero\n      tag_32\n      jumpi\n        /* \"contracts/Errors-14.sol\":480:481  5 */\n      0x05\n        /* \"contracts/Errors-14.sol\":475:477  _i */\n      dup2\n        /* \"contracts/Errors-14.sol\":475:481  _i > 5 */\n      gt\n        /* \"contracts/Errors-14.sol\":472:617  if(_i > 5) {... */\n      iszero\n      tag_33\n      jumpi\n        /* \"contracts/Errors-14.sol\":543:545  10 */\n      0x0a\n        /* \"contracts/Errors-14.sol\":538:540  _i */\n      dup2\n        /* \"contracts/Errors-14.sol\":538:545  _i > 10 */\n      gt\n        /* \"contracts/Errors-14.sol\":535:604  if(_i > 10) {... */\n      iszero\n      tag_34\n      jumpi\n        /* \"contracts/Errors-14.sol\":569:585  revert(\"i > 10\") */\n      mload(0x40)\n      0x08c379a000000000000000000000000000000000000000000000000000000000\n      dup2\n      mstore\n      0x04\n      add\n      tag_35\n      swap1\n      tag_36\n      jump\t// in\n    tag_35:\n      mload(0x40)\n      dup1\n      swap2\n      sub\n      swap1\n      revert\n        /* \"contracts/Errors-14.sol\":535:604  if(_i > 10) {... */\n    tag_34:\n        /* \"contracts/Errors-14.sol\":472:617  if(_i > 5) {... */\n    tag_33:\n        /* \"contracts/Errors-14.sol\":423:626  if(_i > 1) {... */\n    tag_32:\n        /* \"contracts/Errors-14.sol\":305:632  function testRevert(uint _i) public pure {... */\n      pop\n      jump\t// out\n        /* \"contracts/Errors-14.sol\":720:789  function testAssert() public view {... */\n    tag_16:\n        /* \"contracts/Errors-14.sol\":778:781  123 */\n      0x7b\n        /* \"contracts/Errors-14.sol\":771:774  num */\n      sload(0x00)\n        /* \"contracts/Errors-14.sol\":771:781  num == 123 */\n      eq\n        /* \"contracts/Errors-14.sol\":764:782  assert(num == 123) */\n      tag_38\n      jumpi\n      tag_39\n      tag_40\n      jump\t// in\n    tag_39:\n    tag_38:\n        /* \"contracts/Errors-14.sol\":720:789  function testAssert() public view {... */\n      jump\t// out\n        /* \"contracts/Errors-14.sol\":639:660  uint public num = 123 */\n    tag_18:\n      sload(0x00)\n      dup2\n      jump\t// out\n        /* \"contracts/Errors-14.sol\":795:849  function initState() public {... */\n    tag_22:\n        /* \"contracts/Errors-14.sol\":839:842  123 */\n      0x7b\n        /* \"contracts/Errors-14.sol\":833:836  num */\n      0x00\n        /* \"contracts/Errors-14.sol\":833:842  num = 123 */\n      dup2\n      swap1\n      sstore\n      pop\n        /* \"contracts/Errors-14.sol\":795:849  function initState() public {... */\n      jump\t// out\n        /* \"contracts/Errors-14.sol\":877:1001  function testCustomError(uint _i) public pure {... */\n    tag_25:\n        /* \"contracts/Errors-14.sol\":946:948  10 */\n      0x0a\n        /* \"contracts/Errors-14.sol\":941:943  _i */\n      dup2\n        /* \"contracts/Errors-14.sol\":941:948  _i < 10 */\n      lt\n        /* \"contracts/Errors-14.sol\":933:973  require(_i < 10, \"i is greater than 10\") */\n      tag_43\n      jumpi\n      mload(0x40)\n      0x08c379a000000000000000000000000000000000000000000000000000000000\n      dup2\n      mstore\n      0x04\n      add\n      tag_44\n      swap1\n      tag_45\n      jump\t// in\n    tag_44:\n      mload(0x40)\n      dup1\n      swap2\n      sub\n      swap1\n      revert\n    tag_43:\n        /* \"contracts/Errors-14.sol\":877:1001  function testCustomError(uint _i) public pure {... */\n      pop\n      jump\t// out\n        /* \"contracts/Errors-14.sol\":179:299  function testRequire(uint _i) public pure {... */\n    tag_28:\n        /* \"contracts/Errors-14.sol\":244:246  10 */\n      0x0a\n        /* \"contracts/Errors-14.sol\":239:241  _i */\n      dup2\n        /* \"contracts/Errors-14.sol\":239:246  _i < 10 */\n      lt\n        /* \"contracts/Errors-14.sol\":231:271  require(_i < 10, \"i is greater than 10\") */\n      tag_47\n      jumpi\n      mload(0x40)\n      0x08c379a000000000000000000000000000000000000000000000000000000000\n      dup2\n      mstore\n      0x04\n      add\n      tag_48\n      swap1\n      tag_45\n      jump\t// in\n    tag_48:\n      mload(0x40)\n      dup1\n      swap2\n      sub\n      swap1\n      revert\n    tag_47:\n        /* \"contracts/Errors-14.sol\":179:299  function testRequire(uint _i) public pure {... */\n      pop\n      jump\t// out\n        /* \"contracts/Errors-14.sol\":667:714  function foo() public {... */\n    tag_30:\n        /* \"contracts/Errors-14.sol\":706:707  1 */\n      0x01\n        /* \"contracts/Errors-14.sol\":699:702  num */\n      0x00\n      dup1\n        /* \"contracts/Errors-14.sol\":699:707  num += 1 */\n      dup3\n      dup3\n      sload\n      tag_50\n      swap2\n      swap1\n      tag_51\n      jump\t// in\n    tag_50:\n      swap3\n      pop\n      pop\n      dup2\n      swap1\n      sstore\n      pop\n        /* \"contracts/Errors-14.sol\":667:714  function foo() public {... */\n      jump\t// out\n        /* \"#utility.yul\":7:146   */\n    tag_53:\n        /* \"#utility.yul\":53:58   */\n      0x00\n        /* \"#utility.yul\":91:97   */\n      dup2\n        /* \"#utility.yul\":78:98   */\n      calldataload\n        /* \"#utility.yul\":69:98   */\n      swap1\n      pop\n        /* \"#utility.yul\":107:140   */\n      tag_55\n        /* \"#utility.yul\":134:139   */\n      dup2\n        /* \"#utility.yul\":107:140   */\n      tag_56\n      jump\t// in\n    tag_55:\n        /* \"#utility.yul\":7:146   */\n      swap3\n      swap2\n      pop\n      pop\n      jump\t// out\n        /* \"#utility.yul\":152:481   */\n    tag_13:\n        /* \"#utility.yul\":211:217   */\n      0x00\n        /* \"#utility.yul\":260:262   */\n      0x20\n        /* \"#utility.yul\":248:257   */\n      dup3\n        /* \"#utility.yul\":239:246   */\n      dup5\n        /* \"#utility.yul\":235:258   */\n      sub\n        /* \"#utility.yul\":231:263   */\n      slt\n        /* \"#utility.yul\":228:347   */\n      iszero\n      tag_58\n      jumpi\n        /* \"#utility.yul\":266:345   */\n      tag_59\n      tag_60\n      jump\t// in\n    tag_59:\n        /* \"#utility.yul\":228:347   */\n    tag_58:\n        /* \"#utility.yul\":386:387   */\n      0x00\n        /* \"#utility.yul\":411:464   */\n      tag_61\n        /* \"#utility.yul\":456:463   */\n      dup5\n        /* \"#utility.yul\":447:453   */\n      dup3\n        /* \"#utility.yul\":436:445   */\n      dup6\n        /* \"#utility.yul\":432:454   */\n      add\n        /* \"#utility.yul\":411:464   */\n      tag_53\n      jump\t// in\n    tag_61:\n        /* \"#utility.yul\":401:464   */\n      swap2\n      pop\n        /* \"#utility.yul\":357:474   */\n      pop\n        /* \"#utility.yul\":152:481   */\n      swap3\n      swap2\n      pop\n      pop\n      jump\t// out\n        /* \"#utility.yul\":487:853   */\n    tag_62:\n        /* \"#utility.yul\":629:632   */\n      0x00\n        /* \"#utility.yul\":650:717   */\n      tag_64\n        /* \"#utility.yul\":714:716   */\n      0x14\n        /* \"#utility.yul\":709:712   */\n      dup4\n        /* \"#utility.yul\":650:717   */\n      tag_65\n      jump\t// in\n    tag_64:\n        /* \"#utility.yul\":643:717   */\n      swap2\n      pop\n        /* \"#utility.yul\":726:819   */\n      tag_66\n        /* \"#utility.yul\":815:818   */\n      dup3\n        /* \"#utility.yul\":726:819   */\n      tag_67\n      jump\t// in\n    tag_66:\n        /* \"#utility.yul\":844:846   */\n      0x20\n        /* \"#utility.yul\":839:842   */\n      dup3\n        /* \"#utility.yul\":835:847   */\n      add\n        /* \"#utility.yul\":828:847   */\n      swap1\n      pop\n        /* \"#utility.yul\":487:853   */\n      swap2\n      swap1\n      pop\n      jump\t// out\n        /* \"#utility.yul\":859:1224   */\n    tag_68:\n        /* \"#utility.yul\":1001:1004   */\n      0x00\n        /* \"#utility.yul\":1022:1088   */\n      tag_70\n        /* \"#utility.yul\":1086:1087   */\n      0x06\n        /* \"#utility.yul\":1081:1084   */\n      dup4\n        /* \"#utility.yul\":1022:1088   */\n      tag_65\n      jump\t// in\n    tag_70:\n        /* \"#utility.yul\":1015:1088   */\n      swap2\n      pop\n        /* \"#utility.yul\":1097:1190   */\n      tag_71\n        /* \"#utility.yul\":1186:1189   */\n      dup3\n        /* \"#utility.yul\":1097:1190   */\n      tag_72\n      jump\t// in\n    tag_71:\n        /* \"#utility.yul\":1215:1217   */\n      0x20\n        /* \"#utility.yul\":1210:1213   */\n      dup3\n        /* \"#utility.yul\":1206:1218   */\n      add\n        /* \"#utility.yul\":1199:1218   */\n      swap1\n      pop\n        /* \"#utility.yul\":859:1224   */\n      swap2\n      swap1\n      pop\n      jump\t// out\n        /* \"#utility.yul\":1230:1348   */\n    tag_73:\n        /* \"#utility.yul\":1317:1341   */\n      tag_75\n        /* \"#utility.yul\":1335:1340   */\n      dup2\n        /* \"#utility.yul\":1317:1341   */\n      tag_76\n      jump\t// in\n    tag_75:\n        /* \"#utility.yul\":1312:1315   */\n      dup3\n        /* \"#utility.yul\":1305:1342   */\n      mstore\n        /* \"#utility.yul\":1230:1348   */\n      pop\n      pop\n      jump\t// out\n        /* \"#utility.yul\":1354:1773   */\n    tag_45:\n        /* \"#utility.yul\":1520:1524   */\n      0x00\n        /* \"#utility.yul\":1558:1560   */\n      0x20\n        /* \"#utility.yul\":1547:1556   */\n      dup3\n        /* \"#utility.yul\":1543:1561   */\n      add\n        /* \"#utility.yul\":1535:1561   */\n      swap1\n      pop\n        /* \"#utility.yul\":1607:1616   */\n      dup2\n        /* \"#utility.yul\":1601:1605   */\n      dup2\n        /* \"#utility.yul\":1597:1617   */\n      sub\n        /* \"#utility.yul\":1593:1594   */\n      0x00\n        /* \"#utility.yul\":1582:1591   */\n      dup4\n        /* \"#utility.yul\":1578:1595   */\n      add\n        /* \"#utility.yul\":1571:1618   */\n      mstore\n        /* \"#utility.yul\":1635:1766   */\n      tag_78\n        /* \"#utility.yul\":1761:1765   */\n      dup2\n        /* \"#utility.yul\":1635:1766   */\n      tag_62\n      jump\t// in\n    tag_78:\n        /* \"#utility.yul\":1627:1766   */\n      swap1\n      pop\n        /* \"#utility.yul\":1354:1773   */\n      swap2\n      swap1\n      pop\n      jump\t// out\n        /* \"#utility.yul\":1779:2198   */\n    tag_36:\n        /* \"#utility.yul\":1945:1949   */\n      0x00\n        /* \"#utility.yul\":1983:1985   */\n      0x20\n        /* \"#utility.yul\":1972:1981   */\n      dup3\n        /* \"#utility.yul\":1968:1986   */\n      add\n        /* \"#utility.yul\":1960:1986   */\n      swap1\n      pop\n        /* \"#utility.yul\":2032:2041   */\n      dup2\n        /* \"#utility.yul\":2026:2030   */\n      dup2\n        /* \"#utility.yul\":2022:2042   */\n      sub\n        /* \"#utility.yul\":2018:2019   */\n      0x00\n        /* \"#utility.yul\":2007:2016   */\n      dup4\n        /* \"#utility.yul\":2003:2020   */\n      add\n        /* \"#utility.yul\":1996:2043   */\n      mstore\n        /* \"#utility.yul\":2060:2191   */\n      tag_80\n        /* \"#utility.yul\":2186:2190   */\n      dup2\n        /* \"#utility.yul\":2060:2191   */\n      tag_68\n      jump\t// in\n    tag_80:\n        /* \"#utility.yul\":2052:2191   */\n      swap1\n      pop\n        /* \"#utility.yul\":1779:2198   */\n      swap2\n      swap1\n      pop\n      jump\t// out\n        /* \"#utility.yul\":2204:2426   */\n    tag_20:\n        /* \"#utility.yul\":2297:2301   */\n      0x00\n        /* \"#utility.yul\":2335:2337   */\n      0x20\n        /* \"#utility.yul\":2324:2333   */\n      dup3\n        /* \"#utility.yul\":2320:2338   */\n      add\n        /* \"#utility.yul\":2312:2338   */\n      swap1\n      pop\n        /* \"#utility.yul\":2348:2419   */\n      tag_82\n        /* \"#utility.yul\":2416:2417   */\n      0x00\n        /* \"#utility.yul\":2405:2414   */\n      dup4\n        /* \"#utility.yul\":2401:2418   */\n      add\n        /* \"#utility.yul\":2392:2398   */\n      dup5\n        /* \"#utility.yul\":2348:2419   */\n      tag_73\n      jump\t// in\n    tag_82:\n        /* \"#utility.yul\":2204:2426   */\n      swap3\n      swap2\n      pop\n      pop\n      jump\t// out\n        /* \"#utility.yul\":2513:2682   */\n    tag_65:\n        /* \"#utility.yul\":2597:2608   */\n      0x00\n        /* \"#utility.yul\":2631:2637   */\n      dup3\n        /* \"#utility.yul\":2626:2629   */\n      dup3\n        /* \"#utility.yul\":2619:2638   */\n      mstore\n        /* \"#utility.yul\":2671:2675   */\n      0x20\n        /* \"#utility.yul\":2666:2669   */\n      dup3\n        /* \"#utility.yul\":2662:2676   */\n      add\n        /* \"#utility.yul\":2647:2676   */\n      swap1\n      pop\n        /* \"#utility.yul\":2513:2682   */\n      swap3\n      swap2\n      pop\n      pop\n      jump\t// out\n        /* \"#utility.yul\":2688:2993   */\n    tag_51:\n        /* \"#utility.yul\":2728:2731   */\n      0x00\n        /* \"#utility.yul\":2747:2767   */\n      tag_87\n        /* \"#utility.yul\":2765:2766   */\n      dup3\n        /* \"#utility.yul\":2747:2767   */\n      tag_76\n      jump\t// in\n    tag_87:\n        /* \"#utility.yul\":2742:2767   */\n      swap2\n      pop\n        /* \"#utility.yul\":2781:2801   */\n      tag_88\n        /* \"#utility.yul\":2799:2800   */\n      dup4\n        /* \"#utility.yul\":2781:2801   */\n      tag_76\n      jump\t// in\n    tag_88:\n        /* \"#utility.yul\":2776:2801   */\n      swap3\n      pop\n        /* \"#utility.yul\":2935:2936   */\n      dup3\n        /* \"#utility.yul\":2867:2933   */\n      0xffffffffffffffffffffffffffffffffffffffffffffffffffffffffffffffff\n        /* \"#utility.yul\":2863:2937   */\n      sub\n        /* \"#utility.yul\":2860:2861   */\n      dup3\n        /* \"#utility.yul\":2857:2938   */\n      gt\n        /* \"#utility.yul\":2854:2961   */\n      iszero\n      tag_89\n      jumpi\n        /* \"#utility.yul\":2941:2959   */\n      tag_90\n      tag_91\n      jump\t// in\n    tag_90:\n        /* \"#utility.yul\":2854:2961   */\n    tag_89:\n        /* \"#utility.yul\":2985:2986   */\n      dup3\n        /* \"#utility.yul\":2982:2983   */\n      dup3\n        /* \"#utility.yul\":2978:2987   */\n      add\n        /* \"#utility.yul\":2971:2987   */\n      swap1\n      pop\n        /* \"#utility.yul\":2688:2993   */\n      swap3\n      swap2\n      pop\n      pop\n      jump\t// out\n        /* \"#utility.yul\":2999:3076   */\n    tag_76:\n        /* \"#utility.yul\":3036:3043   */\n      0x00\n        /* \"#utility.yul\":3065:3070   */\n      dup2\n        /* \"#utility.yul\":3054:3070   */\n      swap1\n      pop\n        /* \"#utility.yul\":2999:3076   */\n      swap2\n      swap1\n      pop\n      jump\t// out\n        /* \"#utility.yul\":3082:3262   */\n    tag_40:\n        /* \"#utility.yul\":3130:3207   */\n      0x4e487b7100000000000000000000000000000000000000000000000000000000\n        /* \"#utility.yul\":3127:3128   */\n      0x00\n        /* \"#utility.yul\":3120:3208   */\n      mstore\n        /* \"#utility.yul\":3227:3231   */\n      0x01\n        /* \"#utility.yul\":3224:3225   */\n      0x04\n        /* \"#utility.yul\":3217:3232   */\n      mstore\n        /* \"#utility.yul\":3251:3255   */\n      0x24\n        /* \"#utility.yul\":3248:3249   */\n      0x00\n        /* \"#utility.yul\":3241:3256   */\n      revert\n        /* \"#utility.yul\":3268:3448   */\n    tag_91:\n        /* \"#utility.yul\":3316:3393   */\n      0x4e487b7100000000000000000000000000000000000000000000000000000000\n        /* \"#utility.yul\":3313:3314   */\n      0x00\n        /* \"#utility.yul\":3306:3394   */\n      mstore\n        /* \"#utility.yul\":3413:3417   */\n      0x11\n        /* \"#utility.yul\":3410:3411   */\n      0x04\n        /* \"#utility.yul\":3403:3418   */\n      mstore\n        /* \"#utility.yul\":3437:3441   */\n      0x24\n        /* \"#utility.yul\":3434:3435   */\n      0x00\n        /* \"#utility.yul\":3427:3442   */\n      revert\n        /* \"#utility.yul\":3577:3694   */\n    tag_60:\n        /* \"#utility.yul\":3686:3687   */\n      0x00\n        /* \"#utility.yul\":3683:3684   */\n      dup1\n        /* \"#utility.yul\":3676:3688   */\n      revert\n        /* \"#utility.yul\":3700:3870   */\n    tag_67:\n        /* \"#utility.yul\":3840:3862   */\n      0x692069732067726561746572207468616e203130000000000000000000000000\n        /* \"#utility.yul\":3836:3837   */\n      0x00\n        /* \"#utility.yul\":3828:3834   */\n      dup3\n        /* \"#utility.yul\":3824:3838   */\n      add\n        /* \"#utility.yul\":3817:3863   */\n      mstore\n        /* \"#utility.yul\":3700:3870   */\n      pop\n      jump\t// out\n        /* \"#utility.yul\":3876:4032   */\n    tag_72:\n        /* \"#utility.yul\":4016:4024   */\n      0x69203e2031300000000000000000000000000000000000000000000000000000\n        /* \"#utility.yul\":4012:4013   */\n      0x00\n        /* \"#utility.yul\":4004:4010   */\n      dup3\n        /* \"#utility.yul\":4000:4014   */\n      add\n        /* \"#utility.yul\":3993:4025   */\n      mstore\n        /* \"#utility.yul\":3876:4032   */\n      pop\n      jump\t// out\n        /* \"#utility.yul\":4038:4160   */\n    tag_56:\n        /* \"#utility.yul\":4111:4135   */\n      tag_101\n        /* \"#utility.yul\":4129:4134   */\n      dup2\n        /* \"#utility.yul\":4111:4135   */\n      tag_76\n      jump\t// in\n    tag_101:\n        /* \"#utility.yul\":4104:4109   */\n      dup2\n        /* \"#utility.yul\":4101:4136   */\n      eq\n        /* \"#utility.yul\":4091:4154   */\n      tag_102\n      jumpi\n        /* \"#utility.yul\":4150:4151   */\n      0x00\n        /* \"#utility.yul\":4147:4148   */\n      dup1\n        /* \"#utility.yul\":4140:4152   */\n      revert\n        /* \"#utility.yul\":4091:4154   */\n    tag_102:\n        /* \"#utility.yul\":4038:4160   */\n      pop\n      jump\t// out\n\n    auxdata: 0xa26469706673582212202ca3d0ec75f6e0e8ae76fb4fff11a0b78314526dcd89b0f2ce7956c9282e92b664736f6c63430008070033\n}\n",
				"bytecode": {
					"linkReferences": {},
					"object": "6080604052607b60005534801561001557600080fd5b5061049e806100256000396000f3fe608060405234801561001057600080fd5b506004361061007d5760003560e01c80636d83c92c1161005b5780636d83c92c146100c657806375f7286c146100d0578063b8bd717f146100ec578063c2985578146101085761007d565b806320987767146100825780632b813bc01461009e5780634e70b1dc146100a8575b600080fd5b61009c6004803603810190610097919061024e565b610112565b005b6100a661016d565b005b6100b0610182565b6040516100bd9190610310565b60405180910390f35b6100ce610188565b005b6100ea60048036038101906100e5919061024e565b610192565b005b6101066004803603810190610101919061024e565b6101d8565b005b61011061021e565b005b600181111561016a57600581111561016957600a811115610168576040517f08c379a000000000000000000000000000000000000000000000000000000000815260040161015f906102f0565b60405180910390fd5b5b5b50565b607b600054146101805761017f61039c565b5b565b60005481565b607b600081905550565b600a81106101d5576040517f08c379a00000000000000000000000000000000000000000000000000000000081526004016101cc906102d0565b60405180910390fd5b50565b600a811061021b576040517f08c379a0000000000000000000000000000000000000000000000000000000008152600401610212906102d0565b60405180910390fd5b50565b6001600080828254610230919061033c565b92505081905550565b60008135905061024881610451565b92915050565b600060208284031215610264576102636103fa565b5b600061027284828501610239565b91505092915050565b600061028860148361032b565b9150610293826103ff565b602082019050919050565b60006102ab60068361032b565b91506102b682610428565b602082019050919050565b6102ca81610392565b82525050565b600060208201905081810360008301526102e98161027b565b9050919050565b600060208201905081810360008301526103098161029e565b9050919050565b600060208201905061032560008301846102c1565b92915050565b600082825260208201905092915050565b600061034782610392565b915061035283610392565b9250827fffffffffffffffffffffffffffffffffffffffffffffffffffffffffffffffff03821115610387576103866103cb565b5b828201905092915050565b6000819050919050565b7f4e487b7100000000000000000000000000000000000000000000000000000000600052600160045260246000fd5b7f4e487b7100000000000000000000000000000000000000000000000000000000600052601160045260246000fd5b600080fd5b7f692069732067726561746572207468616e203130000000000000000000000000600082015250565b7f69203e2031300000000000000000000000000000000000000000000000000000600082015250565b61045a81610392565b811461046557600080fd5b5056fea26469706673582212202ca3d0ec75f6e0e8ae76fb4fff11a0b78314526dcd89b0f2ce7956c9282e92b664736f6c63430008070033",
					"opcodes": "PUSH1 0x80 PUSH1 0x40 MSTORE PUSH1 0x7B PUSH1 0x0 SSTORE CALLVALUE DUP1 ISZERO PUSH2 0x15 JUMPI PUSH1 0x0 DUP1 REVERT JUMPDEST POP PUSH2 0x49E DUP1 PUSH2 0x25 PUSH1 0x0 CODECOPY PUSH1 0x0 RETURN INVALID PUSH1 0x80 PUSH1 0x40 MSTORE CALLVALUE DUP1 ISZERO PUSH2 0x10 JUMPI PUSH1 0x0 DUP1 REVERT JUMPDEST POP PUSH1 0x4 CALLDATASIZE LT PUSH2 0x7D JUMPI PUSH1 0x0 CALLDATALOAD PUSH1 0xE0 SHR DUP1 PUSH4 0x6D83C92C GT PUSH2 0x5B JUMPI DUP1 PUSH4 0x6D83C92C EQ PUSH2 0xC6 JUMPI DUP1 PUSH4 0x75F7286C EQ PUSH2 0xD0 JUMPI DUP1 PUSH4 0xB8BD717F EQ PUSH2 0xEC JUMPI DUP1 PUSH4 0xC2985578 EQ PUSH2 0x108 JUMPI PUSH2 0x7D JUMP JUMPDEST DUP1 PUSH4 0x20987767 EQ PUSH2 0x82 JUMPI DUP1 PUSH4 0x2B813BC0 EQ PUSH2 0x9E JUMPI DUP1 PUSH4 0x4E70B1DC EQ PUSH2 0xA8 JUMPI JUMPDEST PUSH1 0x0 DUP1 REVERT JUMPDEST PUSH2 0x9C PUSH1 0x4 DUP1 CALLDATASIZE SUB DUP2 ADD SWAP1 PUSH2 0x97 SWAP2 SWAP1 PUSH2 0x24E JUMP JUMPDEST PUSH2 0x112 JUMP JUMPDEST STOP JUMPDEST PUSH2 0xA6 PUSH2 0x16D JUMP JUMPDEST STOP JUMPDEST PUSH2 0xB0 PUSH2 0x182 JUMP JUMPDEST PUSH1 0x40 MLOAD PUSH2 0xBD SWAP2 SWAP1 PUSH2 0x310 JUMP JUMPDEST PUSH1 0x40 MLOAD DUP1 SWAP2 SUB SWAP1 RETURN JUMPDEST PUSH2 0xCE PUSH2 0x188 JUMP JUMPDEST STOP JUMPDEST PUSH2 0xEA PUSH1 0x4 DUP1 CALLDATASIZE SUB DUP2 ADD SWAP1 PUSH2 0xE5 SWAP2 SWAP1 PUSH2 0x24E JUMP JUMPDEST PUSH2 0x192 JUMP JUMPDEST STOP JUMPDEST PUSH2 0x106 PUSH1 0x4 DUP1 CALLDATASIZE SUB DUP2 ADD SWAP1 PUSH2 0x101 SWAP2 SWAP1 PUSH2 0x24E JUMP JUMPDEST PUSH2 0x1D8 JUMP JUMPDEST STOP JUMPDEST PUSH2 0x110 PUSH2 0x21E JUMP JUMPDEST STOP JUMPDEST PUSH1 0x1 DUP2 GT ISZERO PUSH2 0x16A JUMPI PUSH1 0x5 DUP2 GT ISZERO PUSH2 0x169 JUMPI PUSH1 0xA DUP2 GT ISZERO PUSH2 0x168 JUMPI PUSH1 0x40 MLOAD PUSH32 0x8C379A000000000000000000000000000000000000000000000000000000000 DUP2 MSTORE PUSH1 0x4 ADD PUSH2 0x15F SWAP1 PUSH2 0x2F0 JUMP JUMPDEST PUSH1 0x40 MLOAD DUP1 SWAP2 SUB SWAP1 REVERT JUMPDEST JUMPDEST JUMPDEST POP JUMP JUMPDEST PUSH1 0x7B PUSH1 0x0 SLOAD EQ PUSH2 0x180 JUMPI PUSH2 0x17F PUSH2 0x39C JUMP JUMPDEST JUMPDEST JUMP JUMPDEST PUSH1 0x0 SLOAD DUP2 JUMP JUMPDEST PUSH1 0x7B PUSH1 0x0 DUP2 SWAP1 SSTORE POP JUMP JUMPDEST PUSH1 0xA DUP2 LT PUSH2 0x1D5 JUMPI PUSH1 0x40 MLOAD PUSH32 0x8C379A000000000000000000000000000000000000000000000000000000000 DUP2 MSTORE PUSH1 0x4 ADD PUSH2 0x1CC SWAP1 PUSH2 0x2D0 JUMP JUMPDEST PUSH1 0x40 MLOAD DUP1 SWAP2 SUB SWAP1 REVERT JUMPDEST POP JUMP JUMPDEST PUSH1 0xA DUP2 LT PUSH2 0x21B JUMPI PUSH1 0x40 MLOAD PUSH32 0x8C379A000000000000000000000000000000000000000000000000000000000 DUP2 MSTORE PUSH1 0x4 ADD PUSH2 0x212 SWAP1 PUSH2 0x2D0 JUMP JUMPDEST PUSH1 0x40 MLOAD DUP1 SWAP2 SUB SWAP1 REVERT JUMPDEST POP JUMP JUMPDEST PUSH1 0x1 PUSH1 0x0 DUP1 DUP3 DUP3 SLOAD PUSH2 0x230 SWAP2 SWAP1 PUSH2 0x33C JUMP JUMPDEST SWAP3 POP POP DUP2 SWAP1 SSTORE POP JUMP JUMPDEST PUSH1 0x0 DUP2 CALLDATALOAD SWAP1 POP PUSH2 0x248 DUP2 PUSH2 0x451 JUMP JUMPDEST SWAP3 SWAP2 POP POP JUMP JUMPDEST PUSH1 0x0 PUSH1 0x20 DUP3 DUP5 SUB SLT ISZERO PUSH2 0x264 JUMPI PUSH2 0x263 PUSH2 0x3FA JUMP JUMPDEST JUMPDEST PUSH1 0x0 PUSH2 0x272 DUP5 DUP3 DUP6 ADD PUSH2 0x239 JUMP JUMPDEST SWAP2 POP POP SWAP3 SWAP2 POP POP JUMP JUMPDEST PUSH1 0x0 PUSH2 0x288 PUSH1 0x14 DUP4 PUSH2 0x32B JUMP JUMPDEST SWAP2 POP PUSH2 0x293 DUP3 PUSH2 0x3FF JUMP JUMPDEST PUSH1 0x20 DUP3 ADD SWAP1 POP SWAP2 SWAP1 POP JUMP JUMPDEST PUSH1 0x0 PUSH2 0x2AB PUSH1 0x6 DUP4 PUSH2 0x32B JUMP JUMPDEST SWAP2 POP PUSH2 0x2B6 DUP3 PUSH2 0x428 JUMP JUMPDEST PUSH1 0x20 DUP3 ADD SWAP1 POP SWAP2 SWAP1 POP JUMP JUMPDEST PUSH2 0x2CA DUP2 PUSH2 0x392 JUMP JUMPDEST DUP3 MSTORE POP POP JUMP JUMPDEST PUSH1 0x0 PUSH1 0x20 DUP3 ADD SWAP1 POP DUP2 DUP2 SUB PUSH1 0x0 DUP4 ADD MSTORE PUSH2 0x2E9 DUP2 PUSH2 0x27B JUMP JUMPDEST SWAP1 POP SWAP2 SWAP1 POP JUMP JUMPDEST PUSH1 0x0 PUSH1 0x20 DUP3 ADD SWAP1 POP DUP2 DUP2 SUB PUSH1 0x0 DUP4 ADD MSTORE PUSH2 0x309 DUP2 PUSH2 0x29E JUMP JUMPDEST SWAP1 POP SWAP2 SWAP1 POP JUMP JUMPDEST PUSH1 0x0 PUSH1 0x20 DUP3 ADD SWAP1 POP PUSH2 0x325 PUSH1 0x0 DUP4 ADD DUP5 PUSH2 0x2C1 JUMP JUMPDEST SWAP3 SWAP2 POP POP JUMP JUMPDEST PUSH1 0x0 DUP3 DUP3 MSTORE PUSH1 0x20 DUP3 ADD SWAP1 POP SWAP3 SWAP2 POP POP JUMP JUMPDEST PUSH1 0x0 PUSH2 0x347 DUP3 PUSH2 0x392 JUMP JUMPDEST SWAP2 POP PUSH2 0x352 DUP4 PUSH2 0x392 JUMP JUMPDEST SWAP3 POP DUP3 PUSH32 0xFFFFFFFFFFFFFFFFFFFFFFFFFFFFFFFFFFFFFFFFFFFFFFFFFFFFFFFFFFFFFFFF SUB DUP3 GT ISZERO PUSH2 0x387 JUMPI PUSH2 0x386 PUSH2 0x3CB JUMP JUMPDEST JUMPDEST DUP3 DUP3 ADD SWAP1 POP SWAP3 SWAP2 POP POP JUMP JUMPDEST PUSH1 0x0 DUP2 SWAP1 POP SWAP2 SWAP1 POP JUMP JUMPDEST PUSH32 0x4E487B7100000000000000000000000000000000000000000000000000000000 PUSH1 0x0 MSTORE PUSH1 0x1 PUSH1 0x4 MSTORE PUSH1 0x24 PUSH1 0x0 REVERT JUMPDEST PUSH32 0x4E487B7100000000000000000000000000000000000000000000000000000000 PUSH1 0x0 MSTORE PUSH1 0x11 PUSH1 0x4 MSTORE PUSH1 0x24 PUSH1 0x0 REVERT JUMPDEST PUSH1 0x0 DUP1 REVERT JUMPDEST PUSH32 0x692069732067726561746572207468616E203130000000000000000000000000 PUSH1 0x0 DUP3 ADD MSTORE POP JUMP JUMPDEST PUSH32 0x69203E2031300000000000000000000000000000000000000000000000000000 PUSH1 0x0 DUP3 ADD MSTORE POP JUMP JUMPDEST PUSH2 0x45A DUP2 PUSH2 0x392 JUMP JUMPDEST DUP2 EQ PUSH2 0x465 JUMPI PUSH1 0x0 DUP1 REVERT JUMPDEST POP JUMP INVALID LOG2 PUSH5 0x6970667358 0x22 SLT KECCAK256 0x2C LOG3 0xD0 0xEC PUSH22 0xF6E0E8AE76FB4FFF11A0B78314526DCD89B0F2CE7956 0xC9 0x28 0x2E SWAP3 0xB6 PUSH5 0x736F6C6343 STOP ADDMOD SMOD STOP CALLER "
				},
				"gasEstimates": {
					"creation": {
						"codeDepositCost": "236400",
						"executionCost": "22381",
						"totalCost": "258781"
					},
					"external": {
						"foo()": "infinite",
						"initState()": "22258",
						"num()": "2474",
						"testAssert()": "2319",
						"testCustomError(uint256)": "738",
						"testRequire(uint256)": "760",
						"testRevert(uint256)": "770"
					}
				},
				"methodIdentifiers": {
					"foo()": "c2985578",
					"initState()": "6d83c92c",
					"num()": "4e70b1dc",
					"testAssert()": "2b813bc0",
					"testCustomError(uint256)": "75f7286c",
					"testRequire(uint256)": "b8bd717f",
					"testRevert(uint256)": "20987767"
				}
			},
			"storageLayout": {
				"storage": [
					{
						"astId": 42,
						"contract": "contracts/Errors-14.sol:Errors",
						"label": "num",
						"offset": 0,
						"slot": "0",
						"type": "t_uint256"
					}
				],
				"types": {
					"t_uint256": {
						"encoding": "inplace",
						"label": "uint256",
						"numberOfBytes": "32"
					}
				}
			},
			"userdoc": {
				"kind": "user",
				"methods": {},
				"version": 1
			}
		}
	}
}