{
	"contracts/FunctionModifier-15.sol": {
		"FunctionModifier": {
			"abi": [
				{
					"inputs": [],
					"name": "count",
					"outputs": [
						{
							"internalType": "uint256",
							"name": "",
							"type": "uint256"
						}
					],
					"stateMutability": "view",
					"type": "function"
				},
				{
					"inputs": [],
					"name": "dec",
					"outputs": [],
					"stateMutability": "nonpayable",
					"type": "function"
				},
				{
					"inputs": [],
					"name": "inc",
					"outputs": [],
					"stateMutability": "nonpayable",
					"type": "function"
				},
				{
					"inputs": [],
					"name": "paused",
					"outputs": [
						{
							"internalType": "bool",
							"name": "",
							"type": "bool"
						}
					],
					"stateMutability": "view",
					"type": "function"
				},
				{
					"inputs": [
						{
							"internalType": "bool",
							"name": "_paused",
							"type": "bool"
						}
					],
					"name": "setPause",
					"outputs": [],
					"stateMutability": "nonpayable",
					"type": "function"
				}
			],
			"devdoc": {
				"kind": "dev",
				"methods": {},
				"version": 1
			},
			"evm": {
				"assembly": "    /* \"contracts/FunctionModifier-15.sol\":151:542  contract FunctionModifier {... */\n  mstore(0x40, 0x80)\n  callvalue\n  dup1\n  iszero\n  tag_1\n  jumpi\n  0x00\n  dup1\n  revert\ntag_1:\n  pop\n  dataSize(sub_0)\n  dup1\n  dataOffset(sub_0)\n  0x00\n  codecopy\n  0x00\n  return\nstop\n\nsub_0: assembly {\n        /* \"contracts/FunctionModifier-15.sol\":151:542  contract FunctionModifier {... */\n      mstore(0x40, 0x80)\n      callvalue\n      dup1\n      iszero\n      tag_1\n      jumpi\n      0x00\n      dup1\n      revert\n    tag_1:\n      pop\n      jumpi(tag_2, lt(calldatasize, 0x04))\n      shr(0xe0, calldataload(0x00))\n      dup1\n      0x06661abd\n      eq\n      tag_3\n      jumpi\n      dup1\n      0x371303c0\n      eq\n      tag_4\n      jumpi\n      dup1\n      0x5c975abb\n      eq\n      tag_5\n      jumpi\n      dup1\n      0xb3bcfa82\n      eq\n      tag_6\n      jumpi\n      dup1\n      0xbedb86fb\n      eq\n      tag_7\n      jumpi\n    tag_2:\n      0x00\n      dup1\n      revert\n        /* \"contracts/FunctionModifier-15.sol\":207:224  uint public count */\n    tag_3:\n      tag_8\n      tag_9\n      jump\t// in\n    tag_8:\n      mload(0x40)\n      tag_10\n      swap2\n      swap1\n      tag_11\n      jump\t// in\n    tag_10:\n      mload(0x40)\n      dup1\n      swap2\n      sub\n      swap1\n      return\n        /* \"contracts/FunctionModifier-15.sol\":396:447  function inc() external {... */\n    tag_4:\n      tag_12\n      tag_13\n      jump\t// in\n    tag_12:\n      stop\n        /* \"contracts/FunctionModifier-15.sol\":183:201  bool public paused */\n    tag_5:\n      tag_14\n      tag_15\n      jump\t// in\n    tag_14:\n      mload(0x40)\n      tag_16\n      swap2\n      swap1\n      tag_17\n      jump\t// in\n    tag_16:\n      mload(0x40)\n      dup1\n      swap2\n      sub\n      swap1\n      return\n        /* \"contracts/FunctionModifier-15.sol\":453:540  function dec() external {... */\n    tag_6:\n      tag_18\n      tag_19\n      jump\t// in\n    tag_18:\n      stop\n        /* \"contracts/FunctionModifier-15.sol\":231:305  function setPause(bool _paused) external {... */\n    tag_7:\n      tag_20\n      0x04\n      dup1\n      calldatasize\n      sub\n      dup2\n      add\n      swap1\n      tag_21\n      swap2\n      swap1\n      tag_22\n      jump\t// in\n    tag_21:\n      tag_23\n      jump\t// in\n    tag_20:\n      stop\n        /* \"contracts/FunctionModifier-15.sol\":207:224  uint public count */\n    tag_9:\n      sload(0x01)\n      dup2\n      jump\t// out\n        /* \"contracts/FunctionModifier-15.sol\":396:447  function inc() external {... */\n    tag_13:\n        /* \"contracts/FunctionModifier-15.sol\":439:440  1 */\n      0x01\n        /* \"contracts/FunctionModifier-15.sol\":430:435  count */\n      dup1\n      0x00\n        /* \"contracts/FunctionModifier-15.sol\":430:440  count += 1 */\n      dup3\n      dup3\n      sload\n      tag_25\n      swap2\n      swap1\n      tag_26\n      jump\t// in\n    tag_25:\n      swap3\n      pop\n      pop\n      dup2\n      swap1\n      sstore\n      pop\n        /* \"contracts/FunctionModifier-15.sol\":396:447  function inc() external {... */\n      jump\t// out\n        /* \"contracts/FunctionModifier-15.sol\":183:201  bool public paused */\n    tag_15:\n      0x00\n      dup1\n      sload\n      swap1\n      0x0100\n      exp\n      swap1\n      div\n      0xff\n      and\n      dup2\n      jump\t// out\n        /* \"contracts/FunctionModifier-15.sol\":453:540  function dec() external {... */\n    tag_19:\n        /* \"contracts/FunctionModifier-15.sol\":496:502  paused */\n      0x00\n      dup1\n      sload\n      swap1\n      0x0100\n      exp\n      swap1\n      div\n      0xff\n      and\n        /* \"contracts/FunctionModifier-15.sol\":495:502  !paused */\n      iszero\n        /* \"contracts/FunctionModifier-15.sol\":487:513  require(!paused, \"paused\") */\n      tag_28\n      jumpi\n      mload(0x40)\n      0x08c379a000000000000000000000000000000000000000000000000000000000\n      dup2\n      mstore\n      0x04\n      add\n      tag_29\n      swap1\n      tag_30\n      jump\t// in\n    tag_29:\n      mload(0x40)\n      dup1\n      swap2\n      sub\n      swap1\n      revert\n    tag_28:\n        /* \"contracts/FunctionModifier-15.sol\":532:533  1 */\n      0x01\n        /* \"contracts/FunctionModifier-15.sol\":523:528  count */\n      dup1\n      0x00\n        /* \"contracts/FunctionModifier-15.sol\":523:533  count -= 1 */\n      dup3\n      dup3\n      sload\n      tag_31\n      swap2\n      swap1\n      tag_32\n      jump\t// in\n    tag_31:\n      swap3\n      pop\n      pop\n      dup2\n      swap1\n      sstore\n      pop\n        /* \"contracts/FunctionModifier-15.sol\":453:540  function dec() external {... */\n      jump\t// out\n        /* \"contracts/FunctionModifier-15.sol\":231:305  function setPause(bool _paused) external {... */\n    tag_23:\n        /* \"contracts/FunctionModifier-15.sol\":291:298  _paused */\n      dup1\n        /* \"contracts/FunctionModifier-15.sol\":282:288  paused */\n      0x00\n      dup1\n        /* \"contracts/FunctionModifier-15.sol\":282:298  paused = _paused */\n      0x0100\n      exp\n      dup2\n      sload\n      dup2\n      0xff\n      mul\n      not\n      and\n      swap1\n      dup4\n      iszero\n      iszero\n      mul\n      or\n      swap1\n      sstore\n      pop\n        /* \"contracts/FunctionModifier-15.sol\":231:305  function setPause(bool _paused) external {... */\n      pop\n      jump\t// out\n        /* \"#utility.yul\":7:140   */\n    tag_35:\n        /* \"#utility.yul\":50:55   */\n      0x00\n        /* \"#utility.yul\":88:94   */\n      dup2\n        /* \"#utility.yul\":75:95   */\n      calldataload\n        /* \"#utility.yul\":66:95   */\n      swap1\n      pop\n        /* \"#utility.yul\":104:134   */\n      tag_37\n        /* \"#utility.yul\":128:133   */\n      dup2\n        /* \"#utility.yul\":104:134   */\n      tag_38\n      jump\t// in\n    tag_37:\n        /* \"#utility.yul\":7:140   */\n      swap3\n      swap2\n      pop\n      pop\n      jump\t// out\n        /* \"#utility.yul\":146:469   */\n    tag_22:\n        /* \"#utility.yul\":202:208   */\n      0x00\n        /* \"#utility.yul\":251:253   */\n      0x20\n        /* \"#utility.yul\":239:248   */\n      dup3\n        /* \"#utility.yul\":230:237   */\n      dup5\n        /* \"#utility.yul\":226:249   */\n      sub\n        /* \"#utility.yul\":222:254   */\n      slt\n        /* \"#utility.yul\":219:338   */\n      iszero\n      tag_40\n      jumpi\n        /* \"#utility.yul\":257:336   */\n      tag_41\n      tag_42\n      jump\t// in\n    tag_41:\n        /* \"#utility.yul\":219:338   */\n    tag_40:\n        /* \"#utility.yul\":377:378   */\n      0x00\n        /* \"#utility.yul\":402:452   */\n      tag_43\n        /* \"#utility.yul\":444:451   */\n      dup5\n        /* \"#utility.yul\":435:441   */\n      dup3\n        /* \"#utility.yul\":424:433   */\n      dup6\n        /* \"#utility.yul\":420:442   */\n      add\n        /* \"#utility.yul\":402:452   */\n      tag_35\n      jump\t// in\n    tag_43:\n        /* \"#utility.yul\":392:452   */\n      swap2\n      pop\n        /* \"#utility.yul\":348:462   */\n      pop\n        /* \"#utility.yul\":146:469   */\n      swap3\n      swap2\n      pop\n      pop\n      jump\t// out\n        /* \"#utility.yul\":475:584   */\n    tag_44:\n        /* \"#utility.yul\":556:577   */\n      tag_46\n        /* \"#utility.yul\":571:576   */\n      dup2\n        /* \"#utility.yul\":556:577   */\n      tag_47\n      jump\t// in\n    tag_46:\n        /* \"#utility.yul\":551:554   */\n      dup3\n        /* \"#utility.yul\":544:578   */\n      mstore\n        /* \"#utility.yul\":475:584   */\n      pop\n      pop\n      jump\t// out\n        /* \"#utility.yul\":590:955   */\n    tag_48:\n        /* \"#utility.yul\":732:735   */\n      0x00\n        /* \"#utility.yul\":753:819   */\n      tag_50\n        /* \"#utility.yul\":817:818   */\n      0x06\n        /* \"#utility.yul\":812:815   */\n      dup4\n        /* \"#utility.yul\":753:819   */\n      tag_51\n      jump\t// in\n    tag_50:\n        /* \"#utility.yul\":746:819   */\n      swap2\n      pop\n        /* \"#utility.yul\":828:921   */\n      tag_52\n        /* \"#utility.yul\":917:920   */\n      dup3\n        /* \"#utility.yul\":828:921   */\n      tag_53\n      jump\t// in\n    tag_52:\n        /* \"#utility.yul\":946:948   */\n      0x20\n        /* \"#utility.yul\":941:944   */\n      dup3\n        /* \"#utility.yul\":937:949   */\n      add\n        /* \"#utility.yul\":930:949   */\n      swap1\n      pop\n        /* \"#utility.yul\":590:955   */\n      swap2\n      swap1\n      pop\n      jump\t// out\n        /* \"#utility.yul\":961:1079   */\n    tag_54:\n        /* \"#utility.yul\":1048:1072   */\n      tag_56\n        /* \"#utility.yul\":1066:1071   */\n      dup2\n        /* \"#utility.yul\":1048:1072   */\n      tag_57\n      jump\t// in\n    tag_56:\n        /* \"#utility.yul\":1043:1046   */\n      dup3\n        /* \"#utility.yul\":1036:1073   */\n      mstore\n        /* \"#utility.yul\":961:1079   */\n      pop\n      pop\n      jump\t// out\n        /* \"#utility.yul\":1085:1295   */\n    tag_17:\n        /* \"#utility.yul\":1172:1176   */\n      0x00\n        /* \"#utility.yul\":1210:1212   */\n      0x20\n        /* \"#utility.yul\":1199:1208   */\n      dup3\n        /* \"#utility.yul\":1195:1213   */\n      add\n        /* \"#utility.yul\":1187:1213   */\n      swap1\n      pop\n        /* \"#utility.yul\":1223:1288   */\n      tag_59\n        /* \"#utility.yul\":1285:1286   */\n      0x00\n        /* \"#utility.yul\":1274:1283   */\n      dup4\n        /* \"#utility.yul\":1270:1287   */\n      add\n        /* \"#utility.yul\":1261:1267   */\n      dup5\n        /* \"#utility.yul\":1223:1288   */\n      tag_44\n      jump\t// in\n    tag_59:\n        /* \"#utility.yul\":1085:1295   */\n      swap3\n      swap2\n      pop\n      pop\n      jump\t// out\n        /* \"#utility.yul\":1301:1720   */\n    tag_30:\n        /* \"#utility.yul\":1467:1471   */\n      0x00\n        /* \"#utility.yul\":1505:1507   */\n      0x20\n        /* \"#utility.yul\":1494:1503   */\n      dup3\n        /* \"#utility.yul\":1490:1508   */\n      add\n        /* \"#utility.yul\":1482:1508   */\n      swap1\n      pop\n        /* \"#utility.yul\":1554:1563   */\n      dup2\n        /* \"#utility.yul\":1548:1552   */\n      dup2\n        /* \"#utility.yul\":1544:1564   */\n      sub\n        /* \"#utility.yul\":1540:1541   */\n      0x00\n        /* \"#utility.yul\":1529:1538   */\n      dup4\n        /* \"#utility.yul\":1525:1542   */\n      add\n        /* \"#utility.yul\":1518:1565   */\n      mstore\n        /* \"#utility.yul\":1582:1713   */\n      tag_61\n        /* \"#utility.yul\":1708:1712   */\n      dup2\n        /* \"#utility.yul\":1582:1713   */\n      tag_48\n      jump\t// in\n    tag_61:\n        /* \"#utility.yul\":1574:1713   */\n      swap1\n      pop\n        /* \"#utility.yul\":1301:1720   */\n      swap2\n      swap1\n      pop\n      jump\t// out\n        /* \"#utility.yul\":1726:1948   */\n    tag_11:\n        /* \"#utility.yul\":1819:1823   */\n      0x00\n        /* \"#utility.yul\":1857:1859   */\n      0x20\n        /* \"#utility.yul\":1846:1855   */\n      dup3\n        /* \"#utility.yul\":1842:1860   */\n      add\n        /* \"#utility.yul\":1834:1860   */\n      swap1\n      pop\n        /* \"#utility.yul\":1870:1941   */\n      tag_63\n        /* \"#utility.yul\":1938:1939   */\n      0x00\n        /* \"#utility.yul\":1927:1936   */\n      dup4\n        /* \"#utility.yul\":1923:1940   */\n      add\n        /* \"#utility.yul\":1914:1920   */\n      dup5\n        /* \"#utility.yul\":1870:1941   */\n      tag_54\n      jump\t// in\n    tag_63:\n        /* \"#utility.yul\":1726:1948   */\n      swap3\n      swap2\n      pop\n      pop\n      jump\t// out\n        /* \"#utility.yul\":2035:2204   */\n    tag_51:\n        /* \"#utility.yul\":2119:2130   */\n      0x00\n        /* \"#utility.yul\":2153:2159   */\n      dup3\n        /* \"#utility.yul\":2148:2151   */\n      dup3\n        /* \"#utility.yul\":2141:2160   */\n      mstore\n        /* \"#utility.yul\":2193:2197   */\n      0x20\n        /* \"#utility.yul\":2188:2191   */\n      dup3\n        /* \"#utility.yul\":2184:2198   */\n      add\n        /* \"#utility.yul\":2169:2198   */\n      swap1\n      pop\n        /* \"#utility.yul\":2035:2204   */\n      swap3\n      swap2\n      pop\n      pop\n      jump\t// out\n        /* \"#utility.yul\":2210:2515   */\n    tag_26:\n        /* \"#utility.yul\":2250:2253   */\n      0x00\n        /* \"#utility.yul\":2269:2289   */\n      tag_68\n        /* \"#utility.yul\":2287:2288   */\n      dup3\n        /* \"#utility.yul\":2269:2289   */\n      tag_57\n      jump\t// in\n    tag_68:\n        /* \"#utility.yul\":2264:2289   */\n      swap2\n      pop\n        /* \"#utility.yul\":2303:2323   */\n      tag_69\n        /* \"#utility.yul\":2321:2322   */\n      dup4\n        /* \"#utility.yul\":2303:2323   */\n      tag_57\n      jump\t// in\n    tag_69:\n        /* \"#utility.yul\":2298:2323   */\n      swap3\n      pop\n        /* \"#utility.yul\":2457:2458   */\n      dup3\n        /* \"#utility.yul\":2389:2455   */\n      0xffffffffffffffffffffffffffffffffffffffffffffffffffffffffffffffff\n        /* \"#utility.yul\":2385:2459   */\n      sub\n        /* \"#utility.yul\":2382:2383   */\n      dup3\n        /* \"#utility.yul\":2379:2460   */\n      gt\n        /* \"#utility.yul\":2376:2483   */\n      iszero\n      tag_70\n      jumpi\n        /* \"#utility.yul\":2463:2481   */\n      tag_71\n      tag_72\n      jump\t// in\n    tag_71:\n        /* \"#utility.yul\":2376:2483   */\n    tag_70:\n        /* \"#utility.yul\":2507:2508   */\n      dup3\n        /* \"#utility.yul\":2504:2505   */\n      dup3\n        /* \"#utility.yul\":2500:2509   */\n      add\n        /* \"#utility.yul\":2493:2509   */\n      swap1\n      pop\n        /* \"#utility.yul\":2210:2515   */\n      swap3\n      swap2\n      pop\n      pop\n      jump\t// out\n        /* \"#utility.yul\":2521:2712   */\n    tag_32:\n        /* \"#utility.yul\":2561:2565   */\n      0x00\n        /* \"#utility.yul\":2581:2601   */\n      tag_74\n        /* \"#utility.yul\":2599:2600   */\n      dup3\n        /* \"#utility.yul\":2581:2601   */\n      tag_57\n      jump\t// in\n    tag_74:\n        /* \"#utility.yul\":2576:2601   */\n      swap2\n      pop\n        /* \"#utility.yul\":2615:2635   */\n      tag_75\n        /* \"#utility.yul\":2633:2634   */\n      dup4\n        /* \"#utility.yul\":2615:2635   */\n      tag_57\n      jump\t// in\n    tag_75:\n        /* \"#utility.yul\":2610:2635   */\n      swap3\n      pop\n        /* \"#utility.yul\":2654:2655   */\n      dup3\n        /* \"#utility.yul\":2651:2652   */\n      dup3\n        /* \"#utility.yul\":2648:2656   */\n      lt\n        /* \"#utility.yul\":2645:2679   */\n      iszero\n      tag_76\n      jumpi\n        /* \"#utility.yul\":2659:2677   */\n      tag_77\n      tag_72\n      jump\t// in\n    tag_77:\n        /* \"#utility.yul\":2645:2679   */\n    tag_76:\n        /* \"#utility.yul\":2704:2705   */\n      dup3\n        /* \"#utility.yul\":2701:2702   */\n      dup3\n        /* \"#utility.yul\":2697:2706   */\n      sub\n        /* \"#utility.yul\":2689:2706   */\n      swap1\n      pop\n        /* \"#utility.yul\":2521:2712   */\n      swap3\n      swap2\n      pop\n      pop\n      jump\t// out\n        /* \"#utility.yul\":2718:2808   */\n    tag_47:\n        /* \"#utility.yul\":2752:2759   */\n      0x00\n        /* \"#utility.yul\":2795:2800   */\n      dup2\n        /* \"#utility.yul\":2788:2801   */\n      iszero\n        /* \"#utility.yul\":2781:2802   */\n      iszero\n        /* \"#utility.yul\":2770:2802   */\n      swap1\n      pop\n        /* \"#utility.yul\":2718:2808   */\n      swap2\n      swap1\n      pop\n      jump\t// out\n        /* \"#utility.yul\":2814:2891   */\n    tag_57:\n        /* \"#utility.yul\":2851:2858   */\n      0x00\n        /* \"#utility.yul\":2880:2885   */\n      dup2\n        /* \"#utility.yul\":2869:2885   */\n      swap1\n      pop\n        /* \"#utility.yul\":2814:2891   */\n      swap2\n      swap1\n      pop\n      jump\t// out\n        /* \"#utility.yul\":2897:3077   */\n    tag_72:\n        /* \"#utility.yul\":2945:3022   */\n      0x4e487b7100000000000000000000000000000000000000000000000000000000\n        /* \"#utility.yul\":2942:2943   */\n      0x00\n        /* \"#utility.yul\":2935:3023   */\n      mstore\n        /* \"#utility.yul\":3042:3046   */\n      0x11\n        /* \"#utility.yul\":3039:3040   */\n      0x04\n        /* \"#utility.yul\":3032:3047   */\n      mstore\n        /* \"#utility.yul\":3066:3070   */\n      0x24\n        /* \"#utility.yul\":3063:3064   */\n      0x00\n        /* \"#utility.yul\":3056:3071   */\n      revert\n        /* \"#utility.yul\":3206:3323   */\n    tag_42:\n        /* \"#utility.yul\":3315:3316   */\n      0x00\n        /* \"#utility.yul\":3312:3313   */\n      dup1\n        /* \"#utility.yul\":3305:3317   */\n      revert\n        /* \"#utility.yul\":3329:3485   */\n    tag_53:\n        /* \"#utility.yul\":3469:3477   */\n      0x7061757365640000000000000000000000000000000000000000000000000000\n        /* \"#utility.yul\":3465:3466   */\n      0x00\n        /* \"#utility.yul\":3457:3463   */\n      dup3\n        /* \"#utility.yul\":3453:3467   */\n      add\n        /* \"#utility.yul\":3446:3478   */\n      mstore\n        /* \"#utility.yul\":3329:3485   */\n      pop\n      jump\t// out\n        /* \"#utility.yul\":3491:3607   */\n    tag_38:\n        /* \"#utility.yul\":3561:3582   */\n      tag_86\n        /* \"#utility.yul\":3576:3581   */\n      dup2\n        /* \"#utility.yul\":3561:3582   */\n      tag_47\n      jump\t// in\n    tag_86:\n        /* \"#utility.yul\":3554:3559   */\n      dup2\n        /* \"#utility.yul\":3551:3583   */\n      eq\n        /* \"#utility.yul\":3541:3601   */\n      tag_87\n      jumpi\n        /* \"#utility.yul\":3597:3598   */\n      0x00\n        /* \"#utility.yul\":3594:3595   */\n      dup1\n        /* \"#utility.yul\":3587:3599   */\n      revert\n        /* \"#utility.yul\":3541:3601   */\n    tag_87:\n        /* \"#utility.yul\":3491:3607   */\n      pop\n      jump\t// out\n\n    auxdata: 0xa26469706673582212205f3c1f049e59ec0a8d475bfa4e060402460354c885a9019427b07eab4b54d9c264736f6c63430008070033\n}\n",
				"bytecode": {
					"linkReferences": {},
					"object": "608060405234801561001057600080fd5b506103b3806100206000396000f3fe608060405234801561001057600080fd5b50600436106100575760003560e01c806306661abd1461005c578063371303c01461007a5780635c975abb14610084578063b3bcfa82146100a2578063bedb86fb146100ac575b600080fd5b6100646100c8565b604051610071919061023d565b60405180910390f35b6100826100ce565b005b61008c6100e9565b6040516100999190610202565b60405180910390f35b6100aa6100fa565b005b6100c660048036038101906100c19190610194565b610163565b005b60015481565b60018060008282546100e09190610269565b92505081905550565b60008054906101000a900460ff1681565b60008054906101000a900460ff1615610148576040517f08c379a000000000000000000000000000000000000000000000000000000000815260040161013f9061021d565b60405180910390fd5b600180600082825461015a91906102bf565b92505081905550565b806000806101000a81548160ff02191690831515021790555050565b60008135905061018e81610366565b92915050565b6000602082840312156101aa576101a9610338565b5b60006101b88482850161017f565b91505092915050565b6101ca816102f3565b82525050565b60006101dd600683610258565b91506101e88261033d565b602082019050919050565b6101fc816102ff565b82525050565b600060208201905061021760008301846101c1565b92915050565b60006020820190508181036000830152610236816101d0565b9050919050565b600060208201905061025260008301846101f3565b92915050565b600082825260208201905092915050565b6000610274826102ff565b915061027f836102ff565b9250827fffffffffffffffffffffffffffffffffffffffffffffffffffffffffffffffff038211156102b4576102b3610309565b5b828201905092915050565b60006102ca826102ff565b91506102d5836102ff565b9250828210156102e8576102e7610309565b5b828203905092915050565b60008115159050919050565b6000819050919050565b7f4e487b7100000000000000000000000000000000000000000000000000000000600052601160045260246000fd5b600080fd5b7f7061757365640000000000000000000000000000000000000000000000000000600082015250565b61036f816102f3565b811461037a57600080fd5b5056fea26469706673582212205f3c1f049e59ec0a8d475bfa4e060402460354c885a9019427b07eab4b54d9c264736f6c63430008070033",
					"opcodes": "PUSH1 0x80 PUSH1 0x40 MSTORE CALLVALUE DUP1 ISZERO PUSH2 0x10 JUMPI PUSH1 0x0 DUP1 REVERT JUMPDEST POP PUSH2 0x3B3 DUP1 PUSH2 0x20 PUSH1 0x0 CODECOPY PUSH1 0x0 RETURN INVALID PUSH1 0x80 PUSH1 0x40 MSTORE CALLVALUE DUP1 ISZERO PUSH2 0x10 JUMPI PUSH1 0x0 DUP1 REVERT JUMPDEST POP PUSH1 0x4 CALLDATASIZE LT PUSH2 0x57 JUMPI PUSH1 0x0 CALLDATALOAD PUSH1 0xE0 SHR DUP1 PUSH4 0x6661ABD EQ PUSH2 0x5C JUMPI DUP1 PUSH4 0x371303C0 EQ PUSH2 0x7A JUMPI DUP1 PUSH4 0x5C975ABB EQ PUSH2 0x84 JUMPI DUP1 PUSH4 0xB3BCFA82 EQ PUSH2 0xA2 JUMPI DUP1 PUSH4 0xBEDB86FB EQ PUSH2 0xAC JUMPI JUMPDEST PUSH1 0x0 DUP1 REVERT JUMPDEST PUSH2 0x64 PUSH2 0xC8 JUMP JUMPDEST PUSH1 0x40 MLOAD PUSH2 0x71 SWAP2 SWAP1 PUSH2 0x23D JUMP JUMPDEST PUSH1 0x40 MLOAD DUP1 SWAP2 SUB SWAP1 RETURN JUMPDEST PUSH2 0x82 PUSH2 0xCE JUMP JUMPDEST STOP JUMPDEST PUSH2 0x8C PUSH2 0xE9 JUMP JUMPDEST PUSH1 0x40 MLOAD PUSH2 0x99 SWAP2 SWAP1 PUSH2 0x202 JUMP JUMPDEST PUSH1 0x40 MLOAD DUP1 SWAP2 SUB SWAP1 RETURN JUMPDEST PUSH2 0xAA PUSH2 0xFA JUMP JUMPDEST STOP JUMPDEST PUSH2 0xC6 PUSH1 0x4 DUP1 CALLDATASIZE SUB DUP2 ADD SWAP1 PUSH2 0xC1 SWAP2 SWAP1 PUSH2 0x194 JUMP JUMPDEST PUSH2 0x163 JUMP JUMPDEST STOP JUMPDEST PUSH1 0x1 SLOAD DUP2 JUMP JUMPDEST PUSH1 0x1 DUP1 PUSH1 0x0 DUP3 DUP3 SLOAD PUSH2 0xE0 SWAP2 SWAP1 PUSH2 0x269 JUMP JUMPDEST SWAP3 POP POP DUP2 SWAP1 SSTORE POP JUMP JUMPDEST PUSH1 0x0 DUP1 SLOAD SWAP1 PUSH2 0x100 EXP SWAP1 DIV PUSH1 0xFF AND DUP2 JUMP JUMPDEST PUSH1 0x0 DUP1 SLOAD SWAP1 PUSH2 0x100 EXP SWAP1 DIV PUSH1 0xFF AND ISZERO PUSH2 0x148 JUMPI PUSH1 0x40 MLOAD PUSH32 0x8C379A000000000000000000000000000000000000000000000000000000000 DUP2 MSTORE PUSH1 0x4 ADD PUSH2 0x13F SWAP1 PUSH2 0x21D JUMP JUMPDEST PUSH1 0x40 MLOAD DUP1 SWAP2 SUB SWAP1 REVERT JUMPDEST PUSH1 0x1 DUP1 PUSH1 0x0 DUP3 DUP3 SLOAD PUSH2 0x15A SWAP2 SWAP1 PUSH2 0x2BF JUMP JUMPDEST SWAP3 POP POP DUP2 SWAP1 SSTORE POP JUMP JUMPDEST DUP1 PUSH1 0x0 DUP1 PUSH2 0x100 EXP DUP2 SLOAD DUP2 PUSH1 0xFF MUL NOT AND SWAP1 DUP4 ISZERO ISZERO MUL OR SWAP1 SSTORE POP POP JUMP JUMPDEST PUSH1 0x0 DUP2 CALLDATALOAD SWAP1 POP PUSH2 0x18E DUP2 PUSH2 0x366 JUMP JUMPDEST SWAP3 SWAP2 POP POP JUMP JUMPDEST PUSH1 0x0 PUSH1 0x20 DUP3 DUP5 SUB SLT ISZERO PUSH2 0x1AA JUMPI PUSH2 0x1A9 PUSH2 0x338 JUMP JUMPDEST JUMPDEST PUSH1 0x0 PUSH2 0x1B8 DUP5 DUP3 DUP6 ADD PUSH2 0x17F JUMP JUMPDEST SWAP2 POP POP SWAP3 SWAP2 POP POP JUMP JUMPDEST PUSH2 0x1CA DUP2 PUSH2 0x2F3 JUMP JUMPDEST DUP3 MSTORE POP POP JUMP JUMPDEST PUSH1 0x0 PUSH2 0x1DD PUSH1 0x6 DUP4 PUSH2 0x258 JUMP JUMPDEST SWAP2 POP PUSH2 0x1E8 DUP3 PUSH2 0x33D JUMP JUMPDEST PUSH1 0x20 DUP3 ADD SWAP1 POP SWAP2 SWAP1 POP JUMP JUMPDEST PUSH2 0x1FC DUP2 PUSH2 0x2FF JUMP JUMPDEST DUP3 MSTORE POP POP JUMP JUMPDEST PUSH1 0x0 PUSH1 0x20 DUP3 ADD SWAP1 POP PUSH2 0x217 PUSH1 0x0 DUP4 ADD DUP5 PUSH2 0x1C1 JUMP JUMPDEST SWAP3 SWAP2 POP POP JUMP JUMPDEST PUSH1 0x0 PUSH1 0x20 DUP3 ADD SWAP1 POP DUP2 DUP2 SUB PUSH1 0x0 DUP4 ADD MSTORE PUSH2 0x236 DUP2 PUSH2 0x1D0 JUMP JUMPDEST SWAP1 POP SWAP2 SWAP1 POP JUMP JUMPDEST PUSH1 0x0 PUSH1 0x20 DUP3 ADD SWAP1 POP PUSH2 0x252 PUSH1 0x0 DUP4 ADD DUP5 PUSH2 0x1F3 JUMP JUMPDEST SWAP3 SWAP2 POP POP JUMP JUMPDEST PUSH1 0x0 DUP3 DUP3 MSTORE PUSH1 0x20 DUP3 ADD SWAP1 POP SWAP3 SWAP2 POP POP JUMP JUMPDEST PUSH1 0x0 PUSH2 0x274 DUP3 PUSH2 0x2FF JUMP JUMPDEST SWAP2 POP PUSH2 0x27F DUP4 PUSH2 0x2FF JUMP JUMPDEST SWAP3 POP DUP3 PUSH32 0xFFFFFFFFFFFFFFFFFFFFFFFFFFFFFFFFFFFFFFFFFFFFFFFFFFFFFFFFFFFFFFFF SUB DUP3 GT ISZERO PUSH2 0x2B4 JUMPI PUSH2 0x2B3 PUSH2 0x309 JUMP JUMPDEST JUMPDEST DUP3 DUP3 ADD SWAP1 POP SWAP3 SWAP2 POP POP JUMP JUMPDEST PUSH1 0x0 PUSH2 0x2CA DUP3 PUSH2 0x2FF JUMP JUMPDEST SWAP2 POP PUSH2 0x2D5 DUP4 PUSH2 0x2FF JUMP JUMPDEST SWAP3 POP DUP3 DUP3 LT ISZERO PUSH2 0x2E8 JUMPI PUSH2 0x2E7 PUSH2 0x309 JUMP JUMPDEST JUMPDEST DUP3 DUP3 SUB SWAP1 POP SWAP3 SWAP2 POP POP JUMP JUMPDEST PUSH1 0x0 DUP2 ISZERO ISZERO SWAP1 POP SWAP2 SWAP1 POP JUMP JUMPDEST PUSH1 0x0 DUP2 SWAP1 POP SWAP2 SWAP1 POP JUMP JUMPDEST PUSH32 0x4E487B7100000000000000000000000000000000000000000000000000000000 PUSH1 0x0 MSTORE PUSH1 0x11 PUSH1 0x4 MSTORE PUSH1 0x24 PUSH1 0x0 REVERT JUMPDEST PUSH1 0x0 DUP1 REVERT JUMPDEST PUSH32 0x7061757365640000000000000000000000000000000000000000000000000000 PUSH1 0x0 DUP3 ADD MSTORE POP JUMP JUMPDEST PUSH2 0x36F DUP2 PUSH2 0x2F3 JUMP JUMPDEST DUP2 EQ PUSH2 0x37A JUMPI PUSH1 0x0 DUP1 REVERT JUMPDEST POP JUMP INVALID LOG2 PUSH5 0x6970667358 0x22 SLT KECCAK256 0x5F EXTCODECOPY 0x1F DIV SWAP15 MSIZE 0xEC EXP DUP14 SELFBALANCE JUMPDEST STATICCALL 0x4E MOD DIV MUL CHAINID SUB SLOAD 0xC8 DUP6 0xA9 ADD SWAP5 0x27 0xB0 PUSH31 0xAB4B54D9C264736F6C63430008070033000000000000000000000000000000 "
				},
				"gasEstimates": {
					"creation": {
						"codeDepositCost": "189400",
						"executionCost": "232",
						"totalCost": "189632"
					},
					"external": {
						"count()": "2407",
						"dec()": "infinite",
						"inc()": "infinite",
						"paused()": "2490",
						"setPause(bool)": "24745"
					}
				},
				"methodIdentifiers": {
					"count()": "06661abd",
					"dec()": "b3bcfa82",
					"inc()": "371303c0",
					"paused()": "5c975abb",
					"setPause(bool)": "bedb86fb"
				}
			},
			"storageLayout": {
				"storage": [
					{
						"astId": 3,
						"contract": "contracts/FunctionModifier-15.sol:FunctionModifier",
						"label": "paused",
						"offset": 0,
						"slot": "0",
						"type": "t_bool"
					},
					{
						"astId": 5,
						"contract": "contracts/FunctionModifier-15.sol:FunctionModifier",
						"label": "count",
						"offset": 0,
						"slot": "1",
						"type": "t_uint256"
					}
				],
				"types": {
					"t_bool": {
						"encoding": "inplace",
						"label": "bool",
						"numberOfBytes": "1"
					},
					"t_uint256": {
						"encoding": "inplace",
						"label": "uint256",
						"numberOfBytes": "32"
					}
				}
			},
			"userdoc": {
				"kind": "user",
				"methods": {},
				"version": 1
			}
		}
	}
}