{
	"contracts/FunctionModifier-15.sol": {
		"FunctionModifier": {
			"abi": [
				{
					"inputs": [],
					"name": "count",
					"outputs": [
						{
							"internalType": "uint256",
							"name": "",
							"type": "uint256"
						}
					],
					"stateMutability": "view",
					"type": "function"
				},
				{
					"inputs": [],
					"name": "dec",
					"outputs": [],
					"stateMutability": "nonpayable",
					"type": "function"
				},
				{
					"inputs": [],
					"name": "inc",
					"outputs": [],
					"stateMutability": "nonpayable",
					"type": "function"
				},
				{
					"inputs": [
						{
							"internalType": "uint256",
							"name": "_x",
							"type": "uint256"
						}
					],
					"name": "incBy",
					"outputs": [],
					"stateMutability": "nonpayable",
					"type": "function"
				},
				{
					"inputs": [],
					"name": "paused",
					"outputs": [
						{
							"internalType": "bool",
							"name": "",
							"type": "bool"
						}
					],
					"stateMutability": "view",
					"type": "function"
				},
				{
					"inputs": [
						{
							"internalType": "bool",
							"name": "_paused",
							"type": "bool"
						}
					],
					"name": "setPause",
					"outputs": [],
					"stateMutability": "nonpayable",
					"type": "function"
				}
			],
			"devdoc": {
				"kind": "dev",
				"methods": {},
				"version": 1
			},
			"evm": {
				"assembly": "    /* \"contracts/FunctionModifier-15.sol\":151:589  contract FunctionModifier {... */\n  mstore(0x40, 0x80)\n  callvalue\n  dup1\n  iszero\n  tag_1\n  jumpi\n  0x00\n  dup1\n  revert\ntag_1:\n  pop\n  dataSize(sub_0)\n  dup1\n  dataOffset(sub_0)\n  0x00\n  codecopy\n  0x00\n  return\nstop\n\nsub_0: assembly {\n        /* \"contracts/FunctionModifier-15.sol\":151:589  contract FunctionModifier {... */\n      mstore(0x40, 0x80)\n      callvalue\n      dup1\n      iszero\n      tag_1\n      jumpi\n      0x00\n      dup1\n      revert\n    tag_1:\n      pop\n      jumpi(tag_2, lt(calldatasize, 0x04))\n      shr(0xe0, calldataload(0x00))\n      dup1\n      0x06661abd\n      eq\n      tag_3\n      jumpi\n      dup1\n      0x371303c0\n      eq\n      tag_4\n      jumpi\n      dup1\n      0x5c975abb\n      eq\n      tag_5\n      jumpi\n      dup1\n      0x70119d06\n      eq\n      tag_6\n      jumpi\n      dup1\n      0xb3bcfa82\n      eq\n      tag_7\n      jumpi\n      dup1\n      0xbedb86fb\n      eq\n      tag_8\n      jumpi\n    tag_2:\n      0x00\n      dup1\n      revert\n        /* \"contracts/FunctionModifier-15.sol\":207:224  uint public count */\n    tag_3:\n      tag_9\n      tag_10\n      jump\t// in\n    tag_9:\n      mload(0x40)\n      tag_11\n      swap2\n      swap1\n      tag_12\n      jump\t// in\n    tag_11:\n      mload(0x40)\n      dup1\n      swap2\n      sub\n      swap1\n      return\n        /* \"contracts/FunctionModifier-15.sol\":396:461  function inc() external whenNotPaused {... */\n    tag_4:\n      tag_13\n      tag_14\n      jump\t// in\n    tag_13:\n      stop\n        /* \"contracts/FunctionModifier-15.sol\":183:201  bool public paused */\n    tag_5:\n      tag_15\n      tag_16\n      jump\t// in\n    tag_15:\n      mload(0x40)\n      tag_17\n      swap2\n      swap1\n      tag_18\n      jump\t// in\n    tag_17:\n      mload(0x40)\n      dup1\n      swap2\n      sub\n      swap1\n      return\n        /* \"contracts/FunctionModifier-15.sol\":538:587  function incBy(uint _x) external whenNotPaused {} */\n    tag_6:\n      tag_19\n      0x04\n      dup1\n      calldatasize\n      sub\n      dup2\n      add\n      swap1\n      tag_20\n      swap2\n      swap1\n      tag_21\n      jump\t// in\n    tag_20:\n      tag_22\n      jump\t// in\n    tag_19:\n      stop\n        /* \"contracts/FunctionModifier-15.sol\":467:532  function dec() external whenNotPaused {... */\n    tag_7:\n      tag_23\n      tag_24\n      jump\t// in\n    tag_23:\n      stop\n        /* \"contracts/FunctionModifier-15.sol\":231:305  function setPause(bool _paused) external {... */\n    tag_8:\n      tag_25\n      0x04\n      dup1\n      calldatasize\n      sub\n      dup2\n      add\n      swap1\n      tag_26\n      swap2\n      swap1\n      tag_27\n      jump\t// in\n    tag_26:\n      tag_28\n      jump\t// in\n    tag_25:\n      stop\n        /* \"contracts/FunctionModifier-15.sol\":207:224  uint public count */\n    tag_10:\n      sload(0x01)\n      dup2\n      jump\t// out\n        /* \"contracts/FunctionModifier-15.sol\":396:461  function inc() external whenNotPaused {... */\n    tag_14:\n        /* \"contracts/FunctionModifier-15.sol\":355:361  paused */\n      0x00\n      dup1\n      sload\n      swap1\n      0x0100\n      exp\n      swap1\n      div\n      0xff\n      and\n        /* \"contracts/FunctionModifier-15.sol\":354:361  !paused */\n      iszero\n        /* \"contracts/FunctionModifier-15.sol\":346:372  require(!paused, \"paused\") */\n      tag_30\n      jumpi\n      mload(0x40)\n      0x08c379a000000000000000000000000000000000000000000000000000000000\n      dup2\n      mstore\n      0x04\n      add\n      tag_31\n      swap1\n      tag_32\n      jump\t// in\n    tag_31:\n      mload(0x40)\n      dup1\n      swap2\n      sub\n      swap1\n      revert\n    tag_30:\n        /* \"contracts/FunctionModifier-15.sol\":453:454  1 */\n      0x01\n        /* \"contracts/FunctionModifier-15.sol\":444:449  count */\n      dup1\n      0x00\n        /* \"contracts/FunctionModifier-15.sol\":444:454  count += 1 */\n      dup3\n      dup3\n      sload\n      tag_34\n      swap2\n      swap1\n      tag_35\n      jump\t// in\n    tag_34:\n      swap3\n      pop\n      pop\n      dup2\n      swap1\n      sstore\n      pop\n        /* \"contracts/FunctionModifier-15.sol\":396:461  function inc() external whenNotPaused {... */\n      jump\t// out\n        /* \"contracts/FunctionModifier-15.sol\":183:201  bool public paused */\n    tag_16:\n      0x00\n      dup1\n      sload\n      swap1\n      0x0100\n      exp\n      swap1\n      div\n      0xff\n      and\n      dup2\n      jump\t// out\n        /* \"contracts/FunctionModifier-15.sol\":538:587  function incBy(uint _x) external whenNotPaused {} */\n    tag_22:\n        /* \"contracts/FunctionModifier-15.sol\":355:361  paused */\n      0x00\n      dup1\n      sload\n      swap1\n      0x0100\n      exp\n      swap1\n      div\n      0xff\n      and\n        /* \"contracts/FunctionModifier-15.sol\":354:361  !paused */\n      iszero\n        /* \"contracts/FunctionModifier-15.sol\":346:372  require(!paused, \"paused\") */\n      tag_37\n      jumpi\n      mload(0x40)\n      0x08c379a000000000000000000000000000000000000000000000000000000000\n      dup2\n      mstore\n      0x04\n      add\n      tag_38\n      swap1\n      tag_32\n      jump\t// in\n    tag_38:\n      mload(0x40)\n      dup1\n      swap2\n      sub\n      swap1\n      revert\n    tag_37:\n        /* \"contracts/FunctionModifier-15.sol\":538:587  function incBy(uint _x) external whenNotPaused {} */\n      pop\n      jump\t// out\n        /* \"contracts/FunctionModifier-15.sol\":467:532  function dec() external whenNotPaused {... */\n    tag_24:\n        /* \"contracts/FunctionModifier-15.sol\":355:361  paused */\n      0x00\n      dup1\n      sload\n      swap1\n      0x0100\n      exp\n      swap1\n      div\n      0xff\n      and\n        /* \"contracts/FunctionModifier-15.sol\":354:361  !paused */\n      iszero\n        /* \"contracts/FunctionModifier-15.sol\":346:372  require(!paused, \"paused\") */\n      tag_41\n      jumpi\n      mload(0x40)\n      0x08c379a000000000000000000000000000000000000000000000000000000000\n      dup2\n      mstore\n      0x04\n      add\n      tag_42\n      swap1\n      tag_32\n      jump\t// in\n    tag_42:\n      mload(0x40)\n      dup1\n      swap2\n      sub\n      swap1\n      revert\n    tag_41:\n        /* \"contracts/FunctionModifier-15.sol\":524:525  1 */\n      0x01\n        /* \"contracts/FunctionModifier-15.sol\":515:520  count */\n      dup1\n      0x00\n        /* \"contracts/FunctionModifier-15.sol\":515:525  count -= 1 */\n      dup3\n      dup3\n      sload\n      tag_44\n      swap2\n      swap1\n      tag_45\n      jump\t// in\n    tag_44:\n      swap3\n      pop\n      pop\n      dup2\n      swap1\n      sstore\n      pop\n        /* \"contracts/FunctionModifier-15.sol\":467:532  function dec() external whenNotPaused {... */\n      jump\t// out\n        /* \"contracts/FunctionModifier-15.sol\":231:305  function setPause(bool _paused) external {... */\n    tag_28:\n        /* \"contracts/FunctionModifier-15.sol\":291:298  _paused */\n      dup1\n        /* \"contracts/FunctionModifier-15.sol\":282:288  paused */\n      0x00\n      dup1\n        /* \"contracts/FunctionModifier-15.sol\":282:298  paused = _paused */\n      0x0100\n      exp\n      dup2\n      sload\n      dup2\n      0xff\n      mul\n      not\n      and\n      swap1\n      dup4\n      iszero\n      iszero\n      mul\n      or\n      swap1\n      sstore\n      pop\n        /* \"contracts/FunctionModifier-15.sol\":231:305  function setPause(bool _paused) external {... */\n      pop\n      jump\t// out\n        /* \"#utility.yul\":7:140   */\n    tag_48:\n        /* \"#utility.yul\":50:55   */\n      0x00\n        /* \"#utility.yul\":88:94   */\n      dup2\n        /* \"#utility.yul\":75:95   */\n      calldataload\n        /* \"#utility.yul\":66:95   */\n      swap1\n      pop\n        /* \"#utility.yul\":104:134   */\n      tag_50\n        /* \"#utility.yul\":128:133   */\n      dup2\n        /* \"#utility.yul\":104:134   */\n      tag_51\n      jump\t// in\n    tag_50:\n        /* \"#utility.yul\":7:140   */\n      swap3\n      swap2\n      pop\n      pop\n      jump\t// out\n        /* \"#utility.yul\":146:285   */\n    tag_52:\n        /* \"#utility.yul\":192:197   */\n      0x00\n        /* \"#utility.yul\":230:236   */\n      dup2\n        /* \"#utility.yul\":217:237   */\n      calldataload\n        /* \"#utility.yul\":208:237   */\n      swap1\n      pop\n        /* \"#utility.yul\":246:279   */\n      tag_54\n        /* \"#utility.yul\":273:278   */\n      dup2\n        /* \"#utility.yul\":246:279   */\n      tag_55\n      jump\t// in\n    tag_54:\n        /* \"#utility.yul\":146:285   */\n      swap3\n      swap2\n      pop\n      pop\n      jump\t// out\n        /* \"#utility.yul\":291:614   */\n    tag_27:\n        /* \"#utility.yul\":347:353   */\n      0x00\n        /* \"#utility.yul\":396:398   */\n      0x20\n        /* \"#utility.yul\":384:393   */\n      dup3\n        /* \"#utility.yul\":375:382   */\n      dup5\n        /* \"#utility.yul\":371:394   */\n      sub\n        /* \"#utility.yul\":367:399   */\n      slt\n        /* \"#utility.yul\":364:483   */\n      iszero\n      tag_57\n      jumpi\n        /* \"#utility.yul\":402:481   */\n      tag_58\n      tag_59\n      jump\t// in\n    tag_58:\n        /* \"#utility.yul\":364:483   */\n    tag_57:\n        /* \"#utility.yul\":522:523   */\n      0x00\n        /* \"#utility.yul\":547:597   */\n      tag_60\n        /* \"#utility.yul\":589:596   */\n      dup5\n        /* \"#utility.yul\":580:586   */\n      dup3\n        /* \"#utility.yul\":569:578   */\n      dup6\n        /* \"#utility.yul\":565:587   */\n      add\n        /* \"#utility.yul\":547:597   */\n      tag_48\n      jump\t// in\n    tag_60:\n        /* \"#utility.yul\":537:597   */\n      swap2\n      pop\n        /* \"#utility.yul\":493:607   */\n      pop\n        /* \"#utility.yul\":291:614   */\n      swap3\n      swap2\n      pop\n      pop\n      jump\t// out\n        /* \"#utility.yul\":620:949   */\n    tag_21:\n        /* \"#utility.yul\":679:685   */\n      0x00\n        /* \"#utility.yul\":728:730   */\n      0x20\n        /* \"#utility.yul\":716:725   */\n      dup3\n        /* \"#utility.yul\":707:714   */\n      dup5\n        /* \"#utility.yul\":703:726   */\n      sub\n        /* \"#utility.yul\":699:731   */\n      slt\n        /* \"#utility.yul\":696:815   */\n      iszero\n      tag_62\n      jumpi\n        /* \"#utility.yul\":734:813   */\n      tag_63\n      tag_59\n      jump\t// in\n    tag_63:\n        /* \"#utility.yul\":696:815   */\n    tag_62:\n        /* \"#utility.yul\":854:855   */\n      0x00\n        /* \"#utility.yul\":879:932   */\n      tag_64\n        /* \"#utility.yul\":924:931   */\n      dup5\n        /* \"#utility.yul\":915:921   */\n      dup3\n        /* \"#utility.yul\":904:913   */\n      dup6\n        /* \"#utility.yul\":900:922   */\n      add\n        /* \"#utility.yul\":879:932   */\n      tag_52\n      jump\t// in\n    tag_64:\n        /* \"#utility.yul\":869:932   */\n      swap2\n      pop\n        /* \"#utility.yul\":825:942   */\n      pop\n        /* \"#utility.yul\":620:949   */\n      swap3\n      swap2\n      pop\n      pop\n      jump\t// out\n        /* \"#utility.yul\":955:1064   */\n    tag_65:\n        /* \"#utility.yul\":1036:1057   */\n      tag_67\n        /* \"#utility.yul\":1051:1056   */\n      dup2\n        /* \"#utility.yul\":1036:1057   */\n      tag_68\n      jump\t// in\n    tag_67:\n        /* \"#utility.yul\":1031:1034   */\n      dup3\n        /* \"#utility.yul\":1024:1058   */\n      mstore\n        /* \"#utility.yul\":955:1064   */\n      pop\n      pop\n      jump\t// out\n        /* \"#utility.yul\":1070:1435   */\n    tag_69:\n        /* \"#utility.yul\":1212:1215   */\n      0x00\n        /* \"#utility.yul\":1233:1299   */\n      tag_71\n        /* \"#utility.yul\":1297:1298   */\n      0x06\n        /* \"#utility.yul\":1292:1295   */\n      dup4\n        /* \"#utility.yul\":1233:1299   */\n      tag_72\n      jump\t// in\n    tag_71:\n        /* \"#utility.yul\":1226:1299   */\n      swap2\n      pop\n        /* \"#utility.yul\":1308:1401   */\n      tag_73\n        /* \"#utility.yul\":1397:1400   */\n      dup3\n        /* \"#utility.yul\":1308:1401   */\n      tag_74\n      jump\t// in\n    tag_73:\n        /* \"#utility.yul\":1426:1428   */\n      0x20\n        /* \"#utility.yul\":1421:1424   */\n      dup3\n        /* \"#utility.yul\":1417:1429   */\n      add\n        /* \"#utility.yul\":1410:1429   */\n      swap1\n      pop\n        /* \"#utility.yul\":1070:1435   */\n      swap2\n      swap1\n      pop\n      jump\t// out\n        /* \"#utility.yul\":1441:1559   */\n    tag_75:\n        /* \"#utility.yul\":1528:1552   */\n      tag_77\n        /* \"#utility.yul\":1546:1551   */\n      dup2\n        /* \"#utility.yul\":1528:1552   */\n      tag_78\n      jump\t// in\n    tag_77:\n        /* \"#utility.yul\":1523:1526   */\n      dup3\n        /* \"#utility.yul\":1516:1553   */\n      mstore\n        /* \"#utility.yul\":1441:1559   */\n      pop\n      pop\n      jump\t// out\n        /* \"#utility.yul\":1565:1775   */\n    tag_18:\n        /* \"#utility.yul\":1652:1656   */\n      0x00\n        /* \"#utility.yul\":1690:1692   */\n      0x20\n        /* \"#utility.yul\":1679:1688   */\n      dup3\n        /* \"#utility.yul\":1675:1693   */\n      add\n        /* \"#utility.yul\":1667:1693   */\n      swap1\n      pop\n        /* \"#utility.yul\":1703:1768   */\n      tag_80\n        /* \"#utility.yul\":1765:1766   */\n      0x00\n        /* \"#utility.yul\":1754:1763   */\n      dup4\n        /* \"#utility.yul\":1750:1767   */\n      add\n        /* \"#utility.yul\":1741:1747   */\n      dup5\n        /* \"#utility.yul\":1703:1768   */\n      tag_65\n      jump\t// in\n    tag_80:\n        /* \"#utility.yul\":1565:1775   */\n      swap3\n      swap2\n      pop\n      pop\n      jump\t// out\n        /* \"#utility.yul\":1781:2200   */\n    tag_32:\n        /* \"#utility.yul\":1947:1951   */\n      0x00\n        /* \"#utility.yul\":1985:1987   */\n      0x20\n        /* \"#utility.yul\":1974:1983   */\n      dup3\n        /* \"#utility.yul\":1970:1988   */\n      add\n        /* \"#utility.yul\":1962:1988   */\n      swap1\n      pop\n        /* \"#utility.yul\":2034:2043   */\n      dup2\n        /* \"#utility.yul\":2028:2032   */\n      dup2\n        /* \"#utility.yul\":2024:2044   */\n      sub\n        /* \"#utility.yul\":2020:2021   */\n      0x00\n        /* \"#utility.yul\":2009:2018   */\n      dup4\n        /* \"#utility.yul\":2005:2022   */\n      add\n        /* \"#utility.yul\":1998:2045   */\n      mstore\n        /* \"#utility.yul\":2062:2193   */\n      tag_82\n        /* \"#utility.yul\":2188:2192   */\n      dup2\n        /* \"#utility.yul\":2062:2193   */\n      tag_69\n      jump\t// in\n    tag_82:\n        /* \"#utility.yul\":2054:2193   */\n      swap1\n      pop\n        /* \"#utility.yul\":1781:2200   */\n      swap2\n      swap1\n      pop\n      jump\t// out\n        /* \"#utility.yul\":2206:2428   */\n    tag_12:\n        /* \"#utility.yul\":2299:2303   */\n      0x00\n        /* \"#utility.yul\":2337:2339   */\n      0x20\n        /* \"#utility.yul\":2326:2335   */\n      dup3\n        /* \"#utility.yul\":2322:2340   */\n      add\n        /* \"#utility.yul\":2314:2340   */\n      swap1\n      pop\n        /* \"#utility.yul\":2350:2421   */\n      tag_84\n        /* \"#utility.yul\":2418:2419   */\n      0x00\n        /* \"#utility.yul\":2407:2416   */\n      dup4\n        /* \"#utility.yul\":2403:2420   */\n      add\n        /* \"#utility.yul\":2394:2400   */\n      dup5\n        /* \"#utility.yul\":2350:2421   */\n      tag_75\n      jump\t// in\n    tag_84:\n        /* \"#utility.yul\":2206:2428   */\n      swap3\n      swap2\n      pop\n      pop\n      jump\t// out\n        /* \"#utility.yul\":2515:2684   */\n    tag_72:\n        /* \"#utility.yul\":2599:2610   */\n      0x00\n        /* \"#utility.yul\":2633:2639   */\n      dup3\n        /* \"#utility.yul\":2628:2631   */\n      dup3\n        /* \"#utility.yul\":2621:2640   */\n      mstore\n        /* \"#utility.yul\":2673:2677   */\n      0x20\n        /* \"#utility.yul\":2668:2671   */\n      dup3\n        /* \"#utility.yul\":2664:2678   */\n      add\n        /* \"#utility.yul\":2649:2678   */\n      swap1\n      pop\n        /* \"#utility.yul\":2515:2684   */\n      swap3\n      swap2\n      pop\n      pop\n      jump\t// out\n        /* \"#utility.yul\":2690:2995   */\n    tag_35:\n        /* \"#utility.yul\":2730:2733   */\n      0x00\n        /* \"#utility.yul\":2749:2769   */\n      tag_89\n        /* \"#utility.yul\":2767:2768   */\n      dup3\n        /* \"#utility.yul\":2749:2769   */\n      tag_78\n      jump\t// in\n    tag_89:\n        /* \"#utility.yul\":2744:2769   */\n      swap2\n      pop\n        /* \"#utility.yul\":2783:2803   */\n      tag_90\n        /* \"#utility.yul\":2801:2802   */\n      dup4\n        /* \"#utility.yul\":2783:2803   */\n      tag_78\n      jump\t// in\n    tag_90:\n        /* \"#utility.yul\":2778:2803   */\n      swap3\n      pop\n        /* \"#utility.yul\":2937:2938   */\n      dup3\n        /* \"#utility.yul\":2869:2935   */\n      0xffffffffffffffffffffffffffffffffffffffffffffffffffffffffffffffff\n        /* \"#utility.yul\":2865:2939   */\n      sub\n        /* \"#utility.yul\":2862:2863   */\n      dup3\n        /* \"#utility.yul\":2859:2940   */\n      gt\n        /* \"#utility.yul\":2856:2963   */\n      iszero\n      tag_91\n      jumpi\n        /* \"#utility.yul\":2943:2961   */\n      tag_92\n      tag_93\n      jump\t// in\n    tag_92:\n        /* \"#utility.yul\":2856:2963   */\n    tag_91:\n        /* \"#utility.yul\":2987:2988   */\n      dup3\n        /* \"#utility.yul\":2984:2985   */\n      dup3\n        /* \"#utility.yul\":2980:2989   */\n      add\n        /* \"#utility.yul\":2973:2989   */\n      swap1\n      pop\n        /* \"#utility.yul\":2690:2995   */\n      swap3\n      swap2\n      pop\n      pop\n      jump\t// out\n        /* \"#utility.yul\":3001:3192   */\n    tag_45:\n        /* \"#utility.yul\":3041:3045   */\n      0x00\n        /* \"#utility.yul\":3061:3081   */\n      tag_95\n        /* \"#utility.yul\":3079:3080   */\n      dup3\n        /* \"#utility.yul\":3061:3081   */\n      tag_78\n      jump\t// in\n    tag_95:\n        /* \"#utility.yul\":3056:3081   */\n      swap2\n      pop\n        /* \"#utility.yul\":3095:3115   */\n      tag_96\n        /* \"#utility.yul\":3113:3114   */\n      dup4\n        /* \"#utility.yul\":3095:3115   */\n      tag_78\n      jump\t// in\n    tag_96:\n        /* \"#utility.yul\":3090:3115   */\n      swap3\n      pop\n        /* \"#utility.yul\":3134:3135   */\n      dup3\n        /* \"#utility.yul\":3131:3132   */\n      dup3\n        /* \"#utility.yul\":3128:3136   */\n      lt\n        /* \"#utility.yul\":3125:3159   */\n      iszero\n      tag_97\n      jumpi\n        /* \"#utility.yul\":3139:3157   */\n      tag_98\n      tag_93\n      jump\t// in\n    tag_98:\n        /* \"#utility.yul\":3125:3159   */\n    tag_97:\n        /* \"#utility.yul\":3184:3185   */\n      dup3\n        /* \"#utility.yul\":3181:3182   */\n      dup3\n        /* \"#utility.yul\":3177:3186   */\n      sub\n        /* \"#utility.yul\":3169:3186   */\n      swap1\n      pop\n        /* \"#utility.yul\":3001:3192   */\n      swap3\n      swap2\n      pop\n      pop\n      jump\t// out\n        /* \"#utility.yul\":3198:3288   */\n    tag_68:\n        /* \"#utility.yul\":3232:3239   */\n      0x00\n        /* \"#utility.yul\":3275:3280   */\n      dup2\n        /* \"#utility.yul\":3268:3281   */\n      iszero\n        /* \"#utility.yul\":3261:3282   */\n      iszero\n        /* \"#utility.yul\":3250:3282   */\n      swap1\n      pop\n        /* \"#utility.yul\":3198:3288   */\n      swap2\n      swap1\n      pop\n      jump\t// out\n        /* \"#utility.yul\":3294:3371   */\n    tag_78:\n        /* \"#utility.yul\":3331:3338   */\n      0x00\n        /* \"#utility.yul\":3360:3365   */\n      dup2\n        /* \"#utility.yul\":3349:3365   */\n      swap1\n      pop\n        /* \"#utility.yul\":3294:3371   */\n      swap2\n      swap1\n      pop\n      jump\t// out\n        /* \"#utility.yul\":3377:3557   */\n    tag_93:\n        /* \"#utility.yul\":3425:3502   */\n      0x4e487b7100000000000000000000000000000000000000000000000000000000\n        /* \"#utility.yul\":3422:3423   */\n      0x00\n        /* \"#utility.yul\":3415:3503   */\n      mstore\n        /* \"#utility.yul\":3522:3526   */\n      0x11\n        /* \"#utility.yul\":3519:3520   */\n      0x04\n        /* \"#utility.yul\":3512:3527   */\n      mstore\n        /* \"#utility.yul\":3546:3550   */\n      0x24\n        /* \"#utility.yul\":3543:3544   */\n      0x00\n        /* \"#utility.yul\":3536:3551   */\n      revert\n        /* \"#utility.yul\":3686:3803   */\n    tag_59:\n        /* \"#utility.yul\":3795:3796   */\n      0x00\n        /* \"#utility.yul\":3792:3793   */\n      dup1\n        /* \"#utility.yul\":3785:3797   */\n      revert\n        /* \"#utility.yul\":3809:3965   */\n    tag_74:\n        /* \"#utility.yul\":3949:3957   */\n      0x7061757365640000000000000000000000000000000000000000000000000000\n        /* \"#utility.yul\":3945:3946   */\n      0x00\n        /* \"#utility.yul\":3937:3943   */\n      dup3\n        /* \"#utility.yul\":3933:3947   */\n      add\n        /* \"#utility.yul\":3926:3958   */\n      mstore\n        /* \"#utility.yul\":3809:3965   */\n      pop\n      jump\t// out\n        /* \"#utility.yul\":3971:4087   */\n    tag_51:\n        /* \"#utility.yul\":4041:4062   */\n      tag_107\n        /* \"#utility.yul\":4056:4061   */\n      dup2\n        /* \"#utility.yul\":4041:4062   */\n      tag_68\n      jump\t// in\n    tag_107:\n        /* \"#utility.yul\":4034:4039   */\n      dup2\n        /* \"#utility.yul\":4031:4063   */\n      eq\n        /* \"#utility.yul\":4021:4081   */\n      tag_108\n      jumpi\n        /* \"#utility.yul\":4077:4078   */\n      0x00\n        /* \"#utility.yul\":4074:4075   */\n      dup1\n        /* \"#utility.yul\":4067:4079   */\n      revert\n        /* \"#utility.yul\":4021:4081   */\n    tag_108:\n        /* \"#utility.yul\":3971:4087   */\n      pop\n      jump\t// out\n        /* \"#utility.yul\":4093:4215   */\n    tag_55:\n        /* \"#utility.yul\":4166:4190   */\n      tag_110\n        /* \"#utility.yul\":4184:4189   */\n      dup2\n        /* \"#utility.yul\":4166:4190   */\n      tag_78\n      jump\t// in\n    tag_110:\n        /* \"#utility.yul\":4159:4164   */\n      dup2\n        /* \"#utility.yul\":4156:4191   */\n      eq\n        /* \"#utility.yul\":4146:4209   */\n      tag_111\n      jumpi\n        /* \"#utility.yul\":4205:4206   */\n      0x00\n        /* \"#utility.yul\":4202:4203   */\n      dup1\n        /* \"#utility.yul\":4195:4207   */\n      revert\n        /* \"#utility.yul\":4146:4209   */\n    tag_111:\n        /* \"#utility.yul\":4093:4215   */\n      pop\n      jump\t// out\n\n    auxdata: 0xa2646970667358221220bec1381bf629723d34ea353fc2cde95c7389e1bbba72e25f67fd1de47f451e7d64736f6c63430008070033\n}\n",
				"bytecode": {
					"linkReferences": {},
					"object": "608060405234801561001057600080fd5b506104d2806100206000396000f3fe608060405234801561001057600080fd5b50600436106100625760003560e01c806306661abd14610067578063371303c0146100855780635c975abb1461008f57806370119d06146100ad578063b3bcfa82146100c9578063bedb86fb146100d3575b600080fd5b61006f6100ef565b60405161007c9190610345565b60405180910390f35b61008d6100f5565b005b61009761015e565b6040516100a4919061030a565b60405180910390f35b6100c760048036038101906100c2919061029c565b61016f565b005b6100d16101c0565b005b6100ed60048036038101906100e8919061026f565b610229565b005b60015481565b60008054906101000a900460ff1615610143576040517f08c379a000000000000000000000000000000000000000000000000000000000815260040161013a90610325565b60405180910390fd5b60018060008282546101559190610371565b92505081905550565b60008054906101000a900460ff1681565b60008054906101000a900460ff16156101bd576040517f08c379a00000000000000000000000000000000000000000000000000000000081526004016101b490610325565b60405180910390fd5b50565b60008054906101000a900460ff161561020e576040517f08c379a000000000000000000000000000000000000000000000000000000000815260040161020590610325565b60405180910390fd5b600180600082825461022091906103c7565b92505081905550565b806000806101000a81548160ff02191690831515021790555050565b6000813590506102548161046e565b92915050565b60008135905061026981610485565b92915050565b60006020828403121561028557610284610440565b5b600061029384828501610245565b91505092915050565b6000602082840312156102b2576102b1610440565b5b60006102c08482850161025a565b91505092915050565b6102d2816103fb565b82525050565b60006102e5600683610360565b91506102f082610445565b602082019050919050565b61030481610407565b82525050565b600060208201905061031f60008301846102c9565b92915050565b6000602082019050818103600083015261033e816102d8565b9050919050565b600060208201905061035a60008301846102fb565b92915050565b600082825260208201905092915050565b600061037c82610407565b915061038783610407565b9250827fffffffffffffffffffffffffffffffffffffffffffffffffffffffffffffffff038211156103bc576103bb610411565b5b828201905092915050565b60006103d282610407565b91506103dd83610407565b9250828210156103f0576103ef610411565b5b828203905092915050565b60008115159050919050565b6000819050919050565b7f4e487b7100000000000000000000000000000000000000000000000000000000600052601160045260246000fd5b600080fd5b7f7061757365640000000000000000000000000000000000000000000000000000600082015250565b610477816103fb565b811461048257600080fd5b50565b61048e81610407565b811461049957600080fd5b5056fea2646970667358221220bec1381bf629723d34ea353fc2cde95c7389e1bbba72e25f67fd1de47f451e7d64736f6c63430008070033",
					"opcodes": "PUSH1 0x80 PUSH1 0x40 MSTORE CALLVALUE DUP1 ISZERO PUSH2 0x10 JUMPI PUSH1 0x0 DUP1 REVERT JUMPDEST POP PUSH2 0x4D2 DUP1 PUSH2 0x20 PUSH1 0x0 CODECOPY PUSH1 0x0 RETURN INVALID PUSH1 0x80 PUSH1 0x40 MSTORE CALLVALUE DUP1 ISZERO PUSH2 0x10 JUMPI PUSH1 0x0 DUP1 REVERT JUMPDEST POP PUSH1 0x4 CALLDATASIZE LT PUSH2 0x62 JUMPI PUSH1 0x0 CALLDATALOAD PUSH1 0xE0 SHR DUP1 PUSH4 0x6661ABD EQ PUSH2 0x67 JUMPI DUP1 PUSH4 0x371303C0 EQ PUSH2 0x85 JUMPI DUP1 PUSH4 0x5C975ABB EQ PUSH2 0x8F JUMPI DUP1 PUSH4 0x70119D06 EQ PUSH2 0xAD JUMPI DUP1 PUSH4 0xB3BCFA82 EQ PUSH2 0xC9 JUMPI DUP1 PUSH4 0xBEDB86FB EQ PUSH2 0xD3 JUMPI JUMPDEST PUSH1 0x0 DUP1 REVERT JUMPDEST PUSH2 0x6F PUSH2 0xEF JUMP JUMPDEST PUSH1 0x40 MLOAD PUSH2 0x7C SWAP2 SWAP1 PUSH2 0x345 JUMP JUMPDEST PUSH1 0x40 MLOAD DUP1 SWAP2 SUB SWAP1 RETURN JUMPDEST PUSH2 0x8D PUSH2 0xF5 JUMP JUMPDEST STOP JUMPDEST PUSH2 0x97 PUSH2 0x15E JUMP JUMPDEST PUSH1 0x40 MLOAD PUSH2 0xA4 SWAP2 SWAP1 PUSH2 0x30A JUMP JUMPDEST PUSH1 0x40 MLOAD DUP1 SWAP2 SUB SWAP1 RETURN JUMPDEST PUSH2 0xC7 PUSH1 0x4 DUP1 CALLDATASIZE SUB DUP2 ADD SWAP1 PUSH2 0xC2 SWAP2 SWAP1 PUSH2 0x29C JUMP JUMPDEST PUSH2 0x16F JUMP JUMPDEST STOP JUMPDEST PUSH2 0xD1 PUSH2 0x1C0 JUMP JUMPDEST STOP JUMPDEST PUSH2 0xED PUSH1 0x4 DUP1 CALLDATASIZE SUB DUP2 ADD SWAP1 PUSH2 0xE8 SWAP2 SWAP1 PUSH2 0x26F JUMP JUMPDEST PUSH2 0x229 JUMP JUMPDEST STOP JUMPDEST PUSH1 0x1 SLOAD DUP2 JUMP JUMPDEST PUSH1 0x0 DUP1 SLOAD SWAP1 PUSH2 0x100 EXP SWAP1 DIV PUSH1 0xFF AND ISZERO PUSH2 0x143 JUMPI PUSH1 0x40 MLOAD PUSH32 0x8C379A000000000000000000000000000000000000000000000000000000000 DUP2 MSTORE PUSH1 0x4 ADD PUSH2 0x13A SWAP1 PUSH2 0x325 JUMP JUMPDEST PUSH1 0x40 MLOAD DUP1 SWAP2 SUB SWAP1 REVERT JUMPDEST PUSH1 0x1 DUP1 PUSH1 0x0 DUP3 DUP3 SLOAD PUSH2 0x155 SWAP2 SWAP1 PUSH2 0x371 JUMP JUMPDEST SWAP3 POP POP DUP2 SWAP1 SSTORE POP JUMP JUMPDEST PUSH1 0x0 DUP1 SLOAD SWAP1 PUSH2 0x100 EXP SWAP1 DIV PUSH1 0xFF AND DUP2 JUMP JUMPDEST PUSH1 0x0 DUP1 SLOAD SWAP1 PUSH2 0x100 EXP SWAP1 DIV PUSH1 0xFF AND ISZERO PUSH2 0x1BD JUMPI PUSH1 0x40 MLOAD PUSH32 0x8C379A000000000000000000000000000000000000000000000000000000000 DUP2 MSTORE PUSH1 0x4 ADD PUSH2 0x1B4 SWAP1 PUSH2 0x325 JUMP JUMPDEST PUSH1 0x40 MLOAD DUP1 SWAP2 SUB SWAP1 REVERT JUMPDEST POP JUMP JUMPDEST PUSH1 0x0 DUP1 SLOAD SWAP1 PUSH2 0x100 EXP SWAP1 DIV PUSH1 0xFF AND ISZERO PUSH2 0x20E JUMPI PUSH1 0x40 MLOAD PUSH32 0x8C379A000000000000000000000000000000000000000000000000000000000 DUP2 MSTORE PUSH1 0x4 ADD PUSH2 0x205 SWAP1 PUSH2 0x325 JUMP JUMPDEST PUSH1 0x40 MLOAD DUP1 SWAP2 SUB SWAP1 REVERT JUMPDEST PUSH1 0x1 DUP1 PUSH1 0x0 DUP3 DUP3 SLOAD PUSH2 0x220 SWAP2 SWAP1 PUSH2 0x3C7 JUMP JUMPDEST SWAP3 POP POP DUP2 SWAP1 SSTORE POP JUMP JUMPDEST DUP1 PUSH1 0x0 DUP1 PUSH2 0x100 EXP DUP2 SLOAD DUP2 PUSH1 0xFF MUL NOT AND SWAP1 DUP4 ISZERO ISZERO MUL OR SWAP1 SSTORE POP POP JUMP JUMPDEST PUSH1 0x0 DUP2 CALLDATALOAD SWAP1 POP PUSH2 0x254 DUP2 PUSH2 0x46E JUMP JUMPDEST SWAP3 SWAP2 POP POP JUMP JUMPDEST PUSH1 0x0 DUP2 CALLDATALOAD SWAP1 POP PUSH2 0x269 DUP2 PUSH2 0x485 JUMP JUMPDEST SWAP3 SWAP2 POP POP JUMP JUMPDEST PUSH1 0x0 PUSH1 0x20 DUP3 DUP5 SUB SLT ISZERO PUSH2 0x285 JUMPI PUSH2 0x284 PUSH2 0x440 JUMP JUMPDEST JUMPDEST PUSH1 0x0 PUSH2 0x293 DUP5 DUP3 DUP6 ADD PUSH2 0x245 JUMP JUMPDEST SWAP2 POP POP SWAP3 SWAP2 POP POP JUMP JUMPDEST PUSH1 0x0 PUSH1 0x20 DUP3 DUP5 SUB SLT ISZERO PUSH2 0x2B2 JUMPI PUSH2 0x2B1 PUSH2 0x440 JUMP JUMPDEST JUMPDEST PUSH1 0x0 PUSH2 0x2C0 DUP5 DUP3 DUP6 ADD PUSH2 0x25A JUMP JUMPDEST SWAP2 POP POP SWAP3 SWAP2 POP POP JUMP JUMPDEST PUSH2 0x2D2 DUP2 PUSH2 0x3FB JUMP JUMPDEST DUP3 MSTORE POP POP JUMP JUMPDEST PUSH1 0x0 PUSH2 0x2E5 PUSH1 0x6 DUP4 PUSH2 0x360 JUMP JUMPDEST SWAP2 POP PUSH2 0x2F0 DUP3 PUSH2 0x445 JUMP JUMPDEST PUSH1 0x20 DUP3 ADD SWAP1 POP SWAP2 SWAP1 POP JUMP JUMPDEST PUSH2 0x304 DUP2 PUSH2 0x407 JUMP JUMPDEST DUP3 MSTORE POP POP JUMP JUMPDEST PUSH1 0x0 PUSH1 0x20 DUP3 ADD SWAP1 POP PUSH2 0x31F PUSH1 0x0 DUP4 ADD DUP5 PUSH2 0x2C9 JUMP JUMPDEST SWAP3 SWAP2 POP POP JUMP JUMPDEST PUSH1 0x0 PUSH1 0x20 DUP3 ADD SWAP1 POP DUP2 DUP2 SUB PUSH1 0x0 DUP4 ADD MSTORE PUSH2 0x33E DUP2 PUSH2 0x2D8 JUMP JUMPDEST SWAP1 POP SWAP2 SWAP1 POP JUMP JUMPDEST PUSH1 0x0 PUSH1 0x20 DUP3 ADD SWAP1 POP PUSH2 0x35A PUSH1 0x0 DUP4 ADD DUP5 PUSH2 0x2FB JUMP JUMPDEST SWAP3 SWAP2 POP POP JUMP JUMPDEST PUSH1 0x0 DUP3 DUP3 MSTORE PUSH1 0x20 DUP3 ADD SWAP1 POP SWAP3 SWAP2 POP POP JUMP JUMPDEST PUSH1 0x0 PUSH2 0x37C DUP3 PUSH2 0x407 JUMP JUMPDEST SWAP2 POP PUSH2 0x387 DUP4 PUSH2 0x407 JUMP JUMPDEST SWAP3 POP DUP3 PUSH32 0xFFFFFFFFFFFFFFFFFFFFFFFFFFFFFFFFFFFFFFFFFFFFFFFFFFFFFFFFFFFFFFFF SUB DUP3 GT ISZERO PUSH2 0x3BC JUMPI PUSH2 0x3BB PUSH2 0x411 JUMP JUMPDEST JUMPDEST DUP3 DUP3 ADD SWAP1 POP SWAP3 SWAP2 POP POP JUMP JUMPDEST PUSH1 0x0 PUSH2 0x3D2 DUP3 PUSH2 0x407 JUMP JUMPDEST SWAP2 POP PUSH2 0x3DD DUP4 PUSH2 0x407 JUMP JUMPDEST SWAP3 POP DUP3 DUP3 LT ISZERO PUSH2 0x3F0 JUMPI PUSH2 0x3EF PUSH2 0x411 JUMP JUMPDEST JUMPDEST DUP3 DUP3 SUB SWAP1 POP SWAP3 SWAP2 POP POP JUMP JUMPDEST PUSH1 0x0 DUP2 ISZERO ISZERO SWAP1 POP SWAP2 SWAP1 POP JUMP JUMPDEST PUSH1 0x0 DUP2 SWAP1 POP SWAP2 SWAP1 POP JUMP JUMPDEST PUSH32 0x4E487B7100000000000000000000000000000000000000000000000000000000 PUSH1 0x0 MSTORE PUSH1 0x11 PUSH1 0x4 MSTORE PUSH1 0x24 PUSH1 0x0 REVERT JUMPDEST PUSH1 0x0 DUP1 REVERT JUMPDEST PUSH32 0x7061757365640000000000000000000000000000000000000000000000000000 PUSH1 0x0 DUP3 ADD MSTORE POP JUMP JUMPDEST PUSH2 0x477 DUP2 PUSH2 0x3FB JUMP JUMPDEST DUP2 EQ PUSH2 0x482 JUMPI PUSH1 0x0 DUP1 REVERT JUMPDEST POP JUMP JUMPDEST PUSH2 0x48E DUP2 PUSH2 0x407 JUMP JUMPDEST DUP2 EQ PUSH2 0x499 JUMPI PUSH1 0x0 DUP1 REVERT JUMPDEST POP JUMP INVALID LOG2 PUSH5 0x6970667358 0x22 SLT KECCAK256 0xBE 0xC1 CODESIZE SHL 0xF6 0x29 PUSH19 0x3D34EA353FC2CDE95C7389E1BBBA72E25F67FD SAR 0xE4 PUSH32 0x451E7D64736F6C63430008070033000000000000000000000000000000000000 "
				},
				"gasEstimates": {
					"creation": {
						"codeDepositCost": "246800",
						"executionCost": "287",
						"totalCost": "247087"
					},
					"external": {
						"count()": "2407",
						"dec()": "infinite",
						"inc()": "infinite",
						"incBy(uint256)": "2890",
						"paused()": "2490",
						"setPause(bool)": "24767"
					}
				},
				"methodIdentifiers": {
					"count()": "06661abd",
					"dec()": "b3bcfa82",
					"inc()": "371303c0",
					"incBy(uint256)": "70119d06",
					"paused()": "5c975abb",
					"setPause(bool)": "bedb86fb"
				}
			},
			"storageLayout": {
				"storage": [
					{
						"astId": 3,
						"contract": "contracts/FunctionModifier-15.sol:FunctionModifier",
						"label": "paused",
						"offset": 0,
						"slot": "0",
						"type": "t_bool"
					},
					{
						"astId": 5,
						"contract": "contracts/FunctionModifier-15.sol:FunctionModifier",
						"label": "count",
						"offset": 0,
						"slot": "1",
						"type": "t_uint256"
					}
				],
				"types": {
					"t_bool": {
						"encoding": "inplace",
						"label": "bool",
						"numberOfBytes": "1"
					},
					"t_uint256": {
						"encoding": "inplace",
						"label": "uint256",
						"numberOfBytes": "32"
					}
				}
			},
			"userdoc": {
				"kind": "user",
				"methods": {},
				"version": 1
			}
		}
	}
}