{
	"contracts/IfElse-12.sol": {
		"IfElse": {
			"abi": [
				{
					"inputs": [
						{
							"internalType": "uint256",
							"name": "_x",
							"type": "uint256"
						}
					],
					"name": "example",
					"outputs": [
						{
							"internalType": "uint256",
							"name": "",
							"type": "uint256"
						}
					],
					"stateMutability": "pure",
					"type": "function"
				}
			],
			"devdoc": {
				"kind": "dev",
				"methods": {},
				"version": 1
			},
			"evm": {
				"assembly": "    /* \"contracts/IfElse-12.sol\":58:228  contract IfElse {... */\n  mstore(0x40, 0x80)\n  callvalue\n  dup1\n  iszero\n  tag_1\n  jumpi\n  0x00\n  dup1\n  revert\ntag_1:\n  pop\n  dataSize(sub_0)\n  dup1\n  dataOffset(sub_0)\n  0x00\n  codecopy\n  0x00\n  return\nstop\n\nsub_0: assembly {\n        /* \"contracts/IfElse-12.sol\":58:228  contract IfElse {... */\n      mstore(0x40, 0x80)\n      callvalue\n      dup1\n      iszero\n      tag_1\n      jumpi\n      0x00\n      dup1\n      revert\n    tag_1:\n      pop\n      jumpi(tag_2, lt(calldatasize, 0x04))\n      shr(0xe0, calldataload(0x00))\n      dup1\n      0x477e4a02\n      eq\n      tag_3\n      jumpi\n    tag_2:\n      0x00\n      dup1\n      revert\n        /* \"contracts/IfElse-12.sol\":80:226  function example(uint _x) external pure returns (uint) {... */\n    tag_3:\n      tag_4\n      0x04\n      dup1\n      calldatasize\n      sub\n      dup2\n      add\n      swap1\n      tag_5\n      swap2\n      swap1\n      tag_6\n      jump\t// in\n    tag_5:\n      tag_7\n      jump\t// in\n    tag_4:\n      mload(0x40)\n      tag_8\n      swap2\n      swap1\n      tag_9\n      jump\t// in\n    tag_8:\n      mload(0x40)\n      dup1\n      swap2\n      sub\n      swap1\n      return\n    tag_7:\n        /* \"contracts/IfElse-12.sol\":129:133  uint */\n      0x00\n        /* \"contracts/IfElse-12.sol\":153:155  10 */\n      0x0a\n        /* \"contracts/IfElse-12.sol\":148:150  _x */\n      dup3\n        /* \"contracts/IfElse-12.sol\":148:155  _x < 10 */\n      lt\n        /* \"contracts/IfElse-12.sol\":145:220  if(_x < 10) {... */\n      iszero\n      tag_11\n      jumpi\n        /* \"contracts/IfElse-12.sol\":178:179  1 */\n      0x01\n        /* \"contracts/IfElse-12.sol\":171:179  return 1 */\n      swap1\n      pop\n      jump(tag_10)\n        /* \"contracts/IfElse-12.sol\":145:220  if(_x < 10) {... */\n    tag_11:\n        /* \"contracts/IfElse-12.sol\":80:226  function example(uint _x) external pure returns (uint) {... */\n    tag_10:\n      swap2\n      swap1\n      pop\n      jump\t// out\n        /* \"#utility.yul\":7:146   */\n    tag_14:\n        /* \"#utility.yul\":53:58   */\n      0x00\n        /* \"#utility.yul\":91:97   */\n      dup2\n        /* \"#utility.yul\":78:98   */\n      calldataload\n        /* \"#utility.yul\":69:98   */\n      swap1\n      pop\n        /* \"#utility.yul\":107:140   */\n      tag_16\n        /* \"#utility.yul\":134:139   */\n      dup2\n        /* \"#utility.yul\":107:140   */\n      tag_17\n      jump\t// in\n    tag_16:\n        /* \"#utility.yul\":7:146   */\n      swap3\n      swap2\n      pop\n      pop\n      jump\t// out\n        /* \"#utility.yul\":152:481   */\n    tag_6:\n        /* \"#utility.yul\":211:217   */\n      0x00\n        /* \"#utility.yul\":260:262   */\n      0x20\n        /* \"#utility.yul\":248:257   */\n      dup3\n        /* \"#utility.yul\":239:246   */\n      dup5\n        /* \"#utility.yul\":235:258   */\n      sub\n        /* \"#utility.yul\":231:263   */\n      slt\n        /* \"#utility.yul\":228:347   */\n      iszero\n      tag_19\n      jumpi\n        /* \"#utility.yul\":266:345   */\n      tag_20\n      tag_21\n      jump\t// in\n    tag_20:\n        /* \"#utility.yul\":228:347   */\n    tag_19:\n        /* \"#utility.yul\":386:387   */\n      0x00\n        /* \"#utility.yul\":411:464   */\n      tag_22\n        /* \"#utility.yul\":456:463   */\n      dup5\n        /* \"#utility.yul\":447:453   */\n      dup3\n        /* \"#utility.yul\":436:445   */\n      dup6\n        /* \"#utility.yul\":432:454   */\n      add\n        /* \"#utility.yul\":411:464   */\n      tag_14\n      jump\t// in\n    tag_22:\n        /* \"#utility.yul\":401:464   */\n      swap2\n      pop\n        /* \"#utility.yul\":357:474   */\n      pop\n        /* \"#utility.yul\":152:481   */\n      swap3\n      swap2\n      pop\n      pop\n      jump\t// out\n        /* \"#utility.yul\":487:605   */\n    tag_23:\n        /* \"#utility.yul\":574:598   */\n      tag_25\n        /* \"#utility.yul\":592:597   */\n      dup2\n        /* \"#utility.yul\":574:598   */\n      tag_26\n      jump\t// in\n    tag_25:\n        /* \"#utility.yul\":569:572   */\n      dup3\n        /* \"#utility.yul\":562:599   */\n      mstore\n        /* \"#utility.yul\":487:605   */\n      pop\n      pop\n      jump\t// out\n        /* \"#utility.yul\":611:833   */\n    tag_9:\n        /* \"#utility.yul\":704:708   */\n      0x00\n        /* \"#utility.yul\":742:744   */\n      0x20\n        /* \"#utility.yul\":731:740   */\n      dup3\n        /* \"#utility.yul\":727:745   */\n      add\n        /* \"#utility.yul\":719:745   */\n      swap1\n      pop\n        /* \"#utility.yul\":755:826   */\n      tag_28\n        /* \"#utility.yul\":823:824   */\n      0x00\n        /* \"#utility.yul\":812:821   */\n      dup4\n        /* \"#utility.yul\":808:825   */\n      add\n        /* \"#utility.yul\":799:805   */\n      dup5\n        /* \"#utility.yul\":755:826   */\n      tag_23\n      jump\t// in\n    tag_28:\n        /* \"#utility.yul\":611:833   */\n      swap3\n      swap2\n      pop\n      pop\n      jump\t// out\n        /* \"#utility.yul\":920:997   */\n    tag_26:\n        /* \"#utility.yul\":957:964   */\n      0x00\n        /* \"#utility.yul\":986:991   */\n      dup2\n        /* \"#utility.yul\":975:991   */\n      swap1\n      pop\n        /* \"#utility.yul\":920:997   */\n      swap2\n      swap1\n      pop\n      jump\t// out\n        /* \"#utility.yul\":1126:1243   */\n    tag_21:\n        /* \"#utility.yul\":1235:1236   */\n      0x00\n        /* \"#utility.yul\":1232:1233   */\n      dup1\n        /* \"#utility.yul\":1225:1237   */\n      revert\n        /* \"#utility.yul\":1249:1371   */\n    tag_17:\n        /* \"#utility.yul\":1322:1346   */\n      tag_36\n        /* \"#utility.yul\":1340:1345   */\n      dup2\n        /* \"#utility.yul\":1322:1346   */\n      tag_26\n      jump\t// in\n    tag_36:\n        /* \"#utility.yul\":1315:1320   */\n      dup2\n        /* \"#utility.yul\":1312:1347   */\n      eq\n        /* \"#utility.yul\":1302:1365   */\n      tag_37\n      jumpi\n        /* \"#utility.yul\":1361:1362   */\n      0x00\n        /* \"#utility.yul\":1358:1359   */\n      dup1\n        /* \"#utility.yul\":1351:1363   */\n      revert\n        /* \"#utility.yul\":1302:1365   */\n    tag_37:\n        /* \"#utility.yul\":1249:1371   */\n      pop\n      jump\t// out\n\n    auxdata: 0xa2646970667358221220a7f31d2d5246465a033982710e8f28b8f4c85410fec9d3bfa4a79aa06c10d2b364736f6c63430008070033\n}\n",
				"bytecode": {
					"linkReferences": {},
					"object": "608060405234801561001057600080fd5b50610129806100206000396000f3fe6080604052348015600f57600080fd5b506004361060285760003560e01c8063477e4a0214602d575b600080fd5b60436004803603810190603f91906082565b6057565b604051604e919060b7565b60405180910390f35b6000600a82101560695760019050606a565b5b919050565b600081359050607c8160df565b92915050565b600060208284031215609557609460da565b5b600060a184828501606f565b91505092915050565b60b18160d0565b82525050565b600060208201905060ca600083018460aa565b92915050565b6000819050919050565b600080fd5b60e68160d0565b811460f057600080fd5b5056fea2646970667358221220a7f31d2d5246465a033982710e8f28b8f4c85410fec9d3bfa4a79aa06c10d2b364736f6c63430008070033",
					"opcodes": "PUSH1 0x80 PUSH1 0x40 MSTORE CALLVALUE DUP1 ISZERO PUSH2 0x10 JUMPI PUSH1 0x0 DUP1 REVERT JUMPDEST POP PUSH2 0x129 DUP1 PUSH2 0x20 PUSH1 0x0 CODECOPY PUSH1 0x0 RETURN INVALID PUSH1 0x80 PUSH1 0x40 MSTORE CALLVALUE DUP1 ISZERO PUSH1 0xF JUMPI PUSH1 0x0 DUP1 REVERT JUMPDEST POP PUSH1 0x4 CALLDATASIZE LT PUSH1 0x28 JUMPI PUSH1 0x0 CALLDATALOAD PUSH1 0xE0 SHR DUP1 PUSH4 0x477E4A02 EQ PUSH1 0x2D JUMPI JUMPDEST PUSH1 0x0 DUP1 REVERT JUMPDEST PUSH1 0x43 PUSH1 0x4 DUP1 CALLDATASIZE SUB DUP2 ADD SWAP1 PUSH1 0x3F SWAP2 SWAP1 PUSH1 0x82 JUMP JUMPDEST PUSH1 0x57 JUMP JUMPDEST PUSH1 0x40 MLOAD PUSH1 0x4E SWAP2 SWAP1 PUSH1 0xB7 JUMP JUMPDEST PUSH1 0x40 MLOAD DUP1 SWAP2 SUB SWAP1 RETURN JUMPDEST PUSH1 0x0 PUSH1 0xA DUP3 LT ISZERO PUSH1 0x69 JUMPI PUSH1 0x1 SWAP1 POP PUSH1 0x6A JUMP JUMPDEST JUMPDEST SWAP2 SWAP1 POP JUMP JUMPDEST PUSH1 0x0 DUP2 CALLDATALOAD SWAP1 POP PUSH1 0x7C DUP2 PUSH1 0xDF JUMP JUMPDEST SWAP3 SWAP2 POP POP JUMP JUMPDEST PUSH1 0x0 PUSH1 0x20 DUP3 DUP5 SUB SLT ISZERO PUSH1 0x95 JUMPI PUSH1 0x94 PUSH1 0xDA JUMP JUMPDEST JUMPDEST PUSH1 0x0 PUSH1 0xA1 DUP5 DUP3 DUP6 ADD PUSH1 0x6F JUMP JUMPDEST SWAP2 POP POP SWAP3 SWAP2 POP POP JUMP JUMPDEST PUSH1 0xB1 DUP2 PUSH1 0xD0 JUMP JUMPDEST DUP3 MSTORE POP POP JUMP JUMPDEST PUSH1 0x0 PUSH1 0x20 DUP3 ADD SWAP1 POP PUSH1 0xCA PUSH1 0x0 DUP4 ADD DUP5 PUSH1 0xAA JUMP JUMPDEST SWAP3 SWAP2 POP POP JUMP JUMPDEST PUSH1 0x0 DUP2 SWAP1 POP SWAP2 SWAP1 POP JUMP JUMPDEST PUSH1 0x0 DUP1 REVERT JUMPDEST PUSH1 0xE6 DUP2 PUSH1 0xD0 JUMP JUMPDEST DUP2 EQ PUSH1 0xF0 JUMPI PUSH1 0x0 DUP1 REVERT JUMPDEST POP JUMP INVALID LOG2 PUSH5 0x6970667358 0x22 SLT KECCAK256 0xA7 RETURN SAR 0x2D MSTORE CHAINID CHAINID GAS SUB CODECOPY DUP3 PUSH18 0xE8F28B8F4C85410FEC9D3BFA4A79AA06C10 0xD2 0xB3 PUSH5 0x736F6C6343 STOP ADDMOD SMOD STOP CALLER "
				},
				"gasEstimates": {
					"creation": {
						"codeDepositCost": "59400",
						"executionCost": "111",
						"totalCost": "59511"
					},
					"external": {
						"example(uint256)": "infinite"
					}
				},
				"methodIdentifiers": {
					"example(uint256)": "477e4a02"
				}
			},
			"storageLayout": {
				"storage": [],
				"types": null
			},
			"userdoc": {
				"kind": "user",
				"methods": {},
				"version": 1
			}
		}
	}
}