{
	"contracts/Errors-14.sol": {
		"Errors": {
			"abi": [
				{
					"inputs": [],
					"name": "foo",
					"outputs": [],
					"stateMutability": "nonpayable",
					"type": "function"
				},
				{
					"inputs": [],
					"name": "num",
					"outputs": [
						{
							"internalType": "uint256",
							"name": "",
							"type": "uint256"
						}
					],
					"stateMutability": "view",
					"type": "function"
				},
				{
					"inputs": [],
					"name": "testAssert",
					"outputs": [],
					"stateMutability": "view",
					"type": "function"
				},
				{
					"inputs": [
						{
							"internalType": "uint256",
							"name": "_i",
							"type": "uint256"
						}
					],
					"name": "testRequire",
					"outputs": [],
					"stateMutability": "pure",
					"type": "function"
				},
				{
					"inputs": [
						{
							"internalType": "uint256",
							"name": "_i",
							"type": "uint256"
						}
					],
					"name": "testRevert",
					"outputs": [],
					"stateMutability": "pure",
					"type": "function"
				}
			],
			"devdoc": {
				"kind": "dev",
				"methods": {},
				"version": 1
			},
			"evm": {
				"assembly": "    /* \"contracts/Errors-14.sol\":157:783  contract Errors {... */\n  mstore(0x40, 0x80)\n    /* \"contracts/Errors-14.sol\":657:660  123 */\n  0x7b\n    /* \"contracts/Errors-14.sol\":639:660  uint public num = 123 */\n  0x00\n  sstore\n    /* \"contracts/Errors-14.sol\":157:783  contract Errors {... */\n  callvalue\n  dup1\n  iszero\n  tag_1\n  jumpi\n  0x00\n  dup1\n  revert\ntag_1:\n  pop\n  dataSize(sub_0)\n  dup1\n  dataOffset(sub_0)\n  0x00\n  codecopy\n  0x00\n  return\nstop\n\nsub_0: assembly {\n        /* \"contracts/Errors-14.sol\":157:783  contract Errors {... */\n      mstore(0x40, 0x80)\n      callvalue\n      dup1\n      iszero\n      tag_1\n      jumpi\n      0x00\n      dup1\n      revert\n    tag_1:\n      pop\n      jumpi(tag_2, lt(calldatasize, 0x04))\n      shr(0xe0, calldataload(0x00))\n      dup1\n      0x20987767\n      eq\n      tag_3\n      jumpi\n      dup1\n      0x2b813bc0\n      eq\n      tag_4\n      jumpi\n      dup1\n      0x4e70b1dc\n      eq\n      tag_5\n      jumpi\n      dup1\n      0xb8bd717f\n      eq\n      tag_6\n      jumpi\n      dup1\n      0xc2985578\n      eq\n      tag_7\n      jumpi\n    tag_2:\n      0x00\n      dup1\n      revert\n        /* \"contracts/Errors-14.sol\":305:632  function testRevert(uint _i) public pure {... */\n    tag_3:\n      tag_8\n      0x04\n      dup1\n      calldatasize\n      sub\n      dup2\n      add\n      swap1\n      tag_9\n      swap2\n      swap1\n      tag_10\n      jump\t// in\n    tag_9:\n      tag_11\n      jump\t// in\n    tag_8:\n      stop\n        /* \"contracts/Errors-14.sol\":667:736  function testAssert() public view {... */\n    tag_4:\n      tag_12\n      tag_13\n      jump\t// in\n    tag_12:\n      stop\n        /* \"contracts/Errors-14.sol\":639:660  uint public num = 123 */\n    tag_5:\n      tag_14\n      tag_15\n      jump\t// in\n    tag_14:\n      mload(0x40)\n      tag_16\n      swap2\n      swap1\n      tag_17\n      jump\t// in\n    tag_16:\n      mload(0x40)\n      dup1\n      swap2\n      sub\n      swap1\n      return\n        /* \"contracts/Errors-14.sol\":179:299  function testRequire(uint _i) public pure {... */\n    tag_6:\n      tag_18\n      0x04\n      dup1\n      calldatasize\n      sub\n      dup2\n      add\n      swap1\n      tag_19\n      swap2\n      swap1\n      tag_10\n      jump\t// in\n    tag_19:\n      tag_20\n      jump\t// in\n    tag_18:\n      stop\n        /* \"contracts/Errors-14.sol\":742:780  function foo() public {... */\n    tag_7:\n      tag_21\n      tag_22\n      jump\t// in\n    tag_21:\n      stop\n        /* \"contracts/Errors-14.sol\":305:632  function testRevert(uint _i) public pure {... */\n    tag_11:\n        /* \"contracts/Errors-14.sol\":431:432  1 */\n      0x01\n        /* \"contracts/Errors-14.sol\":426:428  _i */\n      dup2\n        /* \"contracts/Errors-14.sol\":426:432  _i > 1 */\n      gt\n        /* \"contracts/Errors-14.sol\":423:626  if(_i > 1) {... */\n      iszero\n      tag_24\n      jumpi\n        /* \"contracts/Errors-14.sol\":480:481  5 */\n      0x05\n        /* \"contracts/Errors-14.sol\":475:477  _i */\n      dup2\n        /* \"contracts/Errors-14.sol\":475:481  _i > 5 */\n      gt\n        /* \"contracts/Errors-14.sol\":472:617  if(_i > 5) {... */\n      iszero\n      tag_25\n      jumpi\n        /* \"contracts/Errors-14.sol\":543:545  10 */\n      0x0a\n        /* \"contracts/Errors-14.sol\":538:540  _i */\n      dup2\n        /* \"contracts/Errors-14.sol\":538:545  _i > 10 */\n      gt\n        /* \"contracts/Errors-14.sol\":535:604  if(_i > 10) {... */\n      iszero\n      tag_26\n      jumpi\n        /* \"contracts/Errors-14.sol\":569:585  revert(\"i > 10\") */\n      mload(0x40)\n      0x08c379a000000000000000000000000000000000000000000000000000000000\n      dup2\n      mstore\n      0x04\n      add\n      tag_27\n      swap1\n      tag_28\n      jump\t// in\n    tag_27:\n      mload(0x40)\n      dup1\n      swap2\n      sub\n      swap1\n      revert\n        /* \"contracts/Errors-14.sol\":535:604  if(_i > 10) {... */\n    tag_26:\n        /* \"contracts/Errors-14.sol\":472:617  if(_i > 5) {... */\n    tag_25:\n        /* \"contracts/Errors-14.sol\":423:626  if(_i > 1) {... */\n    tag_24:\n        /* \"contracts/Errors-14.sol\":305:632  function testRevert(uint _i) public pure {... */\n      pop\n      jump\t// out\n        /* \"contracts/Errors-14.sol\":667:736  function testAssert() public view {... */\n    tag_13:\n        /* \"contracts/Errors-14.sol\":725:728  123 */\n      0x7b\n        /* \"contracts/Errors-14.sol\":718:721  num */\n      sload(0x00)\n        /* \"contracts/Errors-14.sol\":718:728  num == 123 */\n      eq\n        /* \"contracts/Errors-14.sol\":711:729  assert(num == 123) */\n      tag_30\n      jumpi\n      tag_31\n      tag_32\n      jump\t// in\n    tag_31:\n    tag_30:\n        /* \"contracts/Errors-14.sol\":667:736  function testAssert() public view {... */\n      jump\t// out\n        /* \"contracts/Errors-14.sol\":639:660  uint public num = 123 */\n    tag_15:\n      sload(0x00)\n      dup2\n      jump\t// out\n        /* \"contracts/Errors-14.sol\":179:299  function testRequire(uint _i) public pure {... */\n    tag_20:\n        /* \"contracts/Errors-14.sol\":244:246  10 */\n      0x0a\n        /* \"contracts/Errors-14.sol\":239:241  _i */\n      dup2\n        /* \"contracts/Errors-14.sol\":239:246  _i < 10 */\n      lt\n        /* \"contracts/Errors-14.sol\":231:271  require(_i < 10, \"i is greater than 10\") */\n      tag_34\n      jumpi\n      mload(0x40)\n      0x08c379a000000000000000000000000000000000000000000000000000000000\n      dup2\n      mstore\n      0x04\n      add\n      tag_35\n      swap1\n      tag_36\n      jump\t// in\n    tag_35:\n      mload(0x40)\n      dup1\n      swap2\n      sub\n      swap1\n      revert\n    tag_34:\n        /* \"contracts/Errors-14.sol\":179:299  function testRequire(uint _i) public pure {... */\n      pop\n      jump\t// out\n        /* \"contracts/Errors-14.sol\":742:780  function foo() public {... */\n    tag_22:\n      jump\t// out\n        /* \"#utility.yul\":7:146   */\n    tag_39:\n        /* \"#utility.yul\":53:58   */\n      0x00\n        /* \"#utility.yul\":91:97   */\n      dup2\n        /* \"#utility.yul\":78:98   */\n      calldataload\n        /* \"#utility.yul\":69:98   */\n      swap1\n      pop\n        /* \"#utility.yul\":107:140   */\n      tag_41\n        /* \"#utility.yul\":134:139   */\n      dup2\n        /* \"#utility.yul\":107:140   */\n      tag_42\n      jump\t// in\n    tag_41:\n        /* \"#utility.yul\":7:146   */\n      swap3\n      swap2\n      pop\n      pop\n      jump\t// out\n        /* \"#utility.yul\":152:481   */\n    tag_10:\n        /* \"#utility.yul\":211:217   */\n      0x00\n        /* \"#utility.yul\":260:262   */\n      0x20\n        /* \"#utility.yul\":248:257   */\n      dup3\n        /* \"#utility.yul\":239:246   */\n      dup5\n        /* \"#utility.yul\":235:258   */\n      sub\n        /* \"#utility.yul\":231:263   */\n      slt\n        /* \"#utility.yul\":228:347   */\n      iszero\n      tag_44\n      jumpi\n        /* \"#utility.yul\":266:345   */\n      tag_45\n      tag_46\n      jump\t// in\n    tag_45:\n        /* \"#utility.yul\":228:347   */\n    tag_44:\n        /* \"#utility.yul\":386:387   */\n      0x00\n        /* \"#utility.yul\":411:464   */\n      tag_47\n        /* \"#utility.yul\":456:463   */\n      dup5\n        /* \"#utility.yul\":447:453   */\n      dup3\n        /* \"#utility.yul\":436:445   */\n      dup6\n        /* \"#utility.yul\":432:454   */\n      add\n        /* \"#utility.yul\":411:464   */\n      tag_39\n      jump\t// in\n    tag_47:\n        /* \"#utility.yul\":401:464   */\n      swap2\n      pop\n        /* \"#utility.yul\":357:474   */\n      pop\n        /* \"#utility.yul\":152:481   */\n      swap3\n      swap2\n      pop\n      pop\n      jump\t// out\n        /* \"#utility.yul\":487:853   */\n    tag_48:\n        /* \"#utility.yul\":629:632   */\n      0x00\n        /* \"#utility.yul\":650:717   */\n      tag_50\n        /* \"#utility.yul\":714:716   */\n      0x14\n        /* \"#utility.yul\":709:712   */\n      dup4\n        /* \"#utility.yul\":650:717   */\n      tag_51\n      jump\t// in\n    tag_50:\n        /* \"#utility.yul\":643:717   */\n      swap2\n      pop\n        /* \"#utility.yul\":726:819   */\n      tag_52\n        /* \"#utility.yul\":815:818   */\n      dup3\n        /* \"#utility.yul\":726:819   */\n      tag_53\n      jump\t// in\n    tag_52:\n        /* \"#utility.yul\":844:846   */\n      0x20\n        /* \"#utility.yul\":839:842   */\n      dup3\n        /* \"#utility.yul\":835:847   */\n      add\n        /* \"#utility.yul\":828:847   */\n      swap1\n      pop\n        /* \"#utility.yul\":487:853   */\n      swap2\n      swap1\n      pop\n      jump\t// out\n        /* \"#utility.yul\":859:1224   */\n    tag_54:\n        /* \"#utility.yul\":1001:1004   */\n      0x00\n        /* \"#utility.yul\":1022:1088   */\n      tag_56\n        /* \"#utility.yul\":1086:1087   */\n      0x06\n        /* \"#utility.yul\":1081:1084   */\n      dup4\n        /* \"#utility.yul\":1022:1088   */\n      tag_51\n      jump\t// in\n    tag_56:\n        /* \"#utility.yul\":1015:1088   */\n      swap2\n      pop\n        /* \"#utility.yul\":1097:1190   */\n      tag_57\n        /* \"#utility.yul\":1186:1189   */\n      dup3\n        /* \"#utility.yul\":1097:1190   */\n      tag_58\n      jump\t// in\n    tag_57:\n        /* \"#utility.yul\":1215:1217   */\n      0x20\n        /* \"#utility.yul\":1210:1213   */\n      dup3\n        /* \"#utility.yul\":1206:1218   */\n      add\n        /* \"#utility.yul\":1199:1218   */\n      swap1\n      pop\n        /* \"#utility.yul\":859:1224   */\n      swap2\n      swap1\n      pop\n      jump\t// out\n        /* \"#utility.yul\":1230:1348   */\n    tag_59:\n        /* \"#utility.yul\":1317:1341   */\n      tag_61\n        /* \"#utility.yul\":1335:1340   */\n      dup2\n        /* \"#utility.yul\":1317:1341   */\n      tag_62\n      jump\t// in\n    tag_61:\n        /* \"#utility.yul\":1312:1315   */\n      dup3\n        /* \"#utility.yul\":1305:1342   */\n      mstore\n        /* \"#utility.yul\":1230:1348   */\n      pop\n      pop\n      jump\t// out\n        /* \"#utility.yul\":1354:1773   */\n    tag_36:\n        /* \"#utility.yul\":1520:1524   */\n      0x00\n        /* \"#utility.yul\":1558:1560   */\n      0x20\n        /* \"#utility.yul\":1547:1556   */\n      dup3\n        /* \"#utility.yul\":1543:1561   */\n      add\n        /* \"#utility.yul\":1535:1561   */\n      swap1\n      pop\n        /* \"#utility.yul\":1607:1616   */\n      dup2\n        /* \"#utility.yul\":1601:1605   */\n      dup2\n        /* \"#utility.yul\":1597:1617   */\n      sub\n        /* \"#utility.yul\":1593:1594   */\n      0x00\n        /* \"#utility.yul\":1582:1591   */\n      dup4\n        /* \"#utility.yul\":1578:1595   */\n      add\n        /* \"#utility.yul\":1571:1618   */\n      mstore\n        /* \"#utility.yul\":1635:1766   */\n      tag_64\n        /* \"#utility.yul\":1761:1765   */\n      dup2\n        /* \"#utility.yul\":1635:1766   */\n      tag_48\n      jump\t// in\n    tag_64:\n        /* \"#utility.yul\":1627:1766   */\n      swap1\n      pop\n        /* \"#utility.yul\":1354:1773   */\n      swap2\n      swap1\n      pop\n      jump\t// out\n        /* \"#utility.yul\":1779:2198   */\n    tag_28:\n        /* \"#utility.yul\":1945:1949   */\n      0x00\n        /* \"#utility.yul\":1983:1985   */\n      0x20\n        /* \"#utility.yul\":1972:1981   */\n      dup3\n        /* \"#utility.yul\":1968:1986   */\n      add\n        /* \"#utility.yul\":1960:1986   */\n      swap1\n      pop\n        /* \"#utility.yul\":2032:2041   */\n      dup2\n        /* \"#utility.yul\":2026:2030   */\n      dup2\n        /* \"#utility.yul\":2022:2042   */\n      sub\n        /* \"#utility.yul\":2018:2019   */\n      0x00\n        /* \"#utility.yul\":2007:2016   */\n      dup4\n        /* \"#utility.yul\":2003:2020   */\n      add\n        /* \"#utility.yul\":1996:2043   */\n      mstore\n        /* \"#utility.yul\":2060:2191   */\n      tag_66\n        /* \"#utility.yul\":2186:2190   */\n      dup2\n        /* \"#utility.yul\":2060:2191   */\n      tag_54\n      jump\t// in\n    tag_66:\n        /* \"#utility.yul\":2052:2191   */\n      swap1\n      pop\n        /* \"#utility.yul\":1779:2198   */\n      swap2\n      swap1\n      pop\n      jump\t// out\n        /* \"#utility.yul\":2204:2426   */\n    tag_17:\n        /* \"#utility.yul\":2297:2301   */\n      0x00\n        /* \"#utility.yul\":2335:2337   */\n      0x20\n        /* \"#utility.yul\":2324:2333   */\n      dup3\n        /* \"#utility.yul\":2320:2338   */\n      add\n        /* \"#utility.yul\":2312:2338   */\n      swap1\n      pop\n        /* \"#utility.yul\":2348:2419   */\n      tag_68\n        /* \"#utility.yul\":2416:2417   */\n      0x00\n        /* \"#utility.yul\":2405:2414   */\n      dup4\n        /* \"#utility.yul\":2401:2418   */\n      add\n        /* \"#utility.yul\":2392:2398   */\n      dup5\n        /* \"#utility.yul\":2348:2419   */\n      tag_59\n      jump\t// in\n    tag_68:\n        /* \"#utility.yul\":2204:2426   */\n      swap3\n      swap2\n      pop\n      pop\n      jump\t// out\n        /* \"#utility.yul\":2513:2682   */\n    tag_51:\n        /* \"#utility.yul\":2597:2608   */\n      0x00\n        /* \"#utility.yul\":2631:2637   */\n      dup3\n        /* \"#utility.yul\":2626:2629   */\n      dup3\n        /* \"#utility.yul\":2619:2638   */\n      mstore\n        /* \"#utility.yul\":2671:2675   */\n      0x20\n        /* \"#utility.yul\":2666:2669   */\n      dup3\n        /* \"#utility.yul\":2662:2676   */\n      add\n        /* \"#utility.yul\":2647:2676   */\n      swap1\n      pop\n        /* \"#utility.yul\":2513:2682   */\n      swap3\n      swap2\n      pop\n      pop\n      jump\t// out\n        /* \"#utility.yul\":2688:2765   */\n    tag_62:\n        /* \"#utility.yul\":2725:2732   */\n      0x00\n        /* \"#utility.yul\":2754:2759   */\n      dup2\n        /* \"#utility.yul\":2743:2759   */\n      swap1\n      pop\n        /* \"#utility.yul\":2688:2765   */\n      swap2\n      swap1\n      pop\n      jump\t// out\n        /* \"#utility.yul\":2771:2951   */\n    tag_32:\n        /* \"#utility.yul\":2819:2896   */\n      0x4e487b7100000000000000000000000000000000000000000000000000000000\n        /* \"#utility.yul\":2816:2817   */\n      0x00\n        /* \"#utility.yul\":2809:2897   */\n      mstore\n        /* \"#utility.yul\":2916:2920   */\n      0x01\n        /* \"#utility.yul\":2913:2914   */\n      0x04\n        /* \"#utility.yul\":2906:2921   */\n      mstore\n        /* \"#utility.yul\":2940:2944   */\n      0x24\n        /* \"#utility.yul\":2937:2938   */\n      0x00\n        /* \"#utility.yul\":2930:2945   */\n      revert\n        /* \"#utility.yul\":3080:3197   */\n    tag_46:\n        /* \"#utility.yul\":3189:3190   */\n      0x00\n        /* \"#utility.yul\":3186:3187   */\n      dup1\n        /* \"#utility.yul\":3179:3191   */\n      revert\n        /* \"#utility.yul\":3203:3373   */\n    tag_53:\n        /* \"#utility.yul\":3343:3365   */\n      0x692069732067726561746572207468616e203130000000000000000000000000\n        /* \"#utility.yul\":3339:3340   */\n      0x00\n        /* \"#utility.yul\":3331:3337   */\n      dup3\n        /* \"#utility.yul\":3327:3341   */\n      add\n        /* \"#utility.yul\":3320:3366   */\n      mstore\n        /* \"#utility.yul\":3203:3373   */\n      pop\n      jump\t// out\n        /* \"#utility.yul\":3379:3535   */\n    tag_58:\n        /* \"#utility.yul\":3519:3527   */\n      0x69203e2031300000000000000000000000000000000000000000000000000000\n        /* \"#utility.yul\":3515:3516   */\n      0x00\n        /* \"#utility.yul\":3507:3513   */\n      dup3\n        /* \"#utility.yul\":3503:3517   */\n      add\n        /* \"#utility.yul\":3496:3528   */\n      mstore\n        /* \"#utility.yul\":3379:3535   */\n      pop\n      jump\t// out\n        /* \"#utility.yul\":3541:3663   */\n    tag_42:\n        /* \"#utility.yul\":3614:3638   */\n      tag_80\n        /* \"#utility.yul\":3632:3637   */\n      dup2\n        /* \"#utility.yul\":3614:3638   */\n      tag_62\n      jump\t// in\n    tag_80:\n        /* \"#utility.yul\":3607:3612   */\n      dup2\n        /* \"#utility.yul\":3604:3639   */\n      eq\n        /* \"#utility.yul\":3594:3657   */\n      tag_81\n      jumpi\n        /* \"#utility.yul\":3653:3654   */\n      0x00\n        /* \"#utility.yul\":3650:3651   */\n      dup1\n        /* \"#utility.yul\":3643:3655   */\n      revert\n        /* \"#utility.yul\":3594:3657   */\n    tag_81:\n        /* \"#utility.yul\":3541:3663   */\n      pop\n      jump\t// out\n\n    auxdata: 0xa2646970667358221220646a3ec34285bbf38248753c6ac7e51b0490263c2c7b23b39b559cc11164f80164736f6c63430008070033\n}\n",
				"bytecode": {
					"linkReferences": {},
					"object": "6080604052607b60005534801561001557600080fd5b50610364806100256000396000f3fe608060405234801561001057600080fd5b50600436106100575760003560e01c8063209877671461005c5780632b813bc0146100785780634e70b1dc14610082578063b8bd717f146100a0578063c2985578146100bc575b600080fd5b61007660048036038101906100719190610199565b6100c6565b005b610080610121565b005b61008a610136565b604051610097919061025b565b60405180910390f35b6100ba60048036038101906100b59190610199565b61013c565b005b6100c4610182565b005b600181111561011e57600581111561011d57600a81111561011c576040517f08c379a00000000000000000000000000000000000000000000000000000000081526004016101139061023b565b60405180910390fd5b5b5b50565b607b6000541461013457610133610291565b5b565b60005481565b600a811061017f576040517f08c379a00000000000000000000000000000000000000000000000000000000081526004016101769061021b565b60405180910390fd5b50565b565b60008135905061019381610317565b92915050565b6000602082840312156101af576101ae6102c0565b5b60006101bd84828501610184565b91505092915050565b60006101d3601483610276565b91506101de826102c5565b602082019050919050565b60006101f6600683610276565b9150610201826102ee565b602082019050919050565b61021581610287565b82525050565b60006020820190508181036000830152610234816101c6565b9050919050565b60006020820190508181036000830152610254816101e9565b9050919050565b6000602082019050610270600083018461020c565b92915050565b600082825260208201905092915050565b6000819050919050565b7f4e487b7100000000000000000000000000000000000000000000000000000000600052600160045260246000fd5b600080fd5b7f692069732067726561746572207468616e203130000000000000000000000000600082015250565b7f69203e2031300000000000000000000000000000000000000000000000000000600082015250565b61032081610287565b811461032b57600080fd5b5056fea2646970667358221220646a3ec34285bbf38248753c6ac7e51b0490263c2c7b23b39b559cc11164f80164736f6c63430008070033",
					"opcodes": "PUSH1 0x80 PUSH1 0x40 MSTORE PUSH1 0x7B PUSH1 0x0 SSTORE CALLVALUE DUP1 ISZERO PUSH2 0x15 JUMPI PUSH1 0x0 DUP1 REVERT JUMPDEST POP PUSH2 0x364 DUP1 PUSH2 0x25 PUSH1 0x0 CODECOPY PUSH1 0x0 RETURN INVALID PUSH1 0x80 PUSH1 0x40 MSTORE CALLVALUE DUP1 ISZERO PUSH2 0x10 JUMPI PUSH1 0x0 DUP1 REVERT JUMPDEST POP PUSH1 0x4 CALLDATASIZE LT PUSH2 0x57 JUMPI PUSH1 0x0 CALLDATALOAD PUSH1 0xE0 SHR DUP1 PUSH4 0x20987767 EQ PUSH2 0x5C JUMPI DUP1 PUSH4 0x2B813BC0 EQ PUSH2 0x78 JUMPI DUP1 PUSH4 0x4E70B1DC EQ PUSH2 0x82 JUMPI DUP1 PUSH4 0xB8BD717F EQ PUSH2 0xA0 JUMPI DUP1 PUSH4 0xC2985578 EQ PUSH2 0xBC JUMPI JUMPDEST PUSH1 0x0 DUP1 REVERT JUMPDEST PUSH2 0x76 PUSH1 0x4 DUP1 CALLDATASIZE SUB DUP2 ADD SWAP1 PUSH2 0x71 SWAP2 SWAP1 PUSH2 0x199 JUMP JUMPDEST PUSH2 0xC6 JUMP JUMPDEST STOP JUMPDEST PUSH2 0x80 PUSH2 0x121 JUMP JUMPDEST STOP JUMPDEST PUSH2 0x8A PUSH2 0x136 JUMP JUMPDEST PUSH1 0x40 MLOAD PUSH2 0x97 SWAP2 SWAP1 PUSH2 0x25B JUMP JUMPDEST PUSH1 0x40 MLOAD DUP1 SWAP2 SUB SWAP1 RETURN JUMPDEST PUSH2 0xBA PUSH1 0x4 DUP1 CALLDATASIZE SUB DUP2 ADD SWAP1 PUSH2 0xB5 SWAP2 SWAP1 PUSH2 0x199 JUMP JUMPDEST PUSH2 0x13C JUMP JUMPDEST STOP JUMPDEST PUSH2 0xC4 PUSH2 0x182 JUMP JUMPDEST STOP JUMPDEST PUSH1 0x1 DUP2 GT ISZERO PUSH2 0x11E JUMPI PUSH1 0x5 DUP2 GT ISZERO PUSH2 0x11D JUMPI PUSH1 0xA DUP2 GT ISZERO PUSH2 0x11C JUMPI PUSH1 0x40 MLOAD PUSH32 0x8C379A000000000000000000000000000000000000000000000000000000000 DUP2 MSTORE PUSH1 0x4 ADD PUSH2 0x113 SWAP1 PUSH2 0x23B JUMP JUMPDEST PUSH1 0x40 MLOAD DUP1 SWAP2 SUB SWAP1 REVERT JUMPDEST JUMPDEST JUMPDEST POP JUMP JUMPDEST PUSH1 0x7B PUSH1 0x0 SLOAD EQ PUSH2 0x134 JUMPI PUSH2 0x133 PUSH2 0x291 JUMP JUMPDEST JUMPDEST JUMP JUMPDEST PUSH1 0x0 SLOAD DUP2 JUMP JUMPDEST PUSH1 0xA DUP2 LT PUSH2 0x17F JUMPI PUSH1 0x40 MLOAD PUSH32 0x8C379A000000000000000000000000000000000000000000000000000000000 DUP2 MSTORE PUSH1 0x4 ADD PUSH2 0x176 SWAP1 PUSH2 0x21B JUMP JUMPDEST PUSH1 0x40 MLOAD DUP1 SWAP2 SUB SWAP1 REVERT JUMPDEST POP JUMP JUMPDEST JUMP JUMPDEST PUSH1 0x0 DUP2 CALLDATALOAD SWAP1 POP PUSH2 0x193 DUP2 PUSH2 0x317 JUMP JUMPDEST SWAP3 SWAP2 POP POP JUMP JUMPDEST PUSH1 0x0 PUSH1 0x20 DUP3 DUP5 SUB SLT ISZERO PUSH2 0x1AF JUMPI PUSH2 0x1AE PUSH2 0x2C0 JUMP JUMPDEST JUMPDEST PUSH1 0x0 PUSH2 0x1BD DUP5 DUP3 DUP6 ADD PUSH2 0x184 JUMP JUMPDEST SWAP2 POP POP SWAP3 SWAP2 POP POP JUMP JUMPDEST PUSH1 0x0 PUSH2 0x1D3 PUSH1 0x14 DUP4 PUSH2 0x276 JUMP JUMPDEST SWAP2 POP PUSH2 0x1DE DUP3 PUSH2 0x2C5 JUMP JUMPDEST PUSH1 0x20 DUP3 ADD SWAP1 POP SWAP2 SWAP1 POP JUMP JUMPDEST PUSH1 0x0 PUSH2 0x1F6 PUSH1 0x6 DUP4 PUSH2 0x276 JUMP JUMPDEST SWAP2 POP PUSH2 0x201 DUP3 PUSH2 0x2EE JUMP JUMPDEST PUSH1 0x20 DUP3 ADD SWAP1 POP SWAP2 SWAP1 POP JUMP JUMPDEST PUSH2 0x215 DUP2 PUSH2 0x287 JUMP JUMPDEST DUP3 MSTORE POP POP JUMP JUMPDEST PUSH1 0x0 PUSH1 0x20 DUP3 ADD SWAP1 POP DUP2 DUP2 SUB PUSH1 0x0 DUP4 ADD MSTORE PUSH2 0x234 DUP2 PUSH2 0x1C6 JUMP JUMPDEST SWAP1 POP SWAP2 SWAP1 POP JUMP JUMPDEST PUSH1 0x0 PUSH1 0x20 DUP3 ADD SWAP1 POP DUP2 DUP2 SUB PUSH1 0x0 DUP4 ADD MSTORE PUSH2 0x254 DUP2 PUSH2 0x1E9 JUMP JUMPDEST SWAP1 POP SWAP2 SWAP1 POP JUMP JUMPDEST PUSH1 0x0 PUSH1 0x20 DUP3 ADD SWAP1 POP PUSH2 0x270 PUSH1 0x0 DUP4 ADD DUP5 PUSH2 0x20C JUMP JUMPDEST SWAP3 SWAP2 POP POP JUMP JUMPDEST PUSH1 0x0 DUP3 DUP3 MSTORE PUSH1 0x20 DUP3 ADD SWAP1 POP SWAP3 SWAP2 POP POP JUMP JUMPDEST PUSH1 0x0 DUP2 SWAP1 POP SWAP2 SWAP1 POP JUMP JUMPDEST PUSH32 0x4E487B7100000000000000000000000000000000000000000000000000000000 PUSH1 0x0 MSTORE PUSH1 0x1 PUSH1 0x4 MSTORE PUSH1 0x24 PUSH1 0x0 REVERT JUMPDEST PUSH1 0x0 DUP1 REVERT JUMPDEST PUSH32 0x692069732067726561746572207468616E203130000000000000000000000000 PUSH1 0x0 DUP3 ADD MSTORE POP JUMP JUMPDEST PUSH32 0x69203E2031300000000000000000000000000000000000000000000000000000 PUSH1 0x0 DUP3 ADD MSTORE POP JUMP JUMPDEST PUSH2 0x320 DUP2 PUSH2 0x287 JUMP JUMPDEST DUP2 EQ PUSH2 0x32B JUMPI PUSH1 0x0 DUP1 REVERT JUMPDEST POP JUMP INVALID LOG2 PUSH5 0x6970667358 0x22 SLT KECCAK256 PUSH5 0x6A3EC34285 0xBB RETURN DUP3 BASEFEE PUSH22 0x3C6AC7E51B0490263C2C7B23B39B559CC11164F80164 PUSH20 0x6F6C634300080700330000000000000000000000 "
				},
				"gasEstimates": {
					"creation": {
						"codeDepositCost": "173600",
						"executionCost": "22326",
						"totalCost": "195926"
					},
					"external": {
						"foo()": "210",
						"num()": "2451",
						"testAssert()": "2296",
						"testRequire(uint256)": "760",
						"testRevert(uint256)": "747"
					}
				},
				"methodIdentifiers": {
					"foo()": "c2985578",
					"num()": "4e70b1dc",
					"testAssert()": "2b813bc0",
					"testRequire(uint256)": "b8bd717f",
					"testRevert(uint256)": "20987767"
				}
			},
			"storageLayout": {
				"storage": [
					{
						"astId": 42,
						"contract": "contracts/Errors-14.sol:Errors",
						"label": "num",
						"offset": 0,
						"slot": "0",
						"type": "t_uint256"
					}
				],
				"types": {
					"t_uint256": {
						"encoding": "inplace",
						"label": "uint256",
						"numberOfBytes": "32"
					}
				}
			},
			"userdoc": {
				"kind": "user",
				"methods": {},
				"version": 1
			}
		}
	}
}