{
	"contracts/ForAndWhileLoops.sol": {
		"ForAndWhileLoops": {
			"abi": [
				{
					"inputs": [],
					"name": "loops",
					"outputs": [],
					"stateMutability": "pure",
					"type": "function"
				}
			],
			"devdoc": {
				"kind": "dev",
				"methods": {},
				"version": 1
			},
			"evm": {
				"assembly": "    /* \"contracts/ForAndWhileLoops.sol\":58:224  contract ForAndWhileLoops {... */\n  mstore(0x40, 0x80)\n  callvalue\n  dup1\n  iszero\n  tag_1\n  jumpi\n  0x00\n  dup1\n  revert\ntag_1:\n  pop\n  dataSize(sub_0)\n  dup1\n  dataOffset(sub_0)\n  0x00\n  codecopy\n  0x00\n  return\nstop\n\nsub_0: assembly {\n        /* \"contracts/ForAndWhileLoops.sol\":58:224  contract ForAndWhileLoops {... */\n      mstore(0x40, 0x80)\n      callvalue\n      dup1\n      iszero\n      tag_1\n      jumpi\n      0x00\n      dup1\n      revert\n    tag_1:\n      pop\n      jumpi(tag_2, lt(calldatasize, 0x04))\n      shr(0xe0, calldataload(0x00))\n      dup1\n      0x938b9ceb\n      eq\n      tag_3\n      jumpi\n    tag_2:\n      0x00\n      dup1\n      revert\n        /* \"contracts/ForAndWhileLoops.sol\":90:222  function loops() external pure {... */\n    tag_3:\n      tag_4\n      tag_5\n      jump\t// in\n    tag_4:\n      stop\n    tag_5:\n        /* \"contracts/ForAndWhileLoops.sol\":135:141  uint i */\n      0x00\n        /* \"contracts/ForAndWhileLoops.sol\":131:216  for(uint i = 0; i < 10; i++) {... */\n    tag_7:\n        /* \"contracts/ForAndWhileLoops.sol\":151:153  10 */\n      0x0a\n        /* \"contracts/ForAndWhileLoops.sol\":147:148  i */\n      dup2\n        /* \"contracts/ForAndWhileLoops.sol\":147:153  i < 10 */\n      lt\n        /* \"contracts/ForAndWhileLoops.sol\":131:216  for(uint i = 0; i < 10; i++) {... */\n      iszero\n      tag_8\n      jumpi\n        /* \"contracts/ForAndWhileLoops.sol\":155:158  i++ */\n      dup1\n      dup1\n      tag_10\n      swap1\n      tag_11\n      jump\t// in\n    tag_10:\n      swap2\n      pop\n      pop\n        /* \"contracts/ForAndWhileLoops.sol\":131:216  for(uint i = 0; i < 10; i++) {... */\n      jump(tag_7)\n    tag_8:\n      pop\n        /* \"contracts/ForAndWhileLoops.sol\":90:222  function loops() external pure {... */\n      jump\t// out\n        /* \"#utility.yul\":7:84   */\n    tag_13:\n        /* \"#utility.yul\":44:51   */\n      0x00\n        /* \"#utility.yul\":73:78   */\n      dup2\n        /* \"#utility.yul\":62:78   */\n      swap1\n      pop\n        /* \"#utility.yul\":7:84   */\n      swap2\n      swap1\n      pop\n      jump\t// out\n        /* \"#utility.yul\":90:323   */\n    tag_11:\n        /* \"#utility.yul\":129:132   */\n      0x00\n        /* \"#utility.yul\":152:176   */\n      tag_16\n        /* \"#utility.yul\":170:175   */\n      dup3\n        /* \"#utility.yul\":152:176   */\n      tag_13\n      jump\t// in\n    tag_16:\n        /* \"#utility.yul\":143:176   */\n      swap2\n      pop\n        /* \"#utility.yul\":198:264   */\n      0xffffffffffffffffffffffffffffffffffffffffffffffffffffffffffffffff\n        /* \"#utility.yul\":191:196   */\n      dup3\n        /* \"#utility.yul\":188:265   */\n      eq\n        /* \"#utility.yul\":185:288   */\n      iszero\n      tag_17\n      jumpi\n        /* \"#utility.yul\":268:286   */\n      tag_18\n      tag_19\n      jump\t// in\n    tag_18:\n        /* \"#utility.yul\":185:288   */\n    tag_17:\n        /* \"#utility.yul\":315:316   */\n      0x01\n        /* \"#utility.yul\":308:313   */\n      dup3\n        /* \"#utility.yul\":304:317   */\n      add\n        /* \"#utility.yul\":297:317   */\n      swap1\n      pop\n        /* \"#utility.yul\":90:323   */\n      swap2\n      swap1\n      pop\n      jump\t// out\n        /* \"#utility.yul\":329:509   */\n    tag_19:\n        /* \"#utility.yul\":377:454   */\n      0x4e487b7100000000000000000000000000000000000000000000000000000000\n        /* \"#utility.yul\":374:375   */\n      0x00\n        /* \"#utility.yul\":367:455   */\n      mstore\n        /* \"#utility.yul\":474:478   */\n      0x11\n        /* \"#utility.yul\":471:472   */\n      0x04\n        /* \"#utility.yul\":464:479   */\n      mstore\n        /* \"#utility.yul\":498:502   */\n      0x24\n        /* \"#utility.yul\":495:496   */\n      0x00\n        /* \"#utility.yul\":488:503   */\n      revert\n\n    auxdata: 0xa26469706673582212204b10b290f8a51797dc863f83dfb5df618f0fd713daa901ce332772654c95691d64736f6c63430008070033\n}\n",
				"bytecode": {
					"linkReferences": {},
					"object": "608060405234801561001057600080fd5b50610106806100206000396000f3fe6080604052348015600f57600080fd5b506004361060285760003560e01c8063938b9ceb14602d575b600080fd5b60336035565b005b60005b600a8110156050578080604990605d565b9150506038565b50565b6000819050919050565b60006066826053565b91507fffffffffffffffffffffffffffffffffffffffffffffffffffffffffffffffff821415609657609560a1565b5b600182019050919050565b7f4e487b7100000000000000000000000000000000000000000000000000000000600052601160045260246000fdfea26469706673582212204b10b290f8a51797dc863f83dfb5df618f0fd713daa901ce332772654c95691d64736f6c63430008070033",
					"opcodes": "PUSH1 0x80 PUSH1 0x40 MSTORE CALLVALUE DUP1 ISZERO PUSH2 0x10 JUMPI PUSH1 0x0 DUP1 REVERT JUMPDEST POP PUSH2 0x106 DUP1 PUSH2 0x20 PUSH1 0x0 CODECOPY PUSH1 0x0 RETURN INVALID PUSH1 0x80 PUSH1 0x40 MSTORE CALLVALUE DUP1 ISZERO PUSH1 0xF JUMPI PUSH1 0x0 DUP1 REVERT JUMPDEST POP PUSH1 0x4 CALLDATASIZE LT PUSH1 0x28 JUMPI PUSH1 0x0 CALLDATALOAD PUSH1 0xE0 SHR DUP1 PUSH4 0x938B9CEB EQ PUSH1 0x2D JUMPI JUMPDEST PUSH1 0x0 DUP1 REVERT JUMPDEST PUSH1 0x33 PUSH1 0x35 JUMP JUMPDEST STOP JUMPDEST PUSH1 0x0 JUMPDEST PUSH1 0xA DUP2 LT ISZERO PUSH1 0x50 JUMPI DUP1 DUP1 PUSH1 0x49 SWAP1 PUSH1 0x5D JUMP JUMPDEST SWAP2 POP POP PUSH1 0x38 JUMP JUMPDEST POP JUMP JUMPDEST PUSH1 0x0 DUP2 SWAP1 POP SWAP2 SWAP1 POP JUMP JUMPDEST PUSH1 0x0 PUSH1 0x66 DUP3 PUSH1 0x53 JUMP JUMPDEST SWAP2 POP PUSH32 0xFFFFFFFFFFFFFFFFFFFFFFFFFFFFFFFFFFFFFFFFFFFFFFFFFFFFFFFFFFFFFFFF DUP3 EQ ISZERO PUSH1 0x96 JUMPI PUSH1 0x95 PUSH1 0xA1 JUMP JUMPDEST JUMPDEST PUSH1 0x1 DUP3 ADD SWAP1 POP SWAP2 SWAP1 POP JUMP JUMPDEST PUSH32 0x4E487B7100000000000000000000000000000000000000000000000000000000 PUSH1 0x0 MSTORE PUSH1 0x11 PUSH1 0x4 MSTORE PUSH1 0x24 PUSH1 0x0 REVERT INVALID LOG2 PUSH5 0x6970667358 0x22 SLT KECCAK256 0x4B LT 0xB2 SWAP1 0xF8 0xA5 OR SWAP8 0xDC DUP7 EXTCODEHASH DUP4 0xDF 0xB5 0xDF PUSH2 0x8F0F 0xD7 SGT 0xDA 0xA9 ADD 0xCE CALLER 0x27 PUSH19 0x654C95691D64736F6C63430008070033000000 "
				},
				"gasEstimates": {
					"creation": {
						"codeDepositCost": "52400",
						"executionCost": "105",
						"totalCost": "52505"
					},
					"external": {
						"loops()": "infinite"
					}
				},
				"methodIdentifiers": {
					"loops()": "938b9ceb"
				}
			},
			"storageLayout": {
				"storage": [],
				"types": null
			},
			"userdoc": {
				"kind": "user",
				"methods": {},
				"version": 1
			}
		}
	}
}