{
	"contracts/Mapping-Iterable-23.sol": {
		"IterableMapping": {
			"abi": [
				{
					"inputs": [
						{
							"internalType": "address",
							"name": "",
							"type": "address"
						}
					],
					"name": "balances",
					"outputs": [
						{
							"internalType": "uint256",
							"name": "",
							"type": "uint256"
						}
					],
					"stateMutability": "view",
					"type": "function"
				},
				{
					"inputs": [],
					"name": "first",
					"outputs": [
						{
							"internalType": "uint256",
							"name": "",
							"type": "uint256"
						}
					],
					"stateMutability": "view",
					"type": "function"
				},
				{
					"inputs": [],
					"name": "getSize",
					"outputs": [
						{
							"internalType": "uint256",
							"name": "",
							"type": "uint256"
						}
					],
					"stateMutability": "view",
					"type": "function"
				},
				{
					"inputs": [
						{
							"internalType": "address",
							"name": "",
							"type": "address"
						}
					],
					"name": "inserted",
					"outputs": [
						{
							"internalType": "bool",
							"name": "",
							"type": "bool"
						}
					],
					"stateMutability": "view",
					"type": "function"
				},
				{
					"inputs": [
						{
							"internalType": "uint256",
							"name": "",
							"type": "uint256"
						}
					],
					"name": "keys",
					"outputs": [
						{
							"internalType": "address",
							"name": "",
							"type": "address"
						}
					],
					"stateMutability": "view",
					"type": "function"
				},
				{
					"inputs": [],
					"name": "last",
					"outputs": [
						{
							"internalType": "uint256",
							"name": "",
							"type": "uint256"
						}
					],
					"stateMutability": "view",
					"type": "function"
				},
				{
					"inputs": [
						{
							"internalType": "address",
							"name": "_key",
							"type": "address"
						},
						{
							"internalType": "uint256",
							"name": "_val",
							"type": "uint256"
						}
					],
					"name": "set",
					"outputs": [],
					"stateMutability": "nonpayable",
					"type": "function"
				}
			],
			"devdoc": {
				"kind": "dev",
				"methods": {},
				"version": 1
			},
			"evm": {
				"assembly": "    /* \"contracts/Mapping-Iterable-23.sol\":152:770  contract IterableMapping {... */\n  mstore(0x40, 0x80)\n  callvalue\n  dup1\n  iszero\n  tag_1\n  jumpi\n  0x00\n  dup1\n  revert\ntag_1:\n  pop\n  dataSize(sub_0)\n  dup1\n  dataOffset(sub_0)\n  0x00\n  codecopy\n  0x00\n  return\nstop\n\nsub_0: assembly {\n        /* \"contracts/Mapping-Iterable-23.sol\":152:770  contract IterableMapping {... */\n      mstore(0x40, 0x80)\n      callvalue\n      dup1\n      iszero\n      tag_1\n      jumpi\n      0x00\n      dup1\n      revert\n    tag_1:\n      pop\n      jumpi(tag_2, lt(calldatasize, 0x04))\n      shr(0xe0, calldataload(0x00))\n      dup1\n      0x3df4ddf4\n      gt\n      tag_10\n      jumpi\n      dup1\n      0x3df4ddf4\n      eq\n      tag_6\n      jumpi\n      dup1\n      0x47799da8\n      eq\n      tag_7\n      jumpi\n      dup1\n      0x7cd380f1\n      eq\n      tag_8\n      jumpi\n      dup1\n      0xde8fa431\n      eq\n      tag_9\n      jumpi\n      jump(tag_2)\n    tag_10:\n      dup1\n      0x0cb6aaf1\n      eq\n      tag_3\n      jumpi\n      dup1\n      0x27e235e3\n      eq\n      tag_4\n      jumpi\n      dup1\n      0x3825d828\n      eq\n      tag_5\n      jumpi\n    tag_2:\n      0x00\n      dup1\n      revert\n        /* \"contracts/Mapping-Iterable-23.sol\":275:296  address[] public keys */\n    tag_3:\n      tag_11\n      0x04\n      dup1\n      calldatasize\n      sub\n      dup2\n      add\n      swap1\n      tag_12\n      swap2\n      swap1\n      tag_13\n      jump\t// in\n    tag_12:\n      tag_14\n      jump\t// in\n    tag_11:\n      mload(0x40)\n      tag_15\n      swap2\n      swap1\n      tag_16\n      jump\t// in\n    tag_15:\n      mload(0x40)\n      dup1\n      swap2\n      sub\n      swap1\n      return\n        /* \"contracts/Mapping-Iterable-23.sol\":183:223  mapping(address => uint) public balances */\n    tag_4:\n      tag_17\n      0x04\n      dup1\n      calldatasize\n      sub\n      dup2\n      add\n      swap1\n      tag_18\n      swap2\n      swap1\n      tag_19\n      jump\t// in\n    tag_18:\n      tag_20\n      jump\t// in\n    tag_17:\n      mload(0x40)\n      tag_21\n      swap2\n      swap1\n      tag_22\n      jump\t// in\n    tag_21:\n      mload(0x40)\n      dup1\n      swap2\n      sub\n      swap1\n      return\n        /* \"contracts/Mapping-Iterable-23.sol\":303:493  function set(address _key, uint _val) external {... */\n    tag_5:\n      tag_23\n      0x04\n      dup1\n      calldatasize\n      sub\n      dup2\n      add\n      swap1\n      tag_24\n      swap2\n      swap1\n      tag_25\n      jump\t// in\n    tag_24:\n      tag_26\n      jump\t// in\n    tag_23:\n      stop\n        /* \"contracts/Mapping-Iterable-23.sol\":588:675  function first() external view returns (uint) {... */\n    tag_6:\n      tag_27\n      tag_28\n      jump\t// in\n    tag_27:\n      mload(0x40)\n      tag_29\n      swap2\n      swap1\n      tag_22\n      jump\t// in\n    tag_29:\n      mload(0x40)\n      dup1\n      swap2\n      sub\n      swap1\n      return\n        /* \"contracts/Mapping-Iterable-23.sol\":682:768  function last() external view returns (uint) {... */\n    tag_7:\n      tag_30\n      tag_31\n      jump\t// in\n    tag_30:\n      mload(0x40)\n      tag_32\n      swap2\n      swap1\n      tag_22\n      jump\t// in\n    tag_32:\n      mload(0x40)\n      dup1\n      swap2\n      sub\n      swap1\n      return\n        /* \"contracts/Mapping-Iterable-23.sol\":229:269  mapping(address => bool) public inserted */\n    tag_8:\n      tag_33\n      0x04\n      dup1\n      calldatasize\n      sub\n      dup2\n      add\n      swap1\n      tag_34\n      swap2\n      swap1\n      tag_19\n      jump\t// in\n    tag_34:\n      tag_35\n      jump\t// in\n    tag_33:\n      mload(0x40)\n      tag_36\n      swap2\n      swap1\n      tag_37\n      jump\t// in\n    tag_36:\n      mload(0x40)\n      dup1\n      swap2\n      sub\n      swap1\n      return\n        /* \"contracts/Mapping-Iterable-23.sol\":499:582  function getSize() external view returns (uint) {... */\n    tag_9:\n      tag_38\n      tag_39\n      jump\t// in\n    tag_38:\n      mload(0x40)\n      tag_40\n      swap2\n      swap1\n      tag_22\n      jump\t// in\n    tag_40:\n      mload(0x40)\n      dup1\n      swap2\n      sub\n      swap1\n      return\n        /* \"contracts/Mapping-Iterable-23.sol\":275:296  address[] public keys */\n    tag_14:\n      0x02\n      dup2\n      dup2\n      sload\n      dup2\n      lt\n      tag_41\n      jumpi\n      0x00\n      dup1\n      revert\n    tag_41:\n      swap1\n      0x00\n      mstore\n      keccak256(0x00, 0x20)\n      add\n      0x00\n      swap2\n      pop\n      sload\n      swap1\n      0x0100\n      exp\n      swap1\n      div\n      0xffffffffffffffffffffffffffffffffffffffff\n      and\n      dup2\n      jump\t// out\n        /* \"contracts/Mapping-Iterable-23.sol\":183:223  mapping(address => uint) public balances */\n    tag_20:\n      mstore(0x20, 0x00)\n      dup1\n      0x00\n      mstore\n      keccak256(0x00, 0x40)\n      0x00\n      swap2\n      pop\n      swap1\n      pop\n      sload\n      dup2\n      jump\t// out\n        /* \"contracts/Mapping-Iterable-23.sol\":303:493  function set(address _key, uint _val) external {... */\n    tag_26:\n        /* \"contracts/Mapping-Iterable-23.sol\":377:381  _val */\n      dup1\n        /* \"contracts/Mapping-Iterable-23.sol\":360:368  balances */\n      0x00\n        /* \"contracts/Mapping-Iterable-23.sol\":360:374  balances[_key] */\n      dup1\n        /* \"contracts/Mapping-Iterable-23.sol\":369:373  _key */\n      dup5\n        /* \"contracts/Mapping-Iterable-23.sol\":360:374  balances[_key] */\n      0xffffffffffffffffffffffffffffffffffffffff\n      and\n      0xffffffffffffffffffffffffffffffffffffffff\n      and\n      dup2\n      mstore\n      0x20\n      add\n      swap1\n      dup2\n      mstore\n      0x20\n      add\n      0x00\n      keccak256\n        /* \"contracts/Mapping-Iterable-23.sol\":360:381  balances[_key] = _val */\n      dup2\n      swap1\n      sstore\n      pop\n        /* \"contracts/Mapping-Iterable-23.sol\":396:404  inserted */\n      0x01\n        /* \"contracts/Mapping-Iterable-23.sol\":396:410  inserted[_key] */\n      0x00\n        /* \"contracts/Mapping-Iterable-23.sol\":405:409  _key */\n      dup4\n        /* \"contracts/Mapping-Iterable-23.sol\":396:410  inserted[_key] */\n      0xffffffffffffffffffffffffffffffffffffffff\n      and\n      0xffffffffffffffffffffffffffffffffffffffff\n      and\n      dup2\n      mstore\n      0x20\n      add\n      swap1\n      dup2\n      mstore\n      0x20\n      add\n      0x00\n      keccak256\n      0x00\n      swap1\n      sload\n      swap1\n      0x0100\n      exp\n      swap1\n      div\n      0xff\n      and\n        /* \"contracts/Mapping-Iterable-23.sol\":392:487  if(!inserted[_key]) {... */\n      tag_44\n      jumpi\n        /* \"contracts/Mapping-Iterable-23.sol\":443:447  true */\n      0x01\n        /* \"contracts/Mapping-Iterable-23.sol\":426:434  inserted */\n      dup1\n        /* \"contracts/Mapping-Iterable-23.sol\":426:440  inserted[_key] */\n      0x00\n        /* \"contracts/Mapping-Iterable-23.sol\":435:439  _key */\n      dup5\n        /* \"contracts/Mapping-Iterable-23.sol\":426:440  inserted[_key] */\n      0xffffffffffffffffffffffffffffffffffffffff\n      and\n      0xffffffffffffffffffffffffffffffffffffffff\n      and\n      dup2\n      mstore\n      0x20\n      add\n      swap1\n      dup2\n      mstore\n      0x20\n      add\n      0x00\n      keccak256\n      0x00\n        /* \"contracts/Mapping-Iterable-23.sol\":426:447  inserted[_key] = true */\n      0x0100\n      exp\n      dup2\n      sload\n      dup2\n      0xff\n      mul\n      not\n      and\n      swap1\n      dup4\n      iszero\n      iszero\n      mul\n      or\n      swap1\n      sstore\n      pop\n        /* \"contracts/Mapping-Iterable-23.sol\":461:465  keys */\n      0x02\n        /* \"contracts/Mapping-Iterable-23.sol\":471:475  _key */\n      dup3\n        /* \"contracts/Mapping-Iterable-23.sol\":461:476  keys.push(_key) */\n      swap1\n      dup1\n      0x01\n      dup2\n      sload\n      add\n      dup1\n      dup3\n      sstore\n      dup1\n      swap2\n      pop\n      pop\n      0x01\n      swap1\n      sub\n      swap1\n      0x00\n      mstore\n      keccak256(0x00, 0x20)\n      add\n      0x00\n      swap1\n      swap2\n      swap1\n      swap2\n      swap1\n      swap2\n      0x0100\n      exp\n      dup2\n      sload\n      dup2\n      0xffffffffffffffffffffffffffffffffffffffff\n      mul\n      not\n      and\n      swap1\n      dup4\n      0xffffffffffffffffffffffffffffffffffffffff\n      and\n      mul\n      or\n      swap1\n      sstore\n      pop\n        /* \"contracts/Mapping-Iterable-23.sol\":392:487  if(!inserted[_key]) {... */\n    tag_44:\n        /* \"contracts/Mapping-Iterable-23.sol\":303:493  function set(address _key, uint _val) external {... */\n      pop\n      pop\n      jump\t// out\n        /* \"contracts/Mapping-Iterable-23.sol\":588:675  function first() external view returns (uint) {... */\n    tag_28:\n        /* \"contracts/Mapping-Iterable-23.sol\":628:632  uint */\n      0x00\n        /* \"contracts/Mapping-Iterable-23.sol\":651:659  balances */\n      dup1\n        /* \"contracts/Mapping-Iterable-23.sol\":651:668  balances[keys[0]] */\n      0x00\n        /* \"contracts/Mapping-Iterable-23.sol\":660:664  keys */\n      0x02\n        /* \"contracts/Mapping-Iterable-23.sol\":665:666  0 */\n      0x00\n        /* \"contracts/Mapping-Iterable-23.sol\":660:667  keys[0] */\n      dup2\n      sload\n      dup2\n      lt\n      tag_47\n      jumpi\n      tag_48\n      tag_49\n      jump\t// in\n    tag_48:\n    tag_47:\n      swap1\n      0x00\n      mstore\n      keccak256(0x00, 0x20)\n      add\n      0x00\n      swap1\n      sload\n      swap1\n      0x0100\n      exp\n      swap1\n      div\n      0xffffffffffffffffffffffffffffffffffffffff\n      and\n        /* \"contracts/Mapping-Iterable-23.sol\":651:668  balances[keys[0]] */\n      0xffffffffffffffffffffffffffffffffffffffff\n      and\n      0xffffffffffffffffffffffffffffffffffffffff\n      and\n      dup2\n      mstore\n      0x20\n      add\n      swap1\n      dup2\n      mstore\n      0x20\n      add\n      0x00\n      keccak256\n      sload\n        /* \"contracts/Mapping-Iterable-23.sol\":644:668  return balances[keys[0]] */\n      swap1\n      pop\n        /* \"contracts/Mapping-Iterable-23.sol\":588:675  function first() external view returns (uint) {... */\n      swap1\n      jump\t// out\n        /* \"contracts/Mapping-Iterable-23.sol\":682:768  function last() external view returns (uint) {... */\n    tag_31:\n        /* \"contracts/Mapping-Iterable-23.sol\":721:725  uint */\n      0x00\n        /* \"contracts/Mapping-Iterable-23.sol\":744:752  balances */\n      dup1\n        /* \"contracts/Mapping-Iterable-23.sol\":744:761  balances[keys[0]] */\n      0x00\n        /* \"contracts/Mapping-Iterable-23.sol\":753:757  keys */\n      0x02\n        /* \"contracts/Mapping-Iterable-23.sol\":758:759  0 */\n      0x00\n        /* \"contracts/Mapping-Iterable-23.sol\":753:760  keys[0] */\n      dup2\n      sload\n      dup2\n      lt\n      tag_52\n      jumpi\n      tag_53\n      tag_49\n      jump\t// in\n    tag_53:\n    tag_52:\n      swap1\n      0x00\n      mstore\n      keccak256(0x00, 0x20)\n      add\n      0x00\n      swap1\n      sload\n      swap1\n      0x0100\n      exp\n      swap1\n      div\n      0xffffffffffffffffffffffffffffffffffffffff\n      and\n        /* \"contracts/Mapping-Iterable-23.sol\":744:761  balances[keys[0]] */\n      0xffffffffffffffffffffffffffffffffffffffff\n      and\n      0xffffffffffffffffffffffffffffffffffffffff\n      and\n      dup2\n      mstore\n      0x20\n      add\n      swap1\n      dup2\n      mstore\n      0x20\n      add\n      0x00\n      keccak256\n      sload\n        /* \"contracts/Mapping-Iterable-23.sol\":737:761  return balances[keys[0]] */\n      swap1\n      pop\n        /* \"contracts/Mapping-Iterable-23.sol\":682:768  function last() external view returns (uint) {... */\n      swap1\n      jump\t// out\n        /* \"contracts/Mapping-Iterable-23.sol\":229:269  mapping(address => bool) public inserted */\n    tag_35:\n      mstore(0x20, 0x01)\n      dup1\n      0x00\n      mstore\n      keccak256(0x00, 0x40)\n      0x00\n      swap2\n      pop\n      sload\n      swap1\n      0x0100\n      exp\n      swap1\n      div\n      0xff\n      and\n      dup2\n      jump\t// out\n        /* \"contracts/Mapping-Iterable-23.sol\":499:582  function getSize() external view returns (uint) {... */\n    tag_39:\n        /* \"contracts/Mapping-Iterable-23.sol\":541:545  uint */\n      0x00\n        /* \"contracts/Mapping-Iterable-23.sol\":564:568  keys */\n      0x02\n        /* \"contracts/Mapping-Iterable-23.sol\":564:575  keys.length */\n      dup1\n      sload\n      swap1\n      pop\n        /* \"contracts/Mapping-Iterable-23.sol\":557:575  return keys.length */\n      swap1\n      pop\n        /* \"contracts/Mapping-Iterable-23.sol\":499:582  function getSize() external view returns (uint) {... */\n      swap1\n      jump\t// out\n        /* \"#utility.yul\":7:146   */\n    tag_57:\n        /* \"#utility.yul\":53:58   */\n      0x00\n        /* \"#utility.yul\":91:97   */\n      dup2\n        /* \"#utility.yul\":78:98   */\n      calldataload\n        /* \"#utility.yul\":69:98   */\n      swap1\n      pop\n        /* \"#utility.yul\":107:140   */\n      tag_59\n        /* \"#utility.yul\":134:139   */\n      dup2\n        /* \"#utility.yul\":107:140   */\n      tag_60\n      jump\t// in\n    tag_59:\n        /* \"#utility.yul\":7:146   */\n      swap3\n      swap2\n      pop\n      pop\n      jump\t// out\n        /* \"#utility.yul\":152:291   */\n    tag_61:\n        /* \"#utility.yul\":198:203   */\n      0x00\n        /* \"#utility.yul\":236:242   */\n      dup2\n        /* \"#utility.yul\":223:243   */\n      calldataload\n        /* \"#utility.yul\":214:243   */\n      swap1\n      pop\n        /* \"#utility.yul\":252:285   */\n      tag_63\n        /* \"#utility.yul\":279:284   */\n      dup2\n        /* \"#utility.yul\":252:285   */\n      tag_64\n      jump\t// in\n    tag_63:\n        /* \"#utility.yul\":152:291   */\n      swap3\n      swap2\n      pop\n      pop\n      jump\t// out\n        /* \"#utility.yul\":297:626   */\n    tag_19:\n        /* \"#utility.yul\":356:362   */\n      0x00\n        /* \"#utility.yul\":405:407   */\n      0x20\n        /* \"#utility.yul\":393:402   */\n      dup3\n        /* \"#utility.yul\":384:391   */\n      dup5\n        /* \"#utility.yul\":380:403   */\n      sub\n        /* \"#utility.yul\":376:408   */\n      slt\n        /* \"#utility.yul\":373:492   */\n      iszero\n      tag_66\n      jumpi\n        /* \"#utility.yul\":411:490   */\n      tag_67\n      tag_68\n      jump\t// in\n    tag_67:\n        /* \"#utility.yul\":373:492   */\n    tag_66:\n        /* \"#utility.yul\":531:532   */\n      0x00\n        /* \"#utility.yul\":556:609   */\n      tag_69\n        /* \"#utility.yul\":601:608   */\n      dup5\n        /* \"#utility.yul\":592:598   */\n      dup3\n        /* \"#utility.yul\":581:590   */\n      dup6\n        /* \"#utility.yul\":577:599   */\n      add\n        /* \"#utility.yul\":556:609   */\n      tag_57\n      jump\t// in\n    tag_69:\n        /* \"#utility.yul\":546:609   */\n      swap2\n      pop\n        /* \"#utility.yul\":502:619   */\n      pop\n        /* \"#utility.yul\":297:626   */\n      swap3\n      swap2\n      pop\n      pop\n      jump\t// out\n        /* \"#utility.yul\":632:1106   */\n    tag_25:\n        /* \"#utility.yul\":700:706   */\n      0x00\n        /* \"#utility.yul\":708:714   */\n      dup1\n        /* \"#utility.yul\":757:759   */\n      0x40\n        /* \"#utility.yul\":745:754   */\n      dup4\n        /* \"#utility.yul\":736:743   */\n      dup6\n        /* \"#utility.yul\":732:755   */\n      sub\n        /* \"#utility.yul\":728:760   */\n      slt\n        /* \"#utility.yul\":725:844   */\n      iszero\n      tag_71\n      jumpi\n        /* \"#utility.yul\":763:842   */\n      tag_72\n      tag_68\n      jump\t// in\n    tag_72:\n        /* \"#utility.yul\":725:844   */\n    tag_71:\n        /* \"#utility.yul\":883:884   */\n      0x00\n        /* \"#utility.yul\":908:961   */\n      tag_73\n        /* \"#utility.yul\":953:960   */\n      dup6\n        /* \"#utility.yul\":944:950   */\n      dup3\n        /* \"#utility.yul\":933:942   */\n      dup7\n        /* \"#utility.yul\":929:951   */\n      add\n        /* \"#utility.yul\":908:961   */\n      tag_57\n      jump\t// in\n    tag_73:\n        /* \"#utility.yul\":898:961   */\n      swap3\n      pop\n        /* \"#utility.yul\":854:971   */\n      pop\n        /* \"#utility.yul\":1010:1012   */\n      0x20\n        /* \"#utility.yul\":1036:1089   */\n      tag_74\n        /* \"#utility.yul\":1081:1088   */\n      dup6\n        /* \"#utility.yul\":1072:1078   */\n      dup3\n        /* \"#utility.yul\":1061:1070   */\n      dup7\n        /* \"#utility.yul\":1057:1079   */\n      add\n        /* \"#utility.yul\":1036:1089   */\n      tag_61\n      jump\t// in\n    tag_74:\n        /* \"#utility.yul\":1026:1089   */\n      swap2\n      pop\n        /* \"#utility.yul\":981:1099   */\n      pop\n        /* \"#utility.yul\":632:1106   */\n      swap3\n      pop\n      swap3\n      swap1\n      pop\n      jump\t// out\n        /* \"#utility.yul\":1112:1441   */\n    tag_13:\n        /* \"#utility.yul\":1171:1177   */\n      0x00\n        /* \"#utility.yul\":1220:1222   */\n      0x20\n        /* \"#utility.yul\":1208:1217   */\n      dup3\n        /* \"#utility.yul\":1199:1206   */\n      dup5\n        /* \"#utility.yul\":1195:1218   */\n      sub\n        /* \"#utility.yul\":1191:1223   */\n      slt\n        /* \"#utility.yul\":1188:1307   */\n      iszero\n      tag_76\n      jumpi\n        /* \"#utility.yul\":1226:1305   */\n      tag_77\n      tag_68\n      jump\t// in\n    tag_77:\n        /* \"#utility.yul\":1188:1307   */\n    tag_76:\n        /* \"#utility.yul\":1346:1347   */\n      0x00\n        /* \"#utility.yul\":1371:1424   */\n      tag_78\n        /* \"#utility.yul\":1416:1423   */\n      dup5\n        /* \"#utility.yul\":1407:1413   */\n      dup3\n        /* \"#utility.yul\":1396:1405   */\n      dup6\n        /* \"#utility.yul\":1392:1414   */\n      add\n        /* \"#utility.yul\":1371:1424   */\n      tag_61\n      jump\t// in\n    tag_78:\n        /* \"#utility.yul\":1361:1424   */\n      swap2\n      pop\n        /* \"#utility.yul\":1317:1434   */\n      pop\n        /* \"#utility.yul\":1112:1441   */\n      swap3\n      swap2\n      pop\n      pop\n      jump\t// out\n        /* \"#utility.yul\":1447:1565   */\n    tag_79:\n        /* \"#utility.yul\":1534:1558   */\n      tag_81\n        /* \"#utility.yul\":1552:1557   */\n      dup2\n        /* \"#utility.yul\":1534:1558   */\n      tag_82\n      jump\t// in\n    tag_81:\n        /* \"#utility.yul\":1529:1532   */\n      dup3\n        /* \"#utility.yul\":1522:1559   */\n      mstore\n        /* \"#utility.yul\":1447:1565   */\n      pop\n      pop\n      jump\t// out\n        /* \"#utility.yul\":1571:1680   */\n    tag_83:\n        /* \"#utility.yul\":1652:1673   */\n      tag_85\n        /* \"#utility.yul\":1667:1672   */\n      dup2\n        /* \"#utility.yul\":1652:1673   */\n      tag_86\n      jump\t// in\n    tag_85:\n        /* \"#utility.yul\":1647:1650   */\n      dup3\n        /* \"#utility.yul\":1640:1674   */\n      mstore\n        /* \"#utility.yul\":1571:1680   */\n      pop\n      pop\n      jump\t// out\n        /* \"#utility.yul\":1686:1804   */\n    tag_87:\n        /* \"#utility.yul\":1773:1797   */\n      tag_89\n        /* \"#utility.yul\":1791:1796   */\n      dup2\n        /* \"#utility.yul\":1773:1797   */\n      tag_90\n      jump\t// in\n    tag_89:\n        /* \"#utility.yul\":1768:1771   */\n      dup3\n        /* \"#utility.yul\":1761:1798   */\n      mstore\n        /* \"#utility.yul\":1686:1804   */\n      pop\n      pop\n      jump\t// out\n        /* \"#utility.yul\":1810:2032   */\n    tag_16:\n        /* \"#utility.yul\":1903:1907   */\n      0x00\n        /* \"#utility.yul\":1941:1943   */\n      0x20\n        /* \"#utility.yul\":1930:1939   */\n      dup3\n        /* \"#utility.yul\":1926:1944   */\n      add\n        /* \"#utility.yul\":1918:1944   */\n      swap1\n      pop\n        /* \"#utility.yul\":1954:2025   */\n      tag_92\n        /* \"#utility.yul\":2022:2023   */\n      0x00\n        /* \"#utility.yul\":2011:2020   */\n      dup4\n        /* \"#utility.yul\":2007:2024   */\n      add\n        /* \"#utility.yul\":1998:2004   */\n      dup5\n        /* \"#utility.yul\":1954:2025   */\n      tag_79\n      jump\t// in\n    tag_92:\n        /* \"#utility.yul\":1810:2032   */\n      swap3\n      swap2\n      pop\n      pop\n      jump\t// out\n        /* \"#utility.yul\":2038:2248   */\n    tag_37:\n        /* \"#utility.yul\":2125:2129   */\n      0x00\n        /* \"#utility.yul\":2163:2165   */\n      0x20\n        /* \"#utility.yul\":2152:2161   */\n      dup3\n        /* \"#utility.yul\":2148:2166   */\n      add\n        /* \"#utility.yul\":2140:2166   */\n      swap1\n      pop\n        /* \"#utility.yul\":2176:2241   */\n      tag_94\n        /* \"#utility.yul\":2238:2239   */\n      0x00\n        /* \"#utility.yul\":2227:2236   */\n      dup4\n        /* \"#utility.yul\":2223:2240   */\n      add\n        /* \"#utility.yul\":2214:2220   */\n      dup5\n        /* \"#utility.yul\":2176:2241   */\n      tag_83\n      jump\t// in\n    tag_94:\n        /* \"#utility.yul\":2038:2248   */\n      swap3\n      swap2\n      pop\n      pop\n      jump\t// out\n        /* \"#utility.yul\":2254:2476   */\n    tag_22:\n        /* \"#utility.yul\":2347:2351   */\n      0x00\n        /* \"#utility.yul\":2385:2387   */\n      0x20\n        /* \"#utility.yul\":2374:2383   */\n      dup3\n        /* \"#utility.yul\":2370:2388   */\n      add\n        /* \"#utility.yul\":2362:2388   */\n      swap1\n      pop\n        /* \"#utility.yul\":2398:2469   */\n      tag_96\n        /* \"#utility.yul\":2466:2467   */\n      0x00\n        /* \"#utility.yul\":2455:2464   */\n      dup4\n        /* \"#utility.yul\":2451:2468   */\n      add\n        /* \"#utility.yul\":2442:2448   */\n      dup5\n        /* \"#utility.yul\":2398:2469   */\n      tag_87\n      jump\t// in\n    tag_96:\n        /* \"#utility.yul\":2254:2476   */\n      swap3\n      swap2\n      pop\n      pop\n      jump\t// out\n        /* \"#utility.yul\":2563:2659   */\n    tag_82:\n        /* \"#utility.yul\":2600:2607   */\n      0x00\n        /* \"#utility.yul\":2629:2653   */\n      tag_100\n        /* \"#utility.yul\":2647:2652   */\n      dup3\n        /* \"#utility.yul\":2629:2653   */\n      tag_101\n      jump\t// in\n    tag_100:\n        /* \"#utility.yul\":2618:2653   */\n      swap1\n      pop\n        /* \"#utility.yul\":2563:2659   */\n      swap2\n      swap1\n      pop\n      jump\t// out\n        /* \"#utility.yul\":2665:2755   */\n    tag_86:\n        /* \"#utility.yul\":2699:2706   */\n      0x00\n        /* \"#utility.yul\":2742:2747   */\n      dup2\n        /* \"#utility.yul\":2735:2748   */\n      iszero\n        /* \"#utility.yul\":2728:2749   */\n      iszero\n        /* \"#utility.yul\":2717:2749   */\n      swap1\n      pop\n        /* \"#utility.yul\":2665:2755   */\n      swap2\n      swap1\n      pop\n      jump\t// out\n        /* \"#utility.yul\":2761:2887   */\n    tag_101:\n        /* \"#utility.yul\":2798:2805   */\n      0x00\n        /* \"#utility.yul\":2838:2880   */\n      0xffffffffffffffffffffffffffffffffffffffff\n        /* \"#utility.yul\":2831:2836   */\n      dup3\n        /* \"#utility.yul\":2827:2881   */\n      and\n        /* \"#utility.yul\":2816:2881   */\n      swap1\n      pop\n        /* \"#utility.yul\":2761:2887   */\n      swap2\n      swap1\n      pop\n      jump\t// out\n        /* \"#utility.yul\":2893:2970   */\n    tag_90:\n        /* \"#utility.yul\":2930:2937   */\n      0x00\n        /* \"#utility.yul\":2959:2964   */\n      dup2\n        /* \"#utility.yul\":2948:2964   */\n      swap1\n      pop\n        /* \"#utility.yul\":2893:2970   */\n      swap2\n      swap1\n      pop\n      jump\t// out\n        /* \"#utility.yul\":2976:3156   */\n    tag_49:\n        /* \"#utility.yul\":3024:3101   */\n      0x4e487b7100000000000000000000000000000000000000000000000000000000\n        /* \"#utility.yul\":3021:3022   */\n      0x00\n        /* \"#utility.yul\":3014:3102   */\n      mstore\n        /* \"#utility.yul\":3121:3125   */\n      0x32\n        /* \"#utility.yul\":3118:3119   */\n      0x04\n        /* \"#utility.yul\":3111:3126   */\n      mstore\n        /* \"#utility.yul\":3145:3149   */\n      0x24\n        /* \"#utility.yul\":3142:3143   */\n      0x00\n        /* \"#utility.yul\":3135:3150   */\n      revert\n        /* \"#utility.yul\":3285:3402   */\n    tag_68:\n        /* \"#utility.yul\":3394:3395   */\n      0x00\n        /* \"#utility.yul\":3391:3392   */\n      dup1\n        /* \"#utility.yul\":3384:3396   */\n      revert\n        /* \"#utility.yul\":3408:3530   */\n    tag_60:\n        /* \"#utility.yul\":3481:3505   */\n      tag_110\n        /* \"#utility.yul\":3499:3504   */\n      dup2\n        /* \"#utility.yul\":3481:3505   */\n      tag_82\n      jump\t// in\n    tag_110:\n        /* \"#utility.yul\":3474:3479   */\n      dup2\n        /* \"#utility.yul\":3471:3506   */\n      eq\n        /* \"#utility.yul\":3461:3524   */\n      tag_111\n      jumpi\n        /* \"#utility.yul\":3520:3521   */\n      0x00\n        /* \"#utility.yul\":3517:3518   */\n      dup1\n        /* \"#utility.yul\":3510:3522   */\n      revert\n        /* \"#utility.yul\":3461:3524   */\n    tag_111:\n        /* \"#utility.yul\":3408:3530   */\n      pop\n      jump\t// out\n        /* \"#utility.yul\":3536:3658   */\n    tag_64:\n        /* \"#utility.yul\":3609:3633   */\n      tag_113\n        /* \"#utility.yul\":3627:3632   */\n      dup2\n        /* \"#utility.yul\":3609:3633   */\n      tag_90\n      jump\t// in\n    tag_113:\n        /* \"#utility.yul\":3602:3607   */\n      dup2\n        /* \"#utility.yul\":3599:3634   */\n      eq\n        /* \"#utility.yul\":3589:3652   */\n      tag_114\n      jumpi\n        /* \"#utility.yul\":3648:3649   */\n      0x00\n        /* \"#utility.yul\":3645:3646   */\n      dup1\n        /* \"#utility.yul\":3638:3650   */\n      revert\n        /* \"#utility.yul\":3589:3652   */\n    tag_114:\n        /* \"#utility.yul\":3536:3658   */\n      pop\n      jump\t// out\n\n    auxdata: 0xa26469706673582212207cf12d7e20e23fb7bbed6939f4247f6707a2f81ce3b2c76af53099fbe5f3676e64736f6c63430008070033\n}\n",
				"bytecode": {
					"linkReferences": {},
					"object": "608060405234801561001057600080fd5b5061068b806100206000396000f3fe608060405234801561001057600080fd5b506004361061007d5760003560e01c80633df4ddf41161005b5780633df4ddf4146100fe57806347799da81461011c5780637cd380f11461013a578063de8fa4311461016a5761007d565b80630cb6aaf11461008257806327e235e3146100b25780633825d828146100e2575b600080fd5b61009c60048036038101906100979190610500565b610188565b6040516100a9919061055a565b60405180910390f35b6100cc60048036038101906100c79190610493565b6101c7565b6040516100d99190610590565b60405180910390f35b6100fc60048036038101906100f791906104c0565b6101df565b005b610106610332565b6040516101139190610590565b60405180910390f35b6101246103b7565b6040516101319190610590565b60405180910390f35b610154600480360381019061014f9190610493565b61043c565b6040516101619190610575565b60405180910390f35b61017261045c565b60405161017f9190610590565b60405180910390f35b6002818154811061019857600080fd5b906000526020600020016000915054906101000a900473ffffffffffffffffffffffffffffffffffffffff1681565b60006020528060005260406000206000915090505481565b806000808473ffffffffffffffffffffffffffffffffffffffff1673ffffffffffffffffffffffffffffffffffffffff16815260200190815260200160002081905550600160008373ffffffffffffffffffffffffffffffffffffffff1673ffffffffffffffffffffffffffffffffffffffff16815260200190815260200160002060009054906101000a900460ff1661032e5760018060008473ffffffffffffffffffffffffffffffffffffffff1673ffffffffffffffffffffffffffffffffffffffff16815260200190815260200160002060006101000a81548160ff0219169083151502179055506002829080600181540180825580915050600190039060005260206000200160009091909190916101000a81548173ffffffffffffffffffffffffffffffffffffffff021916908373ffffffffffffffffffffffffffffffffffffffff1602179055505b5050565b6000806000600260008154811061034c5761034b6105f3565b5b9060005260206000200160009054906101000a900473ffffffffffffffffffffffffffffffffffffffff1673ffffffffffffffffffffffffffffffffffffffff1673ffffffffffffffffffffffffffffffffffffffff16815260200190815260200160002054905090565b600080600060026000815481106103d1576103d06105f3565b5b9060005260206000200160009054906101000a900473ffffffffffffffffffffffffffffffffffffffff1673ffffffffffffffffffffffffffffffffffffffff1673ffffffffffffffffffffffffffffffffffffffff16815260200190815260200160002054905090565b60016020528060005260406000206000915054906101000a900460ff1681565b6000600280549050905090565b60008135905061047881610627565b92915050565b60008135905061048d8161063e565b92915050565b6000602082840312156104a9576104a8610622565b5b60006104b784828501610469565b91505092915050565b600080604083850312156104d7576104d6610622565b5b60006104e585828601610469565b92505060206104f68582860161047e565b9150509250929050565b60006020828403121561051657610515610622565b5b60006105248482850161047e565b91505092915050565b610536816105ab565b82525050565b610545816105bd565b82525050565b610554816105e9565b82525050565b600060208201905061056f600083018461052d565b92915050565b600060208201905061058a600083018461053c565b92915050565b60006020820190506105a5600083018461054b565b92915050565b60006105b6826105c9565b9050919050565b60008115159050919050565b600073ffffffffffffffffffffffffffffffffffffffff82169050919050565b6000819050919050565b7f4e487b7100000000000000000000000000000000000000000000000000000000600052603260045260246000fd5b600080fd5b610630816105ab565b811461063b57600080fd5b50565b610647816105e9565b811461065257600080fd5b5056fea26469706673582212207cf12d7e20e23fb7bbed6939f4247f6707a2f81ce3b2c76af53099fbe5f3676e64736f6c63430008070033",
					"opcodes": "PUSH1 0x80 PUSH1 0x40 MSTORE CALLVALUE DUP1 ISZERO PUSH2 0x10 JUMPI PUSH1 0x0 DUP1 REVERT JUMPDEST POP PUSH2 0x68B DUP1 PUSH2 0x20 PUSH1 0x0 CODECOPY PUSH1 0x0 RETURN INVALID PUSH1 0x80 PUSH1 0x40 MSTORE CALLVALUE DUP1 ISZERO PUSH2 0x10 JUMPI PUSH1 0x0 DUP1 REVERT JUMPDEST POP PUSH1 0x4 CALLDATASIZE LT PUSH2 0x7D JUMPI PUSH1 0x0 CALLDATALOAD PUSH1 0xE0 SHR DUP1 PUSH4 0x3DF4DDF4 GT PUSH2 0x5B JUMPI DUP1 PUSH4 0x3DF4DDF4 EQ PUSH2 0xFE JUMPI DUP1 PUSH4 0x47799DA8 EQ PUSH2 0x11C JUMPI DUP1 PUSH4 0x7CD380F1 EQ PUSH2 0x13A JUMPI DUP1 PUSH4 0xDE8FA431 EQ PUSH2 0x16A JUMPI PUSH2 0x7D JUMP JUMPDEST DUP1 PUSH4 0xCB6AAF1 EQ PUSH2 0x82 JUMPI DUP1 PUSH4 0x27E235E3 EQ PUSH2 0xB2 JUMPI DUP1 PUSH4 0x3825D828 EQ PUSH2 0xE2 JUMPI JUMPDEST PUSH1 0x0 DUP1 REVERT JUMPDEST PUSH2 0x9C PUSH1 0x4 DUP1 CALLDATASIZE SUB DUP2 ADD SWAP1 PUSH2 0x97 SWAP2 SWAP1 PUSH2 0x500 JUMP JUMPDEST PUSH2 0x188 JUMP JUMPDEST PUSH1 0x40 MLOAD PUSH2 0xA9 SWAP2 SWAP1 PUSH2 0x55A JUMP JUMPDEST PUSH1 0x40 MLOAD DUP1 SWAP2 SUB SWAP1 RETURN JUMPDEST PUSH2 0xCC PUSH1 0x4 DUP1 CALLDATASIZE SUB DUP2 ADD SWAP1 PUSH2 0xC7 SWAP2 SWAP1 PUSH2 0x493 JUMP JUMPDEST PUSH2 0x1C7 JUMP JUMPDEST PUSH1 0x40 MLOAD PUSH2 0xD9 SWAP2 SWAP1 PUSH2 0x590 JUMP JUMPDEST PUSH1 0x40 MLOAD DUP1 SWAP2 SUB SWAP1 RETURN JUMPDEST PUSH2 0xFC PUSH1 0x4 DUP1 CALLDATASIZE SUB DUP2 ADD SWAP1 PUSH2 0xF7 SWAP2 SWAP1 PUSH2 0x4C0 JUMP JUMPDEST PUSH2 0x1DF JUMP JUMPDEST STOP JUMPDEST PUSH2 0x106 PUSH2 0x332 JUMP JUMPDEST PUSH1 0x40 MLOAD PUSH2 0x113 SWAP2 SWAP1 PUSH2 0x590 JUMP JUMPDEST PUSH1 0x40 MLOAD DUP1 SWAP2 SUB SWAP1 RETURN JUMPDEST PUSH2 0x124 PUSH2 0x3B7 JUMP JUMPDEST PUSH1 0x40 MLOAD PUSH2 0x131 SWAP2 SWAP1 PUSH2 0x590 JUMP JUMPDEST PUSH1 0x40 MLOAD DUP1 SWAP2 SUB SWAP1 RETURN JUMPDEST PUSH2 0x154 PUSH1 0x4 DUP1 CALLDATASIZE SUB DUP2 ADD SWAP1 PUSH2 0x14F SWAP2 SWAP1 PUSH2 0x493 JUMP JUMPDEST PUSH2 0x43C JUMP JUMPDEST PUSH1 0x40 MLOAD PUSH2 0x161 SWAP2 SWAP1 PUSH2 0x575 JUMP JUMPDEST PUSH1 0x40 MLOAD DUP1 SWAP2 SUB SWAP1 RETURN JUMPDEST PUSH2 0x172 PUSH2 0x45C JUMP JUMPDEST PUSH1 0x40 MLOAD PUSH2 0x17F SWAP2 SWAP1 PUSH2 0x590 JUMP JUMPDEST PUSH1 0x40 MLOAD DUP1 SWAP2 SUB SWAP1 RETURN JUMPDEST PUSH1 0x2 DUP2 DUP2 SLOAD DUP2 LT PUSH2 0x198 JUMPI PUSH1 0x0 DUP1 REVERT JUMPDEST SWAP1 PUSH1 0x0 MSTORE PUSH1 0x20 PUSH1 0x0 KECCAK256 ADD PUSH1 0x0 SWAP2 POP SLOAD SWAP1 PUSH2 0x100 EXP SWAP1 DIV PUSH20 0xFFFFFFFFFFFFFFFFFFFFFFFFFFFFFFFFFFFFFFFF AND DUP2 JUMP JUMPDEST PUSH1 0x0 PUSH1 0x20 MSTORE DUP1 PUSH1 0x0 MSTORE PUSH1 0x40 PUSH1 0x0 KECCAK256 PUSH1 0x0 SWAP2 POP SWAP1 POP SLOAD DUP2 JUMP JUMPDEST DUP1 PUSH1 0x0 DUP1 DUP5 PUSH20 0xFFFFFFFFFFFFFFFFFFFFFFFFFFFFFFFFFFFFFFFF AND PUSH20 0xFFFFFFFFFFFFFFFFFFFFFFFFFFFFFFFFFFFFFFFF AND DUP2 MSTORE PUSH1 0x20 ADD SWAP1 DUP2 MSTORE PUSH1 0x20 ADD PUSH1 0x0 KECCAK256 DUP2 SWAP1 SSTORE POP PUSH1 0x1 PUSH1 0x0 DUP4 PUSH20 0xFFFFFFFFFFFFFFFFFFFFFFFFFFFFFFFFFFFFFFFF AND PUSH20 0xFFFFFFFFFFFFFFFFFFFFFFFFFFFFFFFFFFFFFFFF AND DUP2 MSTORE PUSH1 0x20 ADD SWAP1 DUP2 MSTORE PUSH1 0x20 ADD PUSH1 0x0 KECCAK256 PUSH1 0x0 SWAP1 SLOAD SWAP1 PUSH2 0x100 EXP SWAP1 DIV PUSH1 0xFF AND PUSH2 0x32E JUMPI PUSH1 0x1 DUP1 PUSH1 0x0 DUP5 PUSH20 0xFFFFFFFFFFFFFFFFFFFFFFFFFFFFFFFFFFFFFFFF AND PUSH20 0xFFFFFFFFFFFFFFFFFFFFFFFFFFFFFFFFFFFFFFFF AND DUP2 MSTORE PUSH1 0x20 ADD SWAP1 DUP2 MSTORE PUSH1 0x20 ADD PUSH1 0x0 KECCAK256 PUSH1 0x0 PUSH2 0x100 EXP DUP2 SLOAD DUP2 PUSH1 0xFF MUL NOT AND SWAP1 DUP4 ISZERO ISZERO MUL OR SWAP1 SSTORE POP PUSH1 0x2 DUP3 SWAP1 DUP1 PUSH1 0x1 DUP2 SLOAD ADD DUP1 DUP3 SSTORE DUP1 SWAP2 POP POP PUSH1 0x1 SWAP1 SUB SWAP1 PUSH1 0x0 MSTORE PUSH1 0x20 PUSH1 0x0 KECCAK256 ADD PUSH1 0x0 SWAP1 SWAP2 SWAP1 SWAP2 SWAP1 SWAP2 PUSH2 0x100 EXP DUP2 SLOAD DUP2 PUSH20 0xFFFFFFFFFFFFFFFFFFFFFFFFFFFFFFFFFFFFFFFF MUL NOT AND SWAP1 DUP4 PUSH20 0xFFFFFFFFFFFFFFFFFFFFFFFFFFFFFFFFFFFFFFFF AND MUL OR SWAP1 SSTORE POP JUMPDEST POP POP JUMP JUMPDEST PUSH1 0x0 DUP1 PUSH1 0x0 PUSH1 0x2 PUSH1 0x0 DUP2 SLOAD DUP2 LT PUSH2 0x34C JUMPI PUSH2 0x34B PUSH2 0x5F3 JUMP JUMPDEST JUMPDEST SWAP1 PUSH1 0x0 MSTORE PUSH1 0x20 PUSH1 0x0 KECCAK256 ADD PUSH1 0x0 SWAP1 SLOAD SWAP1 PUSH2 0x100 EXP SWAP1 DIV PUSH20 0xFFFFFFFFFFFFFFFFFFFFFFFFFFFFFFFFFFFFFFFF AND PUSH20 0xFFFFFFFFFFFFFFFFFFFFFFFFFFFFFFFFFFFFFFFF AND PUSH20 0xFFFFFFFFFFFFFFFFFFFFFFFFFFFFFFFFFFFFFFFF AND DUP2 MSTORE PUSH1 0x20 ADD SWAP1 DUP2 MSTORE PUSH1 0x20 ADD PUSH1 0x0 KECCAK256 SLOAD SWAP1 POP SWAP1 JUMP JUMPDEST PUSH1 0x0 DUP1 PUSH1 0x0 PUSH1 0x2 PUSH1 0x0 DUP2 SLOAD DUP2 LT PUSH2 0x3D1 JUMPI PUSH2 0x3D0 PUSH2 0x5F3 JUMP JUMPDEST JUMPDEST SWAP1 PUSH1 0x0 MSTORE PUSH1 0x20 PUSH1 0x0 KECCAK256 ADD PUSH1 0x0 SWAP1 SLOAD SWAP1 PUSH2 0x100 EXP SWAP1 DIV PUSH20 0xFFFFFFFFFFFFFFFFFFFFFFFFFFFFFFFFFFFFFFFF AND PUSH20 0xFFFFFFFFFFFFFFFFFFFFFFFFFFFFFFFFFFFFFFFF AND PUSH20 0xFFFFFFFFFFFFFFFFFFFFFFFFFFFFFFFFFFFFFFFF AND DUP2 MSTORE PUSH1 0x20 ADD SWAP1 DUP2 MSTORE PUSH1 0x20 ADD PUSH1 0x0 KECCAK256 SLOAD SWAP1 POP SWAP1 JUMP JUMPDEST PUSH1 0x1 PUSH1 0x20 MSTORE DUP1 PUSH1 0x0 MSTORE PUSH1 0x40 PUSH1 0x0 KECCAK256 PUSH1 0x0 SWAP2 POP SLOAD SWAP1 PUSH2 0x100 EXP SWAP1 DIV PUSH1 0xFF AND DUP2 JUMP JUMPDEST PUSH1 0x0 PUSH1 0x2 DUP1 SLOAD SWAP1 POP SWAP1 POP SWAP1 JUMP JUMPDEST PUSH1 0x0 DUP2 CALLDATALOAD SWAP1 POP PUSH2 0x478 DUP2 PUSH2 0x627 JUMP JUMPDEST SWAP3 SWAP2 POP POP JUMP JUMPDEST PUSH1 0x0 DUP2 CALLDATALOAD SWAP1 POP PUSH2 0x48D DUP2 PUSH2 0x63E JUMP JUMPDEST SWAP3 SWAP2 POP POP JUMP JUMPDEST PUSH1 0x0 PUSH1 0x20 DUP3 DUP5 SUB SLT ISZERO PUSH2 0x4A9 JUMPI PUSH2 0x4A8 PUSH2 0x622 JUMP JUMPDEST JUMPDEST PUSH1 0x0 PUSH2 0x4B7 DUP5 DUP3 DUP6 ADD PUSH2 0x469 JUMP JUMPDEST SWAP2 POP POP SWAP3 SWAP2 POP POP JUMP JUMPDEST PUSH1 0x0 DUP1 PUSH1 0x40 DUP4 DUP6 SUB SLT ISZERO PUSH2 0x4D7 JUMPI PUSH2 0x4D6 PUSH2 0x622 JUMP JUMPDEST JUMPDEST PUSH1 0x0 PUSH2 0x4E5 DUP6 DUP3 DUP7 ADD PUSH2 0x469 JUMP JUMPDEST SWAP3 POP POP PUSH1 0x20 PUSH2 0x4F6 DUP6 DUP3 DUP7 ADD PUSH2 0x47E JUMP JUMPDEST SWAP2 POP POP SWAP3 POP SWAP3 SWAP1 POP JUMP JUMPDEST PUSH1 0x0 PUSH1 0x20 DUP3 DUP5 SUB SLT ISZERO PUSH2 0x516 JUMPI PUSH2 0x515 PUSH2 0x622 JUMP JUMPDEST JUMPDEST PUSH1 0x0 PUSH2 0x524 DUP5 DUP3 DUP6 ADD PUSH2 0x47E JUMP JUMPDEST SWAP2 POP POP SWAP3 SWAP2 POP POP JUMP JUMPDEST PUSH2 0x536 DUP2 PUSH2 0x5AB JUMP JUMPDEST DUP3 MSTORE POP POP JUMP JUMPDEST PUSH2 0x545 DUP2 PUSH2 0x5BD JUMP JUMPDEST DUP3 MSTORE POP POP JUMP JUMPDEST PUSH2 0x554 DUP2 PUSH2 0x5E9 JUMP JUMPDEST DUP3 MSTORE POP POP JUMP JUMPDEST PUSH1 0x0 PUSH1 0x20 DUP3 ADD SWAP1 POP PUSH2 0x56F PUSH1 0x0 DUP4 ADD DUP5 PUSH2 0x52D JUMP JUMPDEST SWAP3 SWAP2 POP POP JUMP JUMPDEST PUSH1 0x0 PUSH1 0x20 DUP3 ADD SWAP1 POP PUSH2 0x58A PUSH1 0x0 DUP4 ADD DUP5 PUSH2 0x53C JUMP JUMPDEST SWAP3 SWAP2 POP POP JUMP JUMPDEST PUSH1 0x0 PUSH1 0x20 DUP3 ADD SWAP1 POP PUSH2 0x5A5 PUSH1 0x0 DUP4 ADD DUP5 PUSH2 0x54B JUMP JUMPDEST SWAP3 SWAP2 POP POP JUMP JUMPDEST PUSH1 0x0 PUSH2 0x5B6 DUP3 PUSH2 0x5C9 JUMP JUMPDEST SWAP1 POP SWAP2 SWAP1 POP JUMP JUMPDEST PUSH1 0x0 DUP2 ISZERO ISZERO SWAP1 POP SWAP2 SWAP1 POP JUMP JUMPDEST PUSH1 0x0 PUSH20 0xFFFFFFFFFFFFFFFFFFFFFFFFFFFFFFFFFFFFFFFF DUP3 AND SWAP1 POP SWAP2 SWAP1 POP JUMP JUMPDEST PUSH1 0x0 DUP2 SWAP1 POP SWAP2 SWAP1 POP JUMP JUMPDEST PUSH32 0x4E487B7100000000000000000000000000000000000000000000000000000000 PUSH1 0x0 MSTORE PUSH1 0x32 PUSH1 0x4 MSTORE PUSH1 0x24 PUSH1 0x0 REVERT JUMPDEST PUSH1 0x0 DUP1 REVERT JUMPDEST PUSH2 0x630 DUP2 PUSH2 0x5AB JUMP JUMPDEST DUP2 EQ PUSH2 0x63B JUMPI PUSH1 0x0 DUP1 REVERT JUMPDEST POP JUMP JUMPDEST PUSH2 0x647 DUP2 PUSH2 0x5E9 JUMP JUMPDEST DUP2 EQ PUSH2 0x652 JUMPI PUSH1 0x0 DUP1 REVERT JUMPDEST POP JUMP INVALID LOG2 PUSH5 0x6970667358 0x22 SLT KECCAK256 PUSH29 0xF12D7E20E23FB7BBED6939F4247F6707A2F81CE3B2C76AF53099FBE5F3 PUSH8 0x6E64736F6C634300 ADDMOD SMOD STOP CALLER "
				},
				"gasEstimates": {
					"creation": {
						"codeDepositCost": "335000",
						"executionCost": "374",
						"totalCost": "335374"
					},
					"external": {
						"balances(address)": "2837",
						"first()": "6843",
						"getSize()": "2511",
						"inserted(address)": "2889",
						"keys(uint256)": "4957",
						"last()": "6865",
						"set(address,uint256)": "98056"
					}
				},
				"methodIdentifiers": {
					"balances(address)": "27e235e3",
					"first()": "3df4ddf4",
					"getSize()": "de8fa431",
					"inserted(address)": "7cd380f1",
					"keys(uint256)": "0cb6aaf1",
					"last()": "47799da8",
					"set(address,uint256)": "3825d828"
				}
			},
			"storageLayout": {
				"storage": [
					{
						"astId": 5,
						"contract": "contracts/Mapping-Iterable-23.sol:IterableMapping",
						"label": "balances",
						"offset": 0,
						"slot": "0",
						"type": "t_mapping(t_address,t_uint256)"
					},
					{
						"astId": 9,
						"contract": "contracts/Mapping-Iterable-23.sol:IterableMapping",
						"label": "inserted",
						"offset": 0,
						"slot": "1",
						"type": "t_mapping(t_address,t_bool)"
					},
					{
						"astId": 12,
						"contract": "contracts/Mapping-Iterable-23.sol:IterableMapping",
						"label": "keys",
						"offset": 0,
						"slot": "2",
						"type": "t_array(t_address)dyn_storage"
					}
				],
				"types": {
					"t_address": {
						"encoding": "inplace",
						"label": "address",
						"numberOfBytes": "20"
					},
					"t_array(t_address)dyn_storage": {
						"base": "t_address",
						"encoding": "dynamic_array",
						"label": "address[]",
						"numberOfBytes": "32"
					},
					"t_bool": {
						"encoding": "inplace",
						"label": "bool",
						"numberOfBytes": "1"
					},
					"t_mapping(t_address,t_bool)": {
						"encoding": "mapping",
						"key": "t_address",
						"label": "mapping(address => bool)",
						"numberOfBytes": "32",
						"value": "t_bool"
					},
					"t_mapping(t_address,t_uint256)": {
						"encoding": "mapping",
						"key": "t_address",
						"label": "mapping(address => uint256)",
						"numberOfBytes": "32",
						"value": "t_uint256"
					},
					"t_uint256": {
						"encoding": "inplace",
						"label": "uint256",
						"numberOfBytes": "32"
					}
				}
			},
			"userdoc": {
				"kind": "user",
				"methods": {},
				"version": 1
			}
		}
	}
}