{
	"contracts/Errors-14.sol": {
		"Errors": {
			"abi": [
				{
					"inputs": [
						{
							"internalType": "uint256",
							"name": "_i",
							"type": "uint256"
						}
					],
					"name": "testRequire",
					"outputs": [],
					"stateMutability": "pure",
					"type": "function"
				},
				{
					"inputs": [
						{
							"internalType": "uint256",
							"name": "_i",
							"type": "uint256"
						}
					],
					"name": "testRevert",
					"outputs": [],
					"stateMutability": "pure",
					"type": "function"
				}
			],
			"devdoc": {
				"kind": "dev",
				"methods": {},
				"version": 1
			},
			"evm": {
				"assembly": "    /* \"contracts/Errors-14.sol\":157:633  contract Errors {... */\n  mstore(0x40, 0x80)\n  callvalue\n  dup1\n  iszero\n  tag_1\n  jumpi\n  0x00\n  dup1\n  revert\ntag_1:\n  pop\n  dataSize(sub_0)\n  dup1\n  dataOffset(sub_0)\n  0x00\n  codecopy\n  0x00\n  return\nstop\n\nsub_0: assembly {\n        /* \"contracts/Errors-14.sol\":157:633  contract Errors {... */\n      mstore(0x40, 0x80)\n      callvalue\n      dup1\n      iszero\n      tag_1\n      jumpi\n      0x00\n      dup1\n      revert\n    tag_1:\n      pop\n      jumpi(tag_2, lt(calldatasize, 0x04))\n      shr(0xe0, calldataload(0x00))\n      dup1\n      0x20987767\n      eq\n      tag_3\n      jumpi\n      dup1\n      0xb8bd717f\n      eq\n      tag_4\n      jumpi\n    tag_2:\n      0x00\n      dup1\n      revert\n        /* \"contracts/Errors-14.sol\":304:630  function testRevert(uint _i)public pure {... */\n    tag_3:\n      tag_5\n      0x04\n      dup1\n      calldatasize\n      sub\n      dup2\n      add\n      swap1\n      tag_6\n      swap2\n      swap1\n      tag_7\n      jump\t// in\n    tag_6:\n      tag_8\n      jump\t// in\n    tag_5:\n      stop\n        /* \"contracts/Errors-14.sol\":179:298  function testRequire(uint _i)public pure {... */\n    tag_4:\n      tag_9\n      0x04\n      dup1\n      calldatasize\n      sub\n      dup2\n      add\n      swap1\n      tag_10\n      swap2\n      swap1\n      tag_7\n      jump\t// in\n    tag_10:\n      tag_11\n      jump\t// in\n    tag_9:\n      stop\n        /* \"contracts/Errors-14.sol\":304:630  function testRevert(uint _i)public pure {... */\n    tag_8:\n        /* \"contracts/Errors-14.sol\":429:430  1 */\n      0x01\n        /* \"contracts/Errors-14.sol\":424:426  _i */\n      dup2\n        /* \"contracts/Errors-14.sol\":424:430  _i > 1 */\n      gt\n        /* \"contracts/Errors-14.sol\":421:624  if(_i > 1) {... */\n      iszero\n      tag_13\n      jumpi\n        /* \"contracts/Errors-14.sol\":478:479  5 */\n      0x05\n        /* \"contracts/Errors-14.sol\":473:475  _i */\n      dup2\n        /* \"contracts/Errors-14.sol\":473:479  _i > 5 */\n      gt\n        /* \"contracts/Errors-14.sol\":470:615  if(_i > 5) {... */\n      iszero\n      tag_14\n      jumpi\n        /* \"contracts/Errors-14.sol\":541:543  10 */\n      0x0a\n        /* \"contracts/Errors-14.sol\":536:538  _i */\n      dup2\n        /* \"contracts/Errors-14.sol\":536:543  _i > 10 */\n      gt\n        /* \"contracts/Errors-14.sol\":533:602  if(_i > 10) {... */\n      iszero\n      tag_15\n      jumpi\n        /* \"contracts/Errors-14.sol\":567:583  revert(\"i > 10\") */\n      mload(0x40)\n      0x08c379a000000000000000000000000000000000000000000000000000000000\n      dup2\n      mstore\n      0x04\n      add\n      tag_16\n      swap1\n      tag_17\n      jump\t// in\n    tag_16:\n      mload(0x40)\n      dup1\n      swap2\n      sub\n      swap1\n      revert\n        /* \"contracts/Errors-14.sol\":533:602  if(_i > 10) {... */\n    tag_15:\n        /* \"contracts/Errors-14.sol\":470:615  if(_i > 5) {... */\n    tag_14:\n        /* \"contracts/Errors-14.sol\":421:624  if(_i > 1) {... */\n    tag_13:\n        /* \"contracts/Errors-14.sol\":304:630  function testRevert(uint _i)public pure {... */\n      pop\n      jump\t// out\n        /* \"contracts/Errors-14.sol\":179:298  function testRequire(uint _i)public pure {... */\n    tag_11:\n        /* \"contracts/Errors-14.sol\":243:245  10 */\n      0x0a\n        /* \"contracts/Errors-14.sol\":238:240  _i */\n      dup2\n        /* \"contracts/Errors-14.sol\":238:245  _i < 10 */\n      lt\n        /* \"contracts/Errors-14.sol\":230:270  require(_i < 10, \"i is greater than 10\") */\n      tag_19\n      jumpi\n      mload(0x40)\n      0x08c379a000000000000000000000000000000000000000000000000000000000\n      dup2\n      mstore\n      0x04\n      add\n      tag_20\n      swap1\n      tag_21\n      jump\t// in\n    tag_20:\n      mload(0x40)\n      dup1\n      swap2\n      sub\n      swap1\n      revert\n    tag_19:\n        /* \"contracts/Errors-14.sol\":179:298  function testRequire(uint _i)public pure {... */\n      pop\n      jump\t// out\n        /* \"#utility.yul\":7:146   */\n    tag_23:\n        /* \"#utility.yul\":53:58   */\n      0x00\n        /* \"#utility.yul\":91:97   */\n      dup2\n        /* \"#utility.yul\":78:98   */\n      calldataload\n        /* \"#utility.yul\":69:98   */\n      swap1\n      pop\n        /* \"#utility.yul\":107:140   */\n      tag_25\n        /* \"#utility.yul\":134:139   */\n      dup2\n        /* \"#utility.yul\":107:140   */\n      tag_26\n      jump\t// in\n    tag_25:\n        /* \"#utility.yul\":7:146   */\n      swap3\n      swap2\n      pop\n      pop\n      jump\t// out\n        /* \"#utility.yul\":152:481   */\n    tag_7:\n        /* \"#utility.yul\":211:217   */\n      0x00\n        /* \"#utility.yul\":260:262   */\n      0x20\n        /* \"#utility.yul\":248:257   */\n      dup3\n        /* \"#utility.yul\":239:246   */\n      dup5\n        /* \"#utility.yul\":235:258   */\n      sub\n        /* \"#utility.yul\":231:263   */\n      slt\n        /* \"#utility.yul\":228:347   */\n      iszero\n      tag_28\n      jumpi\n        /* \"#utility.yul\":266:345   */\n      tag_29\n      tag_30\n      jump\t// in\n    tag_29:\n        /* \"#utility.yul\":228:347   */\n    tag_28:\n        /* \"#utility.yul\":386:387   */\n      0x00\n        /* \"#utility.yul\":411:464   */\n      tag_31\n        /* \"#utility.yul\":456:463   */\n      dup5\n        /* \"#utility.yul\":447:453   */\n      dup3\n        /* \"#utility.yul\":436:445   */\n      dup6\n        /* \"#utility.yul\":432:454   */\n      add\n        /* \"#utility.yul\":411:464   */\n      tag_23\n      jump\t// in\n    tag_31:\n        /* \"#utility.yul\":401:464   */\n      swap2\n      pop\n        /* \"#utility.yul\":357:474   */\n      pop\n        /* \"#utility.yul\":152:481   */\n      swap3\n      swap2\n      pop\n      pop\n      jump\t// out\n        /* \"#utility.yul\":487:853   */\n    tag_32:\n        /* \"#utility.yul\":629:632   */\n      0x00\n        /* \"#utility.yul\":650:717   */\n      tag_34\n        /* \"#utility.yul\":714:716   */\n      0x14\n        /* \"#utility.yul\":709:712   */\n      dup4\n        /* \"#utility.yul\":650:717   */\n      tag_35\n      jump\t// in\n    tag_34:\n        /* \"#utility.yul\":643:717   */\n      swap2\n      pop\n        /* \"#utility.yul\":726:819   */\n      tag_36\n        /* \"#utility.yul\":815:818   */\n      dup3\n        /* \"#utility.yul\":726:819   */\n      tag_37\n      jump\t// in\n    tag_36:\n        /* \"#utility.yul\":844:846   */\n      0x20\n        /* \"#utility.yul\":839:842   */\n      dup3\n        /* \"#utility.yul\":835:847   */\n      add\n        /* \"#utility.yul\":828:847   */\n      swap1\n      pop\n        /* \"#utility.yul\":487:853   */\n      swap2\n      swap1\n      pop\n      jump\t// out\n        /* \"#utility.yul\":859:1224   */\n    tag_38:\n        /* \"#utility.yul\":1001:1004   */\n      0x00\n        /* \"#utility.yul\":1022:1088   */\n      tag_40\n        /* \"#utility.yul\":1086:1087   */\n      0x06\n        /* \"#utility.yul\":1081:1084   */\n      dup4\n        /* \"#utility.yul\":1022:1088   */\n      tag_35\n      jump\t// in\n    tag_40:\n        /* \"#utility.yul\":1015:1088   */\n      swap2\n      pop\n        /* \"#utility.yul\":1097:1190   */\n      tag_41\n        /* \"#utility.yul\":1186:1189   */\n      dup3\n        /* \"#utility.yul\":1097:1190   */\n      tag_42\n      jump\t// in\n    tag_41:\n        /* \"#utility.yul\":1215:1217   */\n      0x20\n        /* \"#utility.yul\":1210:1213   */\n      dup3\n        /* \"#utility.yul\":1206:1218   */\n      add\n        /* \"#utility.yul\":1199:1218   */\n      swap1\n      pop\n        /* \"#utility.yul\":859:1224   */\n      swap2\n      swap1\n      pop\n      jump\t// out\n        /* \"#utility.yul\":1230:1649   */\n    tag_21:\n        /* \"#utility.yul\":1396:1400   */\n      0x00\n        /* \"#utility.yul\":1434:1436   */\n      0x20\n        /* \"#utility.yul\":1423:1432   */\n      dup3\n        /* \"#utility.yul\":1419:1437   */\n      add\n        /* \"#utility.yul\":1411:1437   */\n      swap1\n      pop\n        /* \"#utility.yul\":1483:1492   */\n      dup2\n        /* \"#utility.yul\":1477:1481   */\n      dup2\n        /* \"#utility.yul\":1473:1493   */\n      sub\n        /* \"#utility.yul\":1469:1470   */\n      0x00\n        /* \"#utility.yul\":1458:1467   */\n      dup4\n        /* \"#utility.yul\":1454:1471   */\n      add\n        /* \"#utility.yul\":1447:1494   */\n      mstore\n        /* \"#utility.yul\":1511:1642   */\n      tag_44\n        /* \"#utility.yul\":1637:1641   */\n      dup2\n        /* \"#utility.yul\":1511:1642   */\n      tag_32\n      jump\t// in\n    tag_44:\n        /* \"#utility.yul\":1503:1642   */\n      swap1\n      pop\n        /* \"#utility.yul\":1230:1649   */\n      swap2\n      swap1\n      pop\n      jump\t// out\n        /* \"#utility.yul\":1655:2074   */\n    tag_17:\n        /* \"#utility.yul\":1821:1825   */\n      0x00\n        /* \"#utility.yul\":1859:1861   */\n      0x20\n        /* \"#utility.yul\":1848:1857   */\n      dup3\n        /* \"#utility.yul\":1844:1862   */\n      add\n        /* \"#utility.yul\":1836:1862   */\n      swap1\n      pop\n        /* \"#utility.yul\":1908:1917   */\n      dup2\n        /* \"#utility.yul\":1902:1906   */\n      dup2\n        /* \"#utility.yul\":1898:1918   */\n      sub\n        /* \"#utility.yul\":1894:1895   */\n      0x00\n        /* \"#utility.yul\":1883:1892   */\n      dup4\n        /* \"#utility.yul\":1879:1896   */\n      add\n        /* \"#utility.yul\":1872:1919   */\n      mstore\n        /* \"#utility.yul\":1936:2067   */\n      tag_46\n        /* \"#utility.yul\":2062:2066   */\n      dup2\n        /* \"#utility.yul\":1936:2067   */\n      tag_38\n      jump\t// in\n    tag_46:\n        /* \"#utility.yul\":1928:2067   */\n      swap1\n      pop\n        /* \"#utility.yul\":1655:2074   */\n      swap2\n      swap1\n      pop\n      jump\t// out\n        /* \"#utility.yul\":2161:2330   */\n    tag_35:\n        /* \"#utility.yul\":2245:2256   */\n      0x00\n        /* \"#utility.yul\":2279:2285   */\n      dup3\n        /* \"#utility.yul\":2274:2277   */\n      dup3\n        /* \"#utility.yul\":2267:2286   */\n      mstore\n        /* \"#utility.yul\":2319:2323   */\n      0x20\n        /* \"#utility.yul\":2314:2317   */\n      dup3\n        /* \"#utility.yul\":2310:2324   */\n      add\n        /* \"#utility.yul\":2295:2324   */\n      swap1\n      pop\n        /* \"#utility.yul\":2161:2330   */\n      swap3\n      swap2\n      pop\n      pop\n      jump\t// out\n        /* \"#utility.yul\":2336:2413   */\n    tag_50:\n        /* \"#utility.yul\":2373:2380   */\n      0x00\n        /* \"#utility.yul\":2402:2407   */\n      dup2\n        /* \"#utility.yul\":2391:2407   */\n      swap1\n      pop\n        /* \"#utility.yul\":2336:2413   */\n      swap2\n      swap1\n      pop\n      jump\t// out\n        /* \"#utility.yul\":2542:2659   */\n    tag_30:\n        /* \"#utility.yul\":2651:2652   */\n      0x00\n        /* \"#utility.yul\":2648:2649   */\n      dup1\n        /* \"#utility.yul\":2641:2653   */\n      revert\n        /* \"#utility.yul\":2665:2835   */\n    tag_37:\n        /* \"#utility.yul\":2805:2827   */\n      0x692069732067726561746572207468616e203130000000000000000000000000\n        /* \"#utility.yul\":2801:2802   */\n      0x00\n        /* \"#utility.yul\":2793:2799   */\n      dup3\n        /* \"#utility.yul\":2789:2803   */\n      add\n        /* \"#utility.yul\":2782:2828   */\n      mstore\n        /* \"#utility.yul\":2665:2835   */\n      pop\n      jump\t// out\n        /* \"#utility.yul\":2841:2997   */\n    tag_42:\n        /* \"#utility.yul\":2981:2989   */\n      0x69203e2031300000000000000000000000000000000000000000000000000000\n        /* \"#utility.yul\":2977:2978   */\n      0x00\n        /* \"#utility.yul\":2969:2975   */\n      dup3\n        /* \"#utility.yul\":2965:2979   */\n      add\n        /* \"#utility.yul\":2958:2990   */\n      mstore\n        /* \"#utility.yul\":2841:2997   */\n      pop\n      jump\t// out\n        /* \"#utility.yul\":3003:3125   */\n    tag_26:\n        /* \"#utility.yul\":3076:3100   */\n      tag_58\n        /* \"#utility.yul\":3094:3099   */\n      dup2\n        /* \"#utility.yul\":3076:3100   */\n      tag_50\n      jump\t// in\n    tag_58:\n        /* \"#utility.yul\":3069:3074   */\n      dup2\n        /* \"#utility.yul\":3066:3101   */\n      eq\n        /* \"#utility.yul\":3056:3119   */\n      tag_59\n      jumpi\n        /* \"#utility.yul\":3115:3116   */\n      0x00\n        /* \"#utility.yul\":3112:3113   */\n      dup1\n        /* \"#utility.yul\":3105:3117   */\n      revert\n        /* \"#utility.yul\":3056:3119   */\n    tag_59:\n        /* \"#utility.yul\":3003:3125   */\n      pop\n      jump\t// out\n\n    auxdata: 0xa264697066735822122046fa32d83829ee1ac34d476f29d3d3fecc8f3ee4951c923ddc23f66df353eecd64736f6c63430008070033\n}\n",
				"bytecode": {
					"linkReferences": {},
					"object": "608060405234801561001057600080fd5b5061029b806100206000396000f3fe608060405234801561001057600080fd5b50600436106100365760003560e01c8063209877671461003b578063b8bd717f14610057575b600080fd5b61005560048036038101906100509190610129565b610073565b005b610071600480360381019061006c9190610129565b6100ce565b005b60018111156100cb5760058111156100ca57600a8111156100c9576040517f08c379a00000000000000000000000000000000000000000000000000000000081526004016100c0906101bc565b60405180910390fd5b5b5b50565b600a8110610111576040517f08c379a00000000000000000000000000000000000000000000000000000000081526004016101089061019c565b60405180910390fd5b50565b6000813590506101238161024e565b92915050565b60006020828403121561013f5761013e6101f7565b5b600061014d84828501610114565b91505092915050565b60006101636014836101dc565b915061016e826101fc565b602082019050919050565b60006101866006836101dc565b915061019182610225565b602082019050919050565b600060208201905081810360008301526101b581610156565b9050919050565b600060208201905081810360008301526101d581610179565b9050919050565b600082825260208201905092915050565b6000819050919050565b600080fd5b7f692069732067726561746572207468616e203130000000000000000000000000600082015250565b7f69203e2031300000000000000000000000000000000000000000000000000000600082015250565b610257816101ed565b811461026257600080fd5b5056fea264697066735822122046fa32d83829ee1ac34d476f29d3d3fecc8f3ee4951c923ddc23f66df353eecd64736f6c63430008070033",
					"opcodes": "PUSH1 0x80 PUSH1 0x40 MSTORE CALLVALUE DUP1 ISZERO PUSH2 0x10 JUMPI PUSH1 0x0 DUP1 REVERT JUMPDEST POP PUSH2 0x29B DUP1 PUSH2 0x20 PUSH1 0x0 CODECOPY PUSH1 0x0 RETURN INVALID PUSH1 0x80 PUSH1 0x40 MSTORE CALLVALUE DUP1 ISZERO PUSH2 0x10 JUMPI PUSH1 0x0 DUP1 REVERT JUMPDEST POP PUSH1 0x4 CALLDATASIZE LT PUSH2 0x36 JUMPI PUSH1 0x0 CALLDATALOAD PUSH1 0xE0 SHR DUP1 PUSH4 0x20987767 EQ PUSH2 0x3B JUMPI DUP1 PUSH4 0xB8BD717F EQ PUSH2 0x57 JUMPI JUMPDEST PUSH1 0x0 DUP1 REVERT JUMPDEST PUSH2 0x55 PUSH1 0x4 DUP1 CALLDATASIZE SUB DUP2 ADD SWAP1 PUSH2 0x50 SWAP2 SWAP1 PUSH2 0x129 JUMP JUMPDEST PUSH2 0x73 JUMP JUMPDEST STOP JUMPDEST PUSH2 0x71 PUSH1 0x4 DUP1 CALLDATASIZE SUB DUP2 ADD SWAP1 PUSH2 0x6C SWAP2 SWAP1 PUSH2 0x129 JUMP JUMPDEST PUSH2 0xCE JUMP JUMPDEST STOP JUMPDEST PUSH1 0x1 DUP2 GT ISZERO PUSH2 0xCB JUMPI PUSH1 0x5 DUP2 GT ISZERO PUSH2 0xCA JUMPI PUSH1 0xA DUP2 GT ISZERO PUSH2 0xC9 JUMPI PUSH1 0x40 MLOAD PUSH32 0x8C379A000000000000000000000000000000000000000000000000000000000 DUP2 MSTORE PUSH1 0x4 ADD PUSH2 0xC0 SWAP1 PUSH2 0x1BC JUMP JUMPDEST PUSH1 0x40 MLOAD DUP1 SWAP2 SUB SWAP1 REVERT JUMPDEST JUMPDEST JUMPDEST POP JUMP JUMPDEST PUSH1 0xA DUP2 LT PUSH2 0x111 JUMPI PUSH1 0x40 MLOAD PUSH32 0x8C379A000000000000000000000000000000000000000000000000000000000 DUP2 MSTORE PUSH1 0x4 ADD PUSH2 0x108 SWAP1 PUSH2 0x19C JUMP JUMPDEST PUSH1 0x40 MLOAD DUP1 SWAP2 SUB SWAP1 REVERT JUMPDEST POP JUMP JUMPDEST PUSH1 0x0 DUP2 CALLDATALOAD SWAP1 POP PUSH2 0x123 DUP2 PUSH2 0x24E JUMP JUMPDEST SWAP3 SWAP2 POP POP JUMP JUMPDEST PUSH1 0x0 PUSH1 0x20 DUP3 DUP5 SUB SLT ISZERO PUSH2 0x13F JUMPI PUSH2 0x13E PUSH2 0x1F7 JUMP JUMPDEST JUMPDEST PUSH1 0x0 PUSH2 0x14D DUP5 DUP3 DUP6 ADD PUSH2 0x114 JUMP JUMPDEST SWAP2 POP POP SWAP3 SWAP2 POP POP JUMP JUMPDEST PUSH1 0x0 PUSH2 0x163 PUSH1 0x14 DUP4 PUSH2 0x1DC JUMP JUMPDEST SWAP2 POP PUSH2 0x16E DUP3 PUSH2 0x1FC JUMP JUMPDEST PUSH1 0x20 DUP3 ADD SWAP1 POP SWAP2 SWAP1 POP JUMP JUMPDEST PUSH1 0x0 PUSH2 0x186 PUSH1 0x6 DUP4 PUSH2 0x1DC JUMP JUMPDEST SWAP2 POP PUSH2 0x191 DUP3 PUSH2 0x225 JUMP JUMPDEST PUSH1 0x20 DUP3 ADD SWAP1 POP SWAP2 SWAP1 POP JUMP JUMPDEST PUSH1 0x0 PUSH1 0x20 DUP3 ADD SWAP1 POP DUP2 DUP2 SUB PUSH1 0x0 DUP4 ADD MSTORE PUSH2 0x1B5 DUP2 PUSH2 0x156 JUMP JUMPDEST SWAP1 POP SWAP2 SWAP1 POP JUMP JUMPDEST PUSH1 0x0 PUSH1 0x20 DUP3 ADD SWAP1 POP DUP2 DUP2 SUB PUSH1 0x0 DUP4 ADD MSTORE PUSH2 0x1D5 DUP2 PUSH2 0x179 JUMP JUMPDEST SWAP1 POP SWAP2 SWAP1 POP JUMP JUMPDEST PUSH1 0x0 DUP3 DUP3 MSTORE PUSH1 0x20 DUP3 ADD SWAP1 POP SWAP3 SWAP2 POP POP JUMP JUMPDEST PUSH1 0x0 DUP2 SWAP1 POP SWAP2 SWAP1 POP JUMP JUMPDEST PUSH1 0x0 DUP1 REVERT JUMPDEST PUSH32 0x692069732067726561746572207468616E203130000000000000000000000000 PUSH1 0x0 DUP3 ADD MSTORE POP JUMP JUMPDEST PUSH32 0x69203E2031300000000000000000000000000000000000000000000000000000 PUSH1 0x0 DUP3 ADD MSTORE POP JUMP JUMPDEST PUSH2 0x257 DUP2 PUSH2 0x1ED JUMP JUMPDEST DUP2 EQ PUSH2 0x262 JUMPI PUSH1 0x0 DUP1 REVERT JUMPDEST POP JUMP INVALID LOG2 PUSH5 0x6970667358 0x22 SLT KECCAK256 CHAINID STATICCALL ORIGIN 0xD8 CODESIZE 0x29 0xEE BYTE 0xC3 0x4D SELFBALANCE PUSH16 0x29D3D3FECC8F3EE4951C923DDC23F66D RETURN MSTORE8 0xEE 0xCD PUSH5 0x736F6C6343 STOP ADDMOD SMOD STOP CALLER "
				},
				"gasEstimates": {
					"creation": {
						"codeDepositCost": "133400",
						"executionCost": "177",
						"totalCost": "133577"
					},
					"external": {
						"testRequire(uint256)": "716",
						"testRevert(uint256)": "747"
					}
				},
				"methodIdentifiers": {
					"testRequire(uint256)": "b8bd717f",
					"testRevert(uint256)": "20987767"
				}
			},
			"storageLayout": {
				"storage": [],
				"types": null
			},
			"userdoc": {
				"kind": "user",
				"methods": {},
				"version": 1
			}
		}
	}
}