{
	"contracts/Errors-14.sol": {
		"Errors": {
			"abi": [
				{
					"inputs": [
						{
							"internalType": "address",
							"name": "caller",
							"type": "address"
						},
						{
							"internalType": "uint256",
							"name": "i",
							"type": "uint256"
						}
					],
					"name": "MyError",
					"type": "error"
				},
				{
					"inputs": [],
					"name": "foo",
					"outputs": [],
					"stateMutability": "nonpayable",
					"type": "function"
				},
				{
					"inputs": [],
					"name": "initState",
					"outputs": [],
					"stateMutability": "nonpayable",
					"type": "function"
				},
				{
					"inputs": [],
					"name": "num",
					"outputs": [
						{
							"internalType": "uint256",
							"name": "",
							"type": "uint256"
						}
					],
					"stateMutability": "view",
					"type": "function"
				},
				{
					"inputs": [],
					"name": "testAssert",
					"outputs": [],
					"stateMutability": "view",
					"type": "function"
				},
				{
					"inputs": [
						{
							"internalType": "uint256",
							"name": "_i",
							"type": "uint256"
						}
					],
					"name": "testCustomError",
					"outputs": [],
					"stateMutability": "view",
					"type": "function"
				},
				{
					"inputs": [
						{
							"internalType": "uint256",
							"name": "_i",
							"type": "uint256"
						}
					],
					"name": "testRequire",
					"outputs": [],
					"stateMutability": "pure",
					"type": "function"
				},
				{
					"inputs": [
						{
							"internalType": "uint256",
							"name": "_i",
							"type": "uint256"
						}
					],
					"name": "testRevert",
					"outputs": [],
					"stateMutability": "pure",
					"type": "function"
				}
			],
			"devdoc": {
				"kind": "dev",
				"methods": {},
				"version": 1
			},
			"evm": {
				"assembly": "    /* \"contracts/Errors-14.sol\":157:1031  contract Errors {... */\n  mstore(0x40, 0x80)\n    /* \"contracts/Errors-14.sol\":657:660  123 */\n  0x7b\n    /* \"contracts/Errors-14.sol\":639:660  uint public num = 123 */\n  0x00\n  sstore\n    /* \"contracts/Errors-14.sol\":157:1031  contract Errors {... */\n  callvalue\n  dup1\n  iszero\n  tag_1\n  jumpi\n  0x00\n  dup1\n  revert\ntag_1:\n  pop\n  dataSize(sub_0)\n  dup1\n  dataOffset(sub_0)\n  0x00\n  codecopy\n  0x00\n  return\nstop\n\nsub_0: assembly {\n        /* \"contracts/Errors-14.sol\":157:1031  contract Errors {... */\n      mstore(0x40, 0x80)\n      callvalue\n      dup1\n      iszero\n      tag_1\n      jumpi\n      0x00\n      dup1\n      revert\n    tag_1:\n      pop\n      jumpi(tag_2, lt(calldatasize, 0x04))\n      shr(0xe0, calldataload(0x00))\n      dup1\n      0x6d83c92c\n      gt\n      tag_10\n      jumpi\n      dup1\n      0x6d83c92c\n      eq\n      tag_6\n      jumpi\n      dup1\n      0x75f7286c\n      eq\n      tag_7\n      jumpi\n      dup1\n      0xb8bd717f\n      eq\n      tag_8\n      jumpi\n      dup1\n      0xc2985578\n      eq\n      tag_9\n      jumpi\n      jump(tag_2)\n    tag_10:\n      dup1\n      0x20987767\n      eq\n      tag_3\n      jumpi\n      dup1\n      0x2b813bc0\n      eq\n      tag_4\n      jumpi\n      dup1\n      0x4e70b1dc\n      eq\n      tag_5\n      jumpi\n    tag_2:\n      0x00\n      dup1\n      revert\n        /* \"contracts/Errors-14.sol\":305:632  function testRevert(uint _i) public pure {... */\n    tag_3:\n      tag_11\n      0x04\n      dup1\n      calldatasize\n      sub\n      dup2\n      add\n      swap1\n      tag_12\n      swap2\n      swap1\n      tag_13\n      jump\t// in\n    tag_12:\n      tag_14\n      jump\t// in\n    tag_11:\n      stop\n        /* \"contracts/Errors-14.sol\":720:789  function testAssert() public view {... */\n    tag_4:\n      tag_15\n      tag_16\n      jump\t// in\n    tag_15:\n      stop\n        /* \"contracts/Errors-14.sol\":639:660  uint public num = 123 */\n    tag_5:\n      tag_17\n      tag_18\n      jump\t// in\n    tag_17:\n      mload(0x40)\n      tag_19\n      swap2\n      swap1\n      tag_20\n      jump\t// in\n    tag_19:\n      mload(0x40)\n      dup1\n      swap2\n      sub\n      swap1\n      return\n        /* \"contracts/Errors-14.sol\":795:849  function initState() public {... */\n    tag_6:\n      tag_21\n      tag_22\n      jump\t// in\n    tag_21:\n      stop\n        /* \"contracts/Errors-14.sol\":899:1028  function testCustomError(uint _i) public view {... */\n    tag_7:\n      tag_23\n      0x04\n      dup1\n      calldatasize\n      sub\n      dup2\n      add\n      swap1\n      tag_24\n      swap2\n      swap1\n      tag_13\n      jump\t// in\n    tag_24:\n      tag_25\n      jump\t// in\n    tag_23:\n      stop\n        /* \"contracts/Errors-14.sol\":179:299  function testRequire(uint _i) public pure {... */\n    tag_8:\n      tag_26\n      0x04\n      dup1\n      calldatasize\n      sub\n      dup2\n      add\n      swap1\n      tag_27\n      swap2\n      swap1\n      tag_13\n      jump\t// in\n    tag_27:\n      tag_28\n      jump\t// in\n    tag_26:\n      stop\n        /* \"contracts/Errors-14.sol\":667:714  function foo() public {... */\n    tag_9:\n      tag_29\n      tag_30\n      jump\t// in\n    tag_29:\n      stop\n        /* \"contracts/Errors-14.sol\":305:632  function testRevert(uint _i) public pure {... */\n    tag_14:\n        /* \"contracts/Errors-14.sol\":431:432  1 */\n      0x01\n        /* \"contracts/Errors-14.sol\":426:428  _i */\n      dup2\n        /* \"contracts/Errors-14.sol\":426:432  _i > 1 */\n      gt\n        /* \"contracts/Errors-14.sol\":423:626  if(_i > 1) {... */\n      iszero\n      tag_32\n      jumpi\n        /* \"contracts/Errors-14.sol\":480:481  5 */\n      0x05\n        /* \"contracts/Errors-14.sol\":475:477  _i */\n      dup2\n        /* \"contracts/Errors-14.sol\":475:481  _i > 5 */\n      gt\n        /* \"contracts/Errors-14.sol\":472:617  if(_i > 5) {... */\n      iszero\n      tag_33\n      jumpi\n        /* \"contracts/Errors-14.sol\":543:545  10 */\n      0x0a\n        /* \"contracts/Errors-14.sol\":538:540  _i */\n      dup2\n        /* \"contracts/Errors-14.sol\":538:545  _i > 10 */\n      gt\n        /* \"contracts/Errors-14.sol\":535:604  if(_i > 10) {... */\n      iszero\n      tag_34\n      jumpi\n        /* \"contracts/Errors-14.sol\":569:585  revert(\"i > 10\") */\n      mload(0x40)\n      0x08c379a000000000000000000000000000000000000000000000000000000000\n      dup2\n      mstore\n      0x04\n      add\n      tag_35\n      swap1\n      tag_36\n      jump\t// in\n    tag_35:\n      mload(0x40)\n      dup1\n      swap2\n      sub\n      swap1\n      revert\n        /* \"contracts/Errors-14.sol\":535:604  if(_i > 10) {... */\n    tag_34:\n        /* \"contracts/Errors-14.sol\":472:617  if(_i > 5) {... */\n    tag_33:\n        /* \"contracts/Errors-14.sol\":423:626  if(_i > 1) {... */\n    tag_32:\n        /* \"contracts/Errors-14.sol\":305:632  function testRevert(uint _i) public pure {... */\n      pop\n      jump\t// out\n        /* \"contracts/Errors-14.sol\":720:789  function testAssert() public view {... */\n    tag_16:\n        /* \"contracts/Errors-14.sol\":778:781  123 */\n      0x7b\n        /* \"contracts/Errors-14.sol\":771:774  num */\n      sload(0x00)\n        /* \"contracts/Errors-14.sol\":771:781  num == 123 */\n      eq\n        /* \"contracts/Errors-14.sol\":764:782  assert(num == 123) */\n      tag_38\n      jumpi\n      tag_39\n      tag_40\n      jump\t// in\n    tag_39:\n    tag_38:\n        /* \"contracts/Errors-14.sol\":720:789  function testAssert() public view {... */\n      jump\t// out\n        /* \"contracts/Errors-14.sol\":639:660  uint public num = 123 */\n    tag_18:\n      sload(0x00)\n      dup2\n      jump\t// out\n        /* \"contracts/Errors-14.sol\":795:849  function initState() public {... */\n    tag_22:\n        /* \"contracts/Errors-14.sol\":839:842  123 */\n      0x7b\n        /* \"contracts/Errors-14.sol\":833:836  num */\n      0x00\n        /* \"contracts/Errors-14.sol\":833:842  num = 123 */\n      dup2\n      swap1\n      sstore\n      pop\n        /* \"contracts/Errors-14.sol\":795:849  function initState() public {... */\n      jump\t// out\n        /* \"contracts/Errors-14.sol\":899:1028  function testCustomError(uint _i) public view {... */\n    tag_25:\n        /* \"contracts/Errors-14.sol\":963:965  10 */\n      0x0a\n        /* \"contracts/Errors-14.sol\":958:960  _i */\n      dup2\n        /* \"contracts/Errors-14.sol\":958:965  _i > 10 */\n      gt\n        /* \"contracts/Errors-14.sol\":955:1022  if(_i > 10) {... */\n      iszero\n      tag_43\n      jumpi\n        /* \"contracts/Errors-14.sol\":996:1006  msg.sender */\n      caller\n        /* \"contracts/Errors-14.sol\":1008:1010  _i */\n      dup2\n        /* \"contracts/Errors-14.sol\":988:1011  MyError(msg.sender, _i) */\n      mload(0x40)\n      0xe2399bb800000000000000000000000000000000000000000000000000000000\n      dup2\n      mstore\n      0x04\n      add\n      tag_44\n      swap3\n      swap2\n      swap1\n      tag_45\n      jump\t// in\n    tag_44:\n      mload(0x40)\n      dup1\n      swap2\n      sub\n      swap1\n      revert\n        /* \"contracts/Errors-14.sol\":955:1022  if(_i > 10) {... */\n    tag_43:\n        /* \"contracts/Errors-14.sol\":899:1028  function testCustomError(uint _i) public view {... */\n      pop\n      jump\t// out\n        /* \"contracts/Errors-14.sol\":179:299  function testRequire(uint _i) public pure {... */\n    tag_28:\n        /* \"contracts/Errors-14.sol\":244:246  10 */\n      0x0a\n        /* \"contracts/Errors-14.sol\":239:241  _i */\n      dup2\n        /* \"contracts/Errors-14.sol\":239:246  _i < 10 */\n      lt\n        /* \"contracts/Errors-14.sol\":231:271  require(_i < 10, \"i is greater than 10\") */\n      tag_47\n      jumpi\n      mload(0x40)\n      0x08c379a000000000000000000000000000000000000000000000000000000000\n      dup2\n      mstore\n      0x04\n      add\n      tag_48\n      swap1\n      tag_49\n      jump\t// in\n    tag_48:\n      mload(0x40)\n      dup1\n      swap2\n      sub\n      swap1\n      revert\n    tag_47:\n        /* \"contracts/Errors-14.sol\":179:299  function testRequire(uint _i) public pure {... */\n      pop\n      jump\t// out\n        /* \"contracts/Errors-14.sol\":667:714  function foo() public {... */\n    tag_30:\n        /* \"contracts/Errors-14.sol\":706:707  1 */\n      0x01\n        /* \"contracts/Errors-14.sol\":699:702  num */\n      0x00\n      dup1\n        /* \"contracts/Errors-14.sol\":699:707  num += 1 */\n      dup3\n      dup3\n      sload\n      tag_51\n      swap2\n      swap1\n      tag_52\n      jump\t// in\n    tag_51:\n      swap3\n      pop\n      pop\n      dup2\n      swap1\n      sstore\n      pop\n        /* \"contracts/Errors-14.sol\":667:714  function foo() public {... */\n      jump\t// out\n        /* \"#utility.yul\":7:146   */\n    tag_54:\n        /* \"#utility.yul\":53:58   */\n      0x00\n        /* \"#utility.yul\":91:97   */\n      dup2\n        /* \"#utility.yul\":78:98   */\n      calldataload\n        /* \"#utility.yul\":69:98   */\n      swap1\n      pop\n        /* \"#utility.yul\":107:140   */\n      tag_56\n        /* \"#utility.yul\":134:139   */\n      dup2\n        /* \"#utility.yul\":107:140   */\n      tag_57\n      jump\t// in\n    tag_56:\n        /* \"#utility.yul\":7:146   */\n      swap3\n      swap2\n      pop\n      pop\n      jump\t// out\n        /* \"#utility.yul\":152:481   */\n    tag_13:\n        /* \"#utility.yul\":211:217   */\n      0x00\n        /* \"#utility.yul\":260:262   */\n      0x20\n        /* \"#utility.yul\":248:257   */\n      dup3\n        /* \"#utility.yul\":239:246   */\n      dup5\n        /* \"#utility.yul\":235:258   */\n      sub\n        /* \"#utility.yul\":231:263   */\n      slt\n        /* \"#utility.yul\":228:347   */\n      iszero\n      tag_59\n      jumpi\n        /* \"#utility.yul\":266:345   */\n      tag_60\n      tag_61\n      jump\t// in\n    tag_60:\n        /* \"#utility.yul\":228:347   */\n    tag_59:\n        /* \"#utility.yul\":386:387   */\n      0x00\n        /* \"#utility.yul\":411:464   */\n      tag_62\n        /* \"#utility.yul\":456:463   */\n      dup5\n        /* \"#utility.yul\":447:453   */\n      dup3\n        /* \"#utility.yul\":436:445   */\n      dup6\n        /* \"#utility.yul\":432:454   */\n      add\n        /* \"#utility.yul\":411:464   */\n      tag_54\n      jump\t// in\n    tag_62:\n        /* \"#utility.yul\":401:464   */\n      swap2\n      pop\n        /* \"#utility.yul\":357:474   */\n      pop\n        /* \"#utility.yul\":152:481   */\n      swap3\n      swap2\n      pop\n      pop\n      jump\t// out\n        /* \"#utility.yul\":487:605   */\n    tag_63:\n        /* \"#utility.yul\":574:598   */\n      tag_65\n        /* \"#utility.yul\":592:597   */\n      dup2\n        /* \"#utility.yul\":574:598   */\n      tag_66\n      jump\t// in\n    tag_65:\n        /* \"#utility.yul\":569:572   */\n      dup3\n        /* \"#utility.yul\":562:599   */\n      mstore\n        /* \"#utility.yul\":487:605   */\n      pop\n      pop\n      jump\t// out\n        /* \"#utility.yul\":611:977   */\n    tag_67:\n        /* \"#utility.yul\":753:756   */\n      0x00\n        /* \"#utility.yul\":774:841   */\n      tag_69\n        /* \"#utility.yul\":838:840   */\n      0x14\n        /* \"#utility.yul\":833:836   */\n      dup4\n        /* \"#utility.yul\":774:841   */\n      tag_70\n      jump\t// in\n    tag_69:\n        /* \"#utility.yul\":767:841   */\n      swap2\n      pop\n        /* \"#utility.yul\":850:943   */\n      tag_71\n        /* \"#utility.yul\":939:942   */\n      dup3\n        /* \"#utility.yul\":850:943   */\n      tag_72\n      jump\t// in\n    tag_71:\n        /* \"#utility.yul\":968:970   */\n      0x20\n        /* \"#utility.yul\":963:966   */\n      dup3\n        /* \"#utility.yul\":959:971   */\n      add\n        /* \"#utility.yul\":952:971   */\n      swap1\n      pop\n        /* \"#utility.yul\":611:977   */\n      swap2\n      swap1\n      pop\n      jump\t// out\n        /* \"#utility.yul\":983:1348   */\n    tag_73:\n        /* \"#utility.yul\":1125:1128   */\n      0x00\n        /* \"#utility.yul\":1146:1212   */\n      tag_75\n        /* \"#utility.yul\":1210:1211   */\n      0x06\n        /* \"#utility.yul\":1205:1208   */\n      dup4\n        /* \"#utility.yul\":1146:1212   */\n      tag_70\n      jump\t// in\n    tag_75:\n        /* \"#utility.yul\":1139:1212   */\n      swap2\n      pop\n        /* \"#utility.yul\":1221:1314   */\n      tag_76\n        /* \"#utility.yul\":1310:1313   */\n      dup3\n        /* \"#utility.yul\":1221:1314   */\n      tag_77\n      jump\t// in\n    tag_76:\n        /* \"#utility.yul\":1339:1341   */\n      0x20\n        /* \"#utility.yul\":1334:1337   */\n      dup3\n        /* \"#utility.yul\":1330:1342   */\n      add\n        /* \"#utility.yul\":1323:1342   */\n      swap1\n      pop\n        /* \"#utility.yul\":983:1348   */\n      swap2\n      swap1\n      pop\n      jump\t// out\n        /* \"#utility.yul\":1354:1472   */\n    tag_78:\n        /* \"#utility.yul\":1441:1465   */\n      tag_80\n        /* \"#utility.yul\":1459:1464   */\n      dup2\n        /* \"#utility.yul\":1441:1465   */\n      tag_81\n      jump\t// in\n    tag_80:\n        /* \"#utility.yul\":1436:1439   */\n      dup3\n        /* \"#utility.yul\":1429:1466   */\n      mstore\n        /* \"#utility.yul\":1354:1472   */\n      pop\n      pop\n      jump\t// out\n        /* \"#utility.yul\":1478:1810   */\n    tag_45:\n        /* \"#utility.yul\":1599:1603   */\n      0x00\n        /* \"#utility.yul\":1637:1639   */\n      0x40\n        /* \"#utility.yul\":1626:1635   */\n      dup3\n        /* \"#utility.yul\":1622:1640   */\n      add\n        /* \"#utility.yul\":1614:1640   */\n      swap1\n      pop\n        /* \"#utility.yul\":1650:1721   */\n      tag_83\n        /* \"#utility.yul\":1718:1719   */\n      0x00\n        /* \"#utility.yul\":1707:1716   */\n      dup4\n        /* \"#utility.yul\":1703:1720   */\n      add\n        /* \"#utility.yul\":1694:1700   */\n      dup6\n        /* \"#utility.yul\":1650:1721   */\n      tag_63\n      jump\t// in\n    tag_83:\n        /* \"#utility.yul\":1731:1803   */\n      tag_84\n        /* \"#utility.yul\":1799:1801   */\n      0x20\n        /* \"#utility.yul\":1788:1797   */\n      dup4\n        /* \"#utility.yul\":1784:1802   */\n      add\n        /* \"#utility.yul\":1775:1781   */\n      dup5\n        /* \"#utility.yul\":1731:1803   */\n      tag_78\n      jump\t// in\n    tag_84:\n        /* \"#utility.yul\":1478:1810   */\n      swap4\n      swap3\n      pop\n      pop\n      pop\n      jump\t// out\n        /* \"#utility.yul\":1816:2235   */\n    tag_49:\n        /* \"#utility.yul\":1982:1986   */\n      0x00\n        /* \"#utility.yul\":2020:2022   */\n      0x20\n        /* \"#utility.yul\":2009:2018   */\n      dup3\n        /* \"#utility.yul\":2005:2023   */\n      add\n        /* \"#utility.yul\":1997:2023   */\n      swap1\n      pop\n        /* \"#utility.yul\":2069:2078   */\n      dup2\n        /* \"#utility.yul\":2063:2067   */\n      dup2\n        /* \"#utility.yul\":2059:2079   */\n      sub\n        /* \"#utility.yul\":2055:2056   */\n      0x00\n        /* \"#utility.yul\":2044:2053   */\n      dup4\n        /* \"#utility.yul\":2040:2057   */\n      add\n        /* \"#utility.yul\":2033:2080   */\n      mstore\n        /* \"#utility.yul\":2097:2228   */\n      tag_86\n        /* \"#utility.yul\":2223:2227   */\n      dup2\n        /* \"#utility.yul\":2097:2228   */\n      tag_67\n      jump\t// in\n    tag_86:\n        /* \"#utility.yul\":2089:2228   */\n      swap1\n      pop\n        /* \"#utility.yul\":1816:2235   */\n      swap2\n      swap1\n      pop\n      jump\t// out\n        /* \"#utility.yul\":2241:2660   */\n    tag_36:\n        /* \"#utility.yul\":2407:2411   */\n      0x00\n        /* \"#utility.yul\":2445:2447   */\n      0x20\n        /* \"#utility.yul\":2434:2443   */\n      dup3\n        /* \"#utility.yul\":2430:2448   */\n      add\n        /* \"#utility.yul\":2422:2448   */\n      swap1\n      pop\n        /* \"#utility.yul\":2494:2503   */\n      dup2\n        /* \"#utility.yul\":2488:2492   */\n      dup2\n        /* \"#utility.yul\":2484:2504   */\n      sub\n        /* \"#utility.yul\":2480:2481   */\n      0x00\n        /* \"#utility.yul\":2469:2478   */\n      dup4\n        /* \"#utility.yul\":2465:2482   */\n      add\n        /* \"#utility.yul\":2458:2505   */\n      mstore\n        /* \"#utility.yul\":2522:2653   */\n      tag_88\n        /* \"#utility.yul\":2648:2652   */\n      dup2\n        /* \"#utility.yul\":2522:2653   */\n      tag_73\n      jump\t// in\n    tag_88:\n        /* \"#utility.yul\":2514:2653   */\n      swap1\n      pop\n        /* \"#utility.yul\":2241:2660   */\n      swap2\n      swap1\n      pop\n      jump\t// out\n        /* \"#utility.yul\":2666:2888   */\n    tag_20:\n        /* \"#utility.yul\":2759:2763   */\n      0x00\n        /* \"#utility.yul\":2797:2799   */\n      0x20\n        /* \"#utility.yul\":2786:2795   */\n      dup3\n        /* \"#utility.yul\":2782:2800   */\n      add\n        /* \"#utility.yul\":2774:2800   */\n      swap1\n      pop\n        /* \"#utility.yul\":2810:2881   */\n      tag_90\n        /* \"#utility.yul\":2878:2879   */\n      0x00\n        /* \"#utility.yul\":2867:2876   */\n      dup4\n        /* \"#utility.yul\":2863:2880   */\n      add\n        /* \"#utility.yul\":2854:2860   */\n      dup5\n        /* \"#utility.yul\":2810:2881   */\n      tag_78\n      jump\t// in\n    tag_90:\n        /* \"#utility.yul\":2666:2888   */\n      swap3\n      swap2\n      pop\n      pop\n      jump\t// out\n        /* \"#utility.yul\":2975:3144   */\n    tag_70:\n        /* \"#utility.yul\":3059:3070   */\n      0x00\n        /* \"#utility.yul\":3093:3099   */\n      dup3\n        /* \"#utility.yul\":3088:3091   */\n      dup3\n        /* \"#utility.yul\":3081:3100   */\n      mstore\n        /* \"#utility.yul\":3133:3137   */\n      0x20\n        /* \"#utility.yul\":3128:3131   */\n      dup3\n        /* \"#utility.yul\":3124:3138   */\n      add\n        /* \"#utility.yul\":3109:3138   */\n      swap1\n      pop\n        /* \"#utility.yul\":2975:3144   */\n      swap3\n      swap2\n      pop\n      pop\n      jump\t// out\n        /* \"#utility.yul\":3150:3455   */\n    tag_52:\n        /* \"#utility.yul\":3190:3193   */\n      0x00\n        /* \"#utility.yul\":3209:3229   */\n      tag_95\n        /* \"#utility.yul\":3227:3228   */\n      dup3\n        /* \"#utility.yul\":3209:3229   */\n      tag_81\n      jump\t// in\n    tag_95:\n        /* \"#utility.yul\":3204:3229   */\n      swap2\n      pop\n        /* \"#utility.yul\":3243:3263   */\n      tag_96\n        /* \"#utility.yul\":3261:3262   */\n      dup4\n        /* \"#utility.yul\":3243:3263   */\n      tag_81\n      jump\t// in\n    tag_96:\n        /* \"#utility.yul\":3238:3263   */\n      swap3\n      pop\n        /* \"#utility.yul\":3397:3398   */\n      dup3\n        /* \"#utility.yul\":3329:3395   */\n      0xffffffffffffffffffffffffffffffffffffffffffffffffffffffffffffffff\n        /* \"#utility.yul\":3325:3399   */\n      sub\n        /* \"#utility.yul\":3322:3323   */\n      dup3\n        /* \"#utility.yul\":3319:3400   */\n      gt\n        /* \"#utility.yul\":3316:3423   */\n      iszero\n      tag_97\n      jumpi\n        /* \"#utility.yul\":3403:3421   */\n      tag_98\n      tag_99\n      jump\t// in\n    tag_98:\n        /* \"#utility.yul\":3316:3423   */\n    tag_97:\n        /* \"#utility.yul\":3447:3448   */\n      dup3\n        /* \"#utility.yul\":3444:3445   */\n      dup3\n        /* \"#utility.yul\":3440:3449   */\n      add\n        /* \"#utility.yul\":3433:3449   */\n      swap1\n      pop\n        /* \"#utility.yul\":3150:3455   */\n      swap3\n      swap2\n      pop\n      pop\n      jump\t// out\n        /* \"#utility.yul\":3461:3557   */\n    tag_66:\n        /* \"#utility.yul\":3498:3505   */\n      0x00\n        /* \"#utility.yul\":3527:3551   */\n      tag_101\n        /* \"#utility.yul\":3545:3550   */\n      dup3\n        /* \"#utility.yul\":3527:3551   */\n      tag_102\n      jump\t// in\n    tag_101:\n        /* \"#utility.yul\":3516:3551   */\n      swap1\n      pop\n        /* \"#utility.yul\":3461:3557   */\n      swap2\n      swap1\n      pop\n      jump\t// out\n        /* \"#utility.yul\":3563:3689   */\n    tag_102:\n        /* \"#utility.yul\":3600:3607   */\n      0x00\n        /* \"#utility.yul\":3640:3682   */\n      0xffffffffffffffffffffffffffffffffffffffff\n        /* \"#utility.yul\":3633:3638   */\n      dup3\n        /* \"#utility.yul\":3629:3683   */\n      and\n        /* \"#utility.yul\":3618:3683   */\n      swap1\n      pop\n        /* \"#utility.yul\":3563:3689   */\n      swap2\n      swap1\n      pop\n      jump\t// out\n        /* \"#utility.yul\":3695:3772   */\n    tag_81:\n        /* \"#utility.yul\":3732:3739   */\n      0x00\n        /* \"#utility.yul\":3761:3766   */\n      dup2\n        /* \"#utility.yul\":3750:3766   */\n      swap1\n      pop\n        /* \"#utility.yul\":3695:3772   */\n      swap2\n      swap1\n      pop\n      jump\t// out\n        /* \"#utility.yul\":3778:3958   */\n    tag_40:\n        /* \"#utility.yul\":3826:3903   */\n      0x4e487b7100000000000000000000000000000000000000000000000000000000\n        /* \"#utility.yul\":3823:3824   */\n      0x00\n        /* \"#utility.yul\":3816:3904   */\n      mstore\n        /* \"#utility.yul\":3923:3927   */\n      0x01\n        /* \"#utility.yul\":3920:3921   */\n      0x04\n        /* \"#utility.yul\":3913:3928   */\n      mstore\n        /* \"#utility.yul\":3947:3951   */\n      0x24\n        /* \"#utility.yul\":3944:3945   */\n      0x00\n        /* \"#utility.yul\":3937:3952   */\n      revert\n        /* \"#utility.yul\":3964:4144   */\n    tag_99:\n        /* \"#utility.yul\":4012:4089   */\n      0x4e487b7100000000000000000000000000000000000000000000000000000000\n        /* \"#utility.yul\":4009:4010   */\n      0x00\n        /* \"#utility.yul\":4002:4090   */\n      mstore\n        /* \"#utility.yul\":4109:4113   */\n      0x11\n        /* \"#utility.yul\":4106:4107   */\n      0x04\n        /* \"#utility.yul\":4099:4114   */\n      mstore\n        /* \"#utility.yul\":4133:4137   */\n      0x24\n        /* \"#utility.yul\":4130:4131   */\n      0x00\n        /* \"#utility.yul\":4123:4138   */\n      revert\n        /* \"#utility.yul\":4273:4390   */\n    tag_61:\n        /* \"#utility.yul\":4382:4383   */\n      0x00\n        /* \"#utility.yul\":4379:4380   */\n      dup1\n        /* \"#utility.yul\":4372:4384   */\n      revert\n        /* \"#utility.yul\":4396:4566   */\n    tag_72:\n        /* \"#utility.yul\":4536:4558   */\n      0x692069732067726561746572207468616e203130000000000000000000000000\n        /* \"#utility.yul\":4532:4533   */\n      0x00\n        /* \"#utility.yul\":4524:4530   */\n      dup3\n        /* \"#utility.yul\":4520:4534   */\n      add\n        /* \"#utility.yul\":4513:4559   */\n      mstore\n        /* \"#utility.yul\":4396:4566   */\n      pop\n      jump\t// out\n        /* \"#utility.yul\":4572:4728   */\n    tag_77:\n        /* \"#utility.yul\":4712:4720   */\n      0x69203e2031300000000000000000000000000000000000000000000000000000\n        /* \"#utility.yul\":4708:4709   */\n      0x00\n        /* \"#utility.yul\":4700:4706   */\n      dup3\n        /* \"#utility.yul\":4696:4710   */\n      add\n        /* \"#utility.yul\":4689:4721   */\n      mstore\n        /* \"#utility.yul\":4572:4728   */\n      pop\n      jump\t// out\n        /* \"#utility.yul\":4734:4856   */\n    tag_57:\n        /* \"#utility.yul\":4807:4831   */\n      tag_113\n        /* \"#utility.yul\":4825:4830   */\n      dup2\n        /* \"#utility.yul\":4807:4831   */\n      tag_81\n      jump\t// in\n    tag_113:\n        /* \"#utility.yul\":4800:4805   */\n      dup2\n        /* \"#utility.yul\":4797:4832   */\n      eq\n        /* \"#utility.yul\":4787:4850   */\n      tag_114\n      jumpi\n        /* \"#utility.yul\":4846:4847   */\n      0x00\n        /* \"#utility.yul\":4843:4844   */\n      dup1\n        /* \"#utility.yul\":4836:4848   */\n      revert\n        /* \"#utility.yul\":4787:4850   */\n    tag_114:\n        /* \"#utility.yul\":4734:4856   */\n      pop\n      jump\t// out\n\n    auxdata: 0xa2646970667358221220115f5937081c4b8be8688b773cf485bab8f8d507725b92a49aae306fc3097e4a64736f6c63430008070033\n}\n",
				"bytecode": {
					"linkReferences": {},
					"object": "6080604052607b60005534801561001557600080fd5b5061050d806100256000396000f3fe608060405234801561001057600080fd5b506004361061007d5760003560e01c80636d83c92c1161005b5780636d83c92c146100c657806375f7286c146100d0578063b8bd717f146100ec578063c2985578146101085761007d565b806320987767146100825780632b813bc01461009e5780634e70b1dc146100a8575b600080fd5b61009c60048036038101906100979190610253565b610112565b005b6100a661016d565b005b6100b0610182565b6040516100bd919061034d565b60405180910390f35b6100ce610188565b005b6100ea60048036038101906100e59190610253565b610192565b005b61010660048036038101906101019190610253565b6101dd565b005b610110610223565b005b600181111561016a57600581111561016957600a811115610168576040517f08c379a000000000000000000000000000000000000000000000000000000000815260040161015f9061032d565b60405180910390fd5b5b5b50565b607b600054146101805761017f61040b565b5b565b60005481565b607b600081905550565b600a8111156101da5733816040517fe2399bb80000000000000000000000000000000000000000000000000000000081526004016101d19291906102e4565b60405180910390fd5b50565b600a8110610220576040517f08c379a00000000000000000000000000000000000000000000000000000000081526004016102179061030d565b60405180910390fd5b50565b60016000808282546102359190610379565b92505081905550565b60008135905061024d816104c0565b92915050565b60006020828403121561026957610268610469565b5b60006102778482850161023e565b91505092915050565b610289816103cf565b82525050565b600061029c601483610368565b91506102a78261046e565b602082019050919050565b60006102bf600683610368565b91506102ca82610497565b602082019050919050565b6102de81610401565b82525050565b60006040820190506102f96000830185610280565b61030660208301846102d5565b9392505050565b600060208201905081810360008301526103268161028f565b9050919050565b60006020820190508181036000830152610346816102b2565b9050919050565b600060208201905061036260008301846102d5565b92915050565b600082825260208201905092915050565b600061038482610401565b915061038f83610401565b9250827fffffffffffffffffffffffffffffffffffffffffffffffffffffffffffffffff038211156103c4576103c361043a565b5b828201905092915050565b60006103da826103e1565b9050919050565b600073ffffffffffffffffffffffffffffffffffffffff82169050919050565b6000819050919050565b7f4e487b7100000000000000000000000000000000000000000000000000000000600052600160045260246000fd5b7f4e487b7100000000000000000000000000000000000000000000000000000000600052601160045260246000fd5b600080fd5b7f692069732067726561746572207468616e203130000000000000000000000000600082015250565b7f69203e2031300000000000000000000000000000000000000000000000000000600082015250565b6104c981610401565b81146104d457600080fd5b5056fea2646970667358221220115f5937081c4b8be8688b773cf485bab8f8d507725b92a49aae306fc3097e4a64736f6c63430008070033",
					"opcodes": "PUSH1 0x80 PUSH1 0x40 MSTORE PUSH1 0x7B PUSH1 0x0 SSTORE CALLVALUE DUP1 ISZERO PUSH2 0x15 JUMPI PUSH1 0x0 DUP1 REVERT JUMPDEST POP PUSH2 0x50D DUP1 PUSH2 0x25 PUSH1 0x0 CODECOPY PUSH1 0x0 RETURN INVALID PUSH1 0x80 PUSH1 0x40 MSTORE CALLVALUE DUP1 ISZERO PUSH2 0x10 JUMPI PUSH1 0x0 DUP1 REVERT JUMPDEST POP PUSH1 0x4 CALLDATASIZE LT PUSH2 0x7D JUMPI PUSH1 0x0 CALLDATALOAD PUSH1 0xE0 SHR DUP1 PUSH4 0x6D83C92C GT PUSH2 0x5B JUMPI DUP1 PUSH4 0x6D83C92C EQ PUSH2 0xC6 JUMPI DUP1 PUSH4 0x75F7286C EQ PUSH2 0xD0 JUMPI DUP1 PUSH4 0xB8BD717F EQ PUSH2 0xEC JUMPI DUP1 PUSH4 0xC2985578 EQ PUSH2 0x108 JUMPI PUSH2 0x7D JUMP JUMPDEST DUP1 PUSH4 0x20987767 EQ PUSH2 0x82 JUMPI DUP1 PUSH4 0x2B813BC0 EQ PUSH2 0x9E JUMPI DUP1 PUSH4 0x4E70B1DC EQ PUSH2 0xA8 JUMPI JUMPDEST PUSH1 0x0 DUP1 REVERT JUMPDEST PUSH2 0x9C PUSH1 0x4 DUP1 CALLDATASIZE SUB DUP2 ADD SWAP1 PUSH2 0x97 SWAP2 SWAP1 PUSH2 0x253 JUMP JUMPDEST PUSH2 0x112 JUMP JUMPDEST STOP JUMPDEST PUSH2 0xA6 PUSH2 0x16D JUMP JUMPDEST STOP JUMPDEST PUSH2 0xB0 PUSH2 0x182 JUMP JUMPDEST PUSH1 0x40 MLOAD PUSH2 0xBD SWAP2 SWAP1 PUSH2 0x34D JUMP JUMPDEST PUSH1 0x40 MLOAD DUP1 SWAP2 SUB SWAP1 RETURN JUMPDEST PUSH2 0xCE PUSH2 0x188 JUMP JUMPDEST STOP JUMPDEST PUSH2 0xEA PUSH1 0x4 DUP1 CALLDATASIZE SUB DUP2 ADD SWAP1 PUSH2 0xE5 SWAP2 SWAP1 PUSH2 0x253 JUMP JUMPDEST PUSH2 0x192 JUMP JUMPDEST STOP JUMPDEST PUSH2 0x106 PUSH1 0x4 DUP1 CALLDATASIZE SUB DUP2 ADD SWAP1 PUSH2 0x101 SWAP2 SWAP1 PUSH2 0x253 JUMP JUMPDEST PUSH2 0x1DD JUMP JUMPDEST STOP JUMPDEST PUSH2 0x110 PUSH2 0x223 JUMP JUMPDEST STOP JUMPDEST PUSH1 0x1 DUP2 GT ISZERO PUSH2 0x16A JUMPI PUSH1 0x5 DUP2 GT ISZERO PUSH2 0x169 JUMPI PUSH1 0xA DUP2 GT ISZERO PUSH2 0x168 JUMPI PUSH1 0x40 MLOAD PUSH32 0x8C379A000000000000000000000000000000000000000000000000000000000 DUP2 MSTORE PUSH1 0x4 ADD PUSH2 0x15F SWAP1 PUSH2 0x32D JUMP JUMPDEST PUSH1 0x40 MLOAD DUP1 SWAP2 SUB SWAP1 REVERT JUMPDEST JUMPDEST JUMPDEST POP JUMP JUMPDEST PUSH1 0x7B PUSH1 0x0 SLOAD EQ PUSH2 0x180 JUMPI PUSH2 0x17F PUSH2 0x40B JUMP JUMPDEST JUMPDEST JUMP JUMPDEST PUSH1 0x0 SLOAD DUP2 JUMP JUMPDEST PUSH1 0x7B PUSH1 0x0 DUP2 SWAP1 SSTORE POP JUMP JUMPDEST PUSH1 0xA DUP2 GT ISZERO PUSH2 0x1DA JUMPI CALLER DUP2 PUSH1 0x40 MLOAD PUSH32 0xE2399BB800000000000000000000000000000000000000000000000000000000 DUP2 MSTORE PUSH1 0x4 ADD PUSH2 0x1D1 SWAP3 SWAP2 SWAP1 PUSH2 0x2E4 JUMP JUMPDEST PUSH1 0x40 MLOAD DUP1 SWAP2 SUB SWAP1 REVERT JUMPDEST POP JUMP JUMPDEST PUSH1 0xA DUP2 LT PUSH2 0x220 JUMPI PUSH1 0x40 MLOAD PUSH32 0x8C379A000000000000000000000000000000000000000000000000000000000 DUP2 MSTORE PUSH1 0x4 ADD PUSH2 0x217 SWAP1 PUSH2 0x30D JUMP JUMPDEST PUSH1 0x40 MLOAD DUP1 SWAP2 SUB SWAP1 REVERT JUMPDEST POP JUMP JUMPDEST PUSH1 0x1 PUSH1 0x0 DUP1 DUP3 DUP3 SLOAD PUSH2 0x235 SWAP2 SWAP1 PUSH2 0x379 JUMP JUMPDEST SWAP3 POP POP DUP2 SWAP1 SSTORE POP JUMP JUMPDEST PUSH1 0x0 DUP2 CALLDATALOAD SWAP1 POP PUSH2 0x24D DUP2 PUSH2 0x4C0 JUMP JUMPDEST SWAP3 SWAP2 POP POP JUMP JUMPDEST PUSH1 0x0 PUSH1 0x20 DUP3 DUP5 SUB SLT ISZERO PUSH2 0x269 JUMPI PUSH2 0x268 PUSH2 0x469 JUMP JUMPDEST JUMPDEST PUSH1 0x0 PUSH2 0x277 DUP5 DUP3 DUP6 ADD PUSH2 0x23E JUMP JUMPDEST SWAP2 POP POP SWAP3 SWAP2 POP POP JUMP JUMPDEST PUSH2 0x289 DUP2 PUSH2 0x3CF JUMP JUMPDEST DUP3 MSTORE POP POP JUMP JUMPDEST PUSH1 0x0 PUSH2 0x29C PUSH1 0x14 DUP4 PUSH2 0x368 JUMP JUMPDEST SWAP2 POP PUSH2 0x2A7 DUP3 PUSH2 0x46E JUMP JUMPDEST PUSH1 0x20 DUP3 ADD SWAP1 POP SWAP2 SWAP1 POP JUMP JUMPDEST PUSH1 0x0 PUSH2 0x2BF PUSH1 0x6 DUP4 PUSH2 0x368 JUMP JUMPDEST SWAP2 POP PUSH2 0x2CA DUP3 PUSH2 0x497 JUMP JUMPDEST PUSH1 0x20 DUP3 ADD SWAP1 POP SWAP2 SWAP1 POP JUMP JUMPDEST PUSH2 0x2DE DUP2 PUSH2 0x401 JUMP JUMPDEST DUP3 MSTORE POP POP JUMP JUMPDEST PUSH1 0x0 PUSH1 0x40 DUP3 ADD SWAP1 POP PUSH2 0x2F9 PUSH1 0x0 DUP4 ADD DUP6 PUSH2 0x280 JUMP JUMPDEST PUSH2 0x306 PUSH1 0x20 DUP4 ADD DUP5 PUSH2 0x2D5 JUMP JUMPDEST SWAP4 SWAP3 POP POP POP JUMP JUMPDEST PUSH1 0x0 PUSH1 0x20 DUP3 ADD SWAP1 POP DUP2 DUP2 SUB PUSH1 0x0 DUP4 ADD MSTORE PUSH2 0x326 DUP2 PUSH2 0x28F JUMP JUMPDEST SWAP1 POP SWAP2 SWAP1 POP JUMP JUMPDEST PUSH1 0x0 PUSH1 0x20 DUP3 ADD SWAP1 POP DUP2 DUP2 SUB PUSH1 0x0 DUP4 ADD MSTORE PUSH2 0x346 DUP2 PUSH2 0x2B2 JUMP JUMPDEST SWAP1 POP SWAP2 SWAP1 POP JUMP JUMPDEST PUSH1 0x0 PUSH1 0x20 DUP3 ADD SWAP1 POP PUSH2 0x362 PUSH1 0x0 DUP4 ADD DUP5 PUSH2 0x2D5 JUMP JUMPDEST SWAP3 SWAP2 POP POP JUMP JUMPDEST PUSH1 0x0 DUP3 DUP3 MSTORE PUSH1 0x20 DUP3 ADD SWAP1 POP SWAP3 SWAP2 POP POP JUMP JUMPDEST PUSH1 0x0 PUSH2 0x384 DUP3 PUSH2 0x401 JUMP JUMPDEST SWAP2 POP PUSH2 0x38F DUP4 PUSH2 0x401 JUMP JUMPDEST SWAP3 POP DUP3 PUSH32 0xFFFFFFFFFFFFFFFFFFFFFFFFFFFFFFFFFFFFFFFFFFFFFFFFFFFFFFFFFFFFFFFF SUB DUP3 GT ISZERO PUSH2 0x3C4 JUMPI PUSH2 0x3C3 PUSH2 0x43A JUMP JUMPDEST JUMPDEST DUP3 DUP3 ADD SWAP1 POP SWAP3 SWAP2 POP POP JUMP JUMPDEST PUSH1 0x0 PUSH2 0x3DA DUP3 PUSH2 0x3E1 JUMP JUMPDEST SWAP1 POP SWAP2 SWAP1 POP JUMP JUMPDEST PUSH1 0x0 PUSH20 0xFFFFFFFFFFFFFFFFFFFFFFFFFFFFFFFFFFFFFFFF DUP3 AND SWAP1 POP SWAP2 SWAP1 POP JUMP JUMPDEST PUSH1 0x0 DUP2 SWAP1 POP SWAP2 SWAP1 POP JUMP JUMPDEST PUSH32 0x4E487B7100000000000000000000000000000000000000000000000000000000 PUSH1 0x0 MSTORE PUSH1 0x1 PUSH1 0x4 MSTORE PUSH1 0x24 PUSH1 0x0 REVERT JUMPDEST PUSH32 0x4E487B7100000000000000000000000000000000000000000000000000000000 PUSH1 0x0 MSTORE PUSH1 0x11 PUSH1 0x4 MSTORE PUSH1 0x24 PUSH1 0x0 REVERT JUMPDEST PUSH1 0x0 DUP1 REVERT JUMPDEST PUSH32 0x692069732067726561746572207468616E203130000000000000000000000000 PUSH1 0x0 DUP3 ADD MSTORE POP JUMP JUMPDEST PUSH32 0x69203E2031300000000000000000000000000000000000000000000000000000 PUSH1 0x0 DUP3 ADD MSTORE POP JUMP JUMPDEST PUSH2 0x4C9 DUP2 PUSH2 0x401 JUMP JUMPDEST DUP2 EQ PUSH2 0x4D4 JUMPI PUSH1 0x0 DUP1 REVERT JUMPDEST POP JUMP INVALID LOG2 PUSH5 0x6970667358 0x22 SLT KECCAK256 GT 0x5F MSIZE CALLDATACOPY ADDMOD SHR 0x4B DUP12 0xE8 PUSH9 0x8B773CF485BAB8F8D5 SMOD PUSH19 0x5B92A49AAE306FC3097E4A64736F6C63430008 SMOD STOP CALLER "
				},
				"gasEstimates": {
					"creation": {
						"codeDepositCost": "258600",
						"executionCost": "22406",
						"totalCost": "281006"
					},
					"external": {
						"foo()": "infinite",
						"initState()": "22258",
						"num()": "2474",
						"testAssert()": "2319",
						"testCustomError(uint256)": "infinite",
						"testRequire(uint256)": "760",
						"testRevert(uint256)": "770"
					}
				},
				"methodIdentifiers": {
					"foo()": "c2985578",
					"initState()": "6d83c92c",
					"num()": "4e70b1dc",
					"testAssert()": "2b813bc0",
					"testCustomError(uint256)": "75f7286c",
					"testRequire(uint256)": "b8bd717f",
					"testRevert(uint256)": "20987767"
				}
			},
			"storageLayout": {
				"storage": [
					{
						"astId": 42,
						"contract": "contracts/Errors-14.sol:Errors",
						"label": "num",
						"offset": 0,
						"slot": "0",
						"type": "t_uint256"
					}
				],
				"types": {
					"t_uint256": {
						"encoding": "inplace",
						"label": "uint256",
						"numberOfBytes": "32"
					}
				}
			},
			"userdoc": {
				"kind": "user",
				"methods": {},
				"version": 1
			}
		}
	}
}