{
	"contracts/ForAndWhileLoops.sol": {
		"ForAndWhileLoops": {
			"abi": [
				{
					"inputs": [],
					"name": "loops",
					"outputs": [],
					"stateMutability": "pure",
					"type": "function"
				}
			],
			"devdoc": {
				"kind": "dev",
				"methods": {},
				"version": 1
			},
			"evm": {
				"assembly": "    /* \"contracts/ForAndWhileLoops.sol\":58:377  contract ForAndWhileLoops {... */\n  mstore(0x40, 0x80)\n  callvalue\n  dup1\n  iszero\n  tag_1\n  jumpi\n  0x00\n  dup1\n  revert\ntag_1:\n  pop\n  dataSize(sub_0)\n  dup1\n  dataOffset(sub_0)\n  0x00\n  codecopy\n  0x00\n  return\nstop\n\nsub_0: assembly {\n        /* \"contracts/ForAndWhileLoops.sol\":58:377  contract ForAndWhileLoops {... */\n      mstore(0x40, 0x80)\n      callvalue\n      dup1\n      iszero\n      tag_1\n      jumpi\n      0x00\n      dup1\n      revert\n    tag_1:\n      pop\n      jumpi(tag_2, lt(calldatasize, 0x04))\n      shr(0xe0, calldataload(0x00))\n      dup1\n      0x938b9ceb\n      eq\n      tag_3\n      jumpi\n    tag_2:\n      0x00\n      dup1\n      revert\n        /* \"contracts/ForAndWhileLoops.sol\":90:375  function loops() external pure {... */\n    tag_3:\n      tag_4\n      tag_5\n      jump\t// in\n    tag_4:\n      stop\n    tag_5:\n        /* \"contracts/ForAndWhileLoops.sol\":135:141  uint i */\n      0x00\n        /* \"contracts/ForAndWhileLoops.sol\":131:298  for(uint i = 0; i < 10; i++) {... */\n    tag_7:\n        /* \"contracts/ForAndWhileLoops.sol\":151:153  10 */\n      0x0a\n        /* \"contracts/ForAndWhileLoops.sol\":147:148  i */\n      dup2\n        /* \"contracts/ForAndWhileLoops.sol\":147:153  i < 10 */\n      lt\n        /* \"contracts/ForAndWhileLoops.sol\":131:298  for(uint i = 0; i < 10; i++) {... */\n      iszero\n      tag_8\n      jumpi\n        /* \"contracts/ForAndWhileLoops.sol\":181:182  3 */\n      0x03\n        /* \"contracts/ForAndWhileLoops.sol\":177:178  i */\n      dup2\n        /* \"contracts/ForAndWhileLoops.sol\":177:182  i < 3 */\n      lt\n        /* \"contracts/ForAndWhileLoops.sol\":174:225  if(i < 3) {... */\n      iszero\n      tag_10\n      jumpi\n        /* \"contracts/ForAndWhileLoops.sol\":202:210  continue */\n      jump(tag_9)\n        /* \"contracts/ForAndWhileLoops.sol\":174:225  if(i < 3) {... */\n    tag_10:\n        /* \"contracts/ForAndWhileLoops.sol\":247:248  5 */\n      0x05\n        /* \"contracts/ForAndWhileLoops.sol\":242:243  i */\n      dup2\n        /* \"contracts/ForAndWhileLoops.sol\":242:248  i == 5 */\n      eq\n        /* \"contracts/ForAndWhileLoops.sol\":239:288  if(i == 5) {... */\n      iszero\n      tag_11\n      jumpi\n        /* \"contracts/ForAndWhileLoops.sol\":268:273  break */\n      jump(tag_8)\n        /* \"contracts/ForAndWhileLoops.sol\":239:288  if(i == 5) {... */\n    tag_11:\n        /* \"contracts/ForAndWhileLoops.sol\":131:298  for(uint i = 0; i < 10; i++) {... */\n    tag_9:\n        /* \"contracts/ForAndWhileLoops.sol\":155:158  i++ */\n      dup1\n      dup1\n      tag_12\n      swap1\n      tag_13\n      jump\t// in\n    tag_12:\n      swap2\n      pop\n      pop\n        /* \"contracts/ForAndWhileLoops.sol\":131:298  for(uint i = 0; i < 10; i++) {... */\n      jump(tag_7)\n    tag_8:\n      pop\n        /* \"contracts/ForAndWhileLoops.sol\":308:314  uint j */\n      0x00\n        /* \"contracts/ForAndWhileLoops.sol\":328:369  while(j < 3) {... */\n    tag_14:\n        /* \"contracts/ForAndWhileLoops.sol\":338:339  3 */\n      0x03\n        /* \"contracts/ForAndWhileLoops.sol\":334:335  j */\n      dup2\n        /* \"contracts/ForAndWhileLoops.sol\":334:339  j < 3 */\n      lt\n        /* \"contracts/ForAndWhileLoops.sol\":328:369  while(j < 3) {... */\n      iszero\n      tag_15\n      jumpi\n        /* \"contracts/ForAndWhileLoops.sol\":355:358  j++ */\n      dup1\n      dup1\n      tag_16\n      swap1\n      tag_13\n      jump\t// in\n    tag_16:\n      swap2\n      pop\n      pop\n        /* \"contracts/ForAndWhileLoops.sol\":328:369  while(j < 3) {... */\n      jump(tag_14)\n    tag_15:\n        /* \"contracts/ForAndWhileLoops.sol\":121:375  {... */\n      pop\n        /* \"contracts/ForAndWhileLoops.sol\":90:375  function loops() external pure {... */\n      jump\t// out\n        /* \"#utility.yul\":7:84   */\n    tag_18:\n        /* \"#utility.yul\":44:51   */\n      0x00\n        /* \"#utility.yul\":73:78   */\n      dup2\n        /* \"#utility.yul\":62:78   */\n      swap1\n      pop\n        /* \"#utility.yul\":7:84   */\n      swap2\n      swap1\n      pop\n      jump\t// out\n        /* \"#utility.yul\":90:323   */\n    tag_13:\n        /* \"#utility.yul\":129:132   */\n      0x00\n        /* \"#utility.yul\":152:176   */\n      tag_21\n        /* \"#utility.yul\":170:175   */\n      dup3\n        /* \"#utility.yul\":152:176   */\n      tag_18\n      jump\t// in\n    tag_21:\n        /* \"#utility.yul\":143:176   */\n      swap2\n      pop\n        /* \"#utility.yul\":198:264   */\n      0xffffffffffffffffffffffffffffffffffffffffffffffffffffffffffffffff\n        /* \"#utility.yul\":191:196   */\n      dup3\n        /* \"#utility.yul\":188:265   */\n      eq\n        /* \"#utility.yul\":185:288   */\n      iszero\n      tag_22\n      jumpi\n        /* \"#utility.yul\":268:286   */\n      tag_23\n      tag_24\n      jump\t// in\n    tag_23:\n        /* \"#utility.yul\":185:288   */\n    tag_22:\n        /* \"#utility.yul\":315:316   */\n      0x01\n        /* \"#utility.yul\":308:313   */\n      dup3\n        /* \"#utility.yul\":304:317   */\n      add\n        /* \"#utility.yul\":297:317   */\n      swap1\n      pop\n        /* \"#utility.yul\":90:323   */\n      swap2\n      swap1\n      pop\n      jump\t// out\n        /* \"#utility.yul\":329:509   */\n    tag_24:\n        /* \"#utility.yul\":377:454   */\n      0x4e487b7100000000000000000000000000000000000000000000000000000000\n        /* \"#utility.yul\":374:375   */\n      0x00\n        /* \"#utility.yul\":367:455   */\n      mstore\n        /* \"#utility.yul\":474:478   */\n      0x11\n        /* \"#utility.yul\":471:472   */\n      0x04\n        /* \"#utility.yul\":464:479   */\n      mstore\n        /* \"#utility.yul\":498:502   */\n      0x24\n        /* \"#utility.yul\":495:496   */\n      0x00\n        /* \"#utility.yul\":488:503   */\n      revert\n\n    auxdata: 0xa2646970667358221220ed47296ee75bae3121636072ab4275449a2c77f286fce04f9f20aa0a8117ab1f64736f6c63430008070033\n}\n",
				"bytecode": {
					"linkReferences": {},
					"object": "608060405234801561001057600080fd5b50610151806100206000396000f3fe608060405234801561001057600080fd5b506004361061002b5760003560e01c8063938b9ceb14610030575b600080fd5b61003861003a565b005b60005b600a81101561007657600381101561005457610063565b600581141561006257610076565b5b808061006e906100a3565b91505061003d565b5060005b600381101561009657808061008e906100a3565b91505061007a565b50565b6000819050919050565b60006100ae82610099565b91507fffffffffffffffffffffffffffffffffffffffffffffffffffffffffffffffff8214156100e1576100e06100ec565b5b600182019050919050565b7f4e487b7100000000000000000000000000000000000000000000000000000000600052601160045260246000fdfea2646970667358221220ed47296ee75bae3121636072ab4275449a2c77f286fce04f9f20aa0a8117ab1f64736f6c63430008070033",
					"opcodes": "PUSH1 0x80 PUSH1 0x40 MSTORE CALLVALUE DUP1 ISZERO PUSH2 0x10 JUMPI PUSH1 0x0 DUP1 REVERT JUMPDEST POP PUSH2 0x151 DUP1 PUSH2 0x20 PUSH1 0x0 CODECOPY PUSH1 0x0 RETURN INVALID PUSH1 0x80 PUSH1 0x40 MSTORE CALLVALUE DUP1 ISZERO PUSH2 0x10 JUMPI PUSH1 0x0 DUP1 REVERT JUMPDEST POP PUSH1 0x4 CALLDATASIZE LT PUSH2 0x2B JUMPI PUSH1 0x0 CALLDATALOAD PUSH1 0xE0 SHR DUP1 PUSH4 0x938B9CEB EQ PUSH2 0x30 JUMPI JUMPDEST PUSH1 0x0 DUP1 REVERT JUMPDEST PUSH2 0x38 PUSH2 0x3A JUMP JUMPDEST STOP JUMPDEST PUSH1 0x0 JUMPDEST PUSH1 0xA DUP2 LT ISZERO PUSH2 0x76 JUMPI PUSH1 0x3 DUP2 LT ISZERO PUSH2 0x54 JUMPI PUSH2 0x63 JUMP JUMPDEST PUSH1 0x5 DUP2 EQ ISZERO PUSH2 0x62 JUMPI PUSH2 0x76 JUMP JUMPDEST JUMPDEST DUP1 DUP1 PUSH2 0x6E SWAP1 PUSH2 0xA3 JUMP JUMPDEST SWAP2 POP POP PUSH2 0x3D JUMP JUMPDEST POP PUSH1 0x0 JUMPDEST PUSH1 0x3 DUP2 LT ISZERO PUSH2 0x96 JUMPI DUP1 DUP1 PUSH2 0x8E SWAP1 PUSH2 0xA3 JUMP JUMPDEST SWAP2 POP POP PUSH2 0x7A JUMP JUMPDEST POP JUMP JUMPDEST PUSH1 0x0 DUP2 SWAP1 POP SWAP2 SWAP1 POP JUMP JUMPDEST PUSH1 0x0 PUSH2 0xAE DUP3 PUSH2 0x99 JUMP JUMPDEST SWAP2 POP PUSH32 0xFFFFFFFFFFFFFFFFFFFFFFFFFFFFFFFFFFFFFFFFFFFFFFFFFFFFFFFFFFFFFFFF DUP3 EQ ISZERO PUSH2 0xE1 JUMPI PUSH2 0xE0 PUSH2 0xEC JUMP JUMPDEST JUMPDEST PUSH1 0x1 DUP3 ADD SWAP1 POP SWAP2 SWAP1 POP JUMP JUMPDEST PUSH32 0x4E487B7100000000000000000000000000000000000000000000000000000000 PUSH1 0x0 MSTORE PUSH1 0x11 PUSH1 0x4 MSTORE PUSH1 0x24 PUSH1 0x0 REVERT INVALID LOG2 PUSH5 0x6970667358 0x22 SLT KECCAK256 0xED SELFBALANCE 0x29 PUSH15 0xE75BAE3121636072AB4275449A2C77 CALLCODE DUP7 0xFC 0xE0 0x4F SWAP16 KECCAK256 0xAA EXP DUP2 OR 0xAB 0x1F PUSH5 0x736F6C6343 STOP ADDMOD SMOD STOP CALLER "
				},
				"gasEstimates": {
					"creation": {
						"codeDepositCost": "67400",
						"executionCost": "117",
						"totalCost": "67517"
					},
					"external": {
						"loops()": "infinite"
					}
				},
				"methodIdentifiers": {
					"loops()": "938b9ceb"
				}
			},
			"storageLayout": {
				"storage": [],
				"types": null
			},
			"userdoc": {
				"kind": "user",
				"methods": {},
				"version": 1
			}
		}
	}
}