{
	"contracts/ViewPureFunctions-8.sol": {
		"ViewPureFunctions": {
			"abi": [
				{
					"inputs": [
						{
							"internalType": "uint256",
							"name": "x",
							"type": "uint256"
						},
						{
							"internalType": "uint256",
							"name": "y",
							"type": "uint256"
						}
					],
					"name": "addToNum",
					"outputs": [
						{
							"internalType": "uint256",
							"name": "",
							"type": "uint256"
						}
					],
					"stateMutability": "view",
					"type": "function"
				},
				{
					"inputs": [],
					"name": "num",
					"outputs": [
						{
							"internalType": "uint256",
							"name": "",
							"type": "uint256"
						}
					],
					"stateMutability": "view",
					"type": "function"
				},
				{
					"inputs": [],
					"name": "pureFunc",
					"outputs": [
						{
							"internalType": "uint256",
							"name": "",
							"type": "uint256"
						}
					],
					"stateMutability": "pure",
					"type": "function"
				},
				{
					"inputs": [],
					"name": "viewFunc",
					"outputs": [
						{
							"internalType": "uint256",
							"name": "",
							"type": "uint256"
						}
					],
					"stateMutability": "view",
					"type": "function"
				}
			],
			"devdoc": {
				"kind": "dev",
				"methods": {},
				"version": 1
			},
			"evm": {
				"assembly": "    /* \"contracts/ViewPureFunctions-8.sol\":58:558  contract ViewPureFunctions {... */\n  mstore(0x40, 0x80)\n  callvalue\n  dup1\n  iszero\n  tag_1\n  jumpi\n  0x00\n  dup1\n  revert\ntag_1:\n  pop\n  dataSize(sub_0)\n  dup1\n  dataOffset(sub_0)\n  0x00\n  codecopy\n  0x00\n  return\nstop\n\nsub_0: assembly {\n        /* \"contracts/ViewPureFunctions-8.sol\":58:558  contract ViewPureFunctions {... */\n      mstore(0x40, 0x80)\n      callvalue\n      dup1\n      iszero\n      tag_1\n      jumpi\n      0x00\n      dup1\n      revert\n    tag_1:\n      pop\n      jumpi(tag_2, lt(calldatasize, 0x04))\n      shr(0xe0, calldataload(0x00))\n      dup1\n      0x231e18a9\n      eq\n      tag_3\n      jumpi\n      dup1\n      0x4e70b1dc\n      eq\n      tag_4\n      jumpi\n      dup1\n      0x7f2857b6\n      eq\n      tag_5\n      jumpi\n      dup1\n      0xefe0cc0c\n      eq\n      tag_6\n      jumpi\n    tag_2:\n      0x00\n      dup1\n      revert\n        /* \"contracts/ViewPureFunctions-8.sol\":382:456  function pureFunc() external pure returns (uint) {... */\n    tag_3:\n      tag_7\n      tag_8\n      jump\t// in\n    tag_7:\n      mload(0x40)\n      tag_9\n      swap2\n      swap1\n      tag_10\n      jump\t// in\n    tag_9:\n      mload(0x40)\n      dup1\n      swap2\n      sub\n      swap1\n      return\n        /* \"contracts/ViewPureFunctions-8.sol\":91:106  uint public num */\n    tag_4:\n      tag_11\n      tag_12\n      jump\t// in\n    tag_11:\n      mload(0x40)\n      tag_13\n      swap2\n      swap1\n      tag_10\n      jump\t// in\n    tag_13:\n      mload(0x40)\n      dup1\n      swap2\n      sub\n      swap1\n      return\n        /* \"contracts/ViewPureFunctions-8.sol\":300:376  function viewFunc() external view returns (uint) {... */\n    tag_5:\n      tag_14\n      tag_15\n      jump\t// in\n    tag_14:\n      mload(0x40)\n      tag_16\n      swap2\n      swap1\n      tag_10\n      jump\t// in\n    tag_16:\n      mload(0x40)\n      dup1\n      swap2\n      sub\n      swap1\n      return\n        /* \"contracts/ViewPureFunctions-8.sol\":462:556  function addToNum(uint x, uint y) external view returns (uint) {... */\n    tag_6:\n      tag_17\n      0x04\n      dup1\n      calldatasize\n      sub\n      dup2\n      add\n      swap1\n      tag_18\n      swap2\n      swap1\n      tag_19\n      jump\t// in\n    tag_18:\n      tag_20\n      jump\t// in\n    tag_17:\n      mload(0x40)\n      tag_21\n      swap2\n      swap1\n      tag_10\n      jump\t// in\n    tag_21:\n      mload(0x40)\n      dup1\n      swap2\n      sub\n      swap1\n      return\n        /* \"contracts/ViewPureFunctions-8.sol\":382:456  function pureFunc() external pure returns (uint) {... */\n    tag_8:\n        /* \"contracts/ViewPureFunctions-8.sol\":425:429  uint */\n      0x00\n        /* \"contracts/ViewPureFunctions-8.sol\":448:449  1 */\n      0x01\n        /* \"contracts/ViewPureFunctions-8.sol\":441:449  return 1 */\n      swap1\n      pop\n        /* \"contracts/ViewPureFunctions-8.sol\":382:456  function pureFunc() external pure returns (uint) {... */\n      swap1\n      jump\t// out\n        /* \"contracts/ViewPureFunctions-8.sol\":91:106  uint public num */\n    tag_12:\n      sload(0x00)\n      dup2\n      jump\t// out\n        /* \"contracts/ViewPureFunctions-8.sol\":300:376  function viewFunc() external view returns (uint) {... */\n    tag_15:\n        /* \"contracts/ViewPureFunctions-8.sol\":343:347  uint */\n      0x00\n        /* \"contracts/ViewPureFunctions-8.sol\":366:369  num */\n      dup1\n      sload\n        /* \"contracts/ViewPureFunctions-8.sol\":359:369  return num */\n      swap1\n      pop\n        /* \"contracts/ViewPureFunctions-8.sol\":300:376  function viewFunc() external view returns (uint) {... */\n      swap1\n      jump\t// out\n        /* \"contracts/ViewPureFunctions-8.sol\":462:556  function addToNum(uint x, uint y) external view returns (uint) {... */\n    tag_20:\n        /* \"contracts/ViewPureFunctions-8.sol\":519:523  uint */\n      0x00\n        /* \"contracts/ViewPureFunctions-8.sol\":548:549  x */\n      dup3\n        /* \"contracts/ViewPureFunctions-8.sol\":542:545  num */\n      sload(0x00)\n        /* \"contracts/ViewPureFunctions-8.sol\":542:549  num + x */\n      tag_25\n      swap2\n      swap1\n      tag_26\n      jump\t// in\n    tag_25:\n        /* \"contracts/ViewPureFunctions-8.sol\":535:549  return num + x */\n      swap1\n      pop\n        /* \"contracts/ViewPureFunctions-8.sol\":462:556  function addToNum(uint x, uint y) external view returns (uint) {... */\n      swap3\n      swap2\n      pop\n      pop\n      jump\t// out\n        /* \"#utility.yul\":7:146   */\n    tag_28:\n        /* \"#utility.yul\":53:58   */\n      0x00\n        /* \"#utility.yul\":91:97   */\n      dup2\n        /* \"#utility.yul\":78:98   */\n      calldataload\n        /* \"#utility.yul\":69:98   */\n      swap1\n      pop\n        /* \"#utility.yul\":107:140   */\n      tag_30\n        /* \"#utility.yul\":134:139   */\n      dup2\n        /* \"#utility.yul\":107:140   */\n      tag_31\n      jump\t// in\n    tag_30:\n        /* \"#utility.yul\":7:146   */\n      swap3\n      swap2\n      pop\n      pop\n      jump\t// out\n        /* \"#utility.yul\":152:626   */\n    tag_19:\n        /* \"#utility.yul\":220:226   */\n      0x00\n        /* \"#utility.yul\":228:234   */\n      dup1\n        /* \"#utility.yul\":277:279   */\n      0x40\n        /* \"#utility.yul\":265:274   */\n      dup4\n        /* \"#utility.yul\":256:263   */\n      dup6\n        /* \"#utility.yul\":252:275   */\n      sub\n        /* \"#utility.yul\":248:280   */\n      slt\n        /* \"#utility.yul\":245:364   */\n      iszero\n      tag_33\n      jumpi\n        /* \"#utility.yul\":283:362   */\n      tag_34\n      tag_35\n      jump\t// in\n    tag_34:\n        /* \"#utility.yul\":245:364   */\n    tag_33:\n        /* \"#utility.yul\":403:404   */\n      0x00\n        /* \"#utility.yul\":428:481   */\n      tag_36\n        /* \"#utility.yul\":473:480   */\n      dup6\n        /* \"#utility.yul\":464:470   */\n      dup3\n        /* \"#utility.yul\":453:462   */\n      dup7\n        /* \"#utility.yul\":449:471   */\n      add\n        /* \"#utility.yul\":428:481   */\n      tag_28\n      jump\t// in\n    tag_36:\n        /* \"#utility.yul\":418:481   */\n      swap3\n      pop\n        /* \"#utility.yul\":374:491   */\n      pop\n        /* \"#utility.yul\":530:532   */\n      0x20\n        /* \"#utility.yul\":556:609   */\n      tag_37\n        /* \"#utility.yul\":601:608   */\n      dup6\n        /* \"#utility.yul\":592:598   */\n      dup3\n        /* \"#utility.yul\":581:590   */\n      dup7\n        /* \"#utility.yul\":577:599   */\n      add\n        /* \"#utility.yul\":556:609   */\n      tag_28\n      jump\t// in\n    tag_37:\n        /* \"#utility.yul\":546:609   */\n      swap2\n      pop\n        /* \"#utility.yul\":501:619   */\n      pop\n        /* \"#utility.yul\":152:626   */\n      swap3\n      pop\n      swap3\n      swap1\n      pop\n      jump\t// out\n        /* \"#utility.yul\":632:750   */\n    tag_38:\n        /* \"#utility.yul\":719:743   */\n      tag_40\n        /* \"#utility.yul\":737:742   */\n      dup2\n        /* \"#utility.yul\":719:743   */\n      tag_41\n      jump\t// in\n    tag_40:\n        /* \"#utility.yul\":714:717   */\n      dup3\n        /* \"#utility.yul\":707:744   */\n      mstore\n        /* \"#utility.yul\":632:750   */\n      pop\n      pop\n      jump\t// out\n        /* \"#utility.yul\":756:978   */\n    tag_10:\n        /* \"#utility.yul\":849:853   */\n      0x00\n        /* \"#utility.yul\":887:889   */\n      0x20\n        /* \"#utility.yul\":876:885   */\n      dup3\n        /* \"#utility.yul\":872:890   */\n      add\n        /* \"#utility.yul\":864:890   */\n      swap1\n      pop\n        /* \"#utility.yul\":900:971   */\n      tag_43\n        /* \"#utility.yul\":968:969   */\n      0x00\n        /* \"#utility.yul\":957:966   */\n      dup4\n        /* \"#utility.yul\":953:970   */\n      add\n        /* \"#utility.yul\":944:950   */\n      dup5\n        /* \"#utility.yul\":900:971   */\n      tag_38\n      jump\t// in\n    tag_43:\n        /* \"#utility.yul\":756:978   */\n      swap3\n      swap2\n      pop\n      pop\n      jump\t// out\n        /* \"#utility.yul\":1065:1370   */\n    tag_26:\n        /* \"#utility.yul\":1105:1108   */\n      0x00\n        /* \"#utility.yul\":1124:1144   */\n      tag_47\n        /* \"#utility.yul\":1142:1143   */\n      dup3\n        /* \"#utility.yul\":1124:1144   */\n      tag_41\n      jump\t// in\n    tag_47:\n        /* \"#utility.yul\":1119:1144   */\n      swap2\n      pop\n        /* \"#utility.yul\":1158:1178   */\n      tag_48\n        /* \"#utility.yul\":1176:1177   */\n      dup4\n        /* \"#utility.yul\":1158:1178   */\n      tag_41\n      jump\t// in\n    tag_48:\n        /* \"#utility.yul\":1153:1178   */\n      swap3\n      pop\n        /* \"#utility.yul\":1312:1313   */\n      dup3\n        /* \"#utility.yul\":1244:1310   */\n      0xffffffffffffffffffffffffffffffffffffffffffffffffffffffffffffffff\n        /* \"#utility.yul\":1240:1314   */\n      sub\n        /* \"#utility.yul\":1237:1238   */\n      dup3\n        /* \"#utility.yul\":1234:1315   */\n      gt\n        /* \"#utility.yul\":1231:1338   */\n      iszero\n      tag_49\n      jumpi\n        /* \"#utility.yul\":1318:1336   */\n      tag_50\n      tag_51\n      jump\t// in\n    tag_50:\n        /* \"#utility.yul\":1231:1338   */\n    tag_49:\n        /* \"#utility.yul\":1362:1363   */\n      dup3\n        /* \"#utility.yul\":1359:1360   */\n      dup3\n        /* \"#utility.yul\":1355:1364   */\n      add\n        /* \"#utility.yul\":1348:1364   */\n      swap1\n      pop\n        /* \"#utility.yul\":1065:1370   */\n      swap3\n      swap2\n      pop\n      pop\n      jump\t// out\n        /* \"#utility.yul\":1376:1453   */\n    tag_41:\n        /* \"#utility.yul\":1413:1420   */\n      0x00\n        /* \"#utility.yul\":1442:1447   */\n      dup2\n        /* \"#utility.yul\":1431:1447   */\n      swap1\n      pop\n        /* \"#utility.yul\":1376:1453   */\n      swap2\n      swap1\n      pop\n      jump\t// out\n        /* \"#utility.yul\":1459:1639   */\n    tag_51:\n        /* \"#utility.yul\":1507:1584   */\n      0x4e487b7100000000000000000000000000000000000000000000000000000000\n        /* \"#utility.yul\":1504:1505   */\n      0x00\n        /* \"#utility.yul\":1497:1585   */\n      mstore\n        /* \"#utility.yul\":1604:1608   */\n      0x11\n        /* \"#utility.yul\":1601:1602   */\n      0x04\n        /* \"#utility.yul\":1594:1609   */\n      mstore\n        /* \"#utility.yul\":1628:1632   */\n      0x24\n        /* \"#utility.yul\":1625:1626   */\n      0x00\n        /* \"#utility.yul\":1618:1633   */\n      revert\n        /* \"#utility.yul\":1768:1885   */\n    tag_35:\n        /* \"#utility.yul\":1877:1878   */\n      0x00\n        /* \"#utility.yul\":1874:1875   */\n      dup1\n        /* \"#utility.yul\":1867:1879   */\n      revert\n        /* \"#utility.yul\":1891:2013   */\n    tag_31:\n        /* \"#utility.yul\":1964:1988   */\n      tag_58\n        /* \"#utility.yul\":1982:1987   */\n      dup2\n        /* \"#utility.yul\":1964:1988   */\n      tag_41\n      jump\t// in\n    tag_58:\n        /* \"#utility.yul\":1957:1962   */\n      dup2\n        /* \"#utility.yul\":1954:1989   */\n      eq\n        /* \"#utility.yul\":1944:2007   */\n      tag_59\n      jumpi\n        /* \"#utility.yul\":2003:2004   */\n      0x00\n        /* \"#utility.yul\":2000:2001   */\n      dup1\n        /* \"#utility.yul\":1993:2005   */\n      revert\n        /* \"#utility.yul\":1944:2007   */\n    tag_59:\n        /* \"#utility.yul\":1891:2013   */\n      pop\n      jump\t// out\n\n    auxdata: 0xa2646970667358221220ca7921de3cda41074e55cb945a3b36b3fab69c435637602691f4c0b2402507a364736f6c63430008070033\n}\n",
				"bytecode": {
					"linkReferences": {},
					"object": "608060405234801561001057600080fd5b5061026b806100206000396000f3fe608060405234801561001057600080fd5b506004361061004c5760003560e01c8063231e18a9146100515780634e70b1dc1461006f5780637f2857b61461008d578063efe0cc0c146100ab575b600080fd5b6100596100db565b604051610066919061016f565b60405180910390f35b6100776100e4565b604051610084919061016f565b60405180910390f35b6100956100ea565b6040516100a2919061016f565b60405180910390f35b6100c560048036038101906100c09190610120565b6100f3565b6040516100d2919061016f565b60405180910390f35b60006001905090565b60005481565b60008054905090565b600082600054610103919061018a565b905092915050565b60008135905061011a8161021e565b92915050565b6000806040838503121561013757610136610219565b5b60006101458582860161010b565b92505060206101568582860161010b565b9150509250929050565b610169816101e0565b82525050565b60006020820190506101846000830184610160565b92915050565b6000610195826101e0565b91506101a0836101e0565b9250827fffffffffffffffffffffffffffffffffffffffffffffffffffffffffffffffff038211156101d5576101d46101ea565b5b828201905092915050565b6000819050919050565b7f4e487b7100000000000000000000000000000000000000000000000000000000600052601160045260246000fd5b600080fd5b610227816101e0565b811461023257600080fd5b5056fea2646970667358221220ca7921de3cda41074e55cb945a3b36b3fab69c435637602691f4c0b2402507a364736f6c63430008070033",
					"opcodes": "PUSH1 0x80 PUSH1 0x40 MSTORE CALLVALUE DUP1 ISZERO PUSH2 0x10 JUMPI PUSH1 0x0 DUP1 REVERT JUMPDEST POP PUSH2 0x26B DUP1 PUSH2 0x20 PUSH1 0x0 CODECOPY PUSH1 0x0 RETURN INVALID PUSH1 0x80 PUSH1 0x40 MSTORE CALLVALUE DUP1 ISZERO PUSH2 0x10 JUMPI PUSH1 0x0 DUP1 REVERT JUMPDEST POP PUSH1 0x4 CALLDATASIZE LT PUSH2 0x4C JUMPI PUSH1 0x0 CALLDATALOAD PUSH1 0xE0 SHR DUP1 PUSH4 0x231E18A9 EQ PUSH2 0x51 JUMPI DUP1 PUSH4 0x4E70B1DC EQ PUSH2 0x6F JUMPI DUP1 PUSH4 0x7F2857B6 EQ PUSH2 0x8D JUMPI DUP1 PUSH4 0xEFE0CC0C EQ PUSH2 0xAB JUMPI JUMPDEST PUSH1 0x0 DUP1 REVERT JUMPDEST PUSH2 0x59 PUSH2 0xDB JUMP JUMPDEST PUSH1 0x40 MLOAD PUSH2 0x66 SWAP2 SWAP1 PUSH2 0x16F JUMP JUMPDEST PUSH1 0x40 MLOAD DUP1 SWAP2 SUB SWAP1 RETURN JUMPDEST PUSH2 0x77 PUSH2 0xE4 JUMP JUMPDEST PUSH1 0x40 MLOAD PUSH2 0x84 SWAP2 SWAP1 PUSH2 0x16F JUMP JUMPDEST PUSH1 0x40 MLOAD DUP1 SWAP2 SUB SWAP1 RETURN JUMPDEST PUSH2 0x95 PUSH2 0xEA JUMP JUMPDEST PUSH1 0x40 MLOAD PUSH2 0xA2 SWAP2 SWAP1 PUSH2 0x16F JUMP JUMPDEST PUSH1 0x40 MLOAD DUP1 SWAP2 SUB SWAP1 RETURN JUMPDEST PUSH2 0xC5 PUSH1 0x4 DUP1 CALLDATASIZE SUB DUP2 ADD SWAP1 PUSH2 0xC0 SWAP2 SWAP1 PUSH2 0x120 JUMP JUMPDEST PUSH2 0xF3 JUMP JUMPDEST PUSH1 0x40 MLOAD PUSH2 0xD2 SWAP2 SWAP1 PUSH2 0x16F JUMP JUMPDEST PUSH1 0x40 MLOAD DUP1 SWAP2 SUB SWAP1 RETURN JUMPDEST PUSH1 0x0 PUSH1 0x1 SWAP1 POP SWAP1 JUMP JUMPDEST PUSH1 0x0 SLOAD DUP2 JUMP JUMPDEST PUSH1 0x0 DUP1 SLOAD SWAP1 POP SWAP1 JUMP JUMPDEST PUSH1 0x0 DUP3 PUSH1 0x0 SLOAD PUSH2 0x103 SWAP2 SWAP1 PUSH2 0x18A JUMP JUMPDEST SWAP1 POP SWAP3 SWAP2 POP POP JUMP JUMPDEST PUSH1 0x0 DUP2 CALLDATALOAD SWAP1 POP PUSH2 0x11A DUP2 PUSH2 0x21E JUMP JUMPDEST SWAP3 SWAP2 POP POP JUMP JUMPDEST PUSH1 0x0 DUP1 PUSH1 0x40 DUP4 DUP6 SUB SLT ISZERO PUSH2 0x137 JUMPI PUSH2 0x136 PUSH2 0x219 JUMP JUMPDEST JUMPDEST PUSH1 0x0 PUSH2 0x145 DUP6 DUP3 DUP7 ADD PUSH2 0x10B JUMP JUMPDEST SWAP3 POP POP PUSH1 0x20 PUSH2 0x156 DUP6 DUP3 DUP7 ADD PUSH2 0x10B JUMP JUMPDEST SWAP2 POP POP SWAP3 POP SWAP3 SWAP1 POP JUMP JUMPDEST PUSH2 0x169 DUP2 PUSH2 0x1E0 JUMP JUMPDEST DUP3 MSTORE POP POP JUMP JUMPDEST PUSH1 0x0 PUSH1 0x20 DUP3 ADD SWAP1 POP PUSH2 0x184 PUSH1 0x0 DUP4 ADD DUP5 PUSH2 0x160 JUMP JUMPDEST SWAP3 SWAP2 POP POP JUMP JUMPDEST PUSH1 0x0 PUSH2 0x195 DUP3 PUSH2 0x1E0 JUMP JUMPDEST SWAP2 POP PUSH2 0x1A0 DUP4 PUSH2 0x1E0 JUMP JUMPDEST SWAP3 POP DUP3 PUSH32 0xFFFFFFFFFFFFFFFFFFFFFFFFFFFFFFFFFFFFFFFFFFFFFFFFFFFFFFFFFFFFFFFF SUB DUP3 GT ISZERO PUSH2 0x1D5 JUMPI PUSH2 0x1D4 PUSH2 0x1EA JUMP JUMPDEST JUMPDEST DUP3 DUP3 ADD SWAP1 POP SWAP3 SWAP2 POP POP JUMP JUMPDEST PUSH1 0x0 DUP2 SWAP1 POP SWAP2 SWAP1 POP JUMP JUMPDEST PUSH32 0x4E487B7100000000000000000000000000000000000000000000000000000000 PUSH1 0x0 MSTORE PUSH1 0x11 PUSH1 0x4 MSTORE PUSH1 0x24 PUSH1 0x0 REVERT JUMPDEST PUSH1 0x0 DUP1 REVERT JUMPDEST PUSH2 0x227 DUP2 PUSH2 0x1E0 JUMP JUMPDEST DUP2 EQ PUSH2 0x232 JUMPI PUSH1 0x0 DUP1 REVERT JUMPDEST POP JUMP INVALID LOG2 PUSH5 0x6970667358 0x22 SLT KECCAK256 0xCA PUSH26 0x21DE3CDA41074E55CB945A3B36B3FAB69C435637602691F4C0B2 BLOCKHASH 0x25 SMOD LOG3 PUSH5 0x736F6C6343 STOP ADDMOD SMOD STOP CALLER "
				},
				"gasEstimates": {
					"creation": {
						"codeDepositCost": "123800",
						"executionCost": "171",
						"totalCost": "123971"
					},
					"external": {
						"addToNum(uint256,uint256)": "infinite",
						"num()": "2429",
						"pureFunc()": "315",
						"viewFunc()": "2459"
					}
				},
				"methodIdentifiers": {
					"addToNum(uint256,uint256)": "efe0cc0c",
					"num()": "4e70b1dc",
					"pureFunc()": "231e18a9",
					"viewFunc()": "7f2857b6"
				}
			},
			"storageLayout": {
				"storage": [
					{
						"astId": 3,
						"contract": "contracts/ViewPureFunctions-8.sol:ViewPureFunctions",
						"label": "num",
						"offset": 0,
						"slot": "0",
						"type": "t_uint256"
					}
				],
				"types": {
					"t_uint256": {
						"encoding": "inplace",
						"label": "uint256",
						"numberOfBytes": "32"
					}
				}
			},
			"userdoc": {
				"kind": "user",
				"methods": {},
				"version": 1
			}
		}
	}
}