{
	"contracts/Errors-14.sol": {
		"Errors": {
			"abi": [
				{
					"inputs": [],
					"name": "num",
					"outputs": [
						{
							"internalType": "uint256",
							"name": "",
							"type": "uint256"
						}
					],
					"stateMutability": "view",
					"type": "function"
				},
				{
					"inputs": [],
					"name": "testAssert",
					"outputs": [],
					"stateMutability": "view",
					"type": "function"
				},
				{
					"inputs": [
						{
							"internalType": "uint256",
							"name": "_i",
							"type": "uint256"
						}
					],
					"name": "testRequire",
					"outputs": [],
					"stateMutability": "pure",
					"type": "function"
				},
				{
					"inputs": [
						{
							"internalType": "uint256",
							"name": "_i",
							"type": "uint256"
						}
					],
					"name": "testRevert",
					"outputs": [],
					"stateMutability": "pure",
					"type": "function"
				}
			],
			"devdoc": {
				"kind": "dev",
				"methods": {},
				"version": 1
			},
			"evm": {
				"assembly": "    /* \"contracts/Errors-14.sol\":157:720  contract Errors {... */\n  mstore(0x40, 0x80)\n    /* \"contracts/Errors-14.sol\":657:660  112 */\n  0x70\n    /* \"contracts/Errors-14.sol\":639:660  uint public num = 112 */\n  0x00\n  sstore\n    /* \"contracts/Errors-14.sol\":157:720  contract Errors {... */\n  callvalue\n  dup1\n  iszero\n  tag_1\n  jumpi\n  0x00\n  dup1\n  revert\ntag_1:\n  pop\n  dataSize(sub_0)\n  dup1\n  dataOffset(sub_0)\n  0x00\n  codecopy\n  0x00\n  return\nstop\n\nsub_0: assembly {\n        /* \"contracts/Errors-14.sol\":157:720  contract Errors {... */\n      mstore(0x40, 0x80)\n      callvalue\n      dup1\n      iszero\n      tag_1\n      jumpi\n      0x00\n      dup1\n      revert\n    tag_1:\n      pop\n      jumpi(tag_2, lt(calldatasize, 0x04))\n      shr(0xe0, calldataload(0x00))\n      dup1\n      0x20987767\n      eq\n      tag_3\n      jumpi\n      dup1\n      0x2b813bc0\n      eq\n      tag_4\n      jumpi\n      dup1\n      0x4e70b1dc\n      eq\n      tag_5\n      jumpi\n      dup1\n      0xb8bd717f\n      eq\n      tag_6\n      jumpi\n    tag_2:\n      0x00\n      dup1\n      revert\n        /* \"contracts/Errors-14.sol\":305:632  function testRevert(uint _i) public pure {... */\n    tag_3:\n      tag_7\n      0x04\n      dup1\n      calldatasize\n      sub\n      dup2\n      add\n      swap1\n      tag_8\n      swap2\n      swap1\n      tag_9\n      jump\t// in\n    tag_8:\n      tag_10\n      jump\t// in\n    tag_7:\n      stop\n        /* \"contracts/Errors-14.sol\":667:717  function testAssert() public view {... */\n    tag_4:\n      tag_11\n      tag_12\n      jump\t// in\n    tag_11:\n      stop\n        /* \"contracts/Errors-14.sol\":639:660  uint public num = 112 */\n    tag_5:\n      tag_13\n      tag_14\n      jump\t// in\n    tag_13:\n      mload(0x40)\n      tag_15\n      swap2\n      swap1\n      tag_16\n      jump\t// in\n    tag_15:\n      mload(0x40)\n      dup1\n      swap2\n      sub\n      swap1\n      return\n        /* \"contracts/Errors-14.sol\":179:299  function testRequire(uint _i) public pure {... */\n    tag_6:\n      tag_17\n      0x04\n      dup1\n      calldatasize\n      sub\n      dup2\n      add\n      swap1\n      tag_18\n      swap2\n      swap1\n      tag_9\n      jump\t// in\n    tag_18:\n      tag_19\n      jump\t// in\n    tag_17:\n      stop\n        /* \"contracts/Errors-14.sol\":305:632  function testRevert(uint _i) public pure {... */\n    tag_10:\n        /* \"contracts/Errors-14.sol\":431:432  1 */\n      0x01\n        /* \"contracts/Errors-14.sol\":426:428  _i */\n      dup2\n        /* \"contracts/Errors-14.sol\":426:432  _i > 1 */\n      gt\n        /* \"contracts/Errors-14.sol\":423:626  if(_i > 1) {... */\n      iszero\n      tag_21\n      jumpi\n        /* \"contracts/Errors-14.sol\":480:481  5 */\n      0x05\n        /* \"contracts/Errors-14.sol\":475:477  _i */\n      dup2\n        /* \"contracts/Errors-14.sol\":475:481  _i > 5 */\n      gt\n        /* \"contracts/Errors-14.sol\":472:617  if(_i > 5) {... */\n      iszero\n      tag_22\n      jumpi\n        /* \"contracts/Errors-14.sol\":543:545  10 */\n      0x0a\n        /* \"contracts/Errors-14.sol\":538:540  _i */\n      dup2\n        /* \"contracts/Errors-14.sol\":538:545  _i > 10 */\n      gt\n        /* \"contracts/Errors-14.sol\":535:604  if(_i > 10) {... */\n      iszero\n      tag_23\n      jumpi\n        /* \"contracts/Errors-14.sol\":569:585  revert(\"i > 10\") */\n      mload(0x40)\n      0x08c379a000000000000000000000000000000000000000000000000000000000\n      dup2\n      mstore\n      0x04\n      add\n      tag_24\n      swap1\n      tag_25\n      jump\t// in\n    tag_24:\n      mload(0x40)\n      dup1\n      swap2\n      sub\n      swap1\n      revert\n        /* \"contracts/Errors-14.sol\":535:604  if(_i > 10) {... */\n    tag_23:\n        /* \"contracts/Errors-14.sol\":472:617  if(_i > 5) {... */\n    tag_22:\n        /* \"contracts/Errors-14.sol\":423:626  if(_i > 1) {... */\n    tag_21:\n        /* \"contracts/Errors-14.sol\":305:632  function testRevert(uint _i) public pure {... */\n      pop\n      jump\t// out\n        /* \"contracts/Errors-14.sol\":667:717  function testAssert() public view {... */\n    tag_12:\n      jump\t// out\n        /* \"contracts/Errors-14.sol\":639:660  uint public num = 112 */\n    tag_14:\n      sload(0x00)\n      dup2\n      jump\t// out\n        /* \"contracts/Errors-14.sol\":179:299  function testRequire(uint _i) public pure {... */\n    tag_19:\n        /* \"contracts/Errors-14.sol\":244:246  10 */\n      0x0a\n        /* \"contracts/Errors-14.sol\":239:241  _i */\n      dup2\n        /* \"contracts/Errors-14.sol\":239:246  _i < 10 */\n      lt\n        /* \"contracts/Errors-14.sol\":231:271  require(_i < 10, \"i is greater than 10\") */\n      tag_28\n      jumpi\n      mload(0x40)\n      0x08c379a000000000000000000000000000000000000000000000000000000000\n      dup2\n      mstore\n      0x04\n      add\n      tag_29\n      swap1\n      tag_30\n      jump\t// in\n    tag_29:\n      mload(0x40)\n      dup1\n      swap2\n      sub\n      swap1\n      revert\n    tag_28:\n        /* \"contracts/Errors-14.sol\":179:299  function testRequire(uint _i) public pure {... */\n      pop\n      jump\t// out\n        /* \"#utility.yul\":7:146   */\n    tag_32:\n        /* \"#utility.yul\":53:58   */\n      0x00\n        /* \"#utility.yul\":91:97   */\n      dup2\n        /* \"#utility.yul\":78:98   */\n      calldataload\n        /* \"#utility.yul\":69:98   */\n      swap1\n      pop\n        /* \"#utility.yul\":107:140   */\n      tag_34\n        /* \"#utility.yul\":134:139   */\n      dup2\n        /* \"#utility.yul\":107:140   */\n      tag_35\n      jump\t// in\n    tag_34:\n        /* \"#utility.yul\":7:146   */\n      swap3\n      swap2\n      pop\n      pop\n      jump\t// out\n        /* \"#utility.yul\":152:481   */\n    tag_9:\n        /* \"#utility.yul\":211:217   */\n      0x00\n        /* \"#utility.yul\":260:262   */\n      0x20\n        /* \"#utility.yul\":248:257   */\n      dup3\n        /* \"#utility.yul\":239:246   */\n      dup5\n        /* \"#utility.yul\":235:258   */\n      sub\n        /* \"#utility.yul\":231:263   */\n      slt\n        /* \"#utility.yul\":228:347   */\n      iszero\n      tag_37\n      jumpi\n        /* \"#utility.yul\":266:345   */\n      tag_38\n      tag_39\n      jump\t// in\n    tag_38:\n        /* \"#utility.yul\":228:347   */\n    tag_37:\n        /* \"#utility.yul\":386:387   */\n      0x00\n        /* \"#utility.yul\":411:464   */\n      tag_40\n        /* \"#utility.yul\":456:463   */\n      dup5\n        /* \"#utility.yul\":447:453   */\n      dup3\n        /* \"#utility.yul\":436:445   */\n      dup6\n        /* \"#utility.yul\":432:454   */\n      add\n        /* \"#utility.yul\":411:464   */\n      tag_32\n      jump\t// in\n    tag_40:\n        /* \"#utility.yul\":401:464   */\n      swap2\n      pop\n        /* \"#utility.yul\":357:474   */\n      pop\n        /* \"#utility.yul\":152:481   */\n      swap3\n      swap2\n      pop\n      pop\n      jump\t// out\n        /* \"#utility.yul\":487:853   */\n    tag_41:\n        /* \"#utility.yul\":629:632   */\n      0x00\n        /* \"#utility.yul\":650:717   */\n      tag_43\n        /* \"#utility.yul\":714:716   */\n      0x14\n        /* \"#utility.yul\":709:712   */\n      dup4\n        /* \"#utility.yul\":650:717   */\n      tag_44\n      jump\t// in\n    tag_43:\n        /* \"#utility.yul\":643:717   */\n      swap2\n      pop\n        /* \"#utility.yul\":726:819   */\n      tag_45\n        /* \"#utility.yul\":815:818   */\n      dup3\n        /* \"#utility.yul\":726:819   */\n      tag_46\n      jump\t// in\n    tag_45:\n        /* \"#utility.yul\":844:846   */\n      0x20\n        /* \"#utility.yul\":839:842   */\n      dup3\n        /* \"#utility.yul\":835:847   */\n      add\n        /* \"#utility.yul\":828:847   */\n      swap1\n      pop\n        /* \"#utility.yul\":487:853   */\n      swap2\n      swap1\n      pop\n      jump\t// out\n        /* \"#utility.yul\":859:1224   */\n    tag_47:\n        /* \"#utility.yul\":1001:1004   */\n      0x00\n        /* \"#utility.yul\":1022:1088   */\n      tag_49\n        /* \"#utility.yul\":1086:1087   */\n      0x06\n        /* \"#utility.yul\":1081:1084   */\n      dup4\n        /* \"#utility.yul\":1022:1088   */\n      tag_44\n      jump\t// in\n    tag_49:\n        /* \"#utility.yul\":1015:1088   */\n      swap2\n      pop\n        /* \"#utility.yul\":1097:1190   */\n      tag_50\n        /* \"#utility.yul\":1186:1189   */\n      dup3\n        /* \"#utility.yul\":1097:1190   */\n      tag_51\n      jump\t// in\n    tag_50:\n        /* \"#utility.yul\":1215:1217   */\n      0x20\n        /* \"#utility.yul\":1210:1213   */\n      dup3\n        /* \"#utility.yul\":1206:1218   */\n      add\n        /* \"#utility.yul\":1199:1218   */\n      swap1\n      pop\n        /* \"#utility.yul\":859:1224   */\n      swap2\n      swap1\n      pop\n      jump\t// out\n        /* \"#utility.yul\":1230:1348   */\n    tag_52:\n        /* \"#utility.yul\":1317:1341   */\n      tag_54\n        /* \"#utility.yul\":1335:1340   */\n      dup2\n        /* \"#utility.yul\":1317:1341   */\n      tag_55\n      jump\t// in\n    tag_54:\n        /* \"#utility.yul\":1312:1315   */\n      dup3\n        /* \"#utility.yul\":1305:1342   */\n      mstore\n        /* \"#utility.yul\":1230:1348   */\n      pop\n      pop\n      jump\t// out\n        /* \"#utility.yul\":1354:1773   */\n    tag_30:\n        /* \"#utility.yul\":1520:1524   */\n      0x00\n        /* \"#utility.yul\":1558:1560   */\n      0x20\n        /* \"#utility.yul\":1547:1556   */\n      dup3\n        /* \"#utility.yul\":1543:1561   */\n      add\n        /* \"#utility.yul\":1535:1561   */\n      swap1\n      pop\n        /* \"#utility.yul\":1607:1616   */\n      dup2\n        /* \"#utility.yul\":1601:1605   */\n      dup2\n        /* \"#utility.yul\":1597:1617   */\n      sub\n        /* \"#utility.yul\":1593:1594   */\n      0x00\n        /* \"#utility.yul\":1582:1591   */\n      dup4\n        /* \"#utility.yul\":1578:1595   */\n      add\n        /* \"#utility.yul\":1571:1618   */\n      mstore\n        /* \"#utility.yul\":1635:1766   */\n      tag_57\n        /* \"#utility.yul\":1761:1765   */\n      dup2\n        /* \"#utility.yul\":1635:1766   */\n      tag_41\n      jump\t// in\n    tag_57:\n        /* \"#utility.yul\":1627:1766   */\n      swap1\n      pop\n        /* \"#utility.yul\":1354:1773   */\n      swap2\n      swap1\n      pop\n      jump\t// out\n        /* \"#utility.yul\":1779:2198   */\n    tag_25:\n        /* \"#utility.yul\":1945:1949   */\n      0x00\n        /* \"#utility.yul\":1983:1985   */\n      0x20\n        /* \"#utility.yul\":1972:1981   */\n      dup3\n        /* \"#utility.yul\":1968:1986   */\n      add\n        /* \"#utility.yul\":1960:1986   */\n      swap1\n      pop\n        /* \"#utility.yul\":2032:2041   */\n      dup2\n        /* \"#utility.yul\":2026:2030   */\n      dup2\n        /* \"#utility.yul\":2022:2042   */\n      sub\n        /* \"#utility.yul\":2018:2019   */\n      0x00\n        /* \"#utility.yul\":2007:2016   */\n      dup4\n        /* \"#utility.yul\":2003:2020   */\n      add\n        /* \"#utility.yul\":1996:2043   */\n      mstore\n        /* \"#utility.yul\":2060:2191   */\n      tag_59\n        /* \"#utility.yul\":2186:2190   */\n      dup2\n        /* \"#utility.yul\":2060:2191   */\n      tag_47\n      jump\t// in\n    tag_59:\n        /* \"#utility.yul\":2052:2191   */\n      swap1\n      pop\n        /* \"#utility.yul\":1779:2198   */\n      swap2\n      swap1\n      pop\n      jump\t// out\n        /* \"#utility.yul\":2204:2426   */\n    tag_16:\n        /* \"#utility.yul\":2297:2301   */\n      0x00\n        /* \"#utility.yul\":2335:2337   */\n      0x20\n        /* \"#utility.yul\":2324:2333   */\n      dup3\n        /* \"#utility.yul\":2320:2338   */\n      add\n        /* \"#utility.yul\":2312:2338   */\n      swap1\n      pop\n        /* \"#utility.yul\":2348:2419   */\n      tag_61\n        /* \"#utility.yul\":2416:2417   */\n      0x00\n        /* \"#utility.yul\":2405:2414   */\n      dup4\n        /* \"#utility.yul\":2401:2418   */\n      add\n        /* \"#utility.yul\":2392:2398   */\n      dup5\n        /* \"#utility.yul\":2348:2419   */\n      tag_52\n      jump\t// in\n    tag_61:\n        /* \"#utility.yul\":2204:2426   */\n      swap3\n      swap2\n      pop\n      pop\n      jump\t// out\n        /* \"#utility.yul\":2513:2682   */\n    tag_44:\n        /* \"#utility.yul\":2597:2608   */\n      0x00\n        /* \"#utility.yul\":2631:2637   */\n      dup3\n        /* \"#utility.yul\":2626:2629   */\n      dup3\n        /* \"#utility.yul\":2619:2638   */\n      mstore\n        /* \"#utility.yul\":2671:2675   */\n      0x20\n        /* \"#utility.yul\":2666:2669   */\n      dup3\n        /* \"#utility.yul\":2662:2676   */\n      add\n        /* \"#utility.yul\":2647:2676   */\n      swap1\n      pop\n        /* \"#utility.yul\":2513:2682   */\n      swap3\n      swap2\n      pop\n      pop\n      jump\t// out\n        /* \"#utility.yul\":2688:2765   */\n    tag_55:\n        /* \"#utility.yul\":2725:2732   */\n      0x00\n        /* \"#utility.yul\":2754:2759   */\n      dup2\n        /* \"#utility.yul\":2743:2759   */\n      swap1\n      pop\n        /* \"#utility.yul\":2688:2765   */\n      swap2\n      swap1\n      pop\n      jump\t// out\n        /* \"#utility.yul\":2894:3011   */\n    tag_39:\n        /* \"#utility.yul\":3003:3004   */\n      0x00\n        /* \"#utility.yul\":3000:3001   */\n      dup1\n        /* \"#utility.yul\":2993:3005   */\n      revert\n        /* \"#utility.yul\":3017:3187   */\n    tag_46:\n        /* \"#utility.yul\":3157:3179   */\n      0x692069732067726561746572207468616e203130000000000000000000000000\n        /* \"#utility.yul\":3153:3154   */\n      0x00\n        /* \"#utility.yul\":3145:3151   */\n      dup3\n        /* \"#utility.yul\":3141:3155   */\n      add\n        /* \"#utility.yul\":3134:3180   */\n      mstore\n        /* \"#utility.yul\":3017:3187   */\n      pop\n      jump\t// out\n        /* \"#utility.yul\":3193:3349   */\n    tag_51:\n        /* \"#utility.yul\":3333:3341   */\n      0x69203e2031300000000000000000000000000000000000000000000000000000\n        /* \"#utility.yul\":3329:3330   */\n      0x00\n        /* \"#utility.yul\":3321:3327   */\n      dup3\n        /* \"#utility.yul\":3317:3331   */\n      add\n        /* \"#utility.yul\":3310:3342   */\n      mstore\n        /* \"#utility.yul\":3193:3349   */\n      pop\n      jump\t// out\n        /* \"#utility.yul\":3355:3477   */\n    tag_35:\n        /* \"#utility.yul\":3428:3452   */\n      tag_72\n        /* \"#utility.yul\":3446:3451   */\n      dup2\n        /* \"#utility.yul\":3428:3452   */\n      tag_55\n      jump\t// in\n    tag_72:\n        /* \"#utility.yul\":3421:3426   */\n      dup2\n        /* \"#utility.yul\":3418:3453   */\n      eq\n        /* \"#utility.yul\":3408:3471   */\n      tag_73\n      jumpi\n        /* \"#utility.yul\":3467:3468   */\n      0x00\n        /* \"#utility.yul\":3464:3465   */\n      dup1\n        /* \"#utility.yul\":3457:3469   */\n      revert\n        /* \"#utility.yul\":3408:3471   */\n    tag_73:\n        /* \"#utility.yul\":3355:3477   */\n      pop\n      jump\t// out\n\n    auxdata: 0xa26469706673582212203b2f3b67389ca604d4066367b22ad22a443fb432a07e9668f63c18a2b185b39764736f6c63430008070033\n}\n",
				"bytecode": {
					"linkReferences": {},
					"object": "6080604052607060005534801561001557600080fd5b5061030b806100256000396000f3fe608060405234801561001057600080fd5b506004361061004c5760003560e01c806320987767146100515780632b813bc01461006d5780634e70b1dc14610077578063b8bd717f14610095575b600080fd5b61006b6004803603810190610066919061016f565b6100b1565b005b61007561010c565b005b61007f61010e565b60405161008c9190610231565b60405180910390f35b6100af60048036038101906100aa919061016f565b610114565b005b600181111561010957600581111561010857600a811115610107576040517f08c379a00000000000000000000000000000000000000000000000000000000081526004016100fe90610211565b60405180910390fd5b5b5b50565b565b60005481565b600a8110610157576040517f08c379a000000000000000000000000000000000000000000000000000000000815260040161014e906101f1565b60405180910390fd5b50565b600081359050610169816102be565b92915050565b60006020828403121561018557610184610267565b5b60006101938482850161015a565b91505092915050565b60006101a960148361024c565b91506101b48261026c565b602082019050919050565b60006101cc60068361024c565b91506101d782610295565b602082019050919050565b6101eb8161025d565b82525050565b6000602082019050818103600083015261020a8161019c565b9050919050565b6000602082019050818103600083015261022a816101bf565b9050919050565b600060208201905061024660008301846101e2565b92915050565b600082825260208201905092915050565b6000819050919050565b600080fd5b7f692069732067726561746572207468616e203130000000000000000000000000600082015250565b7f69203e2031300000000000000000000000000000000000000000000000000000600082015250565b6102c78161025d565b81146102d257600080fd5b5056fea26469706673582212203b2f3b67389ca604d4066367b22ad22a443fb432a07e9668f63c18a2b185b39764736f6c63430008070033",
					"opcodes": "PUSH1 0x80 PUSH1 0x40 MSTORE PUSH1 0x70 PUSH1 0x0 SSTORE CALLVALUE DUP1 ISZERO PUSH2 0x15 JUMPI PUSH1 0x0 DUP1 REVERT JUMPDEST POP PUSH2 0x30B DUP1 PUSH2 0x25 PUSH1 0x0 CODECOPY PUSH1 0x0 RETURN INVALID PUSH1 0x80 PUSH1 0x40 MSTORE CALLVALUE DUP1 ISZERO PUSH2 0x10 JUMPI PUSH1 0x0 DUP1 REVERT JUMPDEST POP PUSH1 0x4 CALLDATASIZE LT PUSH2 0x4C JUMPI PUSH1 0x0 CALLDATALOAD PUSH1 0xE0 SHR DUP1 PUSH4 0x20987767 EQ PUSH2 0x51 JUMPI DUP1 PUSH4 0x2B813BC0 EQ PUSH2 0x6D JUMPI DUP1 PUSH4 0x4E70B1DC EQ PUSH2 0x77 JUMPI DUP1 PUSH4 0xB8BD717F EQ PUSH2 0x95 JUMPI JUMPDEST PUSH1 0x0 DUP1 REVERT JUMPDEST PUSH2 0x6B PUSH1 0x4 DUP1 CALLDATASIZE SUB DUP2 ADD SWAP1 PUSH2 0x66 SWAP2 SWAP1 PUSH2 0x16F JUMP JUMPDEST PUSH2 0xB1 JUMP JUMPDEST STOP JUMPDEST PUSH2 0x75 PUSH2 0x10C JUMP JUMPDEST STOP JUMPDEST PUSH2 0x7F PUSH2 0x10E JUMP JUMPDEST PUSH1 0x40 MLOAD PUSH2 0x8C SWAP2 SWAP1 PUSH2 0x231 JUMP JUMPDEST PUSH1 0x40 MLOAD DUP1 SWAP2 SUB SWAP1 RETURN JUMPDEST PUSH2 0xAF PUSH1 0x4 DUP1 CALLDATASIZE SUB DUP2 ADD SWAP1 PUSH2 0xAA SWAP2 SWAP1 PUSH2 0x16F JUMP JUMPDEST PUSH2 0x114 JUMP JUMPDEST STOP JUMPDEST PUSH1 0x1 DUP2 GT ISZERO PUSH2 0x109 JUMPI PUSH1 0x5 DUP2 GT ISZERO PUSH2 0x108 JUMPI PUSH1 0xA DUP2 GT ISZERO PUSH2 0x107 JUMPI PUSH1 0x40 MLOAD PUSH32 0x8C379A000000000000000000000000000000000000000000000000000000000 DUP2 MSTORE PUSH1 0x4 ADD PUSH2 0xFE SWAP1 PUSH2 0x211 JUMP JUMPDEST PUSH1 0x40 MLOAD DUP1 SWAP2 SUB SWAP1 REVERT JUMPDEST JUMPDEST JUMPDEST POP JUMP JUMPDEST JUMP JUMPDEST PUSH1 0x0 SLOAD DUP2 JUMP JUMPDEST PUSH1 0xA DUP2 LT PUSH2 0x157 JUMPI PUSH1 0x40 MLOAD PUSH32 0x8C379A000000000000000000000000000000000000000000000000000000000 DUP2 MSTORE PUSH1 0x4 ADD PUSH2 0x14E SWAP1 PUSH2 0x1F1 JUMP JUMPDEST PUSH1 0x40 MLOAD DUP1 SWAP2 SUB SWAP1 REVERT JUMPDEST POP JUMP JUMPDEST PUSH1 0x0 DUP2 CALLDATALOAD SWAP1 POP PUSH2 0x169 DUP2 PUSH2 0x2BE JUMP JUMPDEST SWAP3 SWAP2 POP POP JUMP JUMPDEST PUSH1 0x0 PUSH1 0x20 DUP3 DUP5 SUB SLT ISZERO PUSH2 0x185 JUMPI PUSH2 0x184 PUSH2 0x267 JUMP JUMPDEST JUMPDEST PUSH1 0x0 PUSH2 0x193 DUP5 DUP3 DUP6 ADD PUSH2 0x15A JUMP JUMPDEST SWAP2 POP POP SWAP3 SWAP2 POP POP JUMP JUMPDEST PUSH1 0x0 PUSH2 0x1A9 PUSH1 0x14 DUP4 PUSH2 0x24C JUMP JUMPDEST SWAP2 POP PUSH2 0x1B4 DUP3 PUSH2 0x26C JUMP JUMPDEST PUSH1 0x20 DUP3 ADD SWAP1 POP SWAP2 SWAP1 POP JUMP JUMPDEST PUSH1 0x0 PUSH2 0x1CC PUSH1 0x6 DUP4 PUSH2 0x24C JUMP JUMPDEST SWAP2 POP PUSH2 0x1D7 DUP3 PUSH2 0x295 JUMP JUMPDEST PUSH1 0x20 DUP3 ADD SWAP1 POP SWAP2 SWAP1 POP JUMP JUMPDEST PUSH2 0x1EB DUP2 PUSH2 0x25D JUMP JUMPDEST DUP3 MSTORE POP POP JUMP JUMPDEST PUSH1 0x0 PUSH1 0x20 DUP3 ADD SWAP1 POP DUP2 DUP2 SUB PUSH1 0x0 DUP4 ADD MSTORE PUSH2 0x20A DUP2 PUSH2 0x19C JUMP JUMPDEST SWAP1 POP SWAP2 SWAP1 POP JUMP JUMPDEST PUSH1 0x0 PUSH1 0x20 DUP3 ADD SWAP1 POP DUP2 DUP2 SUB PUSH1 0x0 DUP4 ADD MSTORE PUSH2 0x22A DUP2 PUSH2 0x1BF JUMP JUMPDEST SWAP1 POP SWAP2 SWAP1 POP JUMP JUMPDEST PUSH1 0x0 PUSH1 0x20 DUP3 ADD SWAP1 POP PUSH2 0x246 PUSH1 0x0 DUP4 ADD DUP5 PUSH2 0x1E2 JUMP JUMPDEST SWAP3 SWAP2 POP POP JUMP JUMPDEST PUSH1 0x0 DUP3 DUP3 MSTORE PUSH1 0x20 DUP3 ADD SWAP1 POP SWAP3 SWAP2 POP POP JUMP JUMPDEST PUSH1 0x0 DUP2 SWAP1 POP SWAP2 SWAP1 POP JUMP JUMPDEST PUSH1 0x0 DUP1 REVERT JUMPDEST PUSH32 0x692069732067726561746572207468616E203130000000000000000000000000 PUSH1 0x0 DUP3 ADD MSTORE POP JUMP JUMPDEST PUSH32 0x69203E2031300000000000000000000000000000000000000000000000000000 PUSH1 0x0 DUP3 ADD MSTORE POP JUMP JUMPDEST PUSH2 0x2C7 DUP2 PUSH2 0x25D JUMP JUMPDEST DUP2 EQ PUSH2 0x2D2 JUMPI PUSH1 0x0 DUP1 REVERT JUMPDEST POP JUMP INVALID LOG2 PUSH5 0x6970667358 0x22 SLT KECCAK256 EXTCODESIZE 0x2F EXTCODESIZE PUSH8 0x389CA604D4066367 0xB2 0x2A 0xD2 0x2A DIFFICULTY EXTCODEHASH 0xB4 ORIGIN LOG0 PUSH31 0x9668F63C18A2B185B39764736F6C6343000807003300000000000000000000 "
				},
				"gasEstimates": {
					"creation": {
						"codeDepositCost": "155800",
						"executionCost": "22308",
						"totalCost": "178108"
					},
					"external": {
						"num()": "2451",
						"testAssert()": "144",
						"testRequire(uint256)": "760",
						"testRevert(uint256)": "747"
					}
				},
				"methodIdentifiers": {
					"num()": "4e70b1dc",
					"testAssert()": "2b813bc0",
					"testRequire(uint256)": "b8bd717f",
					"testRevert(uint256)": "20987767"
				}
			},
			"storageLayout": {
				"storage": [
					{
						"astId": 42,
						"contract": "contracts/Errors-14.sol:Errors",
						"label": "num",
						"offset": 0,
						"slot": "0",
						"type": "t_uint256"
					}
				],
				"types": {
					"t_uint256": {
						"encoding": "inplace",
						"label": "uint256",
						"numberOfBytes": "32"
					}
				}
			},
			"userdoc": {
				"kind": "user",
				"methods": {},
				"version": 1
			}
		}
	}
}