{
	"contracts/DataTypesValues-2.sol": {
		"ValueTypes": {
			"abi": [
				{
					"inputs": [],
					"name": "addr",
					"outputs": [
						{
							"internalType": "address",
							"name": "",
							"type": "address"
						}
					],
					"stateMutability": "view",
					"type": "function"
				},
				{
					"inputs": [],
					"name": "b",
					"outputs": [
						{
							"internalType": "bool",
							"name": "",
							"type": "bool"
						}
					],
					"stateMutability": "view",
					"type": "function"
				},
				{
					"inputs": [],
					"name": "b32",
					"outputs": [
						{
							"internalType": "bytes32",
							"name": "",
							"type": "bytes32"
						}
					],
					"stateMutability": "view",
					"type": "function"
				},
				{
					"inputs": [],
					"name": "d",
					"outputs": [
						{
							"internalType": "uint256",
							"name": "",
							"type": "uint256"
						}
					],
					"stateMutability": "view",
					"type": "function"
				},
				{
					"inputs": [],
					"name": "e",
					"outputs": [
						{
							"internalType": "int256",
							"name": "",
							"type": "int256"
						}
					],
					"stateMutability": "view",
					"type": "function"
				},
				{
					"inputs": [],
					"name": "f",
					"outputs": [
						{
							"internalType": "int256",
							"name": "",
							"type": "int256"
						}
					],
					"stateMutability": "view",
					"type": "function"
				},
				{
					"inputs": [],
					"name": "g",
					"outputs": [
						{
							"internalType": "uint8",
							"name": "",
							"type": "uint8"
						}
					],
					"stateMutability": "view",
					"type": "function"
				},
				{
					"inputs": [],
					"name": "h",
					"outputs": [
						{
							"internalType": "uint8",
							"name": "",
							"type": "uint8"
						}
					],
					"stateMutability": "view",
					"type": "function"
				},
				{
					"inputs": [],
					"name": "maxInt",
					"outputs": [
						{
							"internalType": "int256",
							"name": "",
							"type": "int256"
						}
					],
					"stateMutability": "view",
					"type": "function"
				},
				{
					"inputs": [],
					"name": "minInt",
					"outputs": [
						{
							"internalType": "int256",
							"name": "",
							"type": "int256"
						}
					],
					"stateMutability": "view",
					"type": "function"
				}
			],
			"devdoc": {
				"kind": "dev",
				"methods": {},
				"version": 1
			},
			"evm": {
				"assembly": "    /* \"contracts/DataTypesValues-2.sol\":58:718  contract ValueTypes {... */\n  mstore(0x40, 0x80)\n    /* \"contracts/DataTypesValues-2.sol\":100:104  true */\n  0x01\n    /* \"contracts/DataTypesValues-2.sol\":84:104  bool public b = true */\n  0x00\n  dup1\n  0x0100\n  exp\n  dup2\n  sload\n  dup2\n  0xff\n  mul\n  not\n  and\n  swap1\n  dup4\n  iszero\n  iszero\n  mul\n  or\n  swap1\n  sstore\n  pop\n    /* \"contracts/DataTypesValues-2.sol\":127:132  false */\n  0x00\n    /* \"contracts/DataTypesValues-2.sol\":110:132  bool private c = false */\n  dup1\n  exp(0x0100, 0x01)\n  dup2\n  sload\n  dup2\n  0xff\n  mul\n  not\n  and\n  swap1\n  dup4\n  iszero\n  iszero\n  mul\n  or\n  swap1\n  sstore\n  pop\n    /* \"contracts/DataTypesValues-2.sol\":155:157  23 */\n  0x17\n    /* \"contracts/DataTypesValues-2.sol\":139:157  uint public d = 23 */\n  0x01\n  sstore\n    /* \"contracts/DataTypesValues-2.sol\":324:328  -886 */\n  0xfffffffffffffffffffffffffffffffffffffffffffffffffffffffffffffc8a\n    /* \"contracts/DataTypesValues-2.sol\":309:328  int public e = -886 */\n  0x02\n  sstore\n    /* \"contracts/DataTypesValues-2.sol\":349:354  42886 */\n  0xa786\n    /* \"contracts/DataTypesValues-2.sol\":334:354  int public f = 42886 */\n  0x03\n  sstore\n    /* \"contracts/DataTypesValues-2.sol\":424:437  type(int).min */\n  0x8000000000000000000000000000000000000000000000000000000000000000\n    /* \"contracts/DataTypesValues-2.sol\":404:437  int public minInt = type(int).min */\n  0x04\n  sstore\n    /* \"contracts/DataTypesValues-2.sol\":463:476  type(int).max */\n  0x7fffffffffffffffffffffffffffffffffffffffffffffffffffffffffffffff\n    /* \"contracts/DataTypesValues-2.sol\":443:476  int public maxInt = type(int).max */\n  0x05\n  sstore\n    /* \"contracts/DataTypesValues-2.sol\":499:514  type(uint8).min */\n  0x00\n    /* \"contracts/DataTypesValues-2.sol\":482:514  uint8 public g = type(uint8).min */\n  0x06\n  exp(0x0100, 0x00)\n  dup2\n  sload\n  dup2\n  0xff\n  mul\n  not\n  and\n  swap1\n  dup4\n  0xff\n  and\n  mul\n  or\n  swap1\n  sstore\n  pop\n    /* \"contracts/DataTypesValues-2.sol\":537:552  type(uint8).max */\n  0xff\n    /* \"contracts/DataTypesValues-2.sol\":520:552  uint8 public h = type(uint8).max */\n  0x06\n  exp(0x0100, 0x01)\n  dup2\n  sload\n  dup2\n  0xff\n  mul\n  not\n  and\n  swap1\n  dup4\n  0xff\n  and\n  mul\n  or\n  swap1\n  sstore\n  pop\n    /* \"contracts/DataTypesValues-2.sol\":580:622  0x8F03f1a3f10c05E7CCcF75C1Fd10168e06659Be7 */\n  0x8f03f1a3f10c05e7cccf75c1fd10168e06659be7\n    /* \"contracts/DataTypesValues-2.sol\":558:622  address public addr = 0x8F03f1a3f10c05E7CCcF75C1Fd10168e06659Be7 */\n  0x06\n  exp(0x0100, 0x02)\n  dup2\n  sload\n  dup2\n  0xffffffffffffffffffffffffffffffffffffffff\n  mul\n  not\n  and\n  swap1\n  dup4\n  0xffffffffffffffffffffffffffffffffffffffff\n  and\n  mul\n  or\n  swap1\n  sstore\n  pop\n    /* \"contracts/DataTypesValues-2.sol\":649:715  0x7465737400000000000000000000000000000000000000000000000000000000 */\n  0x7465737400000000000000000000000000000000000000000000000000000000\n    /* \"contracts/DataTypesValues-2.sol\":628:715  bytes32 public b32 = 0x7465737400000000000000000000000000000000000000000000000000000000 */\n  0x00\n  shl\n  0x07\n  sstore\n    /* \"contracts/DataTypesValues-2.sol\":58:718  contract ValueTypes {... */\n  callvalue\n  dup1\n  iszero\n  tag_1\n  jumpi\n  0x00\n  dup1\n  revert\ntag_1:\n  pop\n  dataSize(sub_0)\n  dup1\n  dataOffset(sub_0)\n  0x00\n  codecopy\n  0x00\n  return\nstop\n\nsub_0: assembly {\n        /* \"contracts/DataTypesValues-2.sol\":58:718  contract ValueTypes {... */\n      mstore(0x40, 0x80)\n      callvalue\n      dup1\n      iszero\n      tag_1\n      jumpi\n      0x00\n      dup1\n      revert\n    tag_1:\n      pop\n      jumpi(tag_2, lt(calldatasize, 0x04))\n      shr(0xe0, calldataload(0x00))\n      dup1\n      0x8a054ac2\n      gt\n      tag_13\n      jumpi\n      dup1\n      0x8a054ac2\n      eq\n      tag_8\n      jumpi\n      dup1\n      0xb8c9d365\n      eq\n      tag_9\n      jumpi\n      dup1\n      0xe2179b8e\n      eq\n      tag_10\n      jumpi\n      dup1\n      0xf8aab238\n      eq\n      tag_11\n      jumpi\n      dup1\n      0xffae15ba\n      eq\n      tag_12\n      jumpi\n      jump(tag_2)\n    tag_13:\n      dup1\n      0x26121ff0\n      eq\n      tag_3\n      jumpi\n      dup1\n      0x4df7e3d0\n      eq\n      tag_4\n      jumpi\n      dup1\n      0x767800de\n      eq\n      tag_5\n      jumpi\n      dup1\n      0x7a4c2571\n      eq\n      tag_6\n      jumpi\n      dup1\n      0x7e4e14cc\n      eq\n      tag_7\n      jumpi\n    tag_2:\n      0x00\n      dup1\n      revert\n        /* \"contracts/DataTypesValues-2.sol\":334:354  int public f = 42886 */\n    tag_3:\n      tag_14\n      tag_15\n      jump\t// in\n    tag_14:\n      mload(0x40)\n      tag_16\n      swap2\n      swap1\n      tag_17\n      jump\t// in\n    tag_16:\n      mload(0x40)\n      dup1\n      swap2\n      sub\n      swap1\n      return\n        /* \"contracts/DataTypesValues-2.sol\":84:104  bool public b = true */\n    tag_4:\n      tag_18\n      tag_19\n      jump\t// in\n    tag_18:\n      mload(0x40)\n      tag_20\n      swap2\n      swap1\n      tag_21\n      jump\t// in\n    tag_20:\n      mload(0x40)\n      dup1\n      swap2\n      sub\n      swap1\n      return\n        /* \"contracts/DataTypesValues-2.sol\":558:622  address public addr = 0x8F03f1a3f10c05E7CCcF75C1Fd10168e06659Be7 */\n    tag_5:\n      tag_22\n      tag_23\n      jump\t// in\n    tag_22:\n      mload(0x40)\n      tag_24\n      swap2\n      swap1\n      tag_25\n      jump\t// in\n    tag_24:\n      mload(0x40)\n      dup1\n      swap2\n      sub\n      swap1\n      return\n        /* \"contracts/DataTypesValues-2.sol\":443:476  int public maxInt = type(int).max */\n    tag_6:\n      tag_26\n      tag_27\n      jump\t// in\n    tag_26:\n      mload(0x40)\n      tag_28\n      swap2\n      swap1\n      tag_17\n      jump\t// in\n    tag_28:\n      mload(0x40)\n      dup1\n      swap2\n      sub\n      swap1\n      return\n        /* \"contracts/DataTypesValues-2.sol\":404:437  int public minInt = type(int).min */\n    tag_7:\n      tag_29\n      tag_30\n      jump\t// in\n    tag_29:\n      mload(0x40)\n      tag_31\n      swap2\n      swap1\n      tag_17\n      jump\t// in\n    tag_31:\n      mload(0x40)\n      dup1\n      swap2\n      sub\n      swap1\n      return\n        /* \"contracts/DataTypesValues-2.sol\":139:157  uint public d = 23 */\n    tag_8:\n      tag_32\n      tag_33\n      jump\t// in\n    tag_32:\n      mload(0x40)\n      tag_34\n      swap2\n      swap1\n      tag_35\n      jump\t// in\n    tag_34:\n      mload(0x40)\n      dup1\n      swap2\n      sub\n      swap1\n      return\n        /* \"contracts/DataTypesValues-2.sol\":520:552  uint8 public h = type(uint8).max */\n    tag_9:\n      tag_36\n      tag_37\n      jump\t// in\n    tag_36:\n      mload(0x40)\n      tag_38\n      swap2\n      swap1\n      tag_39\n      jump\t// in\n    tag_38:\n      mload(0x40)\n      dup1\n      swap2\n      sub\n      swap1\n      return\n        /* \"contracts/DataTypesValues-2.sol\":482:514  uint8 public g = type(uint8).min */\n    tag_10:\n      tag_40\n      tag_41\n      jump\t// in\n    tag_40:\n      mload(0x40)\n      tag_42\n      swap2\n      swap1\n      tag_39\n      jump\t// in\n    tag_42:\n      mload(0x40)\n      dup1\n      swap2\n      sub\n      swap1\n      return\n        /* \"contracts/DataTypesValues-2.sol\":628:715  bytes32 public b32 = 0x7465737400000000000000000000000000000000000000000000000000000000 */\n    tag_11:\n      tag_43\n      tag_44\n      jump\t// in\n    tag_43:\n      mload(0x40)\n      tag_45\n      swap2\n      swap1\n      tag_46\n      jump\t// in\n    tag_45:\n      mload(0x40)\n      dup1\n      swap2\n      sub\n      swap1\n      return\n        /* \"contracts/DataTypesValues-2.sol\":309:328  int public e = -886 */\n    tag_12:\n      tag_47\n      tag_48\n      jump\t// in\n    tag_47:\n      mload(0x40)\n      tag_49\n      swap2\n      swap1\n      tag_17\n      jump\t// in\n    tag_49:\n      mload(0x40)\n      dup1\n      swap2\n      sub\n      swap1\n      return\n        /* \"contracts/DataTypesValues-2.sol\":334:354  int public f = 42886 */\n    tag_15:\n      sload(0x03)\n      dup2\n      jump\t// out\n        /* \"contracts/DataTypesValues-2.sol\":84:104  bool public b = true */\n    tag_19:\n      0x00\n      dup1\n      sload\n      swap1\n      0x0100\n      exp\n      swap1\n      div\n      0xff\n      and\n      dup2\n      jump\t// out\n        /* \"contracts/DataTypesValues-2.sol\":558:622  address public addr = 0x8F03f1a3f10c05E7CCcF75C1Fd10168e06659Be7 */\n    tag_23:\n      0x06\n      0x02\n      swap1\n      sload\n      swap1\n      0x0100\n      exp\n      swap1\n      div\n      0xffffffffffffffffffffffffffffffffffffffff\n      and\n      dup2\n      jump\t// out\n        /* \"contracts/DataTypesValues-2.sol\":443:476  int public maxInt = type(int).max */\n    tag_27:\n      sload(0x05)\n      dup2\n      jump\t// out\n        /* \"contracts/DataTypesValues-2.sol\":404:437  int public minInt = type(int).min */\n    tag_30:\n      sload(0x04)\n      dup2\n      jump\t// out\n        /* \"contracts/DataTypesValues-2.sol\":139:157  uint public d = 23 */\n    tag_33:\n      sload(0x01)\n      dup2\n      jump\t// out\n        /* \"contracts/DataTypesValues-2.sol\":520:552  uint8 public h = type(uint8).max */\n    tag_37:\n      0x06\n      0x01\n      swap1\n      sload\n      swap1\n      0x0100\n      exp\n      swap1\n      div\n      0xff\n      and\n      dup2\n      jump\t// out\n        /* \"contracts/DataTypesValues-2.sol\":482:514  uint8 public g = type(uint8).min */\n    tag_41:\n      0x06\n      0x00\n      swap1\n      sload\n      swap1\n      0x0100\n      exp\n      swap1\n      div\n      0xff\n      and\n      dup2\n      jump\t// out\n        /* \"contracts/DataTypesValues-2.sol\":628:715  bytes32 public b32 = 0x7465737400000000000000000000000000000000000000000000000000000000 */\n    tag_44:\n      sload(0x07)\n      dup2\n      jump\t// out\n        /* \"contracts/DataTypesValues-2.sol\":309:328  int public e = -886 */\n    tag_48:\n      sload(0x02)\n      dup2\n      jump\t// out\n        /* \"#utility.yul\":7:125   */\n    tag_51:\n        /* \"#utility.yul\":94:118   */\n      tag_53\n        /* \"#utility.yul\":112:117   */\n      dup2\n        /* \"#utility.yul\":94:118   */\n      tag_54\n      jump\t// in\n    tag_53:\n        /* \"#utility.yul\":89:92   */\n      dup3\n        /* \"#utility.yul\":82:119   */\n      mstore\n        /* \"#utility.yul\":7:125   */\n      pop\n      pop\n      jump\t// out\n        /* \"#utility.yul\":131:240   */\n    tag_55:\n        /* \"#utility.yul\":212:233   */\n      tag_57\n        /* \"#utility.yul\":227:232   */\n      dup2\n        /* \"#utility.yul\":212:233   */\n      tag_58\n      jump\t// in\n    tag_57:\n        /* \"#utility.yul\":207:210   */\n      dup3\n        /* \"#utility.yul\":200:234   */\n      mstore\n        /* \"#utility.yul\":131:240   */\n      pop\n      pop\n      jump\t// out\n        /* \"#utility.yul\":246:364   */\n    tag_59:\n        /* \"#utility.yul\":333:357   */\n      tag_61\n        /* \"#utility.yul\":351:356   */\n      dup2\n        /* \"#utility.yul\":333:357   */\n      tag_62\n      jump\t// in\n    tag_61:\n        /* \"#utility.yul\":328:331   */\n      dup3\n        /* \"#utility.yul\":321:358   */\n      mstore\n        /* \"#utility.yul\":246:364   */\n      pop\n      pop\n      jump\t// out\n        /* \"#utility.yul\":370:485   */\n    tag_63:\n        /* \"#utility.yul\":455:478   */\n      tag_65\n        /* \"#utility.yul\":472:477   */\n      dup2\n        /* \"#utility.yul\":455:478   */\n      tag_66\n      jump\t// in\n    tag_65:\n        /* \"#utility.yul\":450:453   */\n      dup3\n        /* \"#utility.yul\":443:479   */\n      mstore\n        /* \"#utility.yul\":370:485   */\n      pop\n      pop\n      jump\t// out\n        /* \"#utility.yul\":491:609   */\n    tag_67:\n        /* \"#utility.yul\":578:602   */\n      tag_69\n        /* \"#utility.yul\":596:601   */\n      dup2\n        /* \"#utility.yul\":578:602   */\n      tag_70\n      jump\t// in\n    tag_69:\n        /* \"#utility.yul\":573:576   */\n      dup3\n        /* \"#utility.yul\":566:603   */\n      mstore\n        /* \"#utility.yul\":491:609   */\n      pop\n      pop\n      jump\t// out\n        /* \"#utility.yul\":615:727   */\n    tag_71:\n        /* \"#utility.yul\":698:720   */\n      tag_73\n        /* \"#utility.yul\":714:719   */\n      dup2\n        /* \"#utility.yul\":698:720   */\n      tag_74\n      jump\t// in\n    tag_73:\n        /* \"#utility.yul\":693:696   */\n      dup3\n        /* \"#utility.yul\":686:721   */\n      mstore\n        /* \"#utility.yul\":615:727   */\n      pop\n      pop\n      jump\t// out\n        /* \"#utility.yul\":733:955   */\n    tag_25:\n        /* \"#utility.yul\":826:830   */\n      0x00\n        /* \"#utility.yul\":864:866   */\n      0x20\n        /* \"#utility.yul\":853:862   */\n      dup3\n        /* \"#utility.yul\":849:867   */\n      add\n        /* \"#utility.yul\":841:867   */\n      swap1\n      pop\n        /* \"#utility.yul\":877:948   */\n      tag_76\n        /* \"#utility.yul\":945:946   */\n      0x00\n        /* \"#utility.yul\":934:943   */\n      dup4\n        /* \"#utility.yul\":930:947   */\n      add\n        /* \"#utility.yul\":921:927   */\n      dup5\n        /* \"#utility.yul\":877:948   */\n      tag_51\n      jump\t// in\n    tag_76:\n        /* \"#utility.yul\":733:955   */\n      swap3\n      swap2\n      pop\n      pop\n      jump\t// out\n        /* \"#utility.yul\":961:1171   */\n    tag_21:\n        /* \"#utility.yul\":1048:1052   */\n      0x00\n        /* \"#utility.yul\":1086:1088   */\n      0x20\n        /* \"#utility.yul\":1075:1084   */\n      dup3\n        /* \"#utility.yul\":1071:1089   */\n      add\n        /* \"#utility.yul\":1063:1089   */\n      swap1\n      pop\n        /* \"#utility.yul\":1099:1164   */\n      tag_78\n        /* \"#utility.yul\":1161:1162   */\n      0x00\n        /* \"#utility.yul\":1150:1159   */\n      dup4\n        /* \"#utility.yul\":1146:1163   */\n      add\n        /* \"#utility.yul\":1137:1143   */\n      dup5\n        /* \"#utility.yul\":1099:1164   */\n      tag_55\n      jump\t// in\n    tag_78:\n        /* \"#utility.yul\":961:1171   */\n      swap3\n      swap2\n      pop\n      pop\n      jump\t// out\n        /* \"#utility.yul\":1177:1399   */\n    tag_46:\n        /* \"#utility.yul\":1270:1274   */\n      0x00\n        /* \"#utility.yul\":1308:1310   */\n      0x20\n        /* \"#utility.yul\":1297:1306   */\n      dup3\n        /* \"#utility.yul\":1293:1311   */\n      add\n        /* \"#utility.yul\":1285:1311   */\n      swap1\n      pop\n        /* \"#utility.yul\":1321:1392   */\n      tag_80\n        /* \"#utility.yul\":1389:1390   */\n      0x00\n        /* \"#utility.yul\":1378:1387   */\n      dup4\n        /* \"#utility.yul\":1374:1391   */\n      add\n        /* \"#utility.yul\":1365:1371   */\n      dup5\n        /* \"#utility.yul\":1321:1392   */\n      tag_59\n      jump\t// in\n    tag_80:\n        /* \"#utility.yul\":1177:1399   */\n      swap3\n      swap2\n      pop\n      pop\n      jump\t// out\n        /* \"#utility.yul\":1405:1623   */\n    tag_17:\n        /* \"#utility.yul\":1496:1500   */\n      0x00\n        /* \"#utility.yul\":1534:1536   */\n      0x20\n        /* \"#utility.yul\":1523:1532   */\n      dup3\n        /* \"#utility.yul\":1519:1537   */\n      add\n        /* \"#utility.yul\":1511:1537   */\n      swap1\n      pop\n        /* \"#utility.yul\":1547:1616   */\n      tag_82\n        /* \"#utility.yul\":1613:1614   */\n      0x00\n        /* \"#utility.yul\":1602:1611   */\n      dup4\n        /* \"#utility.yul\":1598:1615   */\n      add\n        /* \"#utility.yul\":1589:1595   */\n      dup5\n        /* \"#utility.yul\":1547:1616   */\n      tag_63\n      jump\t// in\n    tag_82:\n        /* \"#utility.yul\":1405:1623   */\n      swap3\n      swap2\n      pop\n      pop\n      jump\t// out\n        /* \"#utility.yul\":1629:1851   */\n    tag_35:\n        /* \"#utility.yul\":1722:1726   */\n      0x00\n        /* \"#utility.yul\":1760:1762   */\n      0x20\n        /* \"#utility.yul\":1749:1758   */\n      dup3\n        /* \"#utility.yul\":1745:1763   */\n      add\n        /* \"#utility.yul\":1737:1763   */\n      swap1\n      pop\n        /* \"#utility.yul\":1773:1844   */\n      tag_84\n        /* \"#utility.yul\":1841:1842   */\n      0x00\n        /* \"#utility.yul\":1830:1839   */\n      dup4\n        /* \"#utility.yul\":1826:1843   */\n      add\n        /* \"#utility.yul\":1817:1823   */\n      dup5\n        /* \"#utility.yul\":1773:1844   */\n      tag_67\n      jump\t// in\n    tag_84:\n        /* \"#utility.yul\":1629:1851   */\n      swap3\n      swap2\n      pop\n      pop\n      jump\t// out\n        /* \"#utility.yul\":1857:2071   */\n    tag_39:\n        /* \"#utility.yul\":1946:1950   */\n      0x00\n        /* \"#utility.yul\":1984:1986   */\n      0x20\n        /* \"#utility.yul\":1973:1982   */\n      dup3\n        /* \"#utility.yul\":1969:1987   */\n      add\n        /* \"#utility.yul\":1961:1987   */\n      swap1\n      pop\n        /* \"#utility.yul\":1997:2064   */\n      tag_86\n        /* \"#utility.yul\":2061:2062   */\n      0x00\n        /* \"#utility.yul\":2050:2059   */\n      dup4\n        /* \"#utility.yul\":2046:2063   */\n      add\n        /* \"#utility.yul\":2037:2043   */\n      dup5\n        /* \"#utility.yul\":1997:2064   */\n      tag_71\n      jump\t// in\n    tag_86:\n        /* \"#utility.yul\":1857:2071   */\n      swap3\n      swap2\n      pop\n      pop\n      jump\t// out\n        /* \"#utility.yul\":2077:2173   */\n    tag_54:\n        /* \"#utility.yul\":2114:2121   */\n      0x00\n        /* \"#utility.yul\":2143:2167   */\n      tag_88\n        /* \"#utility.yul\":2161:2166   */\n      dup3\n        /* \"#utility.yul\":2143:2167   */\n      tag_89\n      jump\t// in\n    tag_88:\n        /* \"#utility.yul\":2132:2167   */\n      swap1\n      pop\n        /* \"#utility.yul\":2077:2173   */\n      swap2\n      swap1\n      pop\n      jump\t// out\n        /* \"#utility.yul\":2179:2269   */\n    tag_58:\n        /* \"#utility.yul\":2213:2220   */\n      0x00\n        /* \"#utility.yul\":2256:2261   */\n      dup2\n        /* \"#utility.yul\":2249:2262   */\n      iszero\n        /* \"#utility.yul\":2242:2263   */\n      iszero\n        /* \"#utility.yul\":2231:2263   */\n      swap1\n      pop\n        /* \"#utility.yul\":2179:2269   */\n      swap2\n      swap1\n      pop\n      jump\t// out\n        /* \"#utility.yul\":2275:2352   */\n    tag_62:\n        /* \"#utility.yul\":2312:2319   */\n      0x00\n        /* \"#utility.yul\":2341:2346   */\n      dup2\n        /* \"#utility.yul\":2330:2346   */\n      swap1\n      pop\n        /* \"#utility.yul\":2275:2352   */\n      swap2\n      swap1\n      pop\n      jump\t// out\n        /* \"#utility.yul\":2358:2434   */\n    tag_66:\n        /* \"#utility.yul\":2394:2401   */\n      0x00\n        /* \"#utility.yul\":2423:2428   */\n      dup2\n        /* \"#utility.yul\":2412:2428   */\n      swap1\n      pop\n        /* \"#utility.yul\":2358:2434   */\n      swap2\n      swap1\n      pop\n      jump\t// out\n        /* \"#utility.yul\":2440:2566   */\n    tag_89:\n        /* \"#utility.yul\":2477:2484   */\n      0x00\n        /* \"#utility.yul\":2517:2559   */\n      0xffffffffffffffffffffffffffffffffffffffff\n        /* \"#utility.yul\":2510:2515   */\n      dup3\n        /* \"#utility.yul\":2506:2560   */\n      and\n        /* \"#utility.yul\":2495:2560   */\n      swap1\n      pop\n        /* \"#utility.yul\":2440:2566   */\n      swap2\n      swap1\n      pop\n      jump\t// out\n        /* \"#utility.yul\":2572:2649   */\n    tag_70:\n        /* \"#utility.yul\":2609:2616   */\n      0x00\n        /* \"#utility.yul\":2638:2643   */\n      dup2\n        /* \"#utility.yul\":2627:2643   */\n      swap1\n      pop\n        /* \"#utility.yul\":2572:2649   */\n      swap2\n      swap1\n      pop\n      jump\t// out\n        /* \"#utility.yul\":2655:2741   */\n    tag_74:\n        /* \"#utility.yul\":2690:2697   */\n      0x00\n        /* \"#utility.yul\":2730:2734   */\n      0xff\n        /* \"#utility.yul\":2723:2728   */\n      dup3\n        /* \"#utility.yul\":2719:2735   */\n      and\n        /* \"#utility.yul\":2708:2735   */\n      swap1\n      pop\n        /* \"#utility.yul\":2655:2741   */\n      swap2\n      swap1\n      pop\n      jump\t// out\n\n    auxdata: 0xa26469706673582212206d4baf7f338c90664fc9b752b51850e27dff1b3d08be0de697b8d6faa0eceb7064736f6c63430008070033\n}\n",
				"bytecode": {
					"linkReferences": {},
					"object": "608060405260016000806101000a81548160ff02191690831515021790555060008060016101000a81548160ff02191690831515021790555060176001557ffffffffffffffffffffffffffffffffffffffffffffffffffffffffffffffc8a60025561a7866003557f80000000000000000000000000000000000000000000000000000000000000006004557f7fffffffffffffffffffffffffffffffffffffffffffffffffffffffffffffff6005556000600660006101000a81548160ff021916908360ff16021790555060ff600660016101000a81548160ff021916908360ff160217905550738f03f1a3f10c05e7cccf75c1fd10168e06659be7600660026101000a81548173ffffffffffffffffffffffffffffffffffffffff021916908373ffffffffffffffffffffffffffffffffffffffff1602179055507f746573740000000000000000000000000000000000000000000000000000000060001b60075534801561016f57600080fd5b506103eb8061017f6000396000f3fe608060405234801561001057600080fd5b506004361061009e5760003560e01c80638a054ac2116100665780638a054ac214610139578063b8c9d36514610157578063e2179b8e14610175578063f8aab23814610193578063ffae15ba146101b15761009e565b806326121ff0146100a35780634df7e3d0146100c1578063767800de146100df5780637a4c2571146100fd5780637e4e14cc1461011b575b600080fd5b6100ab6101cf565b6040516100b891906102fb565b60405180910390f35b6100c96101d5565b6040516100d691906102c5565b60405180910390f35b6100e76101e6565b6040516100f491906102aa565b60405180910390f35b61010561020c565b60405161011291906102fb565b60405180910390f35b610123610212565b60405161013091906102fb565b60405180910390f35b610141610218565b60405161014e9190610316565b60405180910390f35b61015f61021e565b60405161016c9190610331565b60405180910390f35b61017d610231565b60405161018a9190610331565b60405180910390f35b61019b610244565b6040516101a891906102e0565b60405180910390f35b6101b961024a565b6040516101c691906102fb565b60405180910390f35b60035481565b60008054906101000a900460ff1681565b600660029054906101000a900473ffffffffffffffffffffffffffffffffffffffff1681565b60055481565b60045481565b60015481565b600660019054906101000a900460ff1681565b600660009054906101000a900460ff1681565b60075481565b60025481565b6102598161034c565b82525050565b6102688161035e565b82525050565b6102778161036a565b82525050565b61028681610374565b82525050565b6102958161039e565b82525050565b6102a4816103a8565b82525050565b60006020820190506102bf6000830184610250565b92915050565b60006020820190506102da600083018461025f565b92915050565b60006020820190506102f5600083018461026e565b92915050565b6000602082019050610310600083018461027d565b92915050565b600060208201905061032b600083018461028c565b92915050565b6000602082019050610346600083018461029b565b92915050565b60006103578261037e565b9050919050565b60008115159050919050565b6000819050919050565b6000819050919050565b600073ffffffffffffffffffffffffffffffffffffffff82169050919050565b6000819050919050565b600060ff8216905091905056fea26469706673582212206d4baf7f338c90664fc9b752b51850e27dff1b3d08be0de697b8d6faa0eceb7064736f6c63430008070033",
					"opcodes": "PUSH1 0x80 PUSH1 0x40 MSTORE PUSH1 0x1 PUSH1 0x0 DUP1 PUSH2 0x100 EXP DUP2 SLOAD DUP2 PUSH1 0xFF MUL NOT AND SWAP1 DUP4 ISZERO ISZERO MUL OR SWAP1 SSTORE POP PUSH1 0x0 DUP1 PUSH1 0x1 PUSH2 0x100 EXP DUP2 SLOAD DUP2 PUSH1 0xFF MUL NOT AND SWAP1 DUP4 ISZERO ISZERO MUL OR SWAP1 SSTORE POP PUSH1 0x17 PUSH1 0x1 SSTORE PUSH32 0xFFFFFFFFFFFFFFFFFFFFFFFFFFFFFFFFFFFFFFFFFFFFFFFFFFFFFFFFFFFFFC8A PUSH1 0x2 SSTORE PUSH2 0xA786 PUSH1 0x3 SSTORE PUSH32 0x8000000000000000000000000000000000000000000000000000000000000000 PUSH1 0x4 SSTORE PUSH32 0x7FFFFFFFFFFFFFFFFFFFFFFFFFFFFFFFFFFFFFFFFFFFFFFFFFFFFFFFFFFFFFFF PUSH1 0x5 SSTORE PUSH1 0x0 PUSH1 0x6 PUSH1 0x0 PUSH2 0x100 EXP DUP2 SLOAD DUP2 PUSH1 0xFF MUL NOT AND SWAP1 DUP4 PUSH1 0xFF AND MUL OR SWAP1 SSTORE POP PUSH1 0xFF PUSH1 0x6 PUSH1 0x1 PUSH2 0x100 EXP DUP2 SLOAD DUP2 PUSH1 0xFF MUL NOT AND SWAP1 DUP4 PUSH1 0xFF AND MUL OR SWAP1 SSTORE POP PUSH20 0x8F03F1A3F10C05E7CCCF75C1FD10168E06659BE7 PUSH1 0x6 PUSH1 0x2 PUSH2 0x100 EXP DUP2 SLOAD DUP2 PUSH20 0xFFFFFFFFFFFFFFFFFFFFFFFFFFFFFFFFFFFFFFFF MUL NOT AND SWAP1 DUP4 PUSH20 0xFFFFFFFFFFFFFFFFFFFFFFFFFFFFFFFFFFFFFFFF AND MUL OR SWAP1 SSTORE POP PUSH32 0x7465737400000000000000000000000000000000000000000000000000000000 PUSH1 0x0 SHL PUSH1 0x7 SSTORE CALLVALUE DUP1 ISZERO PUSH2 0x16F JUMPI PUSH1 0x0 DUP1 REVERT JUMPDEST POP PUSH2 0x3EB DUP1 PUSH2 0x17F PUSH1 0x0 CODECOPY PUSH1 0x0 RETURN INVALID PUSH1 0x80 PUSH1 0x40 MSTORE CALLVALUE DUP1 ISZERO PUSH2 0x10 JUMPI PUSH1 0x0 DUP1 REVERT JUMPDEST POP PUSH1 0x4 CALLDATASIZE LT PUSH2 0x9E JUMPI PUSH1 0x0 CALLDATALOAD PUSH1 0xE0 SHR DUP1 PUSH4 0x8A054AC2 GT PUSH2 0x66 JUMPI DUP1 PUSH4 0x8A054AC2 EQ PUSH2 0x139 JUMPI DUP1 PUSH4 0xB8C9D365 EQ PUSH2 0x157 JUMPI DUP1 PUSH4 0xE2179B8E EQ PUSH2 0x175 JUMPI DUP1 PUSH4 0xF8AAB238 EQ PUSH2 0x193 JUMPI DUP1 PUSH4 0xFFAE15BA EQ PUSH2 0x1B1 JUMPI PUSH2 0x9E JUMP JUMPDEST DUP1 PUSH4 0x26121FF0 EQ PUSH2 0xA3 JUMPI DUP1 PUSH4 0x4DF7E3D0 EQ PUSH2 0xC1 JUMPI DUP1 PUSH4 0x767800DE EQ PUSH2 0xDF JUMPI DUP1 PUSH4 0x7A4C2571 EQ PUSH2 0xFD JUMPI DUP1 PUSH4 0x7E4E14CC EQ PUSH2 0x11B JUMPI JUMPDEST PUSH1 0x0 DUP1 REVERT JUMPDEST PUSH2 0xAB PUSH2 0x1CF JUMP JUMPDEST PUSH1 0x40 MLOAD PUSH2 0xB8 SWAP2 SWAP1 PUSH2 0x2FB JUMP JUMPDEST PUSH1 0x40 MLOAD DUP1 SWAP2 SUB SWAP1 RETURN JUMPDEST PUSH2 0xC9 PUSH2 0x1D5 JUMP JUMPDEST PUSH1 0x40 MLOAD PUSH2 0xD6 SWAP2 SWAP1 PUSH2 0x2C5 JUMP JUMPDEST PUSH1 0x40 MLOAD DUP1 SWAP2 SUB SWAP1 RETURN JUMPDEST PUSH2 0xE7 PUSH2 0x1E6 JUMP JUMPDEST PUSH1 0x40 MLOAD PUSH2 0xF4 SWAP2 SWAP1 PUSH2 0x2AA JUMP JUMPDEST PUSH1 0x40 MLOAD DUP1 SWAP2 SUB SWAP1 RETURN JUMPDEST PUSH2 0x105 PUSH2 0x20C JUMP JUMPDEST PUSH1 0x40 MLOAD PUSH2 0x112 SWAP2 SWAP1 PUSH2 0x2FB JUMP JUMPDEST PUSH1 0x40 MLOAD DUP1 SWAP2 SUB SWAP1 RETURN JUMPDEST PUSH2 0x123 PUSH2 0x212 JUMP JUMPDEST PUSH1 0x40 MLOAD PUSH2 0x130 SWAP2 SWAP1 PUSH2 0x2FB JUMP JUMPDEST PUSH1 0x40 MLOAD DUP1 SWAP2 SUB SWAP1 RETURN JUMPDEST PUSH2 0x141 PUSH2 0x218 JUMP JUMPDEST PUSH1 0x40 MLOAD PUSH2 0x14E SWAP2 SWAP1 PUSH2 0x316 JUMP JUMPDEST PUSH1 0x40 MLOAD DUP1 SWAP2 SUB SWAP1 RETURN JUMPDEST PUSH2 0x15F PUSH2 0x21E JUMP JUMPDEST PUSH1 0x40 MLOAD PUSH2 0x16C SWAP2 SWAP1 PUSH2 0x331 JUMP JUMPDEST PUSH1 0x40 MLOAD DUP1 SWAP2 SUB SWAP1 RETURN JUMPDEST PUSH2 0x17D PUSH2 0x231 JUMP JUMPDEST PUSH1 0x40 MLOAD PUSH2 0x18A SWAP2 SWAP1 PUSH2 0x331 JUMP JUMPDEST PUSH1 0x40 MLOAD DUP1 SWAP2 SUB SWAP1 RETURN JUMPDEST PUSH2 0x19B PUSH2 0x244 JUMP JUMPDEST PUSH1 0x40 MLOAD PUSH2 0x1A8 SWAP2 SWAP1 PUSH2 0x2E0 JUMP JUMPDEST PUSH1 0x40 MLOAD DUP1 SWAP2 SUB SWAP1 RETURN JUMPDEST PUSH2 0x1B9 PUSH2 0x24A JUMP JUMPDEST PUSH1 0x40 MLOAD PUSH2 0x1C6 SWAP2 SWAP1 PUSH2 0x2FB JUMP JUMPDEST PUSH1 0x40 MLOAD DUP1 SWAP2 SUB SWAP1 RETURN JUMPDEST PUSH1 0x3 SLOAD DUP2 JUMP JUMPDEST PUSH1 0x0 DUP1 SLOAD SWAP1 PUSH2 0x100 EXP SWAP1 DIV PUSH1 0xFF AND DUP2 JUMP JUMPDEST PUSH1 0x6 PUSH1 0x2 SWAP1 SLOAD SWAP1 PUSH2 0x100 EXP SWAP1 DIV PUSH20 0xFFFFFFFFFFFFFFFFFFFFFFFFFFFFFFFFFFFFFFFF AND DUP2 JUMP JUMPDEST PUSH1 0x5 SLOAD DUP2 JUMP JUMPDEST PUSH1 0x4 SLOAD DUP2 JUMP JUMPDEST PUSH1 0x1 SLOAD DUP2 JUMP JUMPDEST PUSH1 0x6 PUSH1 0x1 SWAP1 SLOAD SWAP1 PUSH2 0x100 EXP SWAP1 DIV PUSH1 0xFF AND DUP2 JUMP JUMPDEST PUSH1 0x6 PUSH1 0x0 SWAP1 SLOAD SWAP1 PUSH2 0x100 EXP SWAP1 DIV PUSH1 0xFF AND DUP2 JUMP JUMPDEST PUSH1 0x7 SLOAD DUP2 JUMP JUMPDEST PUSH1 0x2 SLOAD DUP2 JUMP JUMPDEST PUSH2 0x259 DUP2 PUSH2 0x34C JUMP JUMPDEST DUP3 MSTORE POP POP JUMP JUMPDEST PUSH2 0x268 DUP2 PUSH2 0x35E JUMP JUMPDEST DUP3 MSTORE POP POP JUMP JUMPDEST PUSH2 0x277 DUP2 PUSH2 0x36A JUMP JUMPDEST DUP3 MSTORE POP POP JUMP JUMPDEST PUSH2 0x286 DUP2 PUSH2 0x374 JUMP JUMPDEST DUP3 MSTORE POP POP JUMP JUMPDEST PUSH2 0x295 DUP2 PUSH2 0x39E JUMP JUMPDEST DUP3 MSTORE POP POP JUMP JUMPDEST PUSH2 0x2A4 DUP2 PUSH2 0x3A8 JUMP JUMPDEST DUP3 MSTORE POP POP JUMP JUMPDEST PUSH1 0x0 PUSH1 0x20 DUP3 ADD SWAP1 POP PUSH2 0x2BF PUSH1 0x0 DUP4 ADD DUP5 PUSH2 0x250 JUMP JUMPDEST SWAP3 SWAP2 POP POP JUMP JUMPDEST PUSH1 0x0 PUSH1 0x20 DUP3 ADD SWAP1 POP PUSH2 0x2DA PUSH1 0x0 DUP4 ADD DUP5 PUSH2 0x25F JUMP JUMPDEST SWAP3 SWAP2 POP POP JUMP JUMPDEST PUSH1 0x0 PUSH1 0x20 DUP3 ADD SWAP1 POP PUSH2 0x2F5 PUSH1 0x0 DUP4 ADD DUP5 PUSH2 0x26E JUMP JUMPDEST SWAP3 SWAP2 POP POP JUMP JUMPDEST PUSH1 0x0 PUSH1 0x20 DUP3 ADD SWAP1 POP PUSH2 0x310 PUSH1 0x0 DUP4 ADD DUP5 PUSH2 0x27D JUMP JUMPDEST SWAP3 SWAP2 POP POP JUMP JUMPDEST PUSH1 0x0 PUSH1 0x20 DUP3 ADD SWAP1 POP PUSH2 0x32B PUSH1 0x0 DUP4 ADD DUP5 PUSH2 0x28C JUMP JUMPDEST SWAP3 SWAP2 POP POP JUMP JUMPDEST PUSH1 0x0 PUSH1 0x20 DUP3 ADD SWAP1 POP PUSH2 0x346 PUSH1 0x0 DUP4 ADD DUP5 PUSH2 0x29B JUMP JUMPDEST SWAP3 SWAP2 POP POP JUMP JUMPDEST PUSH1 0x0 PUSH2 0x357 DUP3 PUSH2 0x37E JUMP JUMPDEST SWAP1 POP SWAP2 SWAP1 POP JUMP JUMPDEST PUSH1 0x0 DUP2 ISZERO ISZERO SWAP1 POP SWAP2 SWAP1 POP JUMP JUMPDEST PUSH1 0x0 DUP2 SWAP1 POP SWAP2 SWAP1 POP JUMP JUMPDEST PUSH1 0x0 DUP2 SWAP1 POP SWAP2 SWAP1 POP JUMP JUMPDEST PUSH1 0x0 PUSH20 0xFFFFFFFFFFFFFFFFFFFFFFFFFFFFFFFFFFFFFFFF DUP3 AND SWAP1 POP SWAP2 SWAP1 POP JUMP JUMPDEST PUSH1 0x0 DUP2 SWAP1 POP SWAP2 SWAP1 POP JUMP JUMPDEST PUSH1 0x0 PUSH1 0xFF DUP3 AND SWAP1 POP SWAP2 SWAP1 POP JUMP INVALID LOG2 PUSH5 0x6970667358 0x22 SLT KECCAK256 PUSH14 0x4BAF7F338C90664FC9B752B51850 0xE2 PUSH30 0xFF1B3D08BE0DE697B8D6FAA0ECEB7064736F6C6343000807003300000000 "
				},
				"gasEstimates": {
					"creation": {
						"codeDepositCost": "200600",
						"executionCost": "254372",
						"totalCost": "454972"
					},
					"external": {
						"addr()": "2609",
						"b()": "2491",
						"b32()": "2495",
						"d()": "2429",
						"e()": "2517",
						"f()": "2430",
						"g()": "2515",
						"h()": "2543",
						"maxInt()": "2496",
						"minInt()": "2518"
					}
				},
				"methodIdentifiers": {
					"addr()": "767800de",
					"b()": "4df7e3d0",
					"b32()": "f8aab238",
					"d()": "8a054ac2",
					"e()": "ffae15ba",
					"f()": "26121ff0",
					"g()": "e2179b8e",
					"h()": "b8c9d365",
					"maxInt()": "7a4c2571",
					"minInt()": "7e4e14cc"
				}
			},
			"storageLayout": {
				"storage": [
					{
						"astId": 4,
						"contract": "contracts/DataTypesValues-2.sol:ValueTypes",
						"label": "b",
						"offset": 0,
						"slot": "0",
						"type": "t_bool"
					},
					{
						"astId": 7,
						"contract": "contracts/DataTypesValues-2.sol:ValueTypes",
						"label": "c",
						"offset": 1,
						"slot": "0",
						"type": "t_bool"
					},
					{
						"astId": 10,
						"contract": "contracts/DataTypesValues-2.sol:ValueTypes",
						"label": "d",
						"offset": 0,
						"slot": "1",
						"type": "t_uint256"
					},
					{
						"astId": 14,
						"contract": "contracts/DataTypesValues-2.sol:ValueTypes",
						"label": "e",
						"offset": 0,
						"slot": "2",
						"type": "t_int256"
					},
					{
						"astId": 17,
						"contract": "contracts/DataTypesValues-2.sol:ValueTypes",
						"label": "f",
						"offset": 0,
						"slot": "3",
						"type": "t_int256"
					},
					{
						"astId": 24,
						"contract": "contracts/DataTypesValues-2.sol:ValueTypes",
						"label": "minInt",
						"offset": 0,
						"slot": "4",
						"type": "t_int256"
					},
					{
						"astId": 31,
						"contract": "contracts/DataTypesValues-2.sol:ValueTypes",
						"label": "maxInt",
						"offset": 0,
						"slot": "5",
						"type": "t_int256"
					},
					{
						"astId": 38,
						"contract": "contracts/DataTypesValues-2.sol:ValueTypes",
						"label": "g",
						"offset": 0,
						"slot": "6",
						"type": "t_uint8"
					},
					{
						"astId": 45,
						"contract": "contracts/DataTypesValues-2.sol:ValueTypes",
						"label": "h",
						"offset": 1,
						"slot": "6",
						"type": "t_uint8"
					},
					{
						"astId": 48,
						"contract": "contracts/DataTypesValues-2.sol:ValueTypes",
						"label": "addr",
						"offset": 2,
						"slot": "6",
						"type": "t_address"
					},
					{
						"astId": 51,
						"contract": "contracts/DataTypesValues-2.sol:ValueTypes",
						"label": "b32",
						"offset": 0,
						"slot": "7",
						"type": "t_bytes32"
					}
				],
				"types": {
					"t_address": {
						"encoding": "inplace",
						"label": "address",
						"numberOfBytes": "20"
					},
					"t_bool": {
						"encoding": "inplace",
						"label": "bool",
						"numberOfBytes": "1"
					},
					"t_bytes32": {
						"encoding": "inplace",
						"label": "bytes32",
						"numberOfBytes": "32"
					},
					"t_int256": {
						"encoding": "inplace",
						"label": "int256",
						"numberOfBytes": "32"
					},
					"t_uint256": {
						"encoding": "inplace",
						"label": "uint256",
						"numberOfBytes": "32"
					},
					"t_uint8": {
						"encoding": "inplace",
						"label": "uint8",
						"numberOfBytes": "1"
					}
				}
			},
			"userdoc": {
				"kind": "user",
				"methods": {},
				"version": 1
			}
		}
	}
}