{
	"contracts/FunctionOutputs-18.sol": {
		"FunctionOutpus": {
			"abi": [
				{
					"inputs": [],
					"name": "assigned",
					"outputs": [
						{
							"internalType": "uint256",
							"name": "x",
							"type": "uint256"
						},
						{
							"internalType": "bool",
							"name": "b",
							"type": "bool"
						}
					],
					"stateMutability": "pure",
					"type": "function"
				},
				{
					"inputs": [],
					"name": "destructingAssignments",
					"outputs": [],
					"stateMutability": "pure",
					"type": "function"
				},
				{
					"inputs": [],
					"name": "named",
					"outputs": [
						{
							"internalType": "uint256",
							"name": "x",
							"type": "uint256"
						},
						{
							"internalType": "bool",
							"name": "b",
							"type": "bool"
						}
					],
					"stateMutability": "pure",
					"type": "function"
				},
				{
					"inputs": [],
					"name": "returnMany",
					"outputs": [
						{
							"internalType": "uint256",
							"name": "",
							"type": "uint256"
						},
						{
							"internalType": "bool",
							"name": "",
							"type": "bool"
						}
					],
					"stateMutability": "pure",
					"type": "function"
				}
			],
			"devdoc": {
				"kind": "dev",
				"methods": {},
				"version": 1
			},
			"evm": {
				"assembly": "    /* \"contracts/FunctionOutputs-18.sol\":58:624  contract FunctionOutpus {... */\n  mstore(0x40, 0x80)\n  callvalue\n  dup1\n  iszero\n  tag_1\n  jumpi\n  0x00\n  dup1\n  revert\ntag_1:\n  pop\n  dataSize(sub_0)\n  dup1\n  dataOffset(sub_0)\n  0x00\n  codecopy\n  0x00\n  return\nstop\n\nsub_0: assembly {\n        /* \"contracts/FunctionOutputs-18.sol\":58:624  contract FunctionOutpus {... */\n      mstore(0x40, 0x80)\n      callvalue\n      dup1\n      iszero\n      tag_1\n      jumpi\n      0x00\n      dup1\n      revert\n    tag_1:\n      pop\n      jumpi(tag_2, lt(calldatasize, 0x04))\n      shr(0xe0, calldataload(0x00))\n      dup1\n      0x3f7f3db6\n      eq\n      tag_3\n      jumpi\n      dup1\n      0x45f907a8\n      eq\n      tag_4\n      jumpi\n      dup1\n      0x86887544\n      eq\n      tag_5\n      jumpi\n      dup1\n      0xadb4d990\n      eq\n      tag_6\n      jumpi\n    tag_2:\n      0x00\n      dup1\n      revert\n        /* \"contracts/FunctionOutputs-18.sol\":484:622  function destructingAssignments() public pure {... */\n    tag_3:\n      tag_7\n      tag_8\n      jump\t// in\n    tag_7:\n      stop\n        /* \"contracts/FunctionOutputs-18.sol\":286:374  function named() public pure returns (uint x, bool b ) {... */\n    tag_4:\n      tag_9\n      tag_10\n      jump\t// in\n    tag_9:\n      mload(0x40)\n      tag_11\n      swap3\n      swap2\n      swap1\n      tag_12\n      jump\t// in\n    tag_11:\n      mload(0x40)\n      dup1\n      swap2\n      sub\n      swap1\n      return\n        /* \"contracts/FunctionOutputs-18.sol\":192:280  function returnMany() public pure returns (uint, bool) {... */\n    tag_5:\n      tag_13\n      tag_14\n      jump\t// in\n    tag_13:\n      mload(0x40)\n      tag_15\n      swap3\n      swap2\n      swap1\n      tag_12\n      jump\t// in\n    tag_15:\n      mload(0x40)\n      dup1\n      swap2\n      sub\n      swap1\n      return\n        /* \"contracts/FunctionOutputs-18.sol\":380:478  function assigned() public pure returns (uint x, bool b ) {... */\n    tag_6:\n      tag_16\n      tag_17\n      jump\t// in\n    tag_16:\n      mload(0x40)\n      tag_18\n      swap3\n      swap2\n      swap1\n      tag_12\n      jump\t// in\n    tag_18:\n      mload(0x40)\n      dup1\n      swap2\n      sub\n      swap1\n      return\n        /* \"contracts/FunctionOutputs-18.sol\":484:622  function destructingAssignments() public pure {... */\n    tag_8:\n        /* \"contracts/FunctionOutputs-18.sol\":585:591  uint x */\n      0x00\n        /* \"contracts/FunctionOutputs-18.sol\":593:599  bool b */\n      dup1\n        /* \"contracts/FunctionOutputs-18.sol\":603:615  returnMany() */\n      tag_20\n        /* \"contracts/FunctionOutputs-18.sol\":603:613  returnMany */\n      tag_14\n        /* \"contracts/FunctionOutputs-18.sol\":603:615  returnMany() */\n      jump\t// in\n    tag_20:\n        /* \"contracts/FunctionOutputs-18.sol\":584:615  (uint x, bool b) = returnMany() */\n      swap2\n      pop\n      swap2\n      pop\n        /* \"contracts/FunctionOutputs-18.sol\":530:622  {... */\n      pop\n      pop\n        /* \"contracts/FunctionOutputs-18.sol\":484:622  function destructingAssignments() public pure {... */\n      jump\t// out\n        /* \"contracts/FunctionOutputs-18.sol\":286:374  function named() public pure returns (uint x, bool b ) {... */\n    tag_10:\n        /* \"contracts/FunctionOutputs-18.sol\":324:330  uint x */\n      0x00\n        /* \"contracts/FunctionOutputs-18.sol\":332:338  bool b */\n      dup1\n        /* \"contracts/FunctionOutputs-18.sol\":359:360  1 */\n      0x01\n        /* \"contracts/FunctionOutputs-18.sol\":362:366  true */\n      dup1\n        /* \"contracts/FunctionOutputs-18.sol\":351:367  return (1, true) */\n      swap2\n      pop\n      swap2\n      pop\n        /* \"contracts/FunctionOutputs-18.sol\":286:374  function named() public pure returns (uint x, bool b ) {... */\n      swap1\n      swap2\n      jump\t// out\n        /* \"contracts/FunctionOutputs-18.sol\":192:280  function returnMany() public pure returns (uint, bool) {... */\n    tag_14:\n        /* \"contracts/FunctionOutputs-18.sol\":235:239  uint */\n      0x00\n        /* \"contracts/FunctionOutputs-18.sol\":241:245  bool */\n      dup1\n        /* \"contracts/FunctionOutputs-18.sol\":265:266  1 */\n      0x01\n        /* \"contracts/FunctionOutputs-18.sol\":268:272  true */\n      dup1\n        /* \"contracts/FunctionOutputs-18.sol\":257:273  return (1, true) */\n      swap2\n      pop\n      swap2\n      pop\n        /* \"contracts/FunctionOutputs-18.sol\":192:280  function returnMany() public pure returns (uint, bool) {... */\n      swap1\n      swap2\n      jump\t// out\n        /* \"contracts/FunctionOutputs-18.sol\":380:478  function assigned() public pure returns (uint x, bool b ) {... */\n    tag_17:\n        /* \"contracts/FunctionOutputs-18.sol\":421:427  uint x */\n      0x00\n        /* \"contracts/FunctionOutputs-18.sol\":429:435  bool b */\n      dup1\n        /* \"contracts/FunctionOutputs-18.sol\":452:453  1 */\n      0x01\n        /* \"contracts/FunctionOutputs-18.sol\":448:453  x = 1 */\n      swap2\n      pop\n        /* \"contracts/FunctionOutputs-18.sol\":467:471  true */\n      0x01\n        /* \"contracts/FunctionOutputs-18.sol\":463:471  b = true */\n      swap1\n      pop\n        /* \"contracts/FunctionOutputs-18.sol\":380:478  function assigned() public pure returns (uint x, bool b ) {... */\n      swap1\n      swap2\n      jump\t// out\n        /* \"#utility.yul\":7:116   */\n    tag_25:\n        /* \"#utility.yul\":88:109   */\n      tag_27\n        /* \"#utility.yul\":103:108   */\n      dup2\n        /* \"#utility.yul\":88:109   */\n      tag_28\n      jump\t// in\n    tag_27:\n        /* \"#utility.yul\":83:86   */\n      dup3\n        /* \"#utility.yul\":76:110   */\n      mstore\n        /* \"#utility.yul\":7:116   */\n      pop\n      pop\n      jump\t// out\n        /* \"#utility.yul\":122:240   */\n    tag_29:\n        /* \"#utility.yul\":209:233   */\n      tag_31\n        /* \"#utility.yul\":227:232   */\n      dup2\n        /* \"#utility.yul\":209:233   */\n      tag_32\n      jump\t// in\n    tag_31:\n        /* \"#utility.yul\":204:207   */\n      dup3\n        /* \"#utility.yul\":197:234   */\n      mstore\n        /* \"#utility.yul\":122:240   */\n      pop\n      pop\n      jump\t// out\n        /* \"#utility.yul\":246:566   */\n    tag_12:\n        /* \"#utility.yul\":361:365   */\n      0x00\n        /* \"#utility.yul\":399:401   */\n      0x40\n        /* \"#utility.yul\":388:397   */\n      dup3\n        /* \"#utility.yul\":384:402   */\n      add\n        /* \"#utility.yul\":376:402   */\n      swap1\n      pop\n        /* \"#utility.yul\":412:483   */\n      tag_34\n        /* \"#utility.yul\":480:481   */\n      0x00\n        /* \"#utility.yul\":469:478   */\n      dup4\n        /* \"#utility.yul\":465:482   */\n      add\n        /* \"#utility.yul\":456:462   */\n      dup6\n        /* \"#utility.yul\":412:483   */\n      tag_29\n      jump\t// in\n    tag_34:\n        /* \"#utility.yul\":493:559   */\n      tag_35\n        /* \"#utility.yul\":555:557   */\n      0x20\n        /* \"#utility.yul\":544:553   */\n      dup4\n        /* \"#utility.yul\":540:558   */\n      add\n        /* \"#utility.yul\":531:537   */\n      dup5\n        /* \"#utility.yul\":493:559   */\n      tag_25\n      jump\t// in\n    tag_35:\n        /* \"#utility.yul\":246:566   */\n      swap4\n      swap3\n      pop\n      pop\n      pop\n      jump\t// out\n        /* \"#utility.yul\":572:662   */\n    tag_28:\n        /* \"#utility.yul\":606:613   */\n      0x00\n        /* \"#utility.yul\":649:654   */\n      dup2\n        /* \"#utility.yul\":642:655   */\n      iszero\n        /* \"#utility.yul\":635:656   */\n      iszero\n        /* \"#utility.yul\":624:656   */\n      swap1\n      pop\n        /* \"#utility.yul\":572:662   */\n      swap2\n      swap1\n      pop\n      jump\t// out\n        /* \"#utility.yul\":668:745   */\n    tag_32:\n        /* \"#utility.yul\":705:712   */\n      0x00\n        /* \"#utility.yul\":734:739   */\n      dup2\n        /* \"#utility.yul\":723:739   */\n      swap1\n      pop\n        /* \"#utility.yul\":668:745   */\n      swap2\n      swap1\n      pop\n      jump\t// out\n\n    auxdata: 0xa2646970667358221220c320a19c22dc4f7ffb3c96c65bc2c2da168d4bfa225f927b4df6c138a920169464736f6c63430008070033\n}\n",
				"bytecode": {
					"linkReferences": {},
					"object": "608060405234801561001057600080fd5b50610189806100206000396000f3fe608060405234801561001057600080fd5b506004361061004c5760003560e01c80633f7f3db61461005157806345f907a81461005b578063868875441461007a578063adb4d99014610099575b600080fd5b6100596100b8565b005b6100636100cb565b604051610071929190610114565b60405180910390f35b6100826100d9565b604051610090929190610114565b60405180910390f35b6100a16100e7565b6040516100af929190610114565b60405180910390f35b6000806100c36100d9565b915091505050565b600080600180915091509091565b600080600180915091509091565b60008060019150600190509091565b6100ff8161013d565b82525050565b61010e81610149565b82525050565b60006040820190506101296000830185610105565b61013660208301846100f6565b9392505050565b60008115159050919050565b600081905091905056fea2646970667358221220c320a19c22dc4f7ffb3c96c65bc2c2da168d4bfa225f927b4df6c138a920169464736f6c63430008070033",
					"opcodes": "PUSH1 0x80 PUSH1 0x40 MSTORE CALLVALUE DUP1 ISZERO PUSH2 0x10 JUMPI PUSH1 0x0 DUP1 REVERT JUMPDEST POP PUSH2 0x189 DUP1 PUSH2 0x20 PUSH1 0x0 CODECOPY PUSH1 0x0 RETURN INVALID PUSH1 0x80 PUSH1 0x40 MSTORE CALLVALUE DUP1 ISZERO PUSH2 0x10 JUMPI PUSH1 0x0 DUP1 REVERT JUMPDEST POP PUSH1 0x4 CALLDATASIZE LT PUSH2 0x4C JUMPI PUSH1 0x0 CALLDATALOAD PUSH1 0xE0 SHR DUP1 PUSH4 0x3F7F3DB6 EQ PUSH2 0x51 JUMPI DUP1 PUSH4 0x45F907A8 EQ PUSH2 0x5B JUMPI DUP1 PUSH4 0x86887544 EQ PUSH2 0x7A JUMPI DUP1 PUSH4 0xADB4D990 EQ PUSH2 0x99 JUMPI JUMPDEST PUSH1 0x0 DUP1 REVERT JUMPDEST PUSH2 0x59 PUSH2 0xB8 JUMP JUMPDEST STOP JUMPDEST PUSH2 0x63 PUSH2 0xCB JUMP JUMPDEST PUSH1 0x40 MLOAD PUSH2 0x71 SWAP3 SWAP2 SWAP1 PUSH2 0x114 JUMP JUMPDEST PUSH1 0x40 MLOAD DUP1 SWAP2 SUB SWAP1 RETURN JUMPDEST PUSH2 0x82 PUSH2 0xD9 JUMP JUMPDEST PUSH1 0x40 MLOAD PUSH2 0x90 SWAP3 SWAP2 SWAP1 PUSH2 0x114 JUMP JUMPDEST PUSH1 0x40 MLOAD DUP1 SWAP2 SUB SWAP1 RETURN JUMPDEST PUSH2 0xA1 PUSH2 0xE7 JUMP JUMPDEST PUSH1 0x40 MLOAD PUSH2 0xAF SWAP3 SWAP2 SWAP1 PUSH2 0x114 JUMP JUMPDEST PUSH1 0x40 MLOAD DUP1 SWAP2 SUB SWAP1 RETURN JUMPDEST PUSH1 0x0 DUP1 PUSH2 0xC3 PUSH2 0xD9 JUMP JUMPDEST SWAP2 POP SWAP2 POP POP POP JUMP JUMPDEST PUSH1 0x0 DUP1 PUSH1 0x1 DUP1 SWAP2 POP SWAP2 POP SWAP1 SWAP2 JUMP JUMPDEST PUSH1 0x0 DUP1 PUSH1 0x1 DUP1 SWAP2 POP SWAP2 POP SWAP1 SWAP2 JUMP JUMPDEST PUSH1 0x0 DUP1 PUSH1 0x1 SWAP2 POP PUSH1 0x1 SWAP1 POP SWAP1 SWAP2 JUMP JUMPDEST PUSH2 0xFF DUP2 PUSH2 0x13D JUMP JUMPDEST DUP3 MSTORE POP POP JUMP JUMPDEST PUSH2 0x10E DUP2 PUSH2 0x149 JUMP JUMPDEST DUP3 MSTORE POP POP JUMP JUMPDEST PUSH1 0x0 PUSH1 0x40 DUP3 ADD SWAP1 POP PUSH2 0x129 PUSH1 0x0 DUP4 ADD DUP6 PUSH2 0x105 JUMP JUMPDEST PUSH2 0x136 PUSH1 0x20 DUP4 ADD DUP5 PUSH2 0xF6 JUMP JUMPDEST SWAP4 SWAP3 POP POP POP JUMP JUMPDEST PUSH1 0x0 DUP2 ISZERO ISZERO SWAP1 POP SWAP2 SWAP1 POP JUMP JUMPDEST PUSH1 0x0 DUP2 SWAP1 POP SWAP2 SWAP1 POP JUMP INVALID LOG2 PUSH5 0x6970667358 0x22 SLT KECCAK256 0xC3 KECCAK256 LOG1 SWAP13 0x22 0xDC 0x4F PUSH32 0xFB3C96C65BC2C2DA168D4BFA225F927B4DF6C138A920169464736F6C63430008 SMOD STOP CALLER "
				},
				"gasEstimates": {
					"creation": {
						"codeDepositCost": "78600",
						"executionCost": "129",
						"totalCost": "78729"
					},
					"external": {
						"assigned()": "501",
						"destructingAssignments()": "194",
						"named()": "457",
						"returnMany()": "479"
					}
				},
				"methodIdentifiers": {
					"assigned()": "adb4d990",
					"destructingAssignments()": "3f7f3db6",
					"named()": "45f907a8",
					"returnMany()": "86887544"
				}
			},
			"storageLayout": {
				"storage": [],
				"types": null
			},
			"userdoc": {
				"kind": "user",
				"methods": {},
				"version": 1
			}
		}
	}
}