{
	"contracts/Mapping-20.sol": {
		"Mapping": {
			"abi": [
				{
					"inputs": [
						{
							"internalType": "address",
							"name": "",
							"type": "address"
						}
					],
					"name": "balances",
					"outputs": [
						{
							"internalType": "uint256",
							"name": "",
							"type": "uint256"
						}
					],
					"stateMutability": "view",
					"type": "function"
				},
				{
					"inputs": [],
					"name": "examples",
					"outputs": [],
					"stateMutability": "nonpayable",
					"type": "function"
				},
				{
					"inputs": [
						{
							"internalType": "address",
							"name": "",
							"type": "address"
						},
						{
							"internalType": "address",
							"name": "",
							"type": "address"
						}
					],
					"name": "isFriend",
					"outputs": [
						{
							"internalType": "bool",
							"name": "",
							"type": "bool"
						}
					],
					"stateMutability": "view",
					"type": "function"
				}
			],
			"devdoc": {
				"kind": "dev",
				"methods": {},
				"version": 1
			},
			"evm": {
				"assembly": "    /* \"contracts/Mapping-20.sol\":167:469  contract Mapping {... */\n  mstore(0x40, 0x80)\n  callvalue\n  dup1\n  iszero\n  tag_1\n  jumpi\n  0x00\n  dup1\n  revert\ntag_1:\n  pop\n  dataSize(sub_0)\n  dup1\n  dataOffset(sub_0)\n  0x00\n  codecopy\n  0x00\n  return\nstop\n\nsub_0: assembly {\n        /* \"contracts/Mapping-20.sol\":167:469  contract Mapping {... */\n      mstore(0x40, 0x80)\n      callvalue\n      dup1\n      iszero\n      tag_1\n      jumpi\n      0x00\n      dup1\n      revert\n    tag_1:\n      pop\n      jumpi(tag_2, lt(calldatasize, 0x04))\n      shr(0xe0, calldataload(0x00))\n      dup1\n      0x27e235e3\n      eq\n      tag_3\n      jumpi\n      dup1\n      0x2da5d42e\n      eq\n      tag_4\n      jumpi\n      dup1\n      0x335d00c2\n      eq\n      tag_5\n      jumpi\n    tag_2:\n      0x00\n      dup1\n      revert\n        /* \"contracts/Mapping-20.sol\":190:230  mapping(address => uint) public balances */\n    tag_3:\n      tag_6\n      0x04\n      dup1\n      calldatasize\n      sub\n      dup2\n      add\n      swap1\n      tag_7\n      swap2\n      swap1\n      tag_8\n      jump\t// in\n    tag_7:\n      tag_9\n      jump\t// in\n    tag_6:\n      mload(0x40)\n      tag_10\n      swap2\n      swap1\n      tag_11\n      jump\t// in\n    tag_10:\n      mload(0x40)\n      dup1\n      swap2\n      sub\n      swap1\n      return\n        /* \"contracts/Mapping-20.sol\":236:296  mapping(address => mapping(address => bool)) public isFriend */\n    tag_4:\n      tag_12\n      0x04\n      dup1\n      calldatasize\n      sub\n      dup2\n      add\n      swap1\n      tag_13\n      swap2\n      swap1\n      tag_14\n      jump\t// in\n    tag_13:\n      tag_15\n      jump\t// in\n    tag_12:\n      mload(0x40)\n      tag_16\n      swap2\n      swap1\n      tag_17\n      jump\t// in\n    tag_16:\n      mload(0x40)\n      dup1\n      swap2\n      sub\n      swap1\n      return\n        /* \"contracts/Mapping-20.sol\":303:467  function examples() external {... */\n    tag_5:\n      tag_18\n      tag_19\n      jump\t// in\n    tag_18:\n      stop\n        /* \"contracts/Mapping-20.sol\":190:230  mapping(address => uint) public balances */\n    tag_9:\n      mstore(0x20, 0x00)\n      dup1\n      0x00\n      mstore\n      keccak256(0x00, 0x40)\n      0x00\n      swap2\n      pop\n      swap1\n      pop\n      sload\n      dup2\n      jump\t// out\n        /* \"contracts/Mapping-20.sol\":236:296  mapping(address => mapping(address => bool)) public isFriend */\n    tag_15:\n      mstore(0x20, 0x01)\n      dup2\n      0x00\n      mstore\n      mstore(0x20, keccak256(0x00, 0x40))\n      dup1\n      0x00\n      mstore\n      keccak256(0x00, 0x40)\n      0x00\n      swap2\n      pop\n      swap2\n      pop\n      swap1\n      sload\n      swap1\n      0x0100\n      exp\n      swap1\n      div\n      0xff\n      and\n      dup2\n      jump\t// out\n        /* \"contracts/Mapping-20.sol\":303:467  function examples() external {... */\n    tag_19:\n        /* \"contracts/Mapping-20.sol\":365:368  123 */\n      0x7b\n        /* \"contracts/Mapping-20.sol\":342:350  balances */\n      0x00\n        /* \"contracts/Mapping-20.sol\":342:362  balances[msg.sender] */\n      dup1\n        /* \"contracts/Mapping-20.sol\":351:361  msg.sender */\n      caller\n        /* \"contracts/Mapping-20.sol\":342:362  balances[msg.sender] */\n      0xffffffffffffffffffffffffffffffffffffffff\n      and\n      0xffffffffffffffffffffffffffffffffffffffff\n      and\n      dup2\n      mstore\n      0x20\n      add\n      swap1\n      dup2\n      mstore\n      0x20\n      add\n      0x00\n      keccak256\n        /* \"contracts/Mapping-20.sol\":342:368  balances[msg.sender] = 123 */\n      dup2\n      swap1\n      sstore\n      pop\n        /* \"contracts/Mapping-20.sol\":379:387  uint bal */\n      0x00\n        /* \"contracts/Mapping-20.sol\":390:398  balances */\n      dup1\n        /* \"contracts/Mapping-20.sol\":390:410  balances[msg.sender] */\n      0x00\n        /* \"contracts/Mapping-20.sol\":399:409  msg.sender */\n      caller\n        /* \"contracts/Mapping-20.sol\":390:410  balances[msg.sender] */\n      0xffffffffffffffffffffffffffffffffffffffff\n      and\n      0xffffffffffffffffffffffffffffffffffffffff\n      and\n      dup2\n      mstore\n      0x20\n      add\n      swap1\n      dup2\n      mstore\n      0x20\n      add\n      0x00\n      keccak256\n      sload\n        /* \"contracts/Mapping-20.sol\":379:410  uint bal = balances[msg.sender] */\n      swap1\n      pop\n        /* \"contracts/Mapping-20.sol\":422:431  uint bal3 */\n      0x00\n        /* \"contracts/Mapping-20.sol\":435:443  balances */\n      dup1\n        /* \"contracts/Mapping-20.sol\":435:455  balances[address(1)] */\n      0x00\n        /* \"contracts/Mapping-20.sol\":452:453  1 */\n      0x01\n        /* \"contracts/Mapping-20.sol\":435:455  balances[address(1)] */\n      0xffffffffffffffffffffffffffffffffffffffff\n      and\n      0xffffffffffffffffffffffffffffffffffffffff\n      and\n      dup2\n      mstore\n      0x20\n      add\n      swap1\n      dup2\n      mstore\n      0x20\n      add\n      0x00\n      keccak256\n      sload\n        /* \"contracts/Mapping-20.sol\":422:455  uint bal3 =  balances[address(1)] */\n      swap1\n      pop\n        /* \"contracts/Mapping-20.sol\":332:467  {... */\n      pop\n      pop\n        /* \"contracts/Mapping-20.sol\":303:467  function examples() external {... */\n      jump\t// out\n        /* \"#utility.yul\":7:146   */\n    tag_22:\n        /* \"#utility.yul\":53:58   */\n      0x00\n        /* \"#utility.yul\":91:97   */\n      dup2\n        /* \"#utility.yul\":78:98   */\n      calldataload\n        /* \"#utility.yul\":69:98   */\n      swap1\n      pop\n        /* \"#utility.yul\":107:140   */\n      tag_24\n        /* \"#utility.yul\":134:139   */\n      dup2\n        /* \"#utility.yul\":107:140   */\n      tag_25\n      jump\t// in\n    tag_24:\n        /* \"#utility.yul\":7:146   */\n      swap3\n      swap2\n      pop\n      pop\n      jump\t// out\n        /* \"#utility.yul\":152:481   */\n    tag_8:\n        /* \"#utility.yul\":211:217   */\n      0x00\n        /* \"#utility.yul\":260:262   */\n      0x20\n        /* \"#utility.yul\":248:257   */\n      dup3\n        /* \"#utility.yul\":239:246   */\n      dup5\n        /* \"#utility.yul\":235:258   */\n      sub\n        /* \"#utility.yul\":231:263   */\n      slt\n        /* \"#utility.yul\":228:347   */\n      iszero\n      tag_27\n      jumpi\n        /* \"#utility.yul\":266:345   */\n      tag_28\n      tag_29\n      jump\t// in\n    tag_28:\n        /* \"#utility.yul\":228:347   */\n    tag_27:\n        /* \"#utility.yul\":386:387   */\n      0x00\n        /* \"#utility.yul\":411:464   */\n      tag_30\n        /* \"#utility.yul\":456:463   */\n      dup5\n        /* \"#utility.yul\":447:453   */\n      dup3\n        /* \"#utility.yul\":436:445   */\n      dup6\n        /* \"#utility.yul\":432:454   */\n      add\n        /* \"#utility.yul\":411:464   */\n      tag_22\n      jump\t// in\n    tag_30:\n        /* \"#utility.yul\":401:464   */\n      swap2\n      pop\n        /* \"#utility.yul\":357:474   */\n      pop\n        /* \"#utility.yul\":152:481   */\n      swap3\n      swap2\n      pop\n      pop\n      jump\t// out\n        /* \"#utility.yul\":487:961   */\n    tag_14:\n        /* \"#utility.yul\":555:561   */\n      0x00\n        /* \"#utility.yul\":563:569   */\n      dup1\n        /* \"#utility.yul\":612:614   */\n      0x40\n        /* \"#utility.yul\":600:609   */\n      dup4\n        /* \"#utility.yul\":591:598   */\n      dup6\n        /* \"#utility.yul\":587:610   */\n      sub\n        /* \"#utility.yul\":583:615   */\n      slt\n        /* \"#utility.yul\":580:699   */\n      iszero\n      tag_32\n      jumpi\n        /* \"#utility.yul\":618:697   */\n      tag_33\n      tag_29\n      jump\t// in\n    tag_33:\n        /* \"#utility.yul\":580:699   */\n    tag_32:\n        /* \"#utility.yul\":738:739   */\n      0x00\n        /* \"#utility.yul\":763:816   */\n      tag_34\n        /* \"#utility.yul\":808:815   */\n      dup6\n        /* \"#utility.yul\":799:805   */\n      dup3\n        /* \"#utility.yul\":788:797   */\n      dup7\n        /* \"#utility.yul\":784:806   */\n      add\n        /* \"#utility.yul\":763:816   */\n      tag_22\n      jump\t// in\n    tag_34:\n        /* \"#utility.yul\":753:816   */\n      swap3\n      pop\n        /* \"#utility.yul\":709:826   */\n      pop\n        /* \"#utility.yul\":865:867   */\n      0x20\n        /* \"#utility.yul\":891:944   */\n      tag_35\n        /* \"#utility.yul\":936:943   */\n      dup6\n        /* \"#utility.yul\":927:933   */\n      dup3\n        /* \"#utility.yul\":916:925   */\n      dup7\n        /* \"#utility.yul\":912:934   */\n      add\n        /* \"#utility.yul\":891:944   */\n      tag_22\n      jump\t// in\n    tag_35:\n        /* \"#utility.yul\":881:944   */\n      swap2\n      pop\n        /* \"#utility.yul\":836:954   */\n      pop\n        /* \"#utility.yul\":487:961   */\n      swap3\n      pop\n      swap3\n      swap1\n      pop\n      jump\t// out\n        /* \"#utility.yul\":967:1076   */\n    tag_36:\n        /* \"#utility.yul\":1048:1069   */\n      tag_38\n        /* \"#utility.yul\":1063:1068   */\n      dup2\n        /* \"#utility.yul\":1048:1069   */\n      tag_39\n      jump\t// in\n    tag_38:\n        /* \"#utility.yul\":1043:1046   */\n      dup3\n        /* \"#utility.yul\":1036:1070   */\n      mstore\n        /* \"#utility.yul\":967:1076   */\n      pop\n      pop\n      jump\t// out\n        /* \"#utility.yul\":1082:1200   */\n    tag_40:\n        /* \"#utility.yul\":1169:1193   */\n      tag_42\n        /* \"#utility.yul\":1187:1192   */\n      dup2\n        /* \"#utility.yul\":1169:1193   */\n      tag_43\n      jump\t// in\n    tag_42:\n        /* \"#utility.yul\":1164:1167   */\n      dup3\n        /* \"#utility.yul\":1157:1194   */\n      mstore\n        /* \"#utility.yul\":1082:1200   */\n      pop\n      pop\n      jump\t// out\n        /* \"#utility.yul\":1206:1416   */\n    tag_17:\n        /* \"#utility.yul\":1293:1297   */\n      0x00\n        /* \"#utility.yul\":1331:1333   */\n      0x20\n        /* \"#utility.yul\":1320:1329   */\n      dup3\n        /* \"#utility.yul\":1316:1334   */\n      add\n        /* \"#utility.yul\":1308:1334   */\n      swap1\n      pop\n        /* \"#utility.yul\":1344:1409   */\n      tag_45\n        /* \"#utility.yul\":1406:1407   */\n      0x00\n        /* \"#utility.yul\":1395:1404   */\n      dup4\n        /* \"#utility.yul\":1391:1408   */\n      add\n        /* \"#utility.yul\":1382:1388   */\n      dup5\n        /* \"#utility.yul\":1344:1409   */\n      tag_36\n      jump\t// in\n    tag_45:\n        /* \"#utility.yul\":1206:1416   */\n      swap3\n      swap2\n      pop\n      pop\n      jump\t// out\n        /* \"#utility.yul\":1422:1644   */\n    tag_11:\n        /* \"#utility.yul\":1515:1519   */\n      0x00\n        /* \"#utility.yul\":1553:1555   */\n      0x20\n        /* \"#utility.yul\":1542:1551   */\n      dup3\n        /* \"#utility.yul\":1538:1556   */\n      add\n        /* \"#utility.yul\":1530:1556   */\n      swap1\n      pop\n        /* \"#utility.yul\":1566:1637   */\n      tag_47\n        /* \"#utility.yul\":1634:1635   */\n      0x00\n        /* \"#utility.yul\":1623:1632   */\n      dup4\n        /* \"#utility.yul\":1619:1636   */\n      add\n        /* \"#utility.yul\":1610:1616   */\n      dup5\n        /* \"#utility.yul\":1566:1637   */\n      tag_40\n      jump\t// in\n    tag_47:\n        /* \"#utility.yul\":1422:1644   */\n      swap3\n      swap2\n      pop\n      pop\n      jump\t// out\n        /* \"#utility.yul\":1731:1827   */\n    tag_50:\n        /* \"#utility.yul\":1768:1775   */\n      0x00\n        /* \"#utility.yul\":1797:1821   */\n      tag_52\n        /* \"#utility.yul\":1815:1820   */\n      dup3\n        /* \"#utility.yul\":1797:1821   */\n      tag_53\n      jump\t// in\n    tag_52:\n        /* \"#utility.yul\":1786:1821   */\n      swap1\n      pop\n        /* \"#utility.yul\":1731:1827   */\n      swap2\n      swap1\n      pop\n      jump\t// out\n        /* \"#utility.yul\":1833:1923   */\n    tag_39:\n        /* \"#utility.yul\":1867:1874   */\n      0x00\n        /* \"#utility.yul\":1910:1915   */\n      dup2\n        /* \"#utility.yul\":1903:1916   */\n      iszero\n        /* \"#utility.yul\":1896:1917   */\n      iszero\n        /* \"#utility.yul\":1885:1917   */\n      swap1\n      pop\n        /* \"#utility.yul\":1833:1923   */\n      swap2\n      swap1\n      pop\n      jump\t// out\n        /* \"#utility.yul\":1929:2055   */\n    tag_53:\n        /* \"#utility.yul\":1966:1973   */\n      0x00\n        /* \"#utility.yul\":2006:2048   */\n      0xffffffffffffffffffffffffffffffffffffffff\n        /* \"#utility.yul\":1999:2004   */\n      dup3\n        /* \"#utility.yul\":1995:2049   */\n      and\n        /* \"#utility.yul\":1984:2049   */\n      swap1\n      pop\n        /* \"#utility.yul\":1929:2055   */\n      swap2\n      swap1\n      pop\n      jump\t// out\n        /* \"#utility.yul\":2061:2138   */\n    tag_43:\n        /* \"#utility.yul\":2098:2105   */\n      0x00\n        /* \"#utility.yul\":2127:2132   */\n      dup2\n        /* \"#utility.yul\":2116:2132   */\n      swap1\n      pop\n        /* \"#utility.yul\":2061:2138   */\n      swap2\n      swap1\n      pop\n      jump\t// out\n        /* \"#utility.yul\":2267:2384   */\n    tag_29:\n        /* \"#utility.yul\":2376:2377   */\n      0x00\n        /* \"#utility.yul\":2373:2374   */\n      dup1\n        /* \"#utility.yul\":2366:2378   */\n      revert\n        /* \"#utility.yul\":2390:2512   */\n    tag_25:\n        /* \"#utility.yul\":2463:2487   */\n      tag_61\n        /* \"#utility.yul\":2481:2486   */\n      dup2\n        /* \"#utility.yul\":2463:2487   */\n      tag_50\n      jump\t// in\n    tag_61:\n        /* \"#utility.yul\":2456:2461   */\n      dup2\n        /* \"#utility.yul\":2453:2488   */\n      eq\n        /* \"#utility.yul\":2443:2506   */\n      tag_62\n      jumpi\n        /* \"#utility.yul\":2502:2503   */\n      0x00\n        /* \"#utility.yul\":2499:2500   */\n      dup1\n        /* \"#utility.yul\":2492:2504   */\n      revert\n        /* \"#utility.yul\":2443:2506   */\n    tag_62:\n        /* \"#utility.yul\":2390:2512   */\n      pop\n      jump\t// out\n\n    auxdata: 0xa2646970667358221220943c662c114dcdc11674ac7c0062ffe32e33260e0047836714a90393d763ef3664736f6c63430008070033\n}\n",
				"bytecode": {
					"linkReferences": {},
					"object": "608060405234801561001057600080fd5b50610336806100206000396000f3fe608060405234801561001057600080fd5b50600436106100415760003560e01c806327e235e3146100465780632da5d42e14610076578063335d00c2146100a6575b600080fd5b610060600480360381019061005b91906101db565b6100b0565b60405161006d9190610281565b60405180910390f35b610090600480360381019061008b9190610208565b6100c8565b60405161009d9190610266565b60405180910390f35b6100ae6100f7565b005b60006020528060005260406000206000915090505481565b60016020528160005260406000206020528060005260406000206000915091509054906101000a900460ff1681565b607b6000803373ffffffffffffffffffffffffffffffffffffffff1673ffffffffffffffffffffffffffffffffffffffff1681526020019081526020016000208190555060008060003373ffffffffffffffffffffffffffffffffffffffff1673ffffffffffffffffffffffffffffffffffffffff1681526020019081526020016000205490506000806000600173ffffffffffffffffffffffffffffffffffffffff1673ffffffffffffffffffffffffffffffffffffffff1681526020019081526020016000205490505050565b6000813590506101d5816102e9565b92915050565b6000602082840312156101f1576101f06102e4565b5b60006101ff848285016101c6565b91505092915050565b6000806040838503121561021f5761021e6102e4565b5b600061022d858286016101c6565b925050602061023e858286016101c6565b9150509250929050565b610251816102ae565b82525050565b610260816102da565b82525050565b600060208201905061027b6000830184610248565b92915050565b60006020820190506102966000830184610257565b92915050565b60006102a7826102ba565b9050919050565b60008115159050919050565b600073ffffffffffffffffffffffffffffffffffffffff82169050919050565b6000819050919050565b600080fd5b6102f28161029c565b81146102fd57600080fd5b5056fea2646970667358221220943c662c114dcdc11674ac7c0062ffe32e33260e0047836714a90393d763ef3664736f6c63430008070033",
					"opcodes": "PUSH1 0x80 PUSH1 0x40 MSTORE CALLVALUE DUP1 ISZERO PUSH2 0x10 JUMPI PUSH1 0x0 DUP1 REVERT JUMPDEST POP PUSH2 0x336 DUP1 PUSH2 0x20 PUSH1 0x0 CODECOPY PUSH1 0x0 RETURN INVALID PUSH1 0x80 PUSH1 0x40 MSTORE CALLVALUE DUP1 ISZERO PUSH2 0x10 JUMPI PUSH1 0x0 DUP1 REVERT JUMPDEST POP PUSH1 0x4 CALLDATASIZE LT PUSH2 0x41 JUMPI PUSH1 0x0 CALLDATALOAD PUSH1 0xE0 SHR DUP1 PUSH4 0x27E235E3 EQ PUSH2 0x46 JUMPI DUP1 PUSH4 0x2DA5D42E EQ PUSH2 0x76 JUMPI DUP1 PUSH4 0x335D00C2 EQ PUSH2 0xA6 JUMPI JUMPDEST PUSH1 0x0 DUP1 REVERT JUMPDEST PUSH2 0x60 PUSH1 0x4 DUP1 CALLDATASIZE SUB DUP2 ADD SWAP1 PUSH2 0x5B SWAP2 SWAP1 PUSH2 0x1DB JUMP JUMPDEST PUSH2 0xB0 JUMP JUMPDEST PUSH1 0x40 MLOAD PUSH2 0x6D SWAP2 SWAP1 PUSH2 0x281 JUMP JUMPDEST PUSH1 0x40 MLOAD DUP1 SWAP2 SUB SWAP1 RETURN JUMPDEST PUSH2 0x90 PUSH1 0x4 DUP1 CALLDATASIZE SUB DUP2 ADD SWAP1 PUSH2 0x8B SWAP2 SWAP1 PUSH2 0x208 JUMP JUMPDEST PUSH2 0xC8 JUMP JUMPDEST PUSH1 0x40 MLOAD PUSH2 0x9D SWAP2 SWAP1 PUSH2 0x266 JUMP JUMPDEST PUSH1 0x40 MLOAD DUP1 SWAP2 SUB SWAP1 RETURN JUMPDEST PUSH2 0xAE PUSH2 0xF7 JUMP JUMPDEST STOP JUMPDEST PUSH1 0x0 PUSH1 0x20 MSTORE DUP1 PUSH1 0x0 MSTORE PUSH1 0x40 PUSH1 0x0 KECCAK256 PUSH1 0x0 SWAP2 POP SWAP1 POP SLOAD DUP2 JUMP JUMPDEST PUSH1 0x1 PUSH1 0x20 MSTORE DUP2 PUSH1 0x0 MSTORE PUSH1 0x40 PUSH1 0x0 KECCAK256 PUSH1 0x20 MSTORE DUP1 PUSH1 0x0 MSTORE PUSH1 0x40 PUSH1 0x0 KECCAK256 PUSH1 0x0 SWAP2 POP SWAP2 POP SWAP1 SLOAD SWAP1 PUSH2 0x100 EXP SWAP1 DIV PUSH1 0xFF AND DUP2 JUMP JUMPDEST PUSH1 0x7B PUSH1 0x0 DUP1 CALLER PUSH20 0xFFFFFFFFFFFFFFFFFFFFFFFFFFFFFFFFFFFFFFFF AND PUSH20 0xFFFFFFFFFFFFFFFFFFFFFFFFFFFFFFFFFFFFFFFF AND DUP2 MSTORE PUSH1 0x20 ADD SWAP1 DUP2 MSTORE PUSH1 0x20 ADD PUSH1 0x0 KECCAK256 DUP2 SWAP1 SSTORE POP PUSH1 0x0 DUP1 PUSH1 0x0 CALLER PUSH20 0xFFFFFFFFFFFFFFFFFFFFFFFFFFFFFFFFFFFFFFFF AND PUSH20 0xFFFFFFFFFFFFFFFFFFFFFFFFFFFFFFFFFFFFFFFF AND DUP2 MSTORE PUSH1 0x20 ADD SWAP1 DUP2 MSTORE PUSH1 0x20 ADD PUSH1 0x0 KECCAK256 SLOAD SWAP1 POP PUSH1 0x0 DUP1 PUSH1 0x0 PUSH1 0x1 PUSH20 0xFFFFFFFFFFFFFFFFFFFFFFFFFFFFFFFFFFFFFFFF AND PUSH20 0xFFFFFFFFFFFFFFFFFFFFFFFFFFFFFFFFFFFFFFFF AND DUP2 MSTORE PUSH1 0x20 ADD SWAP1 DUP2 MSTORE PUSH1 0x20 ADD PUSH1 0x0 KECCAK256 SLOAD SWAP1 POP POP POP JUMP JUMPDEST PUSH1 0x0 DUP2 CALLDATALOAD SWAP1 POP PUSH2 0x1D5 DUP2 PUSH2 0x2E9 JUMP JUMPDEST SWAP3 SWAP2 POP POP JUMP JUMPDEST PUSH1 0x0 PUSH1 0x20 DUP3 DUP5 SUB SLT ISZERO PUSH2 0x1F1 JUMPI PUSH2 0x1F0 PUSH2 0x2E4 JUMP JUMPDEST JUMPDEST PUSH1 0x0 PUSH2 0x1FF DUP5 DUP3 DUP6 ADD PUSH2 0x1C6 JUMP JUMPDEST SWAP2 POP POP SWAP3 SWAP2 POP POP JUMP JUMPDEST PUSH1 0x0 DUP1 PUSH1 0x40 DUP4 DUP6 SUB SLT ISZERO PUSH2 0x21F JUMPI PUSH2 0x21E PUSH2 0x2E4 JUMP JUMPDEST JUMPDEST PUSH1 0x0 PUSH2 0x22D DUP6 DUP3 DUP7 ADD PUSH2 0x1C6 JUMP JUMPDEST SWAP3 POP POP PUSH1 0x20 PUSH2 0x23E DUP6 DUP3 DUP7 ADD PUSH2 0x1C6 JUMP JUMPDEST SWAP2 POP POP SWAP3 POP SWAP3 SWAP1 POP JUMP JUMPDEST PUSH2 0x251 DUP2 PUSH2 0x2AE JUMP JUMPDEST DUP3 MSTORE POP POP JUMP JUMPDEST PUSH2 0x260 DUP2 PUSH2 0x2DA JUMP JUMPDEST DUP3 MSTORE POP POP JUMP JUMPDEST PUSH1 0x0 PUSH1 0x20 DUP3 ADD SWAP1 POP PUSH2 0x27B PUSH1 0x0 DUP4 ADD DUP5 PUSH2 0x248 JUMP JUMPDEST SWAP3 SWAP2 POP POP JUMP JUMPDEST PUSH1 0x0 PUSH1 0x20 DUP3 ADD SWAP1 POP PUSH2 0x296 PUSH1 0x0 DUP4 ADD DUP5 PUSH2 0x257 JUMP JUMPDEST SWAP3 SWAP2 POP POP JUMP JUMPDEST PUSH1 0x0 PUSH2 0x2A7 DUP3 PUSH2 0x2BA JUMP JUMPDEST SWAP1 POP SWAP2 SWAP1 POP JUMP JUMPDEST PUSH1 0x0 DUP2 ISZERO ISZERO SWAP1 POP SWAP2 SWAP1 POP JUMP JUMPDEST PUSH1 0x0 PUSH20 0xFFFFFFFFFFFFFFFFFFFFFFFFFFFFFFFFFFFFFFFF DUP3 AND SWAP1 POP SWAP2 SWAP1 POP JUMP JUMPDEST PUSH1 0x0 DUP2 SWAP1 POP SWAP2 SWAP1 POP JUMP JUMPDEST PUSH1 0x0 DUP1 REVERT JUMPDEST PUSH2 0x2F2 DUP2 PUSH2 0x29C JUMP JUMPDEST DUP2 EQ PUSH2 0x2FD JUMPI PUSH1 0x0 DUP1 REVERT JUMPDEST POP JUMP INVALID LOG2 PUSH5 0x6970667358 0x22 SLT KECCAK256 SWAP5 EXTCODECOPY PUSH7 0x2C114DCDC11674 0xAC PUSH29 0x62FFE32E33260E0047836714A90393D763EF3664736F6C6343000807 STOP CALLER "
				},
				"gasEstimates": {
					"creation": {
						"codeDepositCost": "164400",
						"executionCost": "208",
						"totalCost": "164608"
					},
					"external": {
						"balances(address)": "2792",
						"examples()": "26774",
						"isFriend(address,address)": "infinite"
					}
				},
				"methodIdentifiers": {
					"balances(address)": "27e235e3",
					"examples()": "335d00c2",
					"isFriend(address,address)": "2da5d42e"
				}
			},
			"storageLayout": {
				"storage": [
					{
						"astId": 5,
						"contract": "contracts/Mapping-20.sol:Mapping",
						"label": "balances",
						"offset": 0,
						"slot": "0",
						"type": "t_mapping(t_address,t_uint256)"
					},
					{
						"astId": 11,
						"contract": "contracts/Mapping-20.sol:Mapping",
						"label": "isFriend",
						"offset": 0,
						"slot": "1",
						"type": "t_mapping(t_address,t_mapping(t_address,t_bool))"
					}
				],
				"types": {
					"t_address": {
						"encoding": "inplace",
						"label": "address",
						"numberOfBytes": "20"
					},
					"t_bool": {
						"encoding": "inplace",
						"label": "bool",
						"numberOfBytes": "1"
					},
					"t_mapping(t_address,t_bool)": {
						"encoding": "mapping",
						"key": "t_address",
						"label": "mapping(address => bool)",
						"numberOfBytes": "32",
						"value": "t_bool"
					},
					"t_mapping(t_address,t_mapping(t_address,t_bool))": {
						"encoding": "mapping",
						"key": "t_address",
						"label": "mapping(address => mapping(address => bool))",
						"numberOfBytes": "32",
						"value": "t_mapping(t_address,t_bool)"
					},
					"t_mapping(t_address,t_uint256)": {
						"encoding": "mapping",
						"key": "t_address",
						"label": "mapping(address => uint256)",
						"numberOfBytes": "32",
						"value": "t_uint256"
					},
					"t_uint256": {
						"encoding": "inplace",
						"label": "uint256",
						"numberOfBytes": "32"
					}
				}
			},
			"userdoc": {
				"kind": "user",
				"methods": {},
				"version": 1
			}
		}
	}
}