{
	"contracts/FunctionModifier-15.sol": {
		"FunctionModifier": {
			"abi": [
				{
					"inputs": [],
					"name": "count",
					"outputs": [
						{
							"internalType": "uint256",
							"name": "",
							"type": "uint256"
						}
					],
					"stateMutability": "view",
					"type": "function"
				},
				{
					"inputs": [],
					"name": "dec",
					"outputs": [],
					"stateMutability": "nonpayable",
					"type": "function"
				},
				{
					"inputs": [],
					"name": "inc",
					"outputs": [],
					"stateMutability": "nonpayable",
					"type": "function"
				},
				{
					"inputs": [],
					"name": "paused",
					"outputs": [
						{
							"internalType": "bool",
							"name": "",
							"type": "bool"
						}
					],
					"stateMutability": "view",
					"type": "function"
				},
				{
					"inputs": [
						{
							"internalType": "bool",
							"name": "_paused",
							"type": "bool"
						}
					],
					"name": "setPause",
					"outputs": [],
					"stateMutability": "nonpayable",
					"type": "function"
				}
			],
			"devdoc": {
				"kind": "dev",
				"methods": {},
				"version": 1
			},
			"evm": {
				"assembly": "    /* \"contracts/FunctionModifier-15.sol\":151:494  contract FunctionModifier {... */\n  mstore(0x40, 0x80)\n  callvalue\n  dup1\n  iszero\n  tag_1\n  jumpi\n  0x00\n  dup1\n  revert\ntag_1:\n  pop\n  dataSize(sub_0)\n  dup1\n  dataOffset(sub_0)\n  0x00\n  codecopy\n  0x00\n  return\nstop\n\nsub_0: assembly {\n        /* \"contracts/FunctionModifier-15.sol\":151:494  contract FunctionModifier {... */\n      mstore(0x40, 0x80)\n      callvalue\n      dup1\n      iszero\n      tag_1\n      jumpi\n      0x00\n      dup1\n      revert\n    tag_1:\n      pop\n      jumpi(tag_2, lt(calldatasize, 0x04))\n      shr(0xe0, calldataload(0x00))\n      dup1\n      0x06661abd\n      eq\n      tag_3\n      jumpi\n      dup1\n      0x371303c0\n      eq\n      tag_4\n      jumpi\n      dup1\n      0x5c975abb\n      eq\n      tag_5\n      jumpi\n      dup1\n      0xb3bcfa82\n      eq\n      tag_6\n      jumpi\n      dup1\n      0xbedb86fb\n      eq\n      tag_7\n      jumpi\n    tag_2:\n      0x00\n      dup1\n      revert\n        /* \"contracts/FunctionModifier-15.sol\":207:224  uint public count */\n    tag_3:\n      tag_8\n      tag_9\n      jump\t// in\n    tag_8:\n      mload(0x40)\n      tag_10\n      swap2\n      swap1\n      tag_11\n      jump\t// in\n    tag_10:\n      mload(0x40)\n      dup1\n      swap2\n      sub\n      swap1\n      return\n        /* \"contracts/FunctionModifier-15.sol\":311:398  function inc() external {... */\n    tag_4:\n      tag_12\n      tag_13\n      jump\t// in\n    tag_12:\n      stop\n        /* \"contracts/FunctionModifier-15.sol\":183:201  bool public paused */\n    tag_5:\n      tag_14\n      tag_15\n      jump\t// in\n    tag_14:\n      mload(0x40)\n      tag_16\n      swap2\n      swap1\n      tag_17\n      jump\t// in\n    tag_16:\n      mload(0x40)\n      dup1\n      swap2\n      sub\n      swap1\n      return\n        /* \"contracts/FunctionModifier-15.sol\":404:490  function dec() external {... */\n    tag_6:\n      tag_18\n      tag_19\n      jump\t// in\n    tag_18:\n      stop\n        /* \"contracts/FunctionModifier-15.sol\":231:305  function setPause(bool _paused) external {... */\n    tag_7:\n      tag_20\n      0x04\n      dup1\n      calldatasize\n      sub\n      dup2\n      add\n      swap1\n      tag_21\n      swap2\n      swap1\n      tag_22\n      jump\t// in\n    tag_21:\n      tag_23\n      jump\t// in\n    tag_20:\n      stop\n        /* \"contracts/FunctionModifier-15.sol\":207:224  uint public count */\n    tag_9:\n      sload(0x01)\n      dup2\n      jump\t// out\n        /* \"contracts/FunctionModifier-15.sol\":311:398  function inc() external {... */\n    tag_13:\n        /* \"contracts/FunctionModifier-15.sol\":354:360  paused */\n      0x00\n      dup1\n      sload\n      swap1\n      0x0100\n      exp\n      swap1\n      div\n      0xff\n      and\n        /* \"contracts/FunctionModifier-15.sol\":353:360  !paused */\n      iszero\n        /* \"contracts/FunctionModifier-15.sol\":345:371  require(!paused, \"paused\") */\n      tag_25\n      jumpi\n      mload(0x40)\n      0x08c379a000000000000000000000000000000000000000000000000000000000\n      dup2\n      mstore\n      0x04\n      add\n      tag_26\n      swap1\n      tag_27\n      jump\t// in\n    tag_26:\n      mload(0x40)\n      dup1\n      swap2\n      sub\n      swap1\n      revert\n    tag_25:\n        /* \"contracts/FunctionModifier-15.sol\":390:391  1 */\n      0x01\n        /* \"contracts/FunctionModifier-15.sol\":381:386  count */\n      dup1\n      0x00\n        /* \"contracts/FunctionModifier-15.sol\":381:391  count += 1 */\n      dup3\n      dup3\n      sload\n      tag_28\n      swap2\n      swap1\n      tag_29\n      jump\t// in\n    tag_28:\n      swap3\n      pop\n      pop\n      dup2\n      swap1\n      sstore\n      pop\n        /* \"contracts/FunctionModifier-15.sol\":311:398  function inc() external {... */\n      jump\t// out\n        /* \"contracts/FunctionModifier-15.sol\":183:201  bool public paused */\n    tag_15:\n      0x00\n      dup1\n      sload\n      swap1\n      0x0100\n      exp\n      swap1\n      div\n      0xff\n      and\n      dup2\n      jump\t// out\n        /* \"contracts/FunctionModifier-15.sol\":404:490  function dec() external {... */\n    tag_19:\n        /* \"contracts/FunctionModifier-15.sol\":447:453  paused */\n      0x00\n      dup1\n      sload\n      swap1\n      0x0100\n      exp\n      swap1\n      div\n      0xff\n      and\n        /* \"contracts/FunctionModifier-15.sol\":446:453  !paused */\n      iszero\n        /* \"contracts/FunctionModifier-15.sol\":438:464  require(!paused, \"paused\") */\n      tag_31\n      jumpi\n      mload(0x40)\n      0x08c379a000000000000000000000000000000000000000000000000000000000\n      dup2\n      mstore\n      0x04\n      add\n      tag_32\n      swap1\n      tag_27\n      jump\t// in\n    tag_32:\n      mload(0x40)\n      dup1\n      swap2\n      sub\n      swap1\n      revert\n    tag_31:\n        /* \"contracts/FunctionModifier-15.sol\":482:483  1 */\n      0x01\n        /* \"contracts/FunctionModifier-15.sol\":474:479  count */\n      dup1\n        /* \"contracts/FunctionModifier-15.sol\":474:483  count = 1 */\n      dup2\n      swap1\n      sstore\n      pop\n        /* \"contracts/FunctionModifier-15.sol\":404:490  function dec() external {... */\n      jump\t// out\n        /* \"contracts/FunctionModifier-15.sol\":231:305  function setPause(bool _paused) external {... */\n    tag_23:\n        /* \"contracts/FunctionModifier-15.sol\":291:298  _paused */\n      dup1\n        /* \"contracts/FunctionModifier-15.sol\":282:288  paused */\n      0x00\n      dup1\n        /* \"contracts/FunctionModifier-15.sol\":282:298  paused = _paused */\n      0x0100\n      exp\n      dup2\n      sload\n      dup2\n      0xff\n      mul\n      not\n      and\n      swap1\n      dup4\n      iszero\n      iszero\n      mul\n      or\n      swap1\n      sstore\n      pop\n        /* \"contracts/FunctionModifier-15.sol\":231:305  function setPause(bool _paused) external {... */\n      pop\n      jump\t// out\n        /* \"#utility.yul\":7:140   */\n    tag_35:\n        /* \"#utility.yul\":50:55   */\n      0x00\n        /* \"#utility.yul\":88:94   */\n      dup2\n        /* \"#utility.yul\":75:95   */\n      calldataload\n        /* \"#utility.yul\":66:95   */\n      swap1\n      pop\n        /* \"#utility.yul\":104:134   */\n      tag_37\n        /* \"#utility.yul\":128:133   */\n      dup2\n        /* \"#utility.yul\":104:134   */\n      tag_38\n      jump\t// in\n    tag_37:\n        /* \"#utility.yul\":7:140   */\n      swap3\n      swap2\n      pop\n      pop\n      jump\t// out\n        /* \"#utility.yul\":146:469   */\n    tag_22:\n        /* \"#utility.yul\":202:208   */\n      0x00\n        /* \"#utility.yul\":251:253   */\n      0x20\n        /* \"#utility.yul\":239:248   */\n      dup3\n        /* \"#utility.yul\":230:237   */\n      dup5\n        /* \"#utility.yul\":226:249   */\n      sub\n        /* \"#utility.yul\":222:254   */\n      slt\n        /* \"#utility.yul\":219:338   */\n      iszero\n      tag_40\n      jumpi\n        /* \"#utility.yul\":257:336   */\n      tag_41\n      tag_42\n      jump\t// in\n    tag_41:\n        /* \"#utility.yul\":219:338   */\n    tag_40:\n        /* \"#utility.yul\":377:378   */\n      0x00\n        /* \"#utility.yul\":402:452   */\n      tag_43\n        /* \"#utility.yul\":444:451   */\n      dup5\n        /* \"#utility.yul\":435:441   */\n      dup3\n        /* \"#utility.yul\":424:433   */\n      dup6\n        /* \"#utility.yul\":420:442   */\n      add\n        /* \"#utility.yul\":402:452   */\n      tag_35\n      jump\t// in\n    tag_43:\n        /* \"#utility.yul\":392:452   */\n      swap2\n      pop\n        /* \"#utility.yul\":348:462   */\n      pop\n        /* \"#utility.yul\":146:469   */\n      swap3\n      swap2\n      pop\n      pop\n      jump\t// out\n        /* \"#utility.yul\":475:584   */\n    tag_44:\n        /* \"#utility.yul\":556:577   */\n      tag_46\n        /* \"#utility.yul\":571:576   */\n      dup2\n        /* \"#utility.yul\":556:577   */\n      tag_47\n      jump\t// in\n    tag_46:\n        /* \"#utility.yul\":551:554   */\n      dup3\n        /* \"#utility.yul\":544:578   */\n      mstore\n        /* \"#utility.yul\":475:584   */\n      pop\n      pop\n      jump\t// out\n        /* \"#utility.yul\":590:955   */\n    tag_48:\n        /* \"#utility.yul\":732:735   */\n      0x00\n        /* \"#utility.yul\":753:819   */\n      tag_50\n        /* \"#utility.yul\":817:818   */\n      0x06\n        /* \"#utility.yul\":812:815   */\n      dup4\n        /* \"#utility.yul\":753:819   */\n      tag_51\n      jump\t// in\n    tag_50:\n        /* \"#utility.yul\":746:819   */\n      swap2\n      pop\n        /* \"#utility.yul\":828:921   */\n      tag_52\n        /* \"#utility.yul\":917:920   */\n      dup3\n        /* \"#utility.yul\":828:921   */\n      tag_53\n      jump\t// in\n    tag_52:\n        /* \"#utility.yul\":946:948   */\n      0x20\n        /* \"#utility.yul\":941:944   */\n      dup3\n        /* \"#utility.yul\":937:949   */\n      add\n        /* \"#utility.yul\":930:949   */\n      swap1\n      pop\n        /* \"#utility.yul\":590:955   */\n      swap2\n      swap1\n      pop\n      jump\t// out\n        /* \"#utility.yul\":961:1079   */\n    tag_54:\n        /* \"#utility.yul\":1048:1072   */\n      tag_56\n        /* \"#utility.yul\":1066:1071   */\n      dup2\n        /* \"#utility.yul\":1048:1072   */\n      tag_57\n      jump\t// in\n    tag_56:\n        /* \"#utility.yul\":1043:1046   */\n      dup3\n        /* \"#utility.yul\":1036:1073   */\n      mstore\n        /* \"#utility.yul\":961:1079   */\n      pop\n      pop\n      jump\t// out\n        /* \"#utility.yul\":1085:1295   */\n    tag_17:\n        /* \"#utility.yul\":1172:1176   */\n      0x00\n        /* \"#utility.yul\":1210:1212   */\n      0x20\n        /* \"#utility.yul\":1199:1208   */\n      dup3\n        /* \"#utility.yul\":1195:1213   */\n      add\n        /* \"#utility.yul\":1187:1213   */\n      swap1\n      pop\n        /* \"#utility.yul\":1223:1288   */\n      tag_59\n        /* \"#utility.yul\":1285:1286   */\n      0x00\n        /* \"#utility.yul\":1274:1283   */\n      dup4\n        /* \"#utility.yul\":1270:1287   */\n      add\n        /* \"#utility.yul\":1261:1267   */\n      dup5\n        /* \"#utility.yul\":1223:1288   */\n      tag_44\n      jump\t// in\n    tag_59:\n        /* \"#utility.yul\":1085:1295   */\n      swap3\n      swap2\n      pop\n      pop\n      jump\t// out\n        /* \"#utility.yul\":1301:1720   */\n    tag_27:\n        /* \"#utility.yul\":1467:1471   */\n      0x00\n        /* \"#utility.yul\":1505:1507   */\n      0x20\n        /* \"#utility.yul\":1494:1503   */\n      dup3\n        /* \"#utility.yul\":1490:1508   */\n      add\n        /* \"#utility.yul\":1482:1508   */\n      swap1\n      pop\n        /* \"#utility.yul\":1554:1563   */\n      dup2\n        /* \"#utility.yul\":1548:1552   */\n      dup2\n        /* \"#utility.yul\":1544:1564   */\n      sub\n        /* \"#utility.yul\":1540:1541   */\n      0x00\n        /* \"#utility.yul\":1529:1538   */\n      dup4\n        /* \"#utility.yul\":1525:1542   */\n      add\n        /* \"#utility.yul\":1518:1565   */\n      mstore\n        /* \"#utility.yul\":1582:1713   */\n      tag_61\n        /* \"#utility.yul\":1708:1712   */\n      dup2\n        /* \"#utility.yul\":1582:1713   */\n      tag_48\n      jump\t// in\n    tag_61:\n        /* \"#utility.yul\":1574:1713   */\n      swap1\n      pop\n        /* \"#utility.yul\":1301:1720   */\n      swap2\n      swap1\n      pop\n      jump\t// out\n        /* \"#utility.yul\":1726:1948   */\n    tag_11:\n        /* \"#utility.yul\":1819:1823   */\n      0x00\n        /* \"#utility.yul\":1857:1859   */\n      0x20\n        /* \"#utility.yul\":1846:1855   */\n      dup3\n        /* \"#utility.yul\":1842:1860   */\n      add\n        /* \"#utility.yul\":1834:1860   */\n      swap1\n      pop\n        /* \"#utility.yul\":1870:1941   */\n      tag_63\n        /* \"#utility.yul\":1938:1939   */\n      0x00\n        /* \"#utility.yul\":1927:1936   */\n      dup4\n        /* \"#utility.yul\":1923:1940   */\n      add\n        /* \"#utility.yul\":1914:1920   */\n      dup5\n        /* \"#utility.yul\":1870:1941   */\n      tag_54\n      jump\t// in\n    tag_63:\n        /* \"#utility.yul\":1726:1948   */\n      swap3\n      swap2\n      pop\n      pop\n      jump\t// out\n        /* \"#utility.yul\":2035:2204   */\n    tag_51:\n        /* \"#utility.yul\":2119:2130   */\n      0x00\n        /* \"#utility.yul\":2153:2159   */\n      dup3\n        /* \"#utility.yul\":2148:2151   */\n      dup3\n        /* \"#utility.yul\":2141:2160   */\n      mstore\n        /* \"#utility.yul\":2193:2197   */\n      0x20\n        /* \"#utility.yul\":2188:2191   */\n      dup3\n        /* \"#utility.yul\":2184:2198   */\n      add\n        /* \"#utility.yul\":2169:2198   */\n      swap1\n      pop\n        /* \"#utility.yul\":2035:2204   */\n      swap3\n      swap2\n      pop\n      pop\n      jump\t// out\n        /* \"#utility.yul\":2210:2515   */\n    tag_29:\n        /* \"#utility.yul\":2250:2253   */\n      0x00\n        /* \"#utility.yul\":2269:2289   */\n      tag_68\n        /* \"#utility.yul\":2287:2288   */\n      dup3\n        /* \"#utility.yul\":2269:2289   */\n      tag_57\n      jump\t// in\n    tag_68:\n        /* \"#utility.yul\":2264:2289   */\n      swap2\n      pop\n        /* \"#utility.yul\":2303:2323   */\n      tag_69\n        /* \"#utility.yul\":2321:2322   */\n      dup4\n        /* \"#utility.yul\":2303:2323   */\n      tag_57\n      jump\t// in\n    tag_69:\n        /* \"#utility.yul\":2298:2323   */\n      swap3\n      pop\n        /* \"#utility.yul\":2457:2458   */\n      dup3\n        /* \"#utility.yul\":2389:2455   */\n      0xffffffffffffffffffffffffffffffffffffffffffffffffffffffffffffffff\n        /* \"#utility.yul\":2385:2459   */\n      sub\n        /* \"#utility.yul\":2382:2383   */\n      dup3\n        /* \"#utility.yul\":2379:2460   */\n      gt\n        /* \"#utility.yul\":2376:2483   */\n      iszero\n      tag_70\n      jumpi\n        /* \"#utility.yul\":2463:2481   */\n      tag_71\n      tag_72\n      jump\t// in\n    tag_71:\n        /* \"#utility.yul\":2376:2483   */\n    tag_70:\n        /* \"#utility.yul\":2507:2508   */\n      dup3\n        /* \"#utility.yul\":2504:2505   */\n      dup3\n        /* \"#utility.yul\":2500:2509   */\n      add\n        /* \"#utility.yul\":2493:2509   */\n      swap1\n      pop\n        /* \"#utility.yul\":2210:2515   */\n      swap3\n      swap2\n      pop\n      pop\n      jump\t// out\n        /* \"#utility.yul\":2521:2611   */\n    tag_47:\n        /* \"#utility.yul\":2555:2562   */\n      0x00\n        /* \"#utility.yul\":2598:2603   */\n      dup2\n        /* \"#utility.yul\":2591:2604   */\n      iszero\n        /* \"#utility.yul\":2584:2605   */\n      iszero\n        /* \"#utility.yul\":2573:2605   */\n      swap1\n      pop\n        /* \"#utility.yul\":2521:2611   */\n      swap2\n      swap1\n      pop\n      jump\t// out\n        /* \"#utility.yul\":2617:2694   */\n    tag_57:\n        /* \"#utility.yul\":2654:2661   */\n      0x00\n        /* \"#utility.yul\":2683:2688   */\n      dup2\n        /* \"#utility.yul\":2672:2688   */\n      swap1\n      pop\n        /* \"#utility.yul\":2617:2694   */\n      swap2\n      swap1\n      pop\n      jump\t// out\n        /* \"#utility.yul\":2700:2880   */\n    tag_72:\n        /* \"#utility.yul\":2748:2825   */\n      0x4e487b7100000000000000000000000000000000000000000000000000000000\n        /* \"#utility.yul\":2745:2746   */\n      0x00\n        /* \"#utility.yul\":2738:2826   */\n      mstore\n        /* \"#utility.yul\":2845:2849   */\n      0x11\n        /* \"#utility.yul\":2842:2843   */\n      0x04\n        /* \"#utility.yul\":2835:2850   */\n      mstore\n        /* \"#utility.yul\":2869:2873   */\n      0x24\n        /* \"#utility.yul\":2866:2867   */\n      0x00\n        /* \"#utility.yul\":2859:2874   */\n      revert\n        /* \"#utility.yul\":3009:3126   */\n    tag_42:\n        /* \"#utility.yul\":3118:3119   */\n      0x00\n        /* \"#utility.yul\":3115:3116   */\n      dup1\n        /* \"#utility.yul\":3108:3120   */\n      revert\n        /* \"#utility.yul\":3132:3288   */\n    tag_53:\n        /* \"#utility.yul\":3272:3280   */\n      0x7061757365640000000000000000000000000000000000000000000000000000\n        /* \"#utility.yul\":3268:3269   */\n      0x00\n        /* \"#utility.yul\":3260:3266   */\n      dup3\n        /* \"#utility.yul\":3256:3270   */\n      add\n        /* \"#utility.yul\":3249:3281   */\n      mstore\n        /* \"#utility.yul\":3132:3288   */\n      pop\n      jump\t// out\n        /* \"#utility.yul\":3294:3410   */\n    tag_38:\n        /* \"#utility.yul\":3364:3385   */\n      tag_81\n        /* \"#utility.yul\":3379:3384   */\n      dup2\n        /* \"#utility.yul\":3364:3385   */\n      tag_47\n      jump\t// in\n    tag_81:\n        /* \"#utility.yul\":3357:3362   */\n      dup2\n        /* \"#utility.yul\":3354:3386   */\n      eq\n        /* \"#utility.yul\":3344:3404   */\n      tag_82\n      jumpi\n        /* \"#utility.yul\":3400:3401   */\n      0x00\n        /* \"#utility.yul\":3397:3398   */\n      dup1\n        /* \"#utility.yul\":3390:3402   */\n      revert\n        /* \"#utility.yul\":3344:3404   */\n    tag_82:\n        /* \"#utility.yul\":3294:3410   */\n      pop\n      jump\t// out\n\n    auxdata: 0xa2646970667358221220285b9937537ff289f1c891ae45601d18cbaeb8a25f1e27c71e46638260f5e78464736f6c63430008070033\n}\n",
				"bytecode": {
					"linkReferences": {},
					"object": "608060405234801561001057600080fd5b506103bb806100206000396000f3fe608060405234801561001057600080fd5b50600436106100575760003560e01c806306661abd1461005c578063371303c01461007a5780635c975abb14610084578063b3bcfa82146100a2578063bedb86fb146100ac575b600080fd5b6100646100c8565b6040516100719190610279565b60405180910390f35b6100826100ce565b005b61008c610137565b604051610099919061023e565b60405180910390f35b6100aa610148565b005b6100c660048036038101906100c191906101d0565b61019f565b005b60015481565b60008054906101000a900460ff161561011c576040517f08c379a000000000000000000000000000000000000000000000000000000000815260040161011390610259565b60405180910390fd5b600180600082825461012e91906102a5565b92505081905550565b60008054906101000a900460ff1681565b60008054906101000a900460ff1615610196576040517f08c379a000000000000000000000000000000000000000000000000000000000815260040161018d90610259565b60405180910390fd5b60018081905550565b806000806101000a81548160ff02191690831515021790555050565b6000813590506101ca8161036e565b92915050565b6000602082840312156101e6576101e5610340565b5b60006101f4848285016101bb565b91505092915050565b610206816102fb565b82525050565b6000610219600683610294565b915061022482610345565b602082019050919050565b61023881610307565b82525050565b600060208201905061025360008301846101fd565b92915050565b600060208201905081810360008301526102728161020c565b9050919050565b600060208201905061028e600083018461022f565b92915050565b600082825260208201905092915050565b60006102b082610307565b91506102bb83610307565b9250827fffffffffffffffffffffffffffffffffffffffffffffffffffffffffffffffff038211156102f0576102ef610311565b5b828201905092915050565b60008115159050919050565b6000819050919050565b7f4e487b7100000000000000000000000000000000000000000000000000000000600052601160045260246000fd5b600080fd5b7f7061757365640000000000000000000000000000000000000000000000000000600082015250565b610377816102fb565b811461038257600080fd5b5056fea2646970667358221220285b9937537ff289f1c891ae45601d18cbaeb8a25f1e27c71e46638260f5e78464736f6c63430008070033",
					"opcodes": "PUSH1 0x80 PUSH1 0x40 MSTORE CALLVALUE DUP1 ISZERO PUSH2 0x10 JUMPI PUSH1 0x0 DUP1 REVERT JUMPDEST POP PUSH2 0x3BB DUP1 PUSH2 0x20 PUSH1 0x0 CODECOPY PUSH1 0x0 RETURN INVALID PUSH1 0x80 PUSH1 0x40 MSTORE CALLVALUE DUP1 ISZERO PUSH2 0x10 JUMPI PUSH1 0x0 DUP1 REVERT JUMPDEST POP PUSH1 0x4 CALLDATASIZE LT PUSH2 0x57 JUMPI PUSH1 0x0 CALLDATALOAD PUSH1 0xE0 SHR DUP1 PUSH4 0x6661ABD EQ PUSH2 0x5C JUMPI DUP1 PUSH4 0x371303C0 EQ PUSH2 0x7A JUMPI DUP1 PUSH4 0x5C975ABB EQ PUSH2 0x84 JUMPI DUP1 PUSH4 0xB3BCFA82 EQ PUSH2 0xA2 JUMPI DUP1 PUSH4 0xBEDB86FB EQ PUSH2 0xAC JUMPI JUMPDEST PUSH1 0x0 DUP1 REVERT JUMPDEST PUSH2 0x64 PUSH2 0xC8 JUMP JUMPDEST PUSH1 0x40 MLOAD PUSH2 0x71 SWAP2 SWAP1 PUSH2 0x279 JUMP JUMPDEST PUSH1 0x40 MLOAD DUP1 SWAP2 SUB SWAP1 RETURN JUMPDEST PUSH2 0x82 PUSH2 0xCE JUMP JUMPDEST STOP JUMPDEST PUSH2 0x8C PUSH2 0x137 JUMP JUMPDEST PUSH1 0x40 MLOAD PUSH2 0x99 SWAP2 SWAP1 PUSH2 0x23E JUMP JUMPDEST PUSH1 0x40 MLOAD DUP1 SWAP2 SUB SWAP1 RETURN JUMPDEST PUSH2 0xAA PUSH2 0x148 JUMP JUMPDEST STOP JUMPDEST PUSH2 0xC6 PUSH1 0x4 DUP1 CALLDATASIZE SUB DUP2 ADD SWAP1 PUSH2 0xC1 SWAP2 SWAP1 PUSH2 0x1D0 JUMP JUMPDEST PUSH2 0x19F JUMP JUMPDEST STOP JUMPDEST PUSH1 0x1 SLOAD DUP2 JUMP JUMPDEST PUSH1 0x0 DUP1 SLOAD SWAP1 PUSH2 0x100 EXP SWAP1 DIV PUSH1 0xFF AND ISZERO PUSH2 0x11C JUMPI PUSH1 0x40 MLOAD PUSH32 0x8C379A000000000000000000000000000000000000000000000000000000000 DUP2 MSTORE PUSH1 0x4 ADD PUSH2 0x113 SWAP1 PUSH2 0x259 JUMP JUMPDEST PUSH1 0x40 MLOAD DUP1 SWAP2 SUB SWAP1 REVERT JUMPDEST PUSH1 0x1 DUP1 PUSH1 0x0 DUP3 DUP3 SLOAD PUSH2 0x12E SWAP2 SWAP1 PUSH2 0x2A5 JUMP JUMPDEST SWAP3 POP POP DUP2 SWAP1 SSTORE POP JUMP JUMPDEST PUSH1 0x0 DUP1 SLOAD SWAP1 PUSH2 0x100 EXP SWAP1 DIV PUSH1 0xFF AND DUP2 JUMP JUMPDEST PUSH1 0x0 DUP1 SLOAD SWAP1 PUSH2 0x100 EXP SWAP1 DIV PUSH1 0xFF AND ISZERO PUSH2 0x196 JUMPI PUSH1 0x40 MLOAD PUSH32 0x8C379A000000000000000000000000000000000000000000000000000000000 DUP2 MSTORE PUSH1 0x4 ADD PUSH2 0x18D SWAP1 PUSH2 0x259 JUMP JUMPDEST PUSH1 0x40 MLOAD DUP1 SWAP2 SUB SWAP1 REVERT JUMPDEST PUSH1 0x1 DUP1 DUP2 SWAP1 SSTORE POP JUMP JUMPDEST DUP1 PUSH1 0x0 DUP1 PUSH2 0x100 EXP DUP2 SLOAD DUP2 PUSH1 0xFF MUL NOT AND SWAP1 DUP4 ISZERO ISZERO MUL OR SWAP1 SSTORE POP POP JUMP JUMPDEST PUSH1 0x0 DUP2 CALLDATALOAD SWAP1 POP PUSH2 0x1CA DUP2 PUSH2 0x36E JUMP JUMPDEST SWAP3 SWAP2 POP POP JUMP JUMPDEST PUSH1 0x0 PUSH1 0x20 DUP3 DUP5 SUB SLT ISZERO PUSH2 0x1E6 JUMPI PUSH2 0x1E5 PUSH2 0x340 JUMP JUMPDEST JUMPDEST PUSH1 0x0 PUSH2 0x1F4 DUP5 DUP3 DUP6 ADD PUSH2 0x1BB JUMP JUMPDEST SWAP2 POP POP SWAP3 SWAP2 POP POP JUMP JUMPDEST PUSH2 0x206 DUP2 PUSH2 0x2FB JUMP JUMPDEST DUP3 MSTORE POP POP JUMP JUMPDEST PUSH1 0x0 PUSH2 0x219 PUSH1 0x6 DUP4 PUSH2 0x294 JUMP JUMPDEST SWAP2 POP PUSH2 0x224 DUP3 PUSH2 0x345 JUMP JUMPDEST PUSH1 0x20 DUP3 ADD SWAP1 POP SWAP2 SWAP1 POP JUMP JUMPDEST PUSH2 0x238 DUP2 PUSH2 0x307 JUMP JUMPDEST DUP3 MSTORE POP POP JUMP JUMPDEST PUSH1 0x0 PUSH1 0x20 DUP3 ADD SWAP1 POP PUSH2 0x253 PUSH1 0x0 DUP4 ADD DUP5 PUSH2 0x1FD JUMP JUMPDEST SWAP3 SWAP2 POP POP JUMP JUMPDEST PUSH1 0x0 PUSH1 0x20 DUP3 ADD SWAP1 POP DUP2 DUP2 SUB PUSH1 0x0 DUP4 ADD MSTORE PUSH2 0x272 DUP2 PUSH2 0x20C JUMP JUMPDEST SWAP1 POP SWAP2 SWAP1 POP JUMP JUMPDEST PUSH1 0x0 PUSH1 0x20 DUP3 ADD SWAP1 POP PUSH2 0x28E PUSH1 0x0 DUP4 ADD DUP5 PUSH2 0x22F JUMP JUMPDEST SWAP3 SWAP2 POP POP JUMP JUMPDEST PUSH1 0x0 DUP3 DUP3 MSTORE PUSH1 0x20 DUP3 ADD SWAP1 POP SWAP3 SWAP2 POP POP JUMP JUMPDEST PUSH1 0x0 PUSH2 0x2B0 DUP3 PUSH2 0x307 JUMP JUMPDEST SWAP2 POP PUSH2 0x2BB DUP4 PUSH2 0x307 JUMP JUMPDEST SWAP3 POP DUP3 PUSH32 0xFFFFFFFFFFFFFFFFFFFFFFFFFFFFFFFFFFFFFFFFFFFFFFFFFFFFFFFFFFFFFFFF SUB DUP3 GT ISZERO PUSH2 0x2F0 JUMPI PUSH2 0x2EF PUSH2 0x311 JUMP JUMPDEST JUMPDEST DUP3 DUP3 ADD SWAP1 POP SWAP3 SWAP2 POP POP JUMP JUMPDEST PUSH1 0x0 DUP2 ISZERO ISZERO SWAP1 POP SWAP2 SWAP1 POP JUMP JUMPDEST PUSH1 0x0 DUP2 SWAP1 POP SWAP2 SWAP1 POP JUMP JUMPDEST PUSH32 0x4E487B7100000000000000000000000000000000000000000000000000000000 PUSH1 0x0 MSTORE PUSH1 0x11 PUSH1 0x4 MSTORE PUSH1 0x24 PUSH1 0x0 REVERT JUMPDEST PUSH1 0x0 DUP1 REVERT JUMPDEST PUSH32 0x7061757365640000000000000000000000000000000000000000000000000000 PUSH1 0x0 DUP3 ADD MSTORE POP JUMP JUMPDEST PUSH2 0x377 DUP2 PUSH2 0x2FB JUMP JUMPDEST DUP2 EQ PUSH2 0x382 JUMPI PUSH1 0x0 DUP1 REVERT JUMPDEST POP JUMP INVALID LOG2 PUSH5 0x6970667358 0x22 SLT KECCAK256 0x28 JUMPDEST SWAP10 CALLDATACOPY MSTORE8 PUSH32 0xF289F1C891AE45601D18CBAEB8A25F1E27C71E46638260F5E78464736F6C6343 STOP ADDMOD SMOD STOP CALLER "
				},
				"gasEstimates": {
					"creation": {
						"codeDepositCost": "191000",
						"executionCost": "232",
						"totalCost": "191232"
					},
					"external": {
						"count()": "2407",
						"dec()": "24455",
						"inc()": "infinite",
						"paused()": "2490",
						"setPause(bool)": "24745"
					}
				},
				"methodIdentifiers": {
					"count()": "06661abd",
					"dec()": "b3bcfa82",
					"inc()": "371303c0",
					"paused()": "5c975abb",
					"setPause(bool)": "bedb86fb"
				}
			},
			"storageLayout": {
				"storage": [
					{
						"astId": 3,
						"contract": "contracts/FunctionModifier-15.sol:FunctionModifier",
						"label": "paused",
						"offset": 0,
						"slot": "0",
						"type": "t_bool"
					},
					{
						"astId": 5,
						"contract": "contracts/FunctionModifier-15.sol:FunctionModifier",
						"label": "count",
						"offset": 0,
						"slot": "1",
						"type": "t_uint256"
					}
				],
				"types": {
					"t_bool": {
						"encoding": "inplace",
						"label": "bool",
						"numberOfBytes": "1"
					},
					"t_uint256": {
						"encoding": "inplace",
						"label": "uint256",
						"numberOfBytes": "32"
					}
				}
			},
			"userdoc": {
				"kind": "user",
				"methods": {},
				"version": 1
			}
		}
	}
}