{
	"data": {
		"bytecode": {
			"linkReferences": {},
			"object": "608060405234801561001057600080fd5b50610178806100206000396000f3fe608060405234801561001057600080fd5b506004361061004c5760003560e01c80633f7f3db61461005157806345f907a81461005b578063868875441461007a578063adb4d99014610099575b600080fd5b6100596100b8565b005b6100636100ba565b604051610071929190610103565b60405180910390f35b6100826100c8565b604051610090929190610103565b60405180910390f35b6100a16100d6565b6040516100af929190610103565b60405180910390f35b565b600080600180915091509091565b600080600180915091509091565b60008060019150600190509091565b6100ee8161012c565b82525050565b6100fd81610138565b82525050565b600060408201905061011860008301856100f4565b61012560208301846100e5565b9392505050565b60008115159050919050565b600081905091905056fea2646970667358221220653b21ba12a123f30f0e10480ff758bb9bd1424fd2ab6e4156785c28374c38a464736f6c63430008070033",
			"opcodes": "PUSH1 0x80 PUSH1 0x40 MSTORE CALLVALUE DUP1 ISZERO PUSH2 0x10 JUMPI PUSH1 0x0 DUP1 REVERT JUMPDEST POP PUSH2 0x178 DUP1 PUSH2 0x20 PUSH1 0x0 CODECOPY PUSH1 0x0 RETURN INVALID PUSH1 0x80 PUSH1 0x40 MSTORE CALLVALUE DUP1 ISZERO PUSH2 0x10 JUMPI PUSH1 0x0 DUP1 REVERT JUMPDEST POP PUSH1 0x4 CALLDATASIZE LT PUSH2 0x4C JUMPI PUSH1 0x0 CALLDATALOAD PUSH1 0xE0 SHR DUP1 PUSH4 0x3F7F3DB6 EQ PUSH2 0x51 JUMPI DUP1 PUSH4 0x45F907A8 EQ PUSH2 0x5B JUMPI DUP1 PUSH4 0x86887544 EQ PUSH2 0x7A JUMPI DUP1 PUSH4 0xADB4D990 EQ PUSH2 0x99 JUMPI JUMPDEST PUSH1 0x0 DUP1 REVERT JUMPDEST PUSH2 0x59 PUSH2 0xB8 JUMP JUMPDEST STOP JUMPDEST PUSH2 0x63 PUSH2 0xBA JUMP JUMPDEST PUSH1 0x40 MLOAD PUSH2 0x71 SWAP3 SWAP2 SWAP1 PUSH2 0x103 JUMP JUMPDEST PUSH1 0x40 MLOAD DUP1 SWAP2 SUB SWAP1 RETURN JUMPDEST PUSH2 0x82 PUSH2 0xC8 JUMP JUMPDEST PUSH1 0x40 MLOAD PUSH2 0x90 SWAP3 SWAP2 SWAP1 PUSH2 0x103 JUMP JUMPDEST PUSH1 0x40 MLOAD DUP1 SWAP2 SUB SWAP1 RETURN JUMPDEST PUSH2 0xA1 PUSH2 0xD6 JUMP JUMPDEST PUSH1 0x40 MLOAD PUSH2 0xAF SWAP3 SWAP2 SWAP1 PUSH2 0x103 JUMP JUMPDEST PUSH1 0x40 MLOAD DUP1 SWAP2 SUB SWAP1 RETURN JUMPDEST JUMP JUMPDEST PUSH1 0x0 DUP1 PUSH1 0x1 DUP1 SWAP2 POP SWAP2 POP SWAP1 SWAP2 JUMP JUMPDEST PUSH1 0x0 DUP1 PUSH1 0x1 DUP1 SWAP2 POP SWAP2 POP SWAP1 SWAP2 JUMP JUMPDEST PUSH1 0x0 DUP1 PUSH1 0x1 SWAP2 POP PUSH1 0x1 SWAP1 POP SWAP1 SWAP2 JUMP JUMPDEST PUSH2 0xEE DUP2 PUSH2 0x12C JUMP JUMPDEST DUP3 MSTORE POP POP JUMP JUMPDEST PUSH2 0xFD DUP2 PUSH2 0x138 JUMP JUMPDEST DUP3 MSTORE POP POP JUMP JUMPDEST PUSH1 0x0 PUSH1 0x40 DUP3 ADD SWAP1 POP PUSH2 0x118 PUSH1 0x0 DUP4 ADD DUP6 PUSH2 0xF4 JUMP JUMPDEST PUSH2 0x125 PUSH1 0x20 DUP4 ADD DUP5 PUSH2 0xE5 JUMP JUMPDEST SWAP4 SWAP3 POP POP POP JUMP JUMPDEST PUSH1 0x0 DUP2 ISZERO ISZERO SWAP1 POP SWAP2 SWAP1 POP JUMP JUMPDEST PUSH1 0x0 DUP2 SWAP1 POP SWAP2 SWAP1 POP JUMP INVALID LOG2 PUSH5 0x6970667358 0x22 SLT KECCAK256 PUSH6 0x3B21BA12A123 RETURN 0xF 0xE LT BASEFEE 0xF 0xF7 PC 0xBB SWAP12 0xD1 TIMESTAMP 0x4F 0xD2 0xAB PUSH15 0x4156785C28374C38A464736F6C6343 STOP ADDMOD SMOD STOP CALLER "
		},
		"gasEstimates": {
			"creation": {
				"codeDepositCost": "75200",
				"executionCost": "123",
				"totalCost": "75323"
			},
			"external": {
				"assigned()": "501",
				"destructingAssignments()": "122",
				"named()": "457",
				"returnMany()": "479"
			}
		},
		"methodIdentifiers": {
			"assigned()": "adb4d990",
			"destructingAssignments()": "3f7f3db6",
			"named()": "45f907a8",
			"returnMany()": "86887544"
		}
	},
	"abi": [
		{
			"inputs": [],
			"name": "assigned",
			"outputs": [
				{
					"internalType": "uint256",
					"name": "x",
					"type": "uint256"
				},
				{
					"internalType": "bool",
					"name": "b",
					"type": "bool"
				}
			],
			"stateMutability": "pure",
			"type": "function"
		},
		{
			"inputs": [],
			"name": "destructingAssignments",
			"outputs": [],
			"stateMutability": "pure",
			"type": "function"
		},
		{
			"inputs": [],
			"name": "named",
			"outputs": [
				{
					"internalType": "uint256",
					"name": "x",
					"type": "uint256"
				},
				{
					"internalType": "bool",
					"name": "b",
					"type": "bool"
				}
			],
			"stateMutability": "pure",
			"type": "function"
		},
		{
			"inputs": [],
			"name": "returnMany",
			"outputs": [
				{
					"internalType": "uint256",
					"name": "",
					"type": "uint256"
				},
				{
					"internalType": "bool",
					"name": "",
					"type": "bool"
				}
			],
			"stateMutability": "pure",
			"type": "function"
		}
	]
}