{
  "contractName": "Constants",
  "abi": [
    {
      "inputs": [],
      "name": "MY_ADDRESS",
      "outputs": [
        {
          "internalType": "address",
          "name": "",
          "type": "address"
        }
      ],
      "stateMutability": "view",
      "type": "function"
    },
    {
      "inputs": [],
      "name": "MY_UNIT",
      "outputs": [
        {
          "internalType": "uint256",
          "name": "",
          "type": "uint256"
        }
      ],
      "stateMutability": "view",
      "type": "function"
    }
  ],
  "bytecode": "0x608060405234801561001057600080fd5b5061015a806100206000396000f3fe608060405234801561001057600080fd5b50600436106100365760003560e01c80633a756cec1461003b5780633fdcd19914610059575b600080fd5b610043610077565b60405161005091906100d5565b60405180910390f35b61006161008f565b60405161006e9190610109565b60405180910390f35b73dac17f958d2ee523a2206206994597c13d831ec781565b60de81565b600073ffffffffffffffffffffffffffffffffffffffff82169050919050565b60006100bf82610094565b9050919050565b6100cf816100b4565b82525050565b60006020820190506100ea60008301846100c6565b92915050565b6000819050919050565b610103816100f0565b82525050565b600060208201905061011e60008301846100fa565b9291505056fea2646970667358221220e5c93b0df7c93c57dcbfb37017b4c19361d5ebda0eae771a155cf1a9d2926f3964736f6c63430008100033",
  "immutableReferences": {},
  "source": "// SPDX-License-Identifier: MIT\n\npragma solidity >=0.7.0 <0.9.0;\n\ncontract Constants {\n    address public constant MY_ADDRESS = 0xdAC17F958D2ee523a2206206994597C13D831ec7; // 21420 gas\n    uint public constant MY_UNIT = 222;\n}\n\ncontract Var {\n    address public  MY_ADDRESS = 0xdAC17F958D2ee523a2206206994597C13D831ec7; // 23553 gas\n}",
  "sourcePath": "/home/vigneshwaran/github/solidity-practice/contracts/Constants-11.sol",
  "compiler": {
    "name": "solc",
    "version": "0.8.16+commit.07a7930e.Emscripten.clang"
  },
  "schemaVersion": "3.4.9",
  "updatedAt": "2022-08-16T18:23:39.884Z",
  "devdoc": {
    "kind": "dev",
    "methods": {},
    "version": 1
  },
  "userdoc": {
    "kind": "user",
    "methods": {},
    "version": 1
  }
}