{
  "contractName": "DefaultValues",
  "abi": [
    {
      "inputs": [],
      "name": "a",
      "outputs": [
        {
          "internalType": "address",
          "name": "",
          "type": "address"
        }
      ],
      "stateMutability": "view",
      "type": "function"
    },
    {
      "inputs": [],
      "name": "b",
      "outputs": [
        {
          "internalType": "bool",
          "name": "",
          "type": "bool"
        }
      ],
      "stateMutability": "view",
      "type": "function"
    },
    {
      "inputs": [],
      "name": "b32",
      "outputs": [
        {
          "internalType": "bytes32",
          "name": "",
          "type": "bytes32"
        }
      ],
      "stateMutability": "view",
      "type": "function"
    },
    {
      "inputs": [],
      "name": "i",
      "outputs": [
        {
          "internalType": "int256",
          "name": "",
          "type": "int256"
        }
      ],
      "stateMutability": "view",
      "type": "function"
    },
    {
      "inputs": [],
      "name": "u",
      "outputs": [
        {
          "internalType": "uint256",
          "name": "",
          "type": "uint256"
        }
      ],
      "stateMutability": "view",
      "type": "function"
    }
  ],
  "bytecode": "0x608060405234801561001057600080fd5b5061029f806100206000396000f3fe608060405234801561001057600080fd5b50600436106100575760003560e01c80630dbe671f1461005c5780634df7e3d01461007a578063c6a898c514610098578063e5aa3d58146100b6578063f8aab238146100d4575b600080fd5b6100646100f2565b604051610071919061017c565b60405180910390f35b610082610118565b60405161008f91906101b2565b60405180910390f35b6100a0610129565b6040516100ad91906101e6565b60405180910390f35b6100be61012f565b6040516100cb919061021a565b60405180910390f35b6100dc610135565b6040516100e9919061024e565b60405180910390f35b600360009054906101000a900473ffffffffffffffffffffffffffffffffffffffff1681565b60008054906101000a900460ff1681565b60015481565b60025481565b60045481565b600073ffffffffffffffffffffffffffffffffffffffff82169050919050565b60006101668261013b565b9050919050565b6101768161015b565b82525050565b6000602082019050610191600083018461016d565b92915050565b60008115159050919050565b6101ac81610197565b82525050565b60006020820190506101c760008301846101a3565b92915050565b6000819050919050565b6101e0816101cd565b82525050565b60006020820190506101fb60008301846101d7565b92915050565b6000819050919050565b61021481610201565b82525050565b600060208201905061022f600083018461020b565b92915050565b6000819050919050565b61024881610235565b82525050565b6000602082019050610263600083018461023f565b9291505056fea26469706673582212209b23145d25f6b8aa3c3173b8aeb150b6d5201220051ce7e70d68c918118448ad64736f6c63430008100033",
  "immutableReferences": {},
  "source": "// SPDX-License-Identifier: MIT\n\npragma solidity >=0.7.0 <0.9.0;\n\ncontract DefaultValues {\n    bool public b; // false\n    uint public u; // 0\n    int public i; // 0\n    address public a; // 0x0000000000000000000000000000000000000000\n    bytes32 public b32; // 0x0000000000000000000000000000000000000000000000000000000000000000\n}",
  "sourcePath": "/home/vigneshwaran/github/solidity-practice/contracts/DefaultValues-10.sol",
  "compiler": {
    "name": "solc",
    "version": "0.8.16+commit.07a7930e.Emscripten.clang"
  },
  "schemaVersion": "3.4.9",
  "updatedAt": "2022-08-16T18:23:39.886Z",
  "devdoc": {
    "kind": "dev",
    "methods": {},
    "version": 1
  },
  "userdoc": {
    "kind": "user",
    "methods": {},
    "version": 1
  }
}