{
  "contractName": "FunctionModifier",
  "abi": [
    {
      "inputs": [],
      "name": "count",
      "outputs": [
        {
          "internalType": "uint256",
          "name": "",
          "type": "uint256"
        }
      ],
      "stateMutability": "view",
      "type": "function"
    },
    {
      "inputs": [],
      "name": "paused",
      "outputs": [
        {
          "internalType": "bool",
          "name": "",
          "type": "bool"
        }
      ],
      "stateMutability": "view",
      "type": "function"
    },
    {
      "inputs": [
        {
          "internalType": "bool",
          "name": "_paused",
          "type": "bool"
        }
      ],
      "name": "setPause",
      "outputs": [],
      "stateMutability": "nonpayable",
      "type": "function"
    },
    {
      "inputs": [],
      "name": "inc",
      "outputs": [],
      "stateMutability": "nonpayable",
      "type": "function"
    },
    {
      "inputs": [],
      "name": "dec",
      "outputs": [],
      "stateMutability": "nonpayable",
      "type": "function"
    },
    {
      "inputs": [
        {
          "internalType": "uint256",
          "name": "_x",
          "type": "uint256"
        }
      ],
      "name": "incBy",
      "outputs": [],
      "stateMutability": "nonpayable",
      "type": "function"
    },
    {
      "inputs": [],
      "name": "foo",
      "outputs": [
        {
          "internalType": "uint256",
          "name": "",
          "type": "uint256"
        }
      ],
      "stateMutability": "nonpayable",
      "type": "function"
    }
  ],
  "bytecode": "0x608060405234801561001057600080fd5b50610664806100206000396000f3fe608060405234801561001057600080fd5b506004361061007d5760003560e01c806370119d061161005b57806370119d06146100c8578063b3bcfa82146100e4578063bedb86fb146100ee578063c29855781461010a5761007d565b806306661abd14610082578063371303c0146100a05780635c975abb146100aa575b600080fd5b61008a610128565b604051610097919061034c565b60405180910390f35b6100a861012e565b005b6100b2610197565b6040516100bf9190610382565b60405180910390f35b6100e260048036038101906100dd91906103ce565b6101a8565b005b6100ec610257565b005b61010860048036038101906101039190610427565b6102c0565b005b6101126102dc565b60405161011f919061034c565b60405180910390f35b60015481565b60008054906101000a900460ff161561017c576040517f08c379a0000000000000000000000000000000000000000000000000000000008152600401610173906104b1565b60405180910390fd5b600180600082825461018e9190610500565b92505081905550565b60008054906101000a900460ff1681565b60008054906101000a900460ff16156101f6576040517f08c379a00000000000000000000000000000000000000000000000000000000081526004016101ed906104b1565b60405180910390fd5b806064811061023a576040517f08c379a000000000000000000000000000000000000000000000000000000000815260040161023190610580565b60405180910390fd5b816001600082825461024c9190610500565b925050819055505050565b60008054906101000a900460ff16156102a5576040517f08c379a000000000000000000000000000000000000000000000000000000000815260040161029c906104b1565b60405180910390fd5b60018060008282546102b791906105a0565b92505081905550565b806000806101000a81548160ff02191690831515021790555050565b6000600a600160008282546102f19190610500565b92505081905550600180600082825461030a9190610500565b92505081905550600154905060026001600082825461032991906105d4565b9250508190555090565b6000819050919050565b61034681610333565b82525050565b6000602082019050610361600083018461033d565b92915050565b60008115159050919050565b61037c81610367565b82525050565b60006020820190506103976000830184610373565b92915050565b600080fd5b6103ab81610333565b81146103b657600080fd5b50565b6000813590506103c8816103a2565b92915050565b6000602082840312156103e4576103e361039d565b5b60006103f2848285016103b9565b91505092915050565b61040481610367565b811461040f57600080fd5b50565b600081359050610421816103fb565b92915050565b60006020828403121561043d5761043c61039d565b5b600061044b84828501610412565b91505092915050565b600082825260208201905092915050565b7f7061757365640000000000000000000000000000000000000000000000000000600082015250565b600061049b600683610454565b91506104a682610465565b602082019050919050565b600060208201905081810360008301526104ca8161048e565b9050919050565b7f4e487b7100000000000000000000000000000000000000000000000000000000600052601160045260246000fd5b600061050b82610333565b915061051683610333565b925082820190508082111561052e5761052d6104d1565b5b92915050565b7f58203e3d20313030000000000000000000000000000000000000000000000000600082015250565b600061056a600883610454565b915061057582610534565b602082019050919050565b600060208201905081810360008301526105998161055d565b9050919050565b60006105ab82610333565b91506105b683610333565b92508282039050818111156105ce576105cd6104d1565b5b92915050565b60006105df82610333565b91506105ea83610333565b9250817fffffffffffffffffffffffffffffffffffffffffffffffffffffffffffffffff0483118215151615610623576106226104d1565b5b82820290509291505056fea2646970667358221220ed0d5c1f8308cc07438f7b39dafe6299d39377e0b686d84e7b95998f96d7a22e64736f6c63430008100033",
  "immutableReferences": {},
  "source": "// SPDX-License-Identifier: MIT\n\npragma solidity >=0.7.0 <0.9.0;\n\n// function modifier - reuse code before and / or after function\n// Basic, Inputs, sandwich\n\ncontract FunctionModifier {\n    bool public paused;\n    uint256 public count;\n\n    function setPause(bool _paused) external {\n        paused = _paused;\n    }\n\n    // Basic\n    modifier whenNotPaused() {\n        require(!paused, \"paused\");\n        _;\n    }\n\n    function inc() external whenNotPaused {\n        count += 1;\n    }\n\n    function dec() external whenNotPaused {\n        count -= 1;\n    }\n\n    // Inputs\n    modifier cap(uint256 _x) {\n        require(_x < 100, \"X >= 100\");\n        _;\n    }\n\n    function incBy(uint256 _x) external whenNotPaused cap(_x) {\n        count += _x;\n    }\n\n    modifier sandwich() {\n        //code here\n        count += 10;\n        _;\n\n        //more code here\n        count *= 2;\n    }\n\n    function foo() external sandwich returns (uint256) {\n        count += 1;\n        return count;\n    }\n}\n",
  "sourcePath": "/home/vigneshwaran/github/solidity-practice/contracts/FunctionModifier-15.sol",
  "compiler": {
    "name": "solc",
    "version": "0.8.16+commit.07a7930e.Emscripten.clang"
  },
  "schemaVersion": "3.4.9",
  "updatedAt": "2022-08-16T18:38:09.953Z",
  "devdoc": {
    "kind": "dev",
    "methods": {},
    "version": 1
  },
  "userdoc": {
    "kind": "user",
    "methods": {},
    "version": 1
  }
}