{
  "contractName": "FunctionOutpus",
  "abi": [
    {
      "inputs": [],
      "name": "returnMany",
      "outputs": [
        {
          "internalType": "uint256",
          "name": "",
          "type": "uint256"
        },
        {
          "internalType": "bool",
          "name": "",
          "type": "bool"
        }
      ],
      "stateMutability": "pure",
      "type": "function"
    },
    {
      "inputs": [],
      "name": "named",
      "outputs": [
        {
          "internalType": "uint256",
          "name": "x",
          "type": "uint256"
        },
        {
          "internalType": "bool",
          "name": "b",
          "type": "bool"
        }
      ],
      "stateMutability": "pure",
      "type": "function"
    },
    {
      "inputs": [],
      "name": "assigned",
      "outputs": [
        {
          "internalType": "uint256",
          "name": "x",
          "type": "uint256"
        },
        {
          "internalType": "bool",
          "name": "b",
          "type": "bool"
        }
      ],
      "stateMutability": "pure",
      "type": "function"
    },
    {
      "inputs": [],
      "name": "destructingAssignments",
      "outputs": [],
      "stateMutability": "pure",
      "type": "function"
    }
  ],
  "bytecode": "0x608060405234801561001057600080fd5b50610189806100206000396000f3fe608060405234801561001057600080fd5b506004361061004c5760003560e01c80633f7f3db61461005157806345f907a81461005b578063868875441461007a578063adb4d99014610099575b600080fd5b6100596100b8565b005b6100636100cb565b60405161007192919061012a565b60405180910390f35b6100826100d9565b60405161009092919061012a565b60405180910390f35b6100a16100e7565b6040516100af92919061012a565b60405180910390f35b6000806100c36100d9565b915091505050565b600080600180915091509091565b600080600180915091509091565b60008060019150600190509091565b6000819050919050565b610109816100f6565b82525050565b60008115159050919050565b6101248161010f565b82525050565b600060408201905061013f6000830185610100565b61014c602083018461011b565b939250505056fea264697066735822122053831bd19ffdf2ad961ca0d7ff2e269924a459f7a289e86e178c19e0c1c48e5564736f6c63430008100033",
  "immutableReferences": {},
  "source": "// SPDX-License-Identifier: MIT\n\npragma solidity >=0.7.0 <0.9.0;\n\ncontract FunctionOutpus {\n    // public = outside and internal usage\n    // external = only outside\n    // internal = only inside\n    function returnMany() public pure returns (uint, bool) {\n        return (1, true);\n    }\n\n    function named() public pure returns (uint x, bool b ) {\n        return (1, true);\n    }\n\n    function assigned() public pure returns (uint x, bool b ) {\n        x = 1;\n        b = true;\n    }\n\n    function destructingAssignments() public pure {\n        // this is not working, shows error\n        (uint x, bool b) = returnMany();\n    }\n}",
  "sourcePath": "/home/vigneshwaran/github/solidity-practice/contracts/FunctionOutputs-18.sol",
  "compiler": {
    "name": "solc",
    "version": "0.8.16+commit.07a7930e.Emscripten.clang"
  },
  "schemaVersion": "3.4.9",
  "updatedAt": "2022-08-16T18:23:39.892Z",
  "devdoc": {
    "kind": "dev",
    "methods": {},
    "version": 1
  },
  "userdoc": {
    "kind": "user",
    "methods": {},
    "version": 1
  }
}