{
  "contractName": "GlobalVariables",
  "abi": [
    {
      "inputs": [],
      "name": "globalVariable",
      "outputs": [
        {
          "internalType": "address",
          "name": "",
          "type": "address"
        },
        {
          "internalType": "bytes4",
          "name": "",
          "type": "bytes4"
        },
        {
          "internalType": "uint256",
          "name": "",
          "type": "uint256"
        },
        {
          "internalType": "uint256",
          "name": "",
          "type": "uint256"
        }
      ],
      "stateMutability": "view",
      "type": "function"
    }
  ],
  "bytecode": "0x608060405234801561001057600080fd5b506101b4806100206000396000f3fe608060405234801561001057600080fd5b506004361061002b5760003560e01c80634048d79714610030575b600080fd5b610038610051565b6040516100489493929190610139565b60405180910390f35b6000806000806000339050600080357fffffffff00000000000000000000000000000000000000000000000000000000169050600042905060004390508383838397509750975097505050505090919293565b600073ffffffffffffffffffffffffffffffffffffffff82169050919050565b60006100cf826100a4565b9050919050565b6100df816100c4565b82525050565b60007fffffffff0000000000000000000000000000000000000000000000000000000082169050919050565b61011a816100e5565b82525050565b6000819050919050565b61013381610120565b82525050565b600060808201905061014e60008301876100d6565b61015b6020830186610111565b610168604083018561012a565b610175606083018461012a565b9594505050505056fea26469706673582212203f0a565164dfe7c95827f490bc40aacfc1c41b2d64a416829c75b33f1919bad764736f6c63430008100033",
  "immutableReferences": {},
  "source": "// SPDX-License-Identifier: MIT\n\npragma solidity >=0.7.0 <0.9.0;\n\ncontract GlobalVariables {\n    // view is like pure - read only function\n    // view functions can read data from state variables and global variables\n   function globalVariable() external view returns(address, bytes4, uint, uint) {\n       address sender = msg.sender;\n       bytes4 sig = msg.sig;\n       uint timeStamp =  block.timestamp;\n       uint blockNum = block.number;\n       return (sender, sig, timeStamp, blockNum);\n\n        // msg.data (bytes): complete calldata\n        // msg.gas (uint): remaining gas\n        // msg.sender (address): sender of the message (current call)\n        // msg.sig (bytes4): first four bytes of the calldata (i.e. function identifier)\n        // msg.value (uint): number of wei sent with the message\n   }\n}",
  "sourcePath": "/home/vigneshwaran/github/solidity-practice/contracts/GlobalVariables-7.sol",
  "compiler": {
    "name": "solc",
    "version": "0.8.16+commit.07a7930e.Emscripten.clang"
  },
  "schemaVersion": "3.4.9",
  "updatedAt": "2022-08-16T18:23:39.892Z",
  "devdoc": {
    "kind": "dev",
    "methods": {},
    "version": 1
  },
  "userdoc": {
    "kind": "user",
    "methods": {},
    "version": 1
  }
}