{
  "contractName": "IfElse",
  "abi": [
    {
      "inputs": [
        {
          "internalType": "uint256",
          "name": "_x",
          "type": "uint256"
        }
      ],
      "name": "example",
      "outputs": [
        {
          "internalType": "uint256",
          "name": "",
          "type": "uint256"
        }
      ],
      "stateMutability": "pure",
      "type": "function"
    },
    {
      "inputs": [
        {
          "internalType": "uint256",
          "name": "_x",
          "type": "uint256"
        }
      ],
      "name": "ternary",
      "outputs": [
        {
          "internalType": "uint256",
          "name": "",
          "type": "uint256"
        }
      ],
      "stateMutability": "pure",
      "type": "function"
    }
  ],
  "bytecode": "0x608060405234801561001057600080fd5b506101b1806100206000396000f3fe608060405234801561001057600080fd5b50600436106100365760003560e01c8063477e4a021461003b57806355278c5b1461006b575b600080fd5b61005560048036038101906100509190610124565b61009b565b6040516100629190610160565b60405180910390f35b61008560048036038101906100809190610124565b6100cb565b6040516100929190610160565b60405180910390f35b6000600a8210156100af57600190506100c6565b60148210156100c157601490506100c6565b600390505b919050565b6000600a82106100dc5760026100df565b60015b60ff169050919050565b600080fd5b6000819050919050565b610101816100ee565b811461010c57600080fd5b50565b60008135905061011e816100f8565b92915050565b60006020828403121561013a576101396100e9565b5b60006101488482850161010f565b91505092915050565b61015a816100ee565b82525050565b60006020820190506101756000830184610151565b9291505056fea264697066735822122093623608f285883450a41368b1b3c7b962adf58c6f2dad45468737e3b9d0b9f364736f6c63430008100033",
  "immutableReferences": {},
  "source": "// SPDX-License-Identifier: MIT\n\npragma solidity >=0.7.0 <0.9.0;\n\ncontract IfElse {\n    function example(uint _x) external pure returns (uint) {\n        if(_x < 10) {\n            return 1;\n        } else if(_x < 20) {\n            return 20;\n        }\n        return 3;\n    }\n\n    function ternary(uint _x) external pure returns (uint) {\n       return _x < 10 ? 1 : 2;\n    }\n}",
  "sourcePath": "/home/vigneshwaran/github/solidity-practice/contracts/IfElse-12.sol",
  "compiler": {
    "name": "solc",
    "version": "0.8.16+commit.07a7930e.Emscripten.clang"
  },
  "schemaVersion": "3.4.9",
  "updatedAt": "2022-08-16T18:23:39.894Z",
  "devdoc": {
    "kind": "dev",
    "methods": {},
    "version": 1
  },
  "userdoc": {
    "kind": "user",
    "methods": {},
    "version": 1
  }
}