{
  "contractName": "LocalVariables",
  "abi": [
    {
      "inputs": [],
      "name": "b",
      "outputs": [
        {
          "internalType": "bool",
          "name": "",
          "type": "bool"
        }
      ],
      "stateMutability": "view",
      "type": "function"
    },
    {
      "inputs": [],
      "name": "myAddress",
      "outputs": [
        {
          "internalType": "address",
          "name": "",
          "type": "address"
        }
      ],
      "stateMutability": "view",
      "type": "function"
    },
    {
      "inputs": [],
      "name": "myUint",
      "outputs": [
        {
          "internalType": "uint256",
          "name": "",
          "type": "uint256"
        }
      ],
      "stateMutability": "view",
      "type": "function"
    },
    {
      "inputs": [],
      "name": "foo",
      "outputs": [],
      "stateMutability": "nonpayable",
      "type": "function"
    }
  ],
  "bytecode": "0x6080604052607b6000556000600160006101000a81548160ff02191690831515021790555073cc733502b1b9bad00f4d4c1908067669b5a6e9c16001806101000a81548173ffffffffffffffffffffffffffffffffffffffff021916908373ffffffffffffffffffffffffffffffffffffffff16021790555034801561008457600080fd5b506102cc806100946000396000f3fe608060405234801561001057600080fd5b506004361061004c5760003560e01c806306540f7e1461005157806326b85ee11461006f5780634df7e3d01461008d578063c2985578146100ab575b600080fd5b6100596100b5565b6040516100669190610186565b60405180910390f35b6100776100bb565b60405161008491906101e2565b60405180910390f35b6100956100df565b6040516100a29190610218565b60405180910390f35b6100b36100f2565b005b60005481565b60018054906101000a900473ffffffffffffffffffffffffffffffffffffffff1681565b600160009054906101000a900460ff1681565b6000601690506001816101059190610262565b905060ff60008190555060018060006101000a81548160ff02191690831515021790555060026001806101000a81548173ffffffffffffffffffffffffffffffffffffffff021916908373ffffffffffffffffffffffffffffffffffffffff16021790555050565b6000819050919050565b6101808161016d565b82525050565b600060208201905061019b6000830184610177565b92915050565b600073ffffffffffffffffffffffffffffffffffffffff82169050919050565b60006101cc826101a1565b9050919050565b6101dc816101c1565b82525050565b60006020820190506101f760008301846101d3565b92915050565b60008115159050919050565b610212816101fd565b82525050565b600060208201905061022d6000830184610209565b92915050565b7f4e487b7100000000000000000000000000000000000000000000000000000000600052601160045260246000fd5b600061026d8261016d565b91506102788361016d565b92508282019050808211156102905761028f610233565b5b9291505056fea26469706673582212201e16486c7c9c06334e451f9f43723b8d581357c9410b402687c9eb96bbf4147f64736f6c63430008100033",
  "immutableReferences": {},
  "source": "// SPDX-License-Identifier: MIT\n\npragma solidity >=0.7.0 <0.9.0;\n\n// state variable store the value on the block chain\n\ncontract LocalVariables {\n    // state variable - available after deployment also, stored in blockchain\n    uint256 public myUint = 123;\n    bool public b = false;\n    address public myAddress = 0xCC733502B1b9bAD00F4d4C1908067669B5a6e9c1;\n\n    function foo() external {\n        // local variable\n        uint256 myLocal = 22;\n        myLocal += 1;\n\n        myUint = 255;\n        b = true;\n        myAddress = address(2);\n    }\n}\n",
  "sourcePath": "/home/vigneshwaran/github/solidity-practice/contracts/LocalVariables-6.sol",
  "compiler": {
    "name": "solc",
    "version": "0.8.16+commit.07a7930e.Emscripten.clang"
  },
  "schemaVersion": "3.4.9",
  "updatedAt": "2022-08-16T18:23:39.895Z",
  "devdoc": {
    "kind": "dev",
    "methods": {},
    "version": 1
  },
  "userdoc": {
    "kind": "user",
    "methods": {},
    "version": 1
  }
}