{
  "contractName": "Ownable",
  "abi": [
    {
      "inputs": [],
      "stateMutability": "nonpayable",
      "type": "constructor"
    },
    {
      "inputs": [],
      "name": "owner",
      "outputs": [
        {
          "internalType": "address",
          "name": "",
          "type": "address"
        }
      ],
      "stateMutability": "view",
      "type": "function"
    },
    {
      "inputs": [
        {
          "internalType": "address",
          "name": "_newOwner",
          "type": "address"
        }
      ],
      "name": "setOwner",
      "outputs": [],
      "stateMutability": "nonpayable",
      "type": "function"
    },
    {
      "inputs": [],
      "name": "onlyOwnerCanCallThisFunc",
      "outputs": [],
      "stateMutability": "nonpayable",
      "type": "function"
    },
    {
      "inputs": [],
      "name": "anyOneCanCall",
      "outputs": [],
      "stateMutability": "nonpayable",
      "type": "function"
    }
  ],
  "bytecode": "0x608060405234801561001057600080fd5b50336000806101000a81548173ffffffffffffffffffffffffffffffffffffffff021916908373ffffffffffffffffffffffffffffffffffffffff16021790555061046e806100606000396000f3fe608060405234801561001057600080fd5b506004361061004c5760003560e01c806313af4035146100515780632f18593a1461006d5780634bd0c0d7146100775780638da5cb5b14610081575b600080fd5b61006b600480360381019061006691906102f8565b61009f565b005b6100756101df565b005b61007f61026f565b005b610089610271565b6040516100969190610334565b60405180910390f35b60008054906101000a900473ffffffffffffffffffffffffffffffffffffffff1673ffffffffffffffffffffffffffffffffffffffff163373ffffffffffffffffffffffffffffffffffffffff161461012d576040517f08c379a0000000000000000000000000000000000000000000000000000000008152600401610124906103ac565b60405180910390fd5b600073ffffffffffffffffffffffffffffffffffffffff168173ffffffffffffffffffffffffffffffffffffffff160361019c576040517f08c379a000000000000000000000000000000000000000000000000000000000815260040161019390610418565b60405180910390fd5b806000806101000a81548173ffffffffffffffffffffffffffffffffffffffff021916908373ffffffffffffffffffffffffffffffffffffffff16021790555050565b60008054906101000a900473ffffffffffffffffffffffffffffffffffffffff1673ffffffffffffffffffffffffffffffffffffffff163373ffffffffffffffffffffffffffffffffffffffff161461026d576040517f08c379a0000000000000000000000000000000000000000000000000000000008152600401610264906103ac565b60405180910390fd5b565b565b60008054906101000a900473ffffffffffffffffffffffffffffffffffffffff1681565b600080fd5b600073ffffffffffffffffffffffffffffffffffffffff82169050919050565b60006102c58261029a565b9050919050565b6102d5816102ba565b81146102e057600080fd5b50565b6000813590506102f2816102cc565b92915050565b60006020828403121561030e5761030d610295565b5b600061031c848285016102e3565b91505092915050565b61032e816102ba565b82525050565b60006020820190506103496000830184610325565b92915050565b600082825260208201905092915050565b7f6e6f74206f776e65720000000000000000000000000000000000000000000000600082015250565b600061039660098361034f565b91506103a182610360565b602082019050919050565b600060208201905081810360008301526103c581610389565b9050919050565b7f696e76616c696420616464726573730000000000000000000000000000000000600082015250565b6000610402600f8361034f565b915061040d826103cc565b602082019050919050565b60006020820190508181036000830152610431816103f5565b905091905056fea26469706673582212207d095a0a2425a13c28c5c87afdca61c452c248cd3d646de9f140465ac1ffc48564736f6c63430008100033",
  "immutableReferences": {},
  "source": "// SPDX-License-Identifier: MIT\n\npragma solidity >=0.7.0 <0.9.0;\n\n\ncontract Ownable {\n    address public owner;\n\n    constructor() {\n        owner = msg.sender;\n    }\n\n    modifier onlyOwner() {\n        require(msg.sender == owner, \"not owner\");\n        _;\n    }\n\n    function setOwner(address _newOwner) external onlyOwner {\n        require(_newOwner != address(0), \"invalid address\");\n        owner = _newOwner;\n    }\n\n    function onlyOwnerCanCallThisFunc() external onlyOwner {\n\n    }\n\n    function anyOneCanCall() external {\n        \n    }\n}",
  "sourcePath": "/home/vigneshwaran/github/solidity-practice/contracts/Ownable-17.sol",
  "compiler": {
    "name": "solc",
    "version": "0.8.16+commit.07a7930e.Emscripten.clang"
  },
  "schemaVersion": "3.4.9",
  "updatedAt": "2022-08-16T18:23:39.895Z",
  "devdoc": {
    "kind": "dev",
    "methods": {},
    "version": 1
  },
  "userdoc": {
    "kind": "user",
    "methods": {},
    "version": 1
  }
}