{
  "contractName": "ValueTypes",
  "abi": [
    {
      "inputs": [],
      "name": "addr",
      "outputs": [
        {
          "internalType": "address",
          "name": "",
          "type": "address"
        }
      ],
      "stateMutability": "view",
      "type": "function"
    },
    {
      "inputs": [],
      "name": "b",
      "outputs": [
        {
          "internalType": "bool",
          "name": "",
          "type": "bool"
        }
      ],
      "stateMutability": "view",
      "type": "function"
    },
    {
      "inputs": [],
      "name": "b32",
      "outputs": [
        {
          "internalType": "bytes32",
          "name": "",
          "type": "bytes32"
        }
      ],
      "stateMutability": "view",
      "type": "function"
    },
    {
      "inputs": [],
      "name": "d",
      "outputs": [
        {
          "internalType": "uint256",
          "name": "",
          "type": "uint256"
        }
      ],
      "stateMutability": "view",
      "type": "function"
    },
    {
      "inputs": [],
      "name": "e",
      "outputs": [
        {
          "internalType": "int256",
          "name": "",
          "type": "int256"
        }
      ],
      "stateMutability": "view",
      "type": "function"
    },
    {
      "inputs": [],
      "name": "f",
      "outputs": [
        {
          "internalType": "int256",
          "name": "",
          "type": "int256"
        }
      ],
      "stateMutability": "view",
      "type": "function"
    },
    {
      "inputs": [],
      "name": "g",
      "outputs": [
        {
          "internalType": "uint8",
          "name": "",
          "type": "uint8"
        }
      ],
      "stateMutability": "view",
      "type": "function"
    },
    {
      "inputs": [],
      "name": "h",
      "outputs": [
        {
          "internalType": "uint8",
          "name": "",
          "type": "uint8"
        }
      ],
      "stateMutability": "view",
      "type": "function"
    },
    {
      "inputs": [],
      "name": "maxInt",
      "outputs": [
        {
          "internalType": "int256",
          "name": "",
          "type": "int256"
        }
      ],
      "stateMutability": "view",
      "type": "function"
    },
    {
      "inputs": [],
      "name": "minInt",
      "outputs": [
        {
          "internalType": "int256",
          "name": "",
          "type": "int256"
        }
      ],
      "stateMutability": "view",
      "type": "function"
    }
  ],
  "bytecode": "0x608060405260016000806101000a81548160ff02191690831515021790555060008060016101000a81548160ff02191690831515021790555060176001557ffffffffffffffffffffffffffffffffffffffffffffffffffffffffffffffc8a60025561a7866003557f80000000000000000000000000000000000000000000000000000000000000006004557f7fffffffffffffffffffffffffffffffffffffffffffffffffffffffffffffff6005556000600660006101000a81548160ff021916908360ff16021790555060ff600660016101000a81548160ff021916908360ff160217905550738f03f1a3f10c05e7cccf75c1fd10168e06659be7600660026101000a81548173ffffffffffffffffffffffffffffffffffffffff021916908373ffffffffffffffffffffffffffffffffffffffff1602179055507f746573740000000000000000000000000000000000000000000000000000000060001b60075534801561016f57600080fd5b506103eb8061017f6000396000f3fe608060405234801561001057600080fd5b506004361061009e5760003560e01c80638a054ac2116100665780638a054ac214610139578063b8c9d36514610157578063e2179b8e14610175578063f8aab23814610193578063ffae15ba146101b15761009e565b806326121ff0146100a35780634df7e3d0146100c1578063767800de146100df5780637a4c2571146100fd5780637e4e14cc1461011b575b600080fd5b6100ab6101cf565b6040516100b89190610269565b60405180910390f35b6100c96101d5565b6040516100d6919061029f565b60405180910390f35b6100e76101e6565b6040516100f491906102fb565b60405180910390f35b61010561020c565b6040516101129190610269565b60405180910390f35b610123610212565b6040516101309190610269565b60405180910390f35b610141610218565b60405161014e919061032f565b60405180910390f35b61015f61021e565b60405161016c9190610366565b60405180910390f35b61017d610231565b60405161018a9190610366565b60405180910390f35b61019b610244565b6040516101a8919061039a565b60405180910390f35b6101b961024a565b6040516101c69190610269565b60405180910390f35b60035481565b60008054906101000a900460ff1681565b600660029054906101000a900473ffffffffffffffffffffffffffffffffffffffff1681565b60055481565b60045481565b60015481565b600660019054906101000a900460ff1681565b600660009054906101000a900460ff1681565b60075481565b60025481565b6000819050919050565b61026381610250565b82525050565b600060208201905061027e600083018461025a565b92915050565b60008115159050919050565b61029981610284565b82525050565b60006020820190506102b46000830184610290565b92915050565b600073ffffffffffffffffffffffffffffffffffffffff82169050919050565b60006102e5826102ba565b9050919050565b6102f5816102da565b82525050565b600060208201905061031060008301846102ec565b92915050565b6000819050919050565b61032981610316565b82525050565b60006020820190506103446000830184610320565b92915050565b600060ff82169050919050565b6103608161034a565b82525050565b600060208201905061037b6000830184610357565b92915050565b6000819050919050565b61039481610381565b82525050565b60006020820190506103af600083018461038b565b9291505056fea2646970667358221220e33e741d7f730ca2ff1e683d1e0820105ae3f6f1910cb79a9da9ff6b21b32c2764736f6c63430008100033",
  "immutableReferences": {},
  "source": "// SPDX-License-Identifier: MIT\n\npragma solidity >=0.7.0 <0.9.0;\n\ncontract ValueTypes {\n    bool public b = true;\n    bool private c = false;\n\n    uint public d = 23; // unit = uint256 0 to 2**256 - 1\n                        //        uint8 0 to 2**8 - 1\n                        //        uint16 0 to 2**16 - 1 \n\n    int public e = -886;\n    int public f = 42886;  // int = int256 -2**255 to 2**256 - 1    \n\n    int public minInt = type(int).min;\n    int public maxInt = type(int).max;\n    uint8 public g = type(uint8).min;\n    uint8 public h = type(uint8).max;\n    address public addr = 0x8F03f1a3f10c05E7CCcF75C1Fd10168e06659Be7;\n    bytes32 public b32 = 0x7465737400000000000000000000000000000000000000000000000000000000;\n}\n\n\n// https://youtu.be/8Tj-Th_S7NU?list=PLO5VPQH6OWdVQwpQfw9rZ67O6Pjfo6q-p",
  "sourcePath": "/home/vigneshwaran/github/solidity-practice/contracts/DataTypesValues-3.sol",
  "compiler": {
    "name": "solc",
    "version": "0.8.16+commit.07a7930e.Emscripten.clang"
  },
  "schemaVersion": "3.4.9",
  "updatedAt": "2022-08-16T18:23:39.885Z",
  "devdoc": {
    "kind": "dev",
    "methods": {},
    "version": 1
  },
  "userdoc": {
    "kind": "user",
    "methods": {},
    "version": 1
  }
}