{
  "contractName": "Var",
  "abi": [
    {
      "inputs": [],
      "name": "MY_ADDRESS",
      "outputs": [
        {
          "internalType": "address",
          "name": "",
          "type": "address"
        }
      ],
      "stateMutability": "view",
      "type": "function"
    }
  ],
  "bytecode": "0x608060405273dac17f958d2ee523a2206206994597c13d831ec76000806101000a81548173ffffffffffffffffffffffffffffffffffffffff021916908373ffffffffffffffffffffffffffffffffffffffff16021790555034801561006457600080fd5b5060f7806100736000396000f3fe6080604052348015600f57600080fd5b506004361060285760003560e01c80633a756cec14602d575b600080fd5b60336047565b604051603e919060a8565b60405180910390f35b60008054906101000a900473ffffffffffffffffffffffffffffffffffffffff1681565b600073ffffffffffffffffffffffffffffffffffffffff82169050919050565b6000609482606b565b9050919050565b60a281608b565b82525050565b600060208201905060bb6000830184609b565b9291505056fea2646970667358221220b1dbb3deae522ff316e8f173cb7a54af89b9cb5ccef3d57f113c08ba0a93c55e64736f6c63430008100033",
  "immutableReferences": {},
  "source": "// SPDX-License-Identifier: MIT\n\npragma solidity >=0.7.0 <0.9.0;\n\ncontract Constants {\n    address public constant MY_ADDRESS = 0xdAC17F958D2ee523a2206206994597C13D831ec7; // 21420 gas\n    uint public constant MY_UNIT = 222;\n}\n\ncontract Var {\n    address public  MY_ADDRESS = 0xdAC17F958D2ee523a2206206994597C13D831ec7; // 23553 gas\n}",
  "sourcePath": "/home/vigneshwaran/github/solidity-practice/contracts/Constants-11.sol",
  "compiler": {
    "name": "solc",
    "version": "0.8.16+commit.07a7930e.Emscripten.clang"
  },
  "schemaVersion": "3.4.9",
  "updatedAt": "2022-08-16T18:23:39.884Z",
  "devdoc": {
    "kind": "dev",
    "methods": {},
    "version": 1
  },
  "userdoc": {
    "kind": "user",
    "methods": {},
    "version": 1
  }
}